:100000008C0300205B4D00006F4700006F4700002D
:100010006F4700006F4700006F47000000000000BE
:100020000000000000000000000000009F470000EA
:100030009F470000000000009F4700004547000068
:100040009F4700009F4700009F470000C7470000F0
:100050009F4700009F470000F14700001B48000039
:10006000454800006F480000994800009F47000085
:100070009F4700009F4700009F4700009F470000E8
:100080009F4700009F470000C14800009F470000B5
:100090009F4700009F4700009F470000EB4800007B
:1000A00017490000434900006F4900009B490000C8
:1000B000C5490000EF490000194A0000454A000008
:1000C000714A00009D4A0000C94A0000F14A000040
:1000D000194B0000434B00006D4B0000974B000094
:1000E000C14B0000ED4B0000174C00000000000069
:1000F0000000000000000000000000000000000000
:1001000000000000000000003F4C0000674C0000B1
:100110008F4C0000B74C0000DF4C0000074D000082
:100120009F4700009F4700009F4700009F47000037
:100130009F4700009F4700009F4700009F47000027
:100140009F4700009F4700009F4700002F4D000081
:1001500088050000FFFF1E2D2D2D204D656372695F
:1001600073702D5374656C6C6172697320436F7288
:1001700065202D2D2D0007B59048002B09D000F0EB
:100180003DF800F043F800F028F8426028210160B3
:10019000F3E707BD00B5894800230168282905D188
:1001A000426800F004F800F04EF8F6E700BD03B531
:1001B00047F8046D160047F8046D1E0008B400F0FF
:1001C000B3FF08BC013347F8046D7D4E47F8046D5A
:1001D00040F2612604F002F903BD03B5013B47F884
:1001E000046D1E0008B400F089FF08BC320047F817
:1001F000046D4FF4005604F0F1F803BD03B57148E7
:1002000001681E2901D000F034F803BD8169016244
:10021000016981618168016101688160C169416230
:100220004169C161C16841614168C1601E210160CD
:1002300070470FB5614801681E2903D0FFF7DEFF44
:10024000FFF7E4FF0FBD02B581680160C16841603E
:1002500000E002B5016981604169C16081690161A5
:10026000C1694161016A8161416AC1611E21016206
:1002700002BD08B501681E220260082901D20B00E8
:1002800004E0282909D1436800F05BF847F8046DC1
:100290004D4E56EA033602F08EFF08BD00B500F061
:1002A00009F800F00CF800F00FF800F012F800F078
:1002B00015F800BD0FB54348FFF7DBFF0FBD0FB5C5
:1002C0004248FFF7D6FF0FBD0FB54148FFF7D1FFFA
:1002D0000FBD0FB53F48FFF7CCFF0FBD0FB5374837
:1002E0000168062202601E2906D147F8046D4CF60B
:1002F000407602F02FFF15E0282909D1436847F81E
:10030000046D1E0047F8046D062602F0F3FB09E0B9
:10031000062907D047F8046D44F20666C9000E436B
:1003200002F018FF00F001F80FBD24481E21016201
:10033000816101618160C1620621016000218162E9
:10034000704707B547F8046D1E0000F045F847F800
:10035000046D1E0002F0CEFB07BD07B5C16A282957
:1003600004D1016B994201D1002307BD0168002926
:1003700018D08168002915D00169002912D081693F
:1003800000290FD0016A00290CD0036347F8046DDF
:100390001E0047F8046D002602F0ACFB2821C16264
:1003A000002307BD47F8046D1E0000F015F847F85C
:1003B000046D1E0002F09EFB07BD00002800002017
:1003C000B00E000048000020040D47F84000002057
:1003D000380000203000002037B5364801688268B8
:1003E00003698469056A062000F00EF8032000F016
:1003F0000BF8022000F008F8012000F005F80023B7
:100400002C481E21C16237BD814209D0824207D0EB
:10041000834205D0844203D0854201D0030037BD1A
:10042000704747F8046D4CF6007600B581581E29D8
:1004300005D1FFF7D1FF8350012199400E4300BD44
:1004400000B501681E2904D10022FFF7EAFF02F07F
:1004500081FE00BD00B581681E2907D10822FFF783
:10046000E0FF0022FFF7E1FF02F074FE00BD00B5DF
:1004700001691E290AD11022FFF7D3FF0822FFF7D6
:10048000D4FF0022FFF7D1FF02F064FE00BD00B5EB
:1004900081691E290DD11822FFF7C3FF1022FFF733
:1004A000C4FF0822FFF7C1FF0022FFF7BEFF02F0E2
:1004B00051FE00BD2800002000B50168282904D1A4
:1004C0004368FFF73EFF0360190000BD00B5816877
:1004D000282904D1C368FFF734FF8360190000BDE9
:1004E00000B50169282904D14369FFF72AFF036198
:1004F000190000BD3EB5826803698469056A9A42A5
:1005000003D0A24201D0AA420AD1072A08D847F84C
:10051000046DD600FFF760FF1E43836002F01AFEF1
:100520003EBD3EB50168826803698469056A9142EF
:1005300006D0994204D0A14202D0A94200D03EBDCB
:1005400047F8046DCE00FFF747FF1E43036002F03B
:1005500001FE3EBD00B5FFF776FEFFF76AFEFFF72E
:100560003BFF036000BD01B506480368013308D0B6
:100570000023DB43036047F8046D4BF2005602F0A2
:10058000E9FD01BDD84F0020AC0500004202043255
:1005900064757000386847F8046D043F3860704730
:1005A00000B500F0D7FC00F0D5FC00BDCA05000086
:1005B0006202053264726F70043740CF704700B535
:1005C00000F078FC00F076FC00BD1006000044024C
:1005D00005327377617007CF043F386047F8046DC8
:1005E000043F3A600E00704700B5FFF750FF026805
:1005F0000369036002614268436943604261826843
:10060000836983608261C268C369C360C26100BDDF
:1006100038060000620204326E69700007CF043FA2
:100620003860704700B5FFF732FFFFF7DDFFFFF7D7
:100630000AFEFFF708FE00BD520600004400053226
:100640006F766572B86847F8046D043F3860FE68DD
:10065000704776060000440005327475636B07CF5F
:10066000043F386047F8046D043F3A60043F396046
:10067000043F386070479806000046000432726FED
:1006800074003868B9683A69B86039613A60796865
:100690007E60FE68F9607047BA06000046000532C9
:1006A0002D726F743868B9683A6938613960BA6018
:1006B000F968FE607E6879607047E20600002002FB
:1006C00003323E7201CF01B440B440CF704700B551
:1006D000FFF749FF00F011FC00F0B1FC00F0AFFCA7
:1006E00000BD0E07000020020332723E47F8046D81
:1006F00040BC01BC043F3860704700B5FFF733FFD2
:1007000000F0B9FC00F0B7FC00F0F7FB00BD3E07BD
:10071000000020020332724047F8046D019E47F842
:10072000046D009E704700B5FFF71DFF47F8046D8C
:1007300049F6010603F007FA03F001FA00BD640769
:100740000000200206327264726F700002B07047BF
:1007500000B5FFF708FF47F8046D4BF2020602F000
:10076000F9FC00BD7C07000042000364322F3868AA
:10077000F107761040080843386070479207000080
:1007800062020364322A3868001876413860704784
:1007900017E0AC0700004200046473687200386818
:1007A000F10776084008084338607047F8070000F2
:1007B0006202046473686C0038680018764138601F
:1007C000704700B5FFF746FEFFF776FEFFF7A9FE7C
:1007D00000F093FBFFF770FEFFF7A3FE47F8046DF0
:1007E000402601F069FC00F088FB47F8046D44F2F4
:1007F000401601F061FC00BD0A08000042000464DC
:1008000061627300002E07D4704728080000420080
:1008100007646E656761746538680021C043F643FC
:1008200001304E413860704778080000640202646D
:100830002D0007CF121AB1410E00043F3A607047F5
:1008400000B5FFF724FE00F0ADFBFFF735FEFFF724
:1008500068FE00F052FBFFF72FFEFFF762FEFFF786
:10086000C3FE01F093FB00F0B9FB47F8046D44F2BE
:10087000801600F045FD00BDC60800006402026459
:100880002B0007CF12184E41043F3A60704700B565
:10089000FFF7FDFD00F086FBFFF70EFEFFF741FEC0
:1008A00000F02BFBFFF708FEFFF73BFEFFF79CFE77
:1008B00001F051FB00F092FB47F8046D44F2401642
:1008C00000F022FD00BDF0080000610203733E64E9
:1008D00047F8046DF617704700B500F0D9FAFFF736
:1008E00020FE47F8046D41F2C07601F0E5FB00BD43
:1008F0004E090000620203756D2A3868A0FB0606E7
:100900003860704747F8046DDFF8286500B5FFF7D9
:10091000A1FDFFF7D1FDFFF7D9FD01680E43816806
:1009200056EA0146FFF78FFCFFF78DFCFFF781FCCD
:10093000FFF752FD036056EA0336FFF77AFCFFF734
:100940004BFD036056EA032602F035FC00BD6C093E
:1009500000006202026D2A00386880FB06063860DB
:10096000704747F8046DDFF8D064CFE7AA090000AC
:1009700044000375642A07CF564341437618010C9F
:10098000130C59437618010C80B292B25143434381
:1009900050430022C91852411204B6180A04090C27
:1009A00080184E41043F386070473C0A0000440004
:1009B0000475646D2A0010B5002447F8046D7E6844
:1009C00047F8046D3E69FFF798FF310040CF3000D3
:1009D00040CF47F8046D3E6847F8046DFE6803B4E5
:1009E000FFF78BFF03BC330040CF320040CF47F806
:1009F000046D3E6847F8046D3E690FB4FFF77DFF54
:100A00000FBC9219634140CF89196241634140CFC5
:100A100047F8046D7E6847F8046DFE680FB4FFF771
:100A20006CFF0FBC9219634140CF89196241634149
:100A300040CF1E003A607960B86010BD5E0A0000C9
:100A40004300022A2F0000B540B440CFFFF784FFD7
:100A500047F8046D40BC00F04CF8043700BD800A34
:100A600000004300052A2F6D6F6400B540B440CFED
:100A7000FFF772FF47F8046D40BC00F03AF800BD84
:100A8000A20A0000430003752A2F00B540B440CFEE
:100A9000FFF733FF47F8046D40BC00F01BF8043744
:100AA00000BDC60A0000430006752A2F6D6F640062
:100AB00000B540B440CFFFF720FF47F8046D40BCBD
:100AC00000F008F800BDE60A0000430006756D2F2F
:100AD0006D6F640000B547F8046D002600F019F84A
:100AE00040CF043700BD040B00004300056D2F6D9F
:100AF0006F6400B547F8046DF61700F032F840CF88
:100B0000043700BD560B000044000675642F6D6F5E
:100B1000640030B4002300227968B86835003C686E
:100B200040264000494152415B41AB4202D804D3C8
:100B3000A24202D3121BAB410130013EF1D10E00A3
:100B400038607B60BA6030BC704730B400237A688C
:100B5000B9680020E2E7CC0B0000440005642F6D6B
:100B60006F6400B5F01719D0FFF756FEFFF733FD9D
:100B7000F0170CD0FFF750FEFFF72DFDFFF7C9FF70
:100B8000FFF729FDFFF748FEFFF725FD00BDFFF742
:100B900022FDFFF7BEFFFFF73FFE00BDFFF71BFD85
:100BA000F0170ED0FFF738FEFFF715FDFFF7B1FF86
:100BB000FFF732FEFFF70FFDFFF72EFEFFF70BFDED
:100BC00000BDFFF708FDFFF7A4FF00BDE20B00002A
:100BD000440002642F0000B5FFF7C3FFFFF71EFDBE
:100BE00000BD2A0C0000440002662A0000B5F01780
:100BF0000DD0FFF711FEFFF7EEFCF0170DD0FFF759
:100C00000BFEFFF7D8FE40CF01CF386000BDFFF7E5
:100C1000E2FCF017F5D0FFF7FFFDFFF7CCFE40CF69
:100C200001CF3860FFF7F8FD00BD760C00004400EE
:100C300002662F0000B5F0170ED0FFF7EDFDFFF7AD
:100C4000CAFCF0170ED0FFF7E7FDFFF7C4FCFFF773
:100C50007CFFFFF7E3FC00BDFFF7BDFCF017F4D00D
:100C6000FFF7DAFDFFF7B7FCFFF76FFFFFF7D4FDE3
:100C7000FFF7D4FC00BDBE0C0000200202322100B0
:100C800006CF3160726040CF704700B5FFF7EFFBD1
:100C90000168426806B400F002FEFFF7CAFA06BC1B
:100CA0000160282906D047F8046D46F2400600F09E
:100CB000FAFD00BD0432426000F0F1FD00BD080DF8
:100CC0000000200202324000043F7068386036683D
:100CD000704700B500F0DCF8016828290AD047F811
:100CE000046D46F6400600F0BBFD00F006F900F08A
:100CF000B3FD00BD41680431416000F0ADFD00F07E
:100D0000FCF800F0A9FD00BD280D000044000364BC
:100D1000753C07CF8E4204D801D1904201D80026FD
:100D200070470026F6437047480D000044000364F6
:100D3000753E07CFB14204D801D1824201D80026C6
:100D400070470026F6437047680D000044000264B7
:100D50003C0007CF8E4204DC01D1904201DC00262A
:100D600070470026F6437047880D00004400026477
:100D70003E0007CFB14204DC01D1824201DC0026F3
:100D800070470026F6437047A40D0000620203641A
:100D9000303C0437F617704700B500F0C1F800F09A
:100DA0003DFB00BDCC0D000062020364303D01CF6D
:100DB0000643013EB641704700B547F8046D44F262
:100DC000003600F0A1FA00F003FB00BDF20D0000B8
:100DD000440203643C3E07CF50404E400643013E70
:100DE000B641F643704700B500F015F800F004FB7B
:100DF00000BD3C0E0000440202643D0007CF50409D
:100E00004E400643013EB641704700B500F003F87E
:100E100000F0DEFA00BD00B5FFF739FB00F0C2F8C4
:100E200000F0C4F900F0DAF800F0C0F900F0B1F910
:100E300000BD00000000A0FB000080FB4E0E000083
:100E400020000373704047F8046D3E0070475E0E4B
:100E50000000200003737021370040CF7047700EF0
:100E6000000020000372704047F8046D6E46704722
:100E7000800E0000200003727021B54640CF7047FD
:100E8000A40E000061020364757047F8046D70479A
:100E900006B5FFF7D5FA01684268FFF7CAF90160A5
:100EA000426006BDD00E000061020464726F7000E3
:100EB00040CF704700B501681E2906D147F8046D80
:100EC00043F2047602F046F900BDFFF7BCF900BD1D
:100ED000E60E00006100043F64757000002E01D032
:100EE00047F8046D7047120F0000620204737761C7
:100EF000700039683E600E0070470CB5FFF7AAFA23
:100F000002688368036082604268C3684360C260AD
:100F10000CBD400F00006202036E69700437704719
:100F200000B5FFF78DFA81681E2902D0FFF791F90D
:100F300000BD47F8046D43F2047602F00BF900BDE2
:100F4000680F00006202046F7665720047F8046D56
:100F50007E68704700B5FFF77DFA8168C268FFF7C9
:100F600068F90160426000BD8E0F000062020474E7
:100F700075636B0001CF083F7E603860704700B535
:100F8000FFF768FAFFF784FF00F028F800BDC40FF0
:100F90000000630203726F7403CF083F78603E6005
:100FA0000E0070470EB5FFF762FA016882680369A8
:100FB0008160026103604168C2684369C160426147
:100FC00043600EBDE80F00006302042D726F7400D1
:100FD00003CF083F7E6039600600704700B5FFF719
:100FE000E1FFFFF7DFFF00BDFA0F000020000470F3
:100FF00069636B0057F8266070471210000000000C
:101000000564657074684F49C91B47F8046D8E0804
:1010100070472E100000000006726465707468004E
:1010200047F8046D6E464849891B8E087047641066
:1010300000002002023E720040B440CF704700B56D
:10104000FFF791FAFFF7FCF9FFF736FA47F8046D5E
:101050004BF2004601228A40164302F07BF8FFF76C
:10106000F2F800BD9A100000200202723E0047F81C
:10107000046D40BC704700B5FFF775FAFFF7D9F86B
:10108000FFF7AAF9036047F8046D4BF6004601220A
:101090009A40164302F05EF800BDB810000020022E
:1010A0000272400047F8046D009E704700B5FFF7DC
:1010B0005AFA02F044FD00BDDC1000002002057267
:1010C00064726F7001B0704700B5FFF74CFA47F8D3
:1010D000046D4BF2010602F03DF800BDF010000077
:1010E000200005727069636BB6006E443668704705
:1010F0001C110000000004726F6C6C00002E01D106
:1011000040CF7047B0003958C019031F1A680260F9
:101110000438013EF9D104370E0070474C1100002D
:101120000000052D726F6C6C002E01D140CF70470E
:10113000386839464A680A600431013EFAD10860CD
:1011400040CF70478C0200208C0300206611000005
:10115000620203616E6401CF0640704747F8046D78
:1011600044F20006D0E0821100006202036269636B
:1011700001CFB0430600704747F8046D44F2803653
:10118000BEE09C1100006202026F720001CF0643B4
:10119000704747F8046D44F20036B5E0B611000020
:1011A000620203786F7201CF4640704747F8046DC2
:1011B00044F24006A8E0CE1100006202012A01CFED
:1011C0004643704747F8046D44F240369CE00212F3
:1011D0000000610203636C7AB6FA86F6704700B5C8
:1011E000FFF72EF947F8046D704EFFF765F90E43CF
:1011F00056EA0146FFF7AEF956EA032601F0DBFF97
:1012000000BD12120000610003726F725FEA760681
:10121000704724120000610003726F6CB61956F11A
:10122000000670475C120000620207617273686911
:10123000667401CF30410600704700B547F8046D71
:1012400044F2001647F8046D41F20006FFF702F978
:1012500041681F292AD91F21416027E0861200001A
:101260006202067273686966740001CFF04006007E
:10127000704700B547F8046D44F2C00647F8046DA6
:1012800040F6000612E0C01300006202066C7368AC
:101290006966740001CFB0400600704700B547F89A
:1012A000046D44F2800647F8046D0026FFF7D2F87B
:1012B0000168282903D040CF00F022F800BD043790
:1012C0004168FEF7C0FF002901D140CF00BD1F29B2
:1012D0000AD889010E430268D2001643FFF73AF993
:1012E0001E4301F037FF00BD40CFFFF733F947F849
:1012F000046D42F200061B021E4301F02BFF00BDED
:101300000FB5FFF7A7F80CE00FB5FFF7A3F80168DA
:10131000062901D1FFF7F1FD8268282A01D1FFF7E4
:10132000ECFDFFF7D3F8016828291ED147F8046DBA
:10133000466801F02BFB02CF002E40CF15D0B6F54A
:10134000804F01D11A4E1EE044F24002964201D174
:10135000184E18E0B6F5864F01D1174E13E04FF442
:101360008742964201D1154E0DE0FFF7C3F8FFF713
:10137000A3F8C90082680E43164301F0EBFEFEF7A6
:1013800062FF0FBD0FB50E43816856EA0146FEF7B6
:101390005AFFFEF758FFFEF74CFFFFF71DF80360FA
:1013A00056EA032601F007FF0FBD000080F0B0FAF7
:1013B000000010F0000090F0000050F0000030F04D
:1013C000E6130000610202303D00013EB641704765
:1013D00000B500F0FAF800F02CFEFEF734FF4FF4F1
:1013E0005241816200BD0E140000610203303C3E98
:1013F000013EB641F643704700B500F0E6F800F054
:1014000018FEFEF720FF4FF45341816200BD3614F1
:101410000000610202303C00F617704700B500F092
:10142000D4F847F8046D41F2C07600F045FE4FF461
:101430005541816200BD4C14000060000474727557
:10144000650047F8046D0026F643704760140000FD
:1014500060000566616C736547F8046D002670478F
:10146000861400004202023E3D0001CFB042EADA9B
:101470000026704747F8046D4DF6003647F8046DB6
:101480004DF60026ADE0AC1400004202023C3D00E7
:1014900001CFB042D7DD0026704747F8046D4DF606
:1014A000004647F8046D4DF600569AE0D01400004F
:1014B0004202013C01CFB042C5DB0026704747F82D
:1014C000046D4DF6002647F8046D4DF6003688E0B1
:1014D000F41400004202013E01CFB042B3DC00260A
:1014E000704747F8046D4DF6005647F8046D4DF609
:1014F000004676E01A150000620203753E3D01CFFA
:10150000861BB641F643704747F8046D4DF200362E
:1015100047F8046D4DF2002663E0401500006202BA
:1015200003753C3D01CF361AB641F643704747F884
:10153000046D4DF6000647F8046D4DF6001650E0B8
:1015400064150000620202753C0001CF861BB641A3
:10155000704747F8046D4DF2002647F8046D4DF2D0
:1015600000363EE088150000620202753E0001CFA1
:10157000361AB641704747F8046D4DF6001647F825
:10158000046D4DF600062CE0AA1500006202023C34
:101590003E0001CF811B361A0E43704747F8046D99
:1015A0004DF2000647F8046D1BE00A1700006202C6
:1015B000013D01CF361A013EB641704747F8046D30
:1015C0004DF2001647F8046D0BE000B5FEF738FF4A
:1015D000FEF770FEFEF773FEFEF776FEFEF776FF6F
:1015E00000BD00B5FEF736FFFEF764FEFEF767FEAE
:1015F000FEF776FF8268282A04D1FFF77EFC39685F
:101600003E600E4640CF016828291DD14168FF2960
:1016100007D847F8046D42F600060E4381680902B8
:101620001AE047F8046D466801F0B0F902CF002EC9
:1016300040CF09D047F8046D6A4E0E43816856EAE0
:10164000014601F0B8FD0AE0FEF736FF47F8046DE9
:1016500044F28026C90016430E4301F07BFDFEF7DD
:10166000F2FDFEF7F0FD866240CF00BD0FB55E488B
:10167000816A002935D047F8046D866A00218162AD
:10168000310AD52901D140CF0FBDFEF7D2FDFEF7BB
:10169000A3FE0360D22904D14FF4834600F00CFD71
:1016A0000FBDD32906D14FF4834600F005FD00F0AD
:1016B00016FD0FBD023601F04DFD47F8046D42F2F4
:1016C000000600F00FF800F00AFD47F8046D4EF236
:1016D000000601F03FFD47F8046D42F2000600F0FD
:1016E00001F80FBD00B5FEF7ABFEFEF71AFF01686B
:1016F00009020E4301F02EFD00BD00B5816A090A02
:10170000D52901D1FEF79FFD00BD28170000620218
:10171000036D696E01CFB04200DC0600704747F8E8
:10172000046D4DF600362DE0461700006202036D91
:10173000617801CFB04200DB0600704747F8046DC6
:101740004DF600461EE066170000620204756D61EA
:10175000780001CFB04200D30600704747F8046D0F
:101760004DF600060EE0EC170000620204756D698C
:101770006E0001CFB04200D80600704747F8046DF4
:101780004DF2003600B5FEF765FE016882689142B1
:1017900003D140CFFEF75DFD00BD062A01D1FFF762
:1017A000ACFB0168282901D1FFF7A7FBFEF7B9FEC2
:1017B000FEF78CFEC900026847F8046D44F28026EB
:1017C0000E43164301F0C6FC01F0C4FC47F8046D5B
:1017D00044F200660E43164301F0BCFCFEF739FDEF
:1017E00000BD0000000FB0F1280000202A18000002
:1017F0000000046D6F76650007B5310040CF320000
:1018000040CF00290FD0B2420DD006D3013E013A9D
:10181000705C50540139FBD105E03078107001360E
:1018200001320139F9D140CF07BD4C18000000004A
:101830000466696C6C00300040CF310040CF002955
:1018400002D001397054FCD140CF70478E1800008F
:10185000200201403668704747F8046D46F60006DE
:1018600000B5FEF7EDFD0368282B08D143687C2105
:10187000194009010E437C218B43FEF76EFDDB000E
:101880001E43FEF767FE1E4301F064FC00BDE61830
:1018900000002002012103CF30600E00704747F89E
:1018A000046D46F2000600B5FEF7D4FD0368282B50
:1018B00009D143687C21194009010E437C218B43E7
:1018C000FEF74BFD0360DB001E438368282B02D12B
:1018D000C368FEF736FD1E4301F03CFCFEF7B3FC87
:1018E000FEF7B1FC00BD1C1900002002022B2100F4
:1018F00003CF3268121832600E00704700B5FEF751
:10190000A9FDFFF7C5FAFFF7A7FFFFF74BFB00F0B4
:1019100022FBFFF7F2FAFFF7C2FF00BD60190000DB
:101920002002026840003688704700B5FEF788FD47
:1019300047F8046D48F600060368282B08D1436871
:101940003E21194049010E433E218B43FEF705FD20
:10195000DB001E43FEF7FEFD1E4301F0FBFB00BD56
:10196000BA19000020020268210003CF30800E0067
:10197000704700B5FEF76EFD47F8046D48F20006AB
:101980000368282B09D143683E21194049010E43C1
:101990003E218B43FEF7E1FC0360DB001E438368BE
:1019A000282B02D1C368FEF7CCFC1E4301F0D2FB0A
:1019B000FEF749FCFEF747FC00BDF01900002002CD
:1019C00003682B2103CF3288121832800E00704733
:1019D00000B5FEF73FFDFFF75BFAFFF7A6FFFFF745
:1019E000E1FA00F0B8FAFFF788FAFFF7C2FF00BD8E
:1019F000341A00002002026340003678704700B5B8
:101A0000FEF71EFD47F8046D47F600060368282B15
:101A100008D143681F21194089010E431F218B43C0
:101A2000FEF79BFCDB001E43FEF794FD1E4301F016
:101A300091FB00BD8E1A000020020263210003CF3B
:101A400030700E00704700B5FEF704FD47F8046DD6
:101A500047F200060368282B09D143681F2119406B
:101A600089010E431F218B43FEF777FC0360DB00E7
:101A70001E438368282B02D1C368FEF762FC1E4315
:101A800001F068FBFEF7DFFBFEF7DDFB00BDC41ACB
:101A90000000200203632B2103CF3278121832702A
:101AA0000E00704700B5FEF7D5FCFFF7F1F9FFF720
:101AB000A6FFFFF777FA00F04EFAFFF71EFAFFF7DE
:101AC000C2FF00BD041B00002002046269732100F4
:101AD00003CF3268024332600E00704700B5FEF754
:101AE000B9FCFFF7D5F9FFF7B7FEFFF75BFA47F848
:101AF000046D44F20036FFF707FCFFF7FEF9FFF72D
:101B0000CEFE00BD441B0000200204626963210078
:101B100003CF3268824332600E00704700B5FEF793
:101B200099FCFFF7B5F9FFF797FEFFF73BFA47F887
:101B3000046D44F28036FFF7E3FBFFF7DEF9FFF7B1
:101B4000AEFE00BD841B0000200204786F722100ED
:101B500003CF3268424032600E00704700B5FEF796
:101B600079FCFFF795F9FFF777FEFFF71BFA47F8C7
:101B7000046D44F24006FFF7C7FBFFF7BEF9FFF71D
:101B80008EFE00BDBA1B0000200204626974400092
:101B900001CF3668064018BF4FF0FF36704700B5DA
:101BA000FEF758FCFFF758FE47F8046D44F20006B4
:101BB000FFF7AAFBFFF720FC00BDFA1B0000200284
:101BC00005686269732103CF3288024332800E00B8
:101BD000704700B5FEF73EFCFFF75AF9FFF7A5FE88
:101BE000FFF7E0F947F8046D44F20036FFF78CFB8D
:101BF000FFF783F9FFF7BDFE00BD3A1C000020028D
:101C000005686269632103CF3288824332800E0007
:101C1000704700B5FEF71EFCFFF73AF9FFF785FEA7
:101C2000FFF7C0F947F8046D44F28036FFF768FB10
:101C3000FFF763F9FFF79DFE00BD7A1C000020024C
:101C40000568786F722103CF3288424032800E00DF
:101C5000704700B5FEF7FEFBFFF71AF9FFF765FEC8
:101C6000FFF7A0F947F8046D44F24006FFF74CFB7C
:101C7000FFF743F9FFF77DFE00BDB01C0000200216
:101C800005686269744001CF3688064018BF4FF07E
:101C9000FF36704700B5FEF7DDFBFFF746FE47F85D
:101CA000046D44F20006FFF72FFBFFF7A5FB00BD14
:101CB000F01C0000200205636269732103CF3278B3
:101CC000024332700E00704700B5FEF7C3FBFFF70A
:101CD000DFF8FFF794FEFFF765F947F8046D44F26B
:101CE0000036FFF711FBFFF708F9FFF7ACFE00BD68
:101CF000301D0000200205636269632103CF327842
:101D0000824332700E00704700B5FEF7A3FBFFF769
:101D1000BFF8FFF774FEFFF745F947F8046D44F28A
:101D20008036FFF7EDFAFFF7E8F8FFF78CFE00BD0D
:101D3000701D000020020563786F722103CF327896
:101D4000424032700E00704700B5FEF783FBFFF78C
:101D50009FF8FFF754FEFFF725F947F8046D44F2AA
:101D60004006FFF7D1FAFFF7C8F8FFF76CFE00BD99
:101D7000A61D0000200205636269744001CF367819
:101D8000064018BF4FF0FF36704700B5FEF762FB04
:101D9000FFF735FE47F8046D44F20006FFF7B4FA8A
:101DA000FFF72AFB00BD401E000000000768666CBC
:101DB00061736821300040CF310040CF4FF4A04321
:101DC000984223D34FF4803398421FD24FF6FF73CB
:101DD0001940994219D010F00102002A16D1028848
:101DE0009A4213D110F10060514A524B1360524B8A
:101DF0001360524A012313600180514A136813F0A3
:101E00000103FBD14D4A80231360704700F079FC39
:101E10002A57726F6E672061646472657373206FF6
:101E200072206461746120666F72207772697469D0
:101E30006E6720666C61736820210A0002F0DEBBC9
:101E4000901E000000000E666C617368706167652B
:101E50006572617365000FB5300040CF4FF4A04349
:101E6000984214D3324A334B1360334B1360334AD6
:101E700002231360334A1060304A42231360304A11
:101E8000136813F00103FBD12C4A802313600FBDAC
:101E9000121F000000000A6572617365666C617351
:101EA00068004FF4A04072B64FF480314FF6FF72D5
:101EB000038893421CD047F8046D060047F8046D70
:101EC00000F01FFC10457261736520626C6F636BDC
:101ED00020617420200000F087FC00F012FC0C2030
:101EE00066726F6D20466C6173680A00FFF7B3FF7E
:101EF00002308842DCD100F004FC1246696E69733E
:101F00006865642E20526573657420210A0002F012
:101F100004BC481F000000000E6572617365666CAA
:101F200061736866726F6D00300040CFBBE70000E0
:101F30000420024023016745AB89EFCD1020024009
:101F40000C200240142002407E1F00006202012B80
:101F500001CF3618704700B5FEF77CFA47F8046DDC
:101F600043F2000647F8046DC84E47F8046D41F689
:101F700000068168282917D1FEF7BFFF14E024204E
:101F800000006202012D01CF861B704700B5FEF7ED
:101F900061FA47F8046D43F6000647F8046DBC4E3D
:101FA00047F8046D41F60026FEF790FA01682829EB
:101FB00027D14168FF290CD840CF40CFFEF79AFACD
:101FC0000E43816809020E4301F0C4F8FEF73BF9A5
:101FD00000BD47F8046D0E0000F0D8FC02CF002EC3
:101FE00040CF0ED040CF04370E43816856EA0146F9
:101FF000FEF729F9FEF7AEFA56EA032601F0DBF800
:1020000000BD04370437FEF757FA89018268D20011
:102010000E431643FEF717F9FEF79CFA1E4301F034
:1020200099F800BD3C200000610202312D00013E04
:10203000704747F8046D41F640663DE054200000CB
:10204000610202312B000136704747F8046D41F6FA
:10205000404631E06C200000610202322D00023E59
:10206000704747F8046D41F6806625E08420000043
:10207000610202322B000236704747F8046D41F6C8
:10208000804619E09E20000061020563656C6C2BA0
:102090000436704747F8046D41F600560CE0D02036
:1020A00000006102066E65676174650076427047E4
:1020B00047F8046D44F2402600B5FEF7C1F9016807
:1020C000C9000E43FEF746FA1E4301F043F800BD77
:1020D000E82000006102036E6F74F643704747F812
:1020E000046D44F2C036E7E700210000610203738B
:1020F00068727608704747F8046D40F64006DBE7E3
:102100001021000061020373686C7600704706E0DE
:1021100026210000610202322A007600704747F84B
:10212000046D4026C8E73E21000061020563656C2E
:102130006C73B600704747F8046D8026BCE75621E3
:102140000000610202322F007610704747F8046DDC
:1021500041F24006B0E79221000061020361627320
:10216000F01736184640704700B5FEF769F947F892
:10217000046D42F60006016809020E4300F0EAFF12
:1021800047F8046D4DF2005600F0E4FFFFF790FFB2
:1021900000BDB0210000420005752F6D6F6401CFB6
:1021A0003100B0FBF6F67143401A043F38607047C7
:1021B000CE2100004200042F6D6F640001CF31007A
:1021C00090FBF6F67143401A043F38607047E221F5
:1021D00000004200036D6F6400B5FFF7EFFF40CFD2
:1021E00000BD222200006202012F01CF90FBF6F613
:1021F000704700B5FEF72EF9FEF75EF9FEF766F9B7
:1022000047F8046D234E01680E43816856EA014683
:10221000FEF719F8FEF79EF956EA032600F0CBFF09
:1022200000BD362200006100046576656E00012065
:102230003040361870474E220000810004626173FE
:10224000650047F8046D144E70470A0000006422D0
:10225000000000000662696E617279000E4802217A
:10226000016070477A220000000007646563696DB1
:10227000616C09480A21016070479C22000000003F
:10228000036865780448102101607047000010F170
:102290000000B0F1F0F090FBFC4F0020B8220000ED
:1022A000810009686F6F6B2D656D697447F8046D67
:1022B000694E7047A2230000D42200008100086804
:1022C0006F6F6B2D6B65790047F8046D634E704737
:1022D000C8230000F222000081000A686F6F6B2D96
:1022E000656D69743F0047F8046D5D4E7047F223D9
:1022F00000000E230000810009686F6F6B2D6B6575
:10230000793F47F8046D574E70471E2400002C2378
:10231000000081000A686F6F6B2D70617573650036
:1023200047F8046D504E7047CA4600004223000033
:10233000000004656D6974000FB5474800F026F889
:102340000FBD562300000000036B65790FB54348AD
:1023500000F01CF80FBD68230000000005656D69E2
:10236000743F3F48006887467A2300000000046BF2
:1023700065793F003B4800688746902300000000D5
:102380000570617573653848006887460068874640
:10239000B623000000000B73657269616C2D656DDA
:1023A000697400B500F025F8002E40CFFAD02F4A0E
:1023B000167040CF00BDDE23000000000A73657276
:1023C00069616C2D6B65790000B500F028F8002E6E
:1023D00040CFFAD047F8046D244A167800BD0C248B
:1023E000000000000C73657269616C2D656D697485
:1023F0003F0000B5FFF7C7FF47F8046D00261C48F3
:1024000001688020014000D0F64300BD8424000014
:1024100000000B73657269616C2D6B65793F00B5C7
:10242000FFF7B1FF47F8046D00261148016820202E
:10243000014000D0F64300BD0E4944F23D00086063
:102440000D494FF4966008600C49462008600C491D
:1024500042F20C0008607047F84F0020F44F002053
:10246000F04F0020EC4F0020E84F002004380140DE
:1024700000380140181002400408014008380140AB
:102480000C380140A82400000000076365787065DF
:10249000637400B5386801B40130386000F00BF89F
:1024A00001BC067040CF00BD1E2500000000066183
:1024B00063636570740000B502CF01390022FFF735
:1024C00045FF300040CF7F2809D0202819D20928A5
:1024D00016D00A281FD00D281DD00828EFD1002AB9
:1024E000EDD000F00EF903082008002AE7D0885C40
:1024F000013A80230340E2D040230340F5D0DEE7D9
:102500002020B242DBD247F8046D0600FFF714FF2B
:1025100001328854D3E7160000F0A2F800BD302540
:10252000000040000374696247F8046D294E70474B
:10253000462500008100033E696E47F8046D264E73
:102540007047000000006C25000082000E63757269
:1025500072656E742D736F757263650047F8046D54
:102560001E4E704700000000C400002088250000B7
:10257000000009736574736F75726365174802CF45
:102580000660416040CF7047A6250000000006733A
:102590006F757263650047F8046D104E043F7068F4
:1025A000386036687047E0250000000005717565E9
:1025B00072790FB5084800210160FFF7B5FF47F8B1
:1025C000046D47F8046DC826FFF775FFFFF7D6FFC7
:1025D0000FBD0000C4000020E44F0020DC4F0020AD
:1025E0002E260000000007636F6D706172650FB5E5
:1025F000310040CF01CF884202D040CF00260FBD2E
:1026000002CF002810D001380A5C335C412A02D383
:102610005B2A38BF2032412B02D35B2B38BF2033DB
:102620009A42EED000260FBD0026F6430FBD42268B
:10263000000000000263720000B500F062F8010AB9
:1026400000BD54260000000002626C0047F8046DD3
:1026500020267047682600000000057370616365DE
:1026600047F8046D202667E6882600000000067300
:1026700070616365730000B5002E03DDFFF7F0FFA6
:10268000013EFBD140CF00BD982600005000065B04
:10269000636861725D0005E0B0260000000004631D
:1026A0006861720000B501F033FC40CF367800BDA0
:1026B000C02600005004012847F8046D292606E0D2
:1026C000DA2600005004015C47F8046D002600B5CE
:1026D00001F028FC043740CF00BD1E270000100089
:1026E000022E22009B4800B547F8046D060000F05A
:1026F0005EFA47F8046D222601F014FC00F06BFD31
:1027000000BD0AB447F8046D7646013E33780121D6
:10271000013319405B181EEB030E0ABC39E0442755
:1027200000001000026322008B48DCE747F8046DCC
:102730007646013E33780121013319405B181EEBC8
:10274000030E70476E2700001000027322008348BA
:10275000C9E747F8046D764647F8046D013E3678C0
:102760000121731C19405B181EEB030E704786276E
:102770000000000005636F756E74013647F8046D44
:10278000013E36787047AE2700000000056374797B
:10279000706501B53078002807D0013647F8046D20
:1027A0003678FFF7C9FD0138F7D140CF01BDDC27EE
:1027B00000000000047479706500310040CF3000E3
:1027C00040CF00B5002908D0002247F8046D865C90
:1027D000FFF7B2FD01329142F7D100BD162800008B
:1027E0000000046865782E0007B5310040CF202036
:1027F0000F22043847F8046D0E00C6401640092E1B
:1028000001D9373600E03036FFF796FD0028F0D1C9
:10281000FFF726FF07BD26280000000003682E737F
:102820001FB54F4C0EE036280000000003752E73D4
:102830001FB54C4C06E0B42800000000022E7300C7
:102840001FB5494C4949C91B8908494A106803B456
:102850000A201060FFF755FF08537461636B3A203C
:102860005B0047F8046D0E0001F02BFDFFF749FFF8
:10287000025D200003BC3E4A106000290AD03D4A98
:10288000106806B447F8046D0600A04706BC043A79
:102890000139F5D1FFF735FF0620544F533A200098
:1028A00047F8046D3600A047FFF72BFF04202A3EAF
:1028B0000A001FBD78290000000005776F7264735D
:1028C00000B5FFF71EFF010A00F0CDFEFFF719FF6C
:1028D00009416464726573733A2047F8046DFFF729
:1028E00083FFFFF70EFF064C696E6B3A200047F836
:1028F000046D3668FFF778FFFFF703FF07466C614A
:1029000067733A2047F8046DB688FFF76DFFFFF74D
:10291000F8FE06436F64653A2000B01D00F0DFFE4C
:1029200047F8046D0600FFF75FFFFFF7EAFE064E6B
:10293000616D653A200047F8046D0636FFF729FF00
:10294000FFF7DFFE010A00F0A7FE300040CFBDD048
:1029500040CF00BD022700002C27000052270000B6
:10296000E9270000B3420000C34200008C020020AF
:10297000FC4F002088020020DC2A000000000D31FE
:1029800032626974656E636F64696E670FB5FF2E9E
:1029900004D847F8046D5FF0FF360FBD16F0FF1046
:1029A000B0420ED14FF6FF710840310C814208D180
:1029B00016F0FF0656F4805647F8046D5FF0FF36B8
:1029C0000FBD16F0FF20B0420FD14FF6FF71084047
:1029D000310C814209D1360A16F0FF0656F4005632
:1029E00047F8046D5FF0FF360FBDFF223100114044
:1029F000300A1040884210D1300C104088420CD16F
:102A0000300E1040884208D116F0FF0656F44056AA
:102A100047F8046D5FF0FF360FBD30000021013133
:102A2000001850F100007FF07F020240802A05D09C
:102A30001F29F4D347F8046D00260FBD0829F9D3E8
:102A4000060036F0800611F00100C001064311F0C7
:102A50000E00C002064311F010008005064347F83F
:102A6000046D5FF0FF360FBD47F8046DDFF8606658
:102A70005FF4704110EA0102120116435FF4006135
:102A800010EA0102D20316435FF4E06110EA01028A
:102A900012011643FF2110EA010216431E438AE386
:102AA00047F8046DDFF82C665FF0704110EA010210
:102AB000120B16435FF0006110EA01025208164340
:102AC0005FF0E06110EA0102120B16435FF47F0130
:102AD00010EA0102120C16431E436CE3422B000065
:102AE00000001072656769737465726C6974657251
:102AF000616C2C000FB5330040CF1B02FF2E05D8B0
:102B000056F400561E4300F025FB0FBDFFF73EFFB5
:102B1000002E40CF06D0DFF8C00506431E4300F06C
:102B20004AFB0FBDF643FFF731FF002E40CF06D022
:102B3000DFF8A80506431E4300F03DFB0FBDF6433A
:102B40000BE0A22B00000000096D6F76776D6F76A9
:102B5000742C0FB5330040CF1B02300040CFFFF77D
:102B600083FF4FF6FF7110EA014001D0FFF798FF95
:102B70000FBD0FB50136300040CF0023FFF774FFC3
:102B8000FFF78EFF06E00FB5013647F8046D00260B
:102B9000FFF7B0FF47F8046D44F2807600F0DAFAF0
:102BA0000FBD082C000000000563616C6C2C0FB594
:102BB000330000F036FE300040CF1B1A043BDFF834
:102BC00020151940002906D0DFF81825914202D0BF
:102BD000BDE80F40D7E740CF5B08DFF80C0540F2B7
:102BE000FF7119400843DB0A40F2FF311940090424
:102BF00008439B0A13F001018906084347F8046D56
:102C0000060000F0D8FA0FBD3E2C00000000086C52
:102C100069746572616C2C0008B547F8046D4FF655
:102C2000470600F097FA47F8046D46F6045600F0A0
:102C300091FA47F8046D0626FFF75CFF08BD622C89
:102C400000000000066372656174650000B500F065
:102C500033F842F67F40804747F8046DBEF1010625
:102C600000BDAA2C0000200005646F65733E42F68B
:102C70007F40804747F8046DBEF10106704747F872
:102C8000046DBEF101064FF000521368DFF85C14CA
:102C900009680220084000D0023102311160FFF7BC
:102CA00068FF136000F0C4F900BDEC2C00000000C8
:102CB000073C6275696C647300B500F05FFB00F05F
:102CC000B0FD0220064040CF04D047F8046D362600
:102CD00000F040FA47F8046D4BF2005600F03AFA63
:102CE00047F8046D0A2600F0A9FA00BDF82C000090
:102CF0005000035B275D03E0102D0000000001275A
:102D000000B501F005F900F02AFD300040CF00BD0C
:102D1000462D0000300008706F7374706F6E650090
:102D200000B5FFF7EDFF47F8046D060039683E6017
:102D30000E46FFF771FFFFF76FFF47F8046DEC4E8B
:102D4000FFF735FF00BD9C2D0000000007696E6C89
:102D5000696E652C00B54BF200514BF6005244F2FF
:102D600070733088884208D0904208D0984206D0CC
:102D700047F8046D060000F0EDF90236F1E740CFA8
:102D800000BD0EB44BF6005244F27073018802305D
:102D9000914201D09942F9D10EBC7047B22D00008A
:102DA0000000047265742C0047F8046D4BF6005661
:102DB000D0E1C02D00003000046578697400F3E7AD
:102DC000D82D00003000077265637572736547F88F
:102DD000046DC64E3668EAE6F02D000081000573EA
:102DE0007461746547F8046DC24E704700000000BE
:102DF000022E00000000015DBE480021C9430160B1
:102E00007047122E00001000015BBA4800210160DB
:102E10007047322E00000000013A00B5B648076046
:102E200000F0ACFAB34801210160B4480021016010
:102E300000BDA42E00003008013B00B5AE4801687B
:102E4000B9420ED0FFF75DFC1520537461636B200F
:102E50006E6F742062616C616E6365642E0A01F0AE
:102E6000CDBBA4480068411C10D00B2805D847F8FA
:102E7000046D40F6200600F00EF947F8046D44F2A8
:102E8000707600F067F901F0BFFA05E047F8046DCD
:102E90004BF6005600F05EF900F0CAF895480021A4
:102EA000016000BDB82E00000000076578656375FD
:102EB0007465300040CF8746D02E000010000969AD
:102EC0006D6D65646961746547F8046D1026E2E014
:102ED000E62E0000500006696E6C696E650047F8CA
:102EE000046D2026D7E0002F000010000B636F6DEB
:102EF00070696C656F6E6C7947F8046D3026CAE0B6
:102F00001A2F000050000A302D666F6C6461626CED
:102F1000650047F8046D4026BDE0342F00005000E6
:102F20000A312D666F6C6461626C650047F8046D50
:102F30004126B0E04E2F000050000A322D666F6C23
:102F40006461626C650047F8046D4226A3E0682F57
:102F5000000050000A332D666F6C6461626C65007E
:102F600047F8046D432696E0822F000050000A3493
:102F70002D666F6C6461626C650047F8046D4426D1
:102F800089E09C2F000050000A352D666F6C64614B
:102F9000626C650047F8046D45267CE0B62F0000A2
:102FA00050000A362D666F6C6461626C650047F8EC
:102FB000046D46266FE0D02F000050000A372D66C2
:102FC0006F6C6461626C650047F8046D472662E0CF
:102FD00000300000000008636F6E7374616E74004F
:102FE00000B500F0CBF9FFF717FE47F8046D44F287
:102FF000707600F0AFF8FFF78CFF00F019F800BD15
:103000002230000000000932636F6E7374616E74C9
:1030100000B500F0B3F939683E600E46FFF7FCFDDD
:10302000E1E786300000000006736D756467650097
:1030300000B54FF0005001684FF0005291421CD291
:1030400002390A884FF6FF739A4204D147F8046D9B
:10305000002600F07FF800F06BF82948006847F878
:10306000046D06002749096804314FF000521368C7
:10307000116000F06FF8136000BD00F059F847F8D8
:10308000046D002608E00831000000000873657434
:10309000666C6167730000B54FF0005001684FF037
:1030A0000052914205D2164801683143016040CF79
:1030B00000BD320040CF13480068043001884FF64D
:1030C000FF73994201D1110000E01143018000BD5E
:1030D000000040F20000C0F200005FF000007FF04E
:1030E0000100C0FF0000C0FF00F800F01400002045
:1030F00002430000D84F0020100000205C00002098
:10310000200000200400002024310000410007615D
:103110006C69676E656401203040361802203040CB
:10312000361870474A310000000005616C69676E0F
:1031300000B54FF0005001680220014004D047F86C
:10314000046D002600F006F800BD9231000000007A
:1031500002682C000FB5B6B27F480168002902D082
:10316000013100D001604FF0005001684FF0005273
:10317000914205D247F8046D0E00FEF71BFE02E0F7
:10318000320040CF0A8047F8046D022600F056F85E
:103190000FBDAC3100000000012C00B547F8046DF4
:1031A000FFF7D8FF360CFFF7D5FF00BDC831000090
:1031B0000000033E3C2C00B547F8046D360CFFF7C9
:1031C000C9FFFFF7C7FF00BD3032000000000773E2
:1031D0007472696E672C07B5FF21314040CF300013
:1031E00040CF002905D147F8046D0026FFF7B2FF54
:1031F00007BD47F8046D067836020E43FFF7AAFFB5
:103200000130013902290AD347F8046D46783602A5
:1032100002781643FFF79EFF02300239F2E70029D9
:1032200000D107BD47F8046D0678FFF793FF07BD8F
:1032300090320000000005616C6C6F744FF000501C
:1032400001684FF00052914210D2320040CF8918ED
:103250004FF48032914219D3FFF753FA0B466C6159
:1032600073682066756C6C0A01F0C8B9320040CFF3
:1032700089183A4A1268914208D3FFF742FA095274
:10328000616D2066756C6C0A01F0B8B90160704719
:10329000BC32000000000D636F6D70696C65746F67
:1032A00072616D3F47F8046D00264FF000500068D2
:1032B0004FF0005188424DD3F6437047E032000092
:1032C00000000C636F6D70696C65746F72616D00E6
:1032D0004FF0005000684FF00051884213D3704700
:1032E0006C33000000000E636F6D70696C65746F65
:1032F000666C617368004FF0005000684FF0005139
:10330000884200D270471648164902680B680A6066
:1033100003604FF00050144902680B680A600360B4
:103320000E480068834215D300B5FFF7EAF9232061
:103330005661726961626C657320636F6C6C69645D
:103340006520776974682064696374696F6E61725F
:10335000790A00BD70470000D84F002024000020EB
:10336000040000201C00002018000020623400002F
:1033700000000828637265617465290000B500F0DB
:10338000C7FD002E0ED1FFF7BCF915204372656111
:103390007465206E65656473206E616D6520210A19
:1033A00001F02CB9386847F8046D043F386000F02C
:1033B000A5F940CF002E40CF11D0386847F8046DF2
:1033C000043F3860FFF79DF9095265646566696ED0
:1033D0006520FFF7F2F9FFF794F9022E2000FFF7BE
:1033E000A7FE00F01EFA4FF0005000684FF00051A9
:1033F00088421ED28F480021016047F8046D0626DE
:10340000FFF71CFFFDF7E4FDFFF7E5FE8A480168C2
:103410000A684FF0FF339A4208D14FF00052136808
:10342000116047F8046DFFF7B8FE1360066040CFE7
:1034300011E0814847F8046D0668FFF7AEFE47F8D3
:10344000046D4FF6FF76FFF785FE7B48310040CFD5
:103450000160FFF7C0FE4FF000500168774801603F
:1034600000BD7A3400000000087661726961626C08
:10347000650047F8046D012613E092340000000057
:1034800009327661726961626C6547F8046D0226E3
:1034900007E0703500000000096E766172696162B4
:1034A0006C6500B5FFF76AFF4FF0005001684FF000
:1034B0000052914234D20F200640B20060480168A9
:1034C000891A604A91420BD2FFF71BF90F4E6F74B5
:1034D00020656E6F7567682052414D0A01F08EB805
:1034E000016047F8046D0E00FFF796FB47F8046D86
:1034F00044F27076FFF72EFE300040CF0200002825
:1035000005D00E600431FFF748FE0138F9D147F8C5
:10351000046D80261643FFF7BEFDFFF789FD00BD51
:1035200000F07FF90220064040CF04D147F8046D37
:103530003626FFF70FFE47F8046D434EFFF73BFEBC
:1035400047F8046D414EFFF736FE47F8046D44F22C
:103550007076FFF7FFFD300040CF002803D0FFF763
:103560001CFE0138FBD1FFF7D4FCFFF761FD00BD65
:10357000503600000000076275666665723A00B555
:10358000FFF7FCFE0120304036180220304036188C
:103590004FF0005001684FF00052914228D2284865
:1035A0000168891B274A91420BD2FFF7AAF80F4EF8
:1035B0006F7420656E6F7567682052414D0A01F087
:1035C0001DB8016047F8046D0E00FFF725FB47F8B2
:1035D000046D44F27076FFF7BDFDFFF7DEFD47F89E
:1035E000046D40F24016FFF756FDFFF721FD00BDC8
:1035F00000F017F90220064040CF04D147F8046DCF
:103600003626FFF7A7FD47F8046D0F4EFFF7D3FDF1
:1036100047F8046D0D4EFFF7CEFD47F8046D44F2F8
:103620007076FFF797FDFFF709FEFFF772FCFFF7D3
:10363000FFFC00BD2000002004000020140000203A
:10364000240000208C0300203E60043F02367E46AA
:103650008236000000000F64696374696F6E6172E6
:103660007973746172744FF0005000684FF000512C
:1036700047F8046D884201D23E4E70473E4E366890
:103680007047BE36000000000E64696374696F6E97
:103690006172796E6578740003B531684FF0FF3060
:1036A000814207D08879FF2804D00E0047F8046DC6
:1036B000002603BD47F8046D0026F64303BDF0362F
:1036C000000000000A736B6970737472696E6700A2
:1036D0003178013101220A4089187618704706B402
:1036E0000178013101220A408918401806BC704750
:1036F0007C37000000000466696E64003FB500225C
:103700000023350040CF340040CFFFF7ACFF4FF629
:10371000FF70B188884218D047F8046D0636FFF76D
:103720002CF847F8046D260047F8046D2E00FEF7CC
:103730005EFF002E40CF08D0B01DFFF7D0FF020083
:103740000B004FF00050824204D2FFF7A5FF30007B
:1037500040CFDCD0160047F8046D1E003FBD00B519
:1037600031003868FFF7CAFF3A68002A01D100F03B
:10377000F9FE00BD5001000004000020DC3700000D
:10378000000006636A756D702C00320040CF310076
:1037900040CF8B1B043B6FF0FE01194000290ED077
:1037A0006FF0FF0081420AD0FEF7ABFF0D4A756D46
:1037B0007020746F6F206661720A00F01FBF5B108B
:1037C000FF210B40134330001E0000B54FF00052A4
:1037D00013681060FFF7BEFC136000BD16380000D0
:1037E0000000056A756D702C310040CF300040CF6D
:1037F0000B1A043BC4491940002902D0C34A914224
:10380000D2D15B1040F2FF72134053F4604347F88B
:10381000046D1E00D9E72E380000000004686572B0
:10382000650047F8046D4FF00056366870476439FC
:10383000000000000D666C6173687661722D68652A
:10384000726547F8046DB24E3668704700B547F8A8
:10385000046D42F60066FFF77DFC47F8046D4CF6F8
:103860004076FFF777FC00BDDBE700B500F03AF8E3
:1038700039683E600E4647F8046D4DF20016FFF7BA
:1038800084FF00BD00B500F02DF839683E600E469B
:1038900047F8046D4DF20076FFF777FF00BD00B5E5
:1038A000FFF7D4FF00F01EF839683E600E4647F877
:1038B000046D4DF20006FFF768FF00BD00B500F093
:1038C00011F839683E600E46FFF78EFF00BD00B567
:1038D000FFF7BCFFFFF7A5FF47F8046D0226FFF7CF
:1038E000ADFC00BD00B5FFF79CFF47F8046D022654
:1038F000FFF7A4FC00BD00B5FFF793FFFFF774FFCF
:1039000000BD00B5FFF78DFF47F8046D4DF20006CE
:10391000FFF73BFF00BD00B5FFF783FF47F8046DDD
:103920004DF20016FFF731FF00BD00B5FCF788FD32
:10393000FCF7C0FCFCF7C3FCFCF7C6FC8168282937
:1039400001D1FCF7C3FDFCF7B7FD47F8046D42F663
:10395000000609020E43FFF7FDFBFCF774FCFCF7C1
:103960009DFC00BD903900003000047468656E0055
:10397000052E01D140CFBEE7F1B200296DD100B5CF
:10398000FFF74FFF39683E600E46FFF7FEFE00BDB1
:10399000AC390000300004656C73650000B500F0C0
:1039A00036F8FCF718FEFFF7E3FF00BD023A00000F
:1039B00030060269660000B5FFF789FF47F8046D1D
:1039C0004DF2000600BD00B5FCF7CDFDFDF795FEFC
:1039D000816A002907D002B4FCF760FCFFF782FF80
:1039E00047F8046D40BDFFF7A0FFFFF71AFF47F847
:1039F000046D0226FFF722FC47F8046D4DF2000625
:103A000000BD1C3A0000300005616865616400B5C6
:103A1000FFF768FF47F8046D052600BD363A000041
:103A20003000067265706561740000B500F05BF8E7
:103A3000FFF79EFF00BD7A3A0000300605776869FF
:103A40006C6500B5FFF7B7FFFCF7C5FD00BD00B51D
:103A5000FFF7B9FFFCF7BFFD00BDFEF752FE17539D
:103A600074727563747572657320646F6E27742049
:103A70006D617463680A00F0C1BDDA3A0000300677
:103A800005756E74696C012EE7D140CF07E770476A
:103A9000012EE2D140CF00B5FDF72FFE816A00294B
:103AA0000DD002B4FCF7FAFBFFF71CFF39683E604B
:103AB0000E4647F8046D40BCFFF767FE00BDFFF7F8
:103AC00034FFFFF70FFF39683E600E4647F8046D7C
:103AD0004DF20006FFF759FE00BDEE3A000030003F
:103AE00005616761696E012EB7D140CFE6E6143BF0
:103AF0000000300005626567696E00B5FFF7B4FE2F
:103B000047F8046D012600BD01F8FFFF00F8FFFF34
:103B1000240000202E3B00002002016B47F8046DBA
:103B2000029E704747F8046D49F602060BE05C3BC5
:103B300000002002016A47F8046D009E704747F8B4
:103B4000046D49F6000600B5FCF773FBFCF744FC76
:103B500003601B021E43FFF7FDFA00BD883B000017
:103B60002002016947F8046D2600704700B547F848
:103B7000046D40F22006FCF75CFBFCF72DFC0360B3
:103B80001E43FFF7E7FA00BDC63B00003000056C9E
:103B90006561766500B5754801683B00043F1A68A9
:103BA000043B1A6008338B42F9D103B4FFF79AFE45
:103BB00003BC330040CF04390B60016004390A684C
:103BC00001320A6000BDD83B0000200006756E6C13
:103BD0006F6F700030BC7047103C00003000052B48
:103BE0006C6F6F70032E00D037E740CF00B547F8F9
:103BF000046D5F4EFFF7AEF8FFF744FE1AE014F1D4
:103C00000044641BA41940CF2C44A4F10044704725
:103C1000523C00003000046C6F6F7000032E00D027
:103C20001BE740CF00B547F8046D524EFFF792F8FE
:103C3000FFF71BFE00F052F94C48310040CF016005
:103C400047F8046D4C4EFFF785F800BD0134AC42D7
:103C500070479A3C0000300202646F0000B547F8DC
:103C6000046D464EFFF776F84048016847F8046D4A
:103C70000E0047F8046D00260760FFF7F5FD47F8D2
:103C8000046D032600BD00B500F02FF8ECE730B45A
:103C9000340040CF350040CF7047803D00003002F7
:103CA000033F646F00B547F8046D344EFFF752F8D8
:103CB00047F8046D44F2AC26FFF74CFA2B48016834
:103CC00047F8046D0E00FFF70DFE013647F8046D4E
:103CD000012626480760FFF7C7FD47F8046D032655
:103CE00000BD00B500F001F8E2E700B5FCF73BFCD1
:103CF000FCF7B0FBFCF7DEFAFCF7E1FAFCF7E4FABC
:103D000047F8046D4BF23046FFF724FA0168282982
:103D100008D047F8046D40F20406C9000E43FFF7CF
:103D200019FA07E047F8046D466847F8046D042661
:103D3000FEF7E0FE8168282908D047F8046D40F2BC
:103D40000506C9000E43FFF705FA07E047F8046DC2
:103D5000C66847F8046D0526FEF7CCFEFCF773FA3B
:103D6000FCF771FAFCF7BAFA00BD00000C00002065
:103D7000FE3B00004C3C0000D43B00008E3C0000A9
:103D8000A03D0000300004636173650000B5FCF7DE
:103D9000EAFB47F8046D002647F8046D082600BDCD
:103DA000B63D00003000033F6F66714809E0013EF8
:103DB000B64140CF70477C3E00003002026F660083
:103DC0006C48082E00D048E640CF00B547F8046D97
:103DD0000600FEF7BFFFFFF785FD39683E600E461F
:103DE000013647F8046D092647F8046D4CF6407615
:103DF000FFF7B0F900BD082E00D02EE640CF00B589
:103E0000FCF728FBFCF756FAFCF759FAFCF75CFACA
:103E100047F8046D44F28026FCF758FB0E43026815
:103E2000282A1ED14268FF2A08D840CF47F8046DDF
:103E300042F60006164309020E4314E047F8046DEB
:103E40004668FEF7A3FD04CF002E40CF06D04A4EB1
:103E5000164356EA0146FFF7AEF906E0FCF72CFBE5
:103E60000A00D2001643FFF775F9FCF7ECF9FCF7EE
:103E700035FAB0E7300040CFB0427047B23E0000A4
:103E8000300005656E646F66092E00D0E5E540CF11
:103E900000B540B440CFFFF725FD39683E600E46BF
:103EA000FFF739FD47F8046D40BC47F8046D08265C
:103EB00000BD043F0000300007656E6463617365F8
:103EC000082E00D0C9E540CF00B547F8046D4CF688
:103ED0004076FFF73FF900F001F800BD00B5300073
:103EE00040CF00280DD003B401213140002903D078
:103EF000013EFFF706FD01E0FFF7FDFC03BC0138C2
:103F0000EFE700BD183F0000000005746F6B656EA1
:103F100047F8046D202605E0803F00000000057092
:103F20006172736510B5FEF736FB310040CF30008B
:103F300040CF124A12688418202E07D191420FD028
:103F4000835CB34202D101328418F7E7914207D073
:103F5000835C0132B342F9D18618361B013E01E081
:103F60008618361B043F3C600448026010BD000008
:103F7000AE3D0000743E0000000FB0F1E44F0020A1
:103F8000BE3F00000000056469676974CF4B1B6881
:103F9000303E0BD30A2E0BD3073E0A2E06D3242E17
:103FA00006D3203E0A2E01D3242E01D300267047CB
:103FB0009E42FBD247F8046D0026F6437047C84086
:103FC00000000000066E756D626572003FB531003D
:103FD00040CF701E0126012204B4BC4B1B68002494
:103FE000002500293CD00130013902782D2A04D166
:103FF00001B00022D24304B4F3E7232A01D10A23FB
:10400000EFE7242A01D11023EBE7252A01D102236F
:10401000E7E72E2A01D10226E3E72C2A36D047F81B
:10402000046D1600FFF7B4FF002E40CF2BD047F8E9
:10403000046D260047F8046D2E0047F8046D1E003D
:1040400047F8046D00260FB4FCF795FC0FBC350053
:1040500040CF340040CF0022A419554140CFC0E7E3
:1040600004BC002A04D50022E443ED430134554149
:1040700033002600012B02D047F8046D2E0047F8CC
:10408000046D1E003FBD01B000263FBD2500002489
:1040900002260029E4D0425C01392E2AF9D047F8E3
:1040A000046D1600FFF774FF002E40CFEBD0043FE5
:1040B0003C6047F8046D1E000FB4FCF70BFD0FBC0D
:1040C000340040CF40CFE4E7EA4000000000062E75
:1040D0006469676974000A2E01D230367047242E55
:1040E00001D2373670472326704720410000000078
:1040F00004686F6C6400330040CF754801783F2935
:104100000DD2013101704018012907D00138027821
:1041100001300270013801390129F7D1037070476D
:1041200040410000000005686F6C643C330040CFE4
:10413000674801783F2902D201310170435470472A
:10414000584100000000047369676E00002E01D41E
:1041500040CF70472D26CEE76C41000000000223BF
:104160003E005B48067801303860704784410000AB
:1041700000000366235310B5202400F008F8013C2A
:10418000FBD110BDA641000000000266230000B56F
:1041900047F8046D4D4E3668FCF7AFFBFFF79BFF09
:1041A000FFF7C4FF00BDC24100000000022353001E
:1041B00000B500F00AF8002EFBD138680028F8D1CD
:1041C00000BDEE4100000000012300B547F8046D7A
:1041D0003E4E366847F8046D0026FCF79AFCFCF763
:1041E000FAF940CFFFF777FFFFF785FF00BD0042E8
:1041F00000000000023C2300354800210170704798
:1042000012420000000002662E0047F8046D2026CE
:1042100004E060420000000003662E6E00B510B49A
:10422000340040CFFCF7A6FEFCF7ECFA47F8046D2B
:104230000026FFF7E1FFFFF7BBFF40CF2C26FFF77B
:1042400075FF002C03D0FFF7A2FF013CFBD110BC8F
:1042500040CFFFF77BFF47F8046D47F8046D1CE083
:104260007642000000000375642E00B5FFF7C4FF1E
:10427000FFF79EFF11E0A8420000000002642E003C
:1042800000B5FCF777FEFCF7BDFAFFF7B5FFFFF7C7
:104290008FFFFCF781FEFFF759FFFFF762FFFEF784
:1042A0008CFAFEF7DDF900BDBA420000000002758D
:1042B0002E0047F8046D0026D7E790440000000068
:1042C000012E47F8046DF617DAE70000FC4F0020D6
:1042D0008400002030B5D94C2568002D01D13D0067
:1042E000256030BD30B5D54C3D00256030BD30B5C2
:1042F000D24C0025256030BDD04B1B68DB1B9B08D2
:10430000704700B5310040CF4FF48050084002D0D4
:1043100000F0A6F800BD4FF48060084001D1FDF721
:10432000A5F9320040CFFFF7D5FF4FF40050084009
:1043300003D047F8046D160000BDFFF7DDFF8020B5
:10434000084006D14020084009D00F200840834291
:1043500005D347F8046D1600FEF7ABFD00BD4FF422
:104360000070084014D0FBF706FF47F8046D1600F4
:1043700047F8046D0E0000F031F81000FEF701FD63
:10438000421CAF489047FFF7ADFFFBF703FF00BDAE
:10439000FBF7F1FE47F8046D160047F8046D0E00B8
:1043A00000F01CF8FBF77AFFFFF7A1FF4FF4006065
:1043B000084001D1FCF7D7F847F8046D1600102229
:1043C0000A4002D0FEF775FD00BD20220A4002D04F
:1043D000FEF7C0FC00BDFEF7EAFB00BD0FB53200E2
:1043E00040CF330040CF97480168062907D2062006
:1043F00041439548401803801B0C438082809148BC
:104400000168013101600FBD0FB58E4801680629B2
:104410001FD88D4801391DD047F8046D0E00FEF7F6
:1044200099FE47F8046D0688FEF794FE47F8046D80
:104430004688FEF78FFE47F8046D8688FEF78AFEF1
:1044400006300139EDD147F8046D41F20006FEF760
:1044500022FE0FBD47F8046D4026FEF71CFE0FBD7F
:1044600000B5300040CFFEF78CFC0188023047F8E1
:10447000046D068842881204164347F8046D868846
:1044800003B4FFF73EFF03BC06300139EFD100BD96
:10449000D84400000000086576616C7561746500A1
:1044A00000B5FEF778F801CF01B440B440CF6748BB
:1044B000016802B400210160FEF760F800F014F812
:1044C000624802BC016047F8046D40BC01BC043F77
:1044D0003860FEF753F800BDD445000000000969BC
:1044E0006E7465727072657400B5594887420BD955
:1044F000FEF707F910537461636B20756E64657283
:10450000666C6F770A0079E0524887420AD2FEF75C
:10451000F8F80F537461636B206F766572666C6F89
:10452000770A6BE0FFF7D6FEFFF7F2FC002E02D110
:10453000043740CF00BD386847F8046D043F386049
:10454000FFF7DCF8310040CF320040CF002A15D110
:1045500038683100FDF78AF8FFF738FD320040CFA8
:10456000002AC2D1FEF72DF9FEF7CBF80C206E6FB2
:104570007420666F756E642E0A003FE0364B1B6830
:10458000002B1CD1FFF7B3FE30230B40302B0ED194
:10459000FEF713F9FEF7B5F81220697320636F6D0B
:1045A00070696C652D6F6E6C792E0A0026E00437F9
:1045B00040CF47F8046D1600FEF77BFC95E7043703
:1045C00040CF47F8046D160047F8046D0E00FFF762
:1045D00098FE8AE7F0450000810009686F6F6B2D37
:1045E0007175697447F8046D1C4E704728460000C9
:1045F000704600000000047175697400DFF860D037
:10460000134F18480A2101601348002101600B482C
:104610000160FBF78AFE0D480160134801601349F1
:1046200041600E4800688746FDF7C3FFFFF75CFF57
:10463000FEF767F805206F6B2E0AF5E708000020EB
:10464000280000205C00002060000020E44F0020D3
:104650008C0200208C010020D84F0020D44F002075
:104660008C030020FC4F0020DC4F0020C400002001
:104670008A46000000000565696E743F47F8046DC6
:10468000EFF31086013EB64170479A4600002000C5
:104690000465696E740062B67047AA460000200087
:1046A0000464696E740072B67047C0460000200052
:1046B00004697073720047F8046DEFF30586704764
:1046C000CC4600000000036E6F7070470E4700007C
:1046D000000009756E68616E646C656400B5FEF774
:1046E00010F814556E68616E646C656420496E74D0
:1046F000657272757074200047F8046DEFF30586DB
:10470000FEF772F8FDF7FDFF02210A0000BD244705
:1047100000000000057265736574DFF85807DFF864
:10472000581701605047000081000B6972712D73AA
:1047300079737469636B47F8046DDFF840677047FD
:10474000DC46000044F6D070C2F2000000688746E4
:104750007A4700008100096972712D6661756C7479
:1047600047F8046DDFF818677047DC46000044F630
:10477000CC70C2F2000000688746AA4700008100A2
:104780000E6972712D636F6C6C656374696F6E0076
:1047900047F8046DDFF8EC667047DC46000044F62D
:1047A000C870C2F2000000688746D247000081004E
:1047B000076972712D72746347F8046DDFF8C8667B
:1047C0007047DC46000044F6C470C2F20000006886
:1047D0008746FC4700008100096972712D65787475
:1047E000693047F8046DDFF8A4667047DC460000C6
:1047F00044F6C070C2F200000068874626480000F8
:104800008100096972712D657874693147F8046D0A
:10481000DFF87C667047DC46000044F6BC70C2F2EC
:1048200000000068874650480000810009697271E5
:104830002D657874693247F8046DDFF85866704763
:10484000DC46000044F6B870C2F2000000688746FB
:104850007A4800008100096972712D6578746933A6
:1048600047F8046DDFF830667047DC46000044F618
:10487000B470C2F2000000688746A44800008100BE
:10488000096972712D657874693447F8046DDFF831
:104890000C667047DC46000044F6B070C2F20000BF
:1048A00000688746CC4800008100076972712D615D
:1048B000646347F8046DDFF8E8657047DC46000084
:1048C00044F6AC70C2F2000000688746F64800006B
:1048D0008100096972712D657874693547F8046D36
:1048E000DFF8C0657047DC46000044F6A870C2F2ED
:1048F0000000006887462249000081000B69727140
:104900002D74696D3162726B47F8046DDFF898653C
:104910007047DC46000044F6A470C2F20000006854
:1049200087464E49000081000A6972712D74696DD5
:104930003175700047F8046DDFF870657047DC462C
:10494000000044F6A070C2F20000006887467A4971
:10495000000081000B6972712D74696D317472678A
:1049600047F8046DDFF848657047DC46000044F600
:104970009C70C2F2000000688746A64900008100D2
:104980000A6972712D74696D3163630047F8046DB3
:10499000DFF820657047DC46000044F69870C2F2EC
:1049A000000000688746D0490000810008697271E4
:1049B0002D74696D320047F8046DDFF8FC647047B0
:1049C000DC46000044F69470C2F20000006887469E
:1049D000FA4900008100086972712D74696D330015
:1049E00047F8046DDFF8D4647047DC46000044F6F5
:1049F0009070C2F2000000688746244A00008100DF
:104A0000086972712D74696D340047F8046DDFF820
:104A1000B0647047DC46000044F68C70C2F20000BF
:104A200000688746504A000081000A6972712D694A
:104A300032633165760047F8046DDFF888647047AB
:104A4000DC46000044F68870C2F200000068874629
:104A50007C4A000081000A6972712D6932633165F8
:104A6000720047F8046DDFF860647047DC460000B0
:104A700044F68470C2F2000000688746A84A00002D
:104A800081000A6972712D6932633265760047F8D8
:104A9000046DDFF838647047DC46000044F680702F
:104AA000C2F2000000688746D44A000081000A690B
:104AB00072712D6932633265720047F8046DDFF858
:104AC00010647047DC46000044F67C70C2F20000BF
:104AD00000688746FC4A00008100086972712D73E6
:104AE0007069310047F8046DFA4E7047DC460000EB
:104AF00044F67870C2F2000000688746244B00003C
:104B00008100086972712D737069320047F8046D75
:104B1000F14E7047DC46000044F67470C2F20000AB
:104B2000006887464E4B000081000A6972712D753E
:104B300073617274310047F8046DE84E7047DC46CB
:104B4000000044F67070C2F2000000688746784B9F
:104B5000000081000A6972712D75736172743200F0
:104B600047F8046DDE4E7047DC46000044F66C707A
:104B7000C2F2000000688746A24B000081000A696B
:104B800072712D7573617274330047F8046DD54EE0
:104B90007047DC46000044F66870C2F2000000680E
:104BA0008746CC4B000081000A6972712D657874CC
:104BB0006931300047F8046DCB4E7047DC46000089
:104BC00044F66470C2F2000000688746F84B0000AB
:104BD00081000C6972712D727463616C61726D0079
:104BE00047F8046DC14E7047DC46000044F6607023
:104BF000C2F2000000688746224C000081000B6969
:104C000072712D757362776B757047F8046DB84ECD
:104C10007047DC46000044F65C70C2F20000006899
:104C200087464A4C00008100086972712D74696DD5
:104C3000350047F8046DAF4E7047DC46000044F67F
:104C40005870C2F2000000688746724C0000810074
:104C5000086972712D737069330047F8046DA64EB0
:104C60007047DC46000044F65470C2F20000006851
:104C700087469A4C00008100096972712D75617236
:104C8000743447F8046D9D4E7047DC46000044F6CE
:104C90005070C2F2000000688746C24C00008100DC
:104CA000096972712D756172743547F8046D944EFF
:104CB0007047DC46000044F64C70C2F20000006809
:104CC0008746EA4C00008100086972712D74696D95
:104CD000360047F8046D8B4E7047DC46000044F602
:104CE0004870C2F2000000688746124D0000810043
:104CF000086972712D74696D370047F8046D824E32
:104D00007047DC46000044F64470C2F200000068C0
:104D100087463A4D00008100096972712D757362F2
:104D2000667347F8046D794E7047DC46000044F620
:104D30004070C2F200000068874600500000FFFF8C
:104D4000182D2D2D20466C617368204469637469A9
:104D50006F6E617279202D2D2D00FDF76DFB6C4873
:104D600085466C4F2A264FF00050694901606A4819
:104D70006A49016047F8046D684E694DB1884FF685
:104D8000FF73994225D04FF480730B400AD0B01DB9
:104D9000FEF7A5FCFDF7F5FF0388408800040343F8
:104DA000ED1A16E080230B4013D00F231940890021
:104DB0006D1AB01DFEF793FCFDF7E3FF47F8046D95
:104DC000060047F8046D2E0047F8046D0E00FCF74E
:104DD00013FDFEF761FC300040CFCFD05148066094
:104DE00040CF514805604FF480304FF4A0414FF65A
:104DF000FF72884204D0023803889342F9D002300F
:104E00004A490860FDF77DFC3A4D6563726973702D
:104E10002D5374656C6C6172697320524120322E7F
:104E2000322E3720666F722053544D333246313064
:104E300033206279204D61747468696173204B6F0F
:104E400063680A003A480021016047F8046D394E52
:104E500047F8046D0426FEF751FC40CF002E03D026
:104E6000FEF727F8FFF7DDBB40CFFFF7C7BB696E42
:104E7000697400000CED00E00400FA05D04F00203A
:104E8000CC4F0020C84F0020C44F0020C04F00204E
:104E9000BC4F0020B84F0020B44F0020B04F00207E
:104EA000AC4F0020A84F0020A44F0020A04F0020AE
:104EB0009C4F0020984F0020944F0020904F0020DE
:104EC0008C4F0020884F0020844F0020804F00200E
:104ED0007C4F0020784F0020744F0020704F00203E
:104EE0006C4F0020684F0020644F0020604F00206E
:104EF0005C4F0020584F0020544F0020504F00209E
:104F00004C4F0020484F0020444F0020404F0020CD
:104F10008C0300208C0200200400002050010000BF
:104F2000005000201C000020240000201800002059
:104F3000080000206E4E0000FFFFFFFFFFFFFFFF95
:1050000018500000400008696F2D706F72747300B3
:1050100047F8046D042670474850000000000375EF
:105020002E3447F8046D002600B5FFF7E5F8FFF7CA
:10503000CCF8FFF7CAF8FFF7C8F8FFF7C6F8FFF794
:1050400090F8FDF7BAFB00BD70500000000003753A
:105050002E3247F8046D002600B5FFF7CDF8FFF7B4
:10506000B4F8FFF7B2F8FFF77CF8FDF7A6FB00BD38
:10507000AC500000000003682E3444F68070C2F289
:105080000000C36F47F8046D1E4600B5FDF7FAF83F
:1050900008CF47F8046D1E46FFF7C3FF44F6807043
:1050A000C2F20000C66740CF00BD0000E85000001B
:1050B000000003682E3244F68070C2F20000C36F15
:1050C00047F8046D1E4600B5FDF7DCF808CF47F839
:1050D000046D1E46FFF7BDFF44F68070C2F200006B
:1050E000C66740CF00BD0000D45100000000076833
:1050F000657864756D7000B5FDF79EFA47F8046D2C
:1051000030B400244FF6FF7540CF23001033220047
:1051100047F8046D002647F8046D30B414001D00F4
:1051200040CF23001B78FF2B02D00023DB4300E09D
:1051300000231E430134AC42F3D130BC002E40CFDB
:1051400030D0FDF7DEFA033A3130230047F8046D22
:105150001E46FFF792FFFDF7D4FA0230300023001D
:1051600010332200120A9B1822001032210047F847
:10517000046D47F8043D30B40C00150040CF230007
:105180001B7847F8046D1E46FFF795FF23001B7838
:10519000F6180134AC42F2D130BC7642FFF78BFFF7
:1051A000FDF74AFA47F8046D102614F10044641B19
:1051B000A41940CF2C44A4F10044A6D730BCFDF77D
:1051C000A0FA0B3A30303030303030314646FDF7FF
:1051D00033FA00BDA052000000000664756D703106
:1051E000360036F00F0647F8046D00B5FDF7FCFAFF
:1051F00047F8046D0226FDF73EFA3300103347F8F6
:10520000046D30B434001D0040CF23001B7847F8F4
:10521000046D1E46FFF74FFFFDF722FA230013F03F
:105220000F03072B04D147F8046D0226FDF723FA7C
:105230000134AC42E9D130BC47F8046D0226FDF7D9
:105240001AFA3300103330B434001D0040CF23006D
:105250001B78202B9B41DB432200127847F8046D1A
:105260007F2AB6411E40002E40CF05D023001B7878
:1052700047F8046D1E4602E047F8046D2E26FDF740
:105280005BF8230013F00F03072B01D1FDF7E8F9BA
:105290000134AC42DBD130BCFDF7CEF900BD0000DB
:1052A000E852000000000464756D700000B5FDF761
:1052B000C3F908CF13F00F0247F8043D002A00D0CD
:1052C000103608CF47F8046D47F8043D1E46FFF737
:1052D00088FF103608CF103B47F8046D002B1E46A0
:1052E000EFDC043740CF00BD085300004000094701
:1052F00050494F2D4241534547F8046D40F6000692
:10530000C4F2010670470000205300004000084727
:1053100050494F2E43524C0047F8046D0026704709
:10532000385300004000084750494F2E4352480070
:1053300047F8046D042670475053000040000847AA
:1053400050494F2E4944520047F8046D08267047D3
:10535000685300004000084750494F2E4F44520008
:1053600047F8046D0C267047805300004000094741
:1053700050494F2E4253525247F8046D1026704741
:10538000985300004000084750494F2E42525200A7
:1053900047F8046D14267047C0530000611803627B
:1053A00069740123B3401E467047030001000000EA
:1053B0000020F20E0000620294120000620200005F
:1053C000EC530000621802696F0008CF1B021E43F5
:1053D00070470400F20E0000620208000000002086
:1053E0009412000062028C11000062020C54000052
:1053F000611803696F2316F01F06704702001F0033
:105400000000002056110000620200004854000015
:10541000611807696F2D6D61736B16F01F0601230C
:10542000B3401E46704705001F00000000205611C3
:1054300000006202010000000020F20E0000620283
:1054400094120000620200006854000061180769AD
:105450006F2D706F7274360A7047020008000000EA
:1054600000206A1200006202885400006108076987
:105470006F2D6261736516F47066B60040F6000326
:10548000C4F20103F6187047B85400000000036925
:105490006F4047F8046D16F47066B60040F60003DE
:1054A000C4F20103F6180836366808CF13F01F035C
:1054B000DE4016F001067047EC540000000004695D
:1054C0006F63210016F01F0301229A4047F8042D54
:1054D00016F47066B60040F60003C4F20103F61835
:1054E000143608CF336040CF7047000020550000CD
:1054F000000004696F73210016F01F0301229A4017
:1055000047F8042D16F47066B60040F60003C4F2A6
:105510000103F618103608CF336040CF7047000003
:1055200040550000000003696F2108CF5B1E9B41BE
:1055300013F01003F61800B5FFF7DEFF00BD000002
:1055400068550000000004696F78210047F8046D79
:1055500000B5FFF79EFF761EB64108CF47F8046DF1
:105560001E46FFF7E2FF00BD8055000040000949DC
:105570004D4F44452D41444347F8046D0026704784
:105580009C55000040000B494D4F44452D464C4F63
:10559000415447F8046D042670470000B8550000D8
:1055A00040000A494D4F44452D50554C4C0047F89A
:1055B000046D082670470000D05500004000084FD9
:1055C0004D4F44452D50500047F8046D012670475B
:1055D000E85500004000084F4D4F44452D4F440012
:1055E00047F8046D052670470456000040000B4F35
:1055F0004D4F44452D41462D505047F8046D092626
:10560000704700002056000040000B4F4D4F4445AE
:105610002D41462D4F4447F8046D0D26704700007C
:105620003C56000040000A4F4D4F44452D534C4F0F
:10563000570047F8046D01267047000058560000D7
:1056400040000A4F4D4F44452D464153540047F802
:10565000046D022670470000B4560000000008697F
:105660006F2D6D6F6465210047F8046D16F4706648
:10567000B60040F60003C4F20103F618003608CF66
:1056800013F008025208B61800B540B413F01F0614
:1056900016F0070604235E430F23B340DB43009A52
:1056A0001268134004CFB240134340BC336040CF74
:1056B00000BD000018570000000009696F2D6D6FD4
:1056C0006465732100B547F8046D30B400241025DB
:1056D00040CF230001229A4033001340002B12D008
:1056E00040B448CF33F00F0221000A4347F8046D5D
:1056F00047F8043D47F8046D1646FFF7B5FF08BCB0
:1057000047F8046D1E460134AC42E2D130BC043788
:10571000043740CF00BD0000DC57000000000369E3
:105720006F2E00B5FCF788FFFCF7EBFF0450494EE5
:10573000200016F01F0347F8046D47F8043D1E468D
:10574000FEF7BFFD0A2E40CF01DAFCF789FFFCF718
:10575000D8FF05504F525420330A413347F8046DA7
:105760001E46FCF7E9FD16F47066B60040F600032D
:10577000C4F20103F618FCF7C4FF06202043524C84
:105780002000336847F8046D1E46FDF72DF80436F7
:10579000FCF7B7FF052043524820336847F8046DF3
:1057A0001E46FDF721F80436FCF7ABFF05204944FF
:1057B0005220336847F8046D1E46FFF75EFC04363E
:1057C000FCF79FFF0620204F44522000336847F823
:1057D000046D1E46FFF751FC40CF00BD0C58000081
:1057E000000006636869706964004FF28070C1F65A
:1057F000FF70836EC26E016F47F8046D47F8043D79
:1058000047F8042D47F8041D032670473858000058
:10581000000004687769640000B5FFF7E6FF761EB4
:1058200030B40024350040CF08CF5E400134AC4294
:10583000FAD130BC00BD000068580000201808668E
:105840006C6173682D6B62004FF2C070C1F6FF701F
:10585000038C47F8046D1E4670470200E0F7FF1FF7
:105860000020261900002002A458000000000E6647
:105870006C6173682D7061676573697A65004FF2BA
:10588000C070C1F6FF70068C802E00B540CF04DCDE
:1058900047F8046D5FF4806603E047F8046D5FF439
:1058A000006600BDDC580000000006696F2E616CC8
:1058B0006C0000B547F8046D30B40024042540CFD7
:1058C00023001B0253F0000347F8046D1E46FFF748
:1058D00028FF0134AC42F3D130BC00BDF0580000C9
:1058E00040000350413047F8046D00267047000027
:1058F0000459000040000350423047F8046D5FF443
:10590000807670471859000040000350443047F833
:10591000046D5FF4407670472C590000400003503E
:10592000413147F8046D01267047000040590000DE
:1059300040000350423147F8046D40F201167047B1
:105940005459000040000350443147F8046D40F2C0
:10595000013670476859000040000350413247F853
:10596000046D0226704700007C590000400003507F
:10597000423247F8046D5FF4817670479059000019
:1059800040000350413347F8046D03267047000080
:10599000A459000040000350423347F8046D40F220
:1059A00003167047B859000040000350413447F8CF
:1059B000046D042670470000CC59000040000350DD
:1059C000423447F8046D5FF482767047E059000076
:1059D00040000350413547F8046D0526704700002C
:1059E000F459000040000350423547F8046D40F27E
:1059F00005167047085A000040000350413647F82A
:105A0000046D0626704700001C5A00004000035039
:105A1000423647F8046D5FF483767047305A0000D1
:105A200040000350413747F8046D072670470000D7
:105A3000445A000040000350423747F8046D40F2DA
:105A400007167047585A000040000350413847F885
:105A5000046D0826704700006C5A00004000035097
:105A6000423847F8046D5FF484767047805A00002E
:105A700040000350413947F8046D09267047000083
:105A8000945A000040000350423947F8046D40F238
:105A900009167047A85A00004000045041313000F8
:105AA00047F8046D0A267047C05A000040000450B1
:105AB0004231300047F8046D5FF48576704700008E
:105AC000D45A0000400004504131310047F8046DC1
:105AD0000B267047EC5A0000400004504231310060
:105AE00047F8046D40F20B1670470000005B0000A1
:105AF000400004504131320047F8046D0C267047D5
:105B0000185B0000400004504231320047F8046D39
:105B10005FF48676704700002C5B00004000045064
:105B20004131330047F8046D0D267047445B000097
:105B3000400004504231330047F8046D40F20D1626
:105B4000704700005C5B00004000045043313300AC
:105B500047F8046D40F20D2670470000705B0000AE
:105B6000400004504131340047F8046D0E26704760
:105B7000885B0000400004504231340047F8046D57
:105B80005FF4877670470000A05B0000400004507F
:105B90004331340047F8046D40F20E267047000090
