:100000008C030020BB4D0000D3470000D347000005
:10001000D3470000D3470000D34700000000000092
:100020000000000000000000000000000348000085
:10003000034800000000000003480000A94700003A
:100040000348000003480000034800002B4800005C
:100050000348000003480000554800007F480000A6
:10006000A9480000D3480000FD48000003480000F4
:100070000348000003480000034800000348000054
:100080000348000003480000254900000348000021
:100090000348000003480000034800004F490000E7
:1000A0007B490000A7490000D3490000FF49000038
:1000B000294A0000534A00007D4A0000A94A000076
:1000C000D54A0000FF4A0000294B0000514B0000B8
:1000D000794B0000A34B0000CD4B0000F74B000014
:1000E000214C00004D4C0000774C00000000000047
:1000F0000000000000000000000000000000000000
:1001000000000000000000009F4C0000C74C0000F1
:10011000EF4C0000174D00003F4D0000674D000000
:1001200003480000034800000348000003480000A3
:100130000348000003480000034800000348000093
:100140000348000003480000034800008F4D0000F2
:100150008C050000FFFF1E2D2D2D204D656372695B
:1001600073702D5374656C6C6172697320436F7288
:1001700065202D2D2D0007B58F48002B09D000F0EC
:100180003BF800F041F800F027F8426028210160B8
:10019000F3E707BD00B5884800230168282905D189
:1001A000426800F004F800F04CF8F6E700BD03B533
:1001B00047F8046D160047F8046D1E0008B400F0FF
:1001C000B5FF08BC013347F8046D7C4E47F8046D59
:1001D0007B4E04F02AF903BD03B5013B47F8046DDB
:1001E0001E0008B400F08CFF08BC320047F8046D14
:1001F000744E04F01AF903BD03B5734801681E2953
:1002000001D000F034F803BD8169016201698161A8
:100210008168016101688160C16941624169C161B0
:10022000C16841614168C1601E21016070470FB51E
:10023000614801681E2903D0FFF7DEFFFFF7E4FFE6
:100240000FBD02B581680160C168416000E002B580
:10025000016981604169C16081690161C169416170
:10026000016A8161416AC1611E21016202BD08B556
:1002700001681E220260082901D20B0004E028292F
:1002800009D1436800F05BF847F8046D4F4E56EA19
:10029000033602F0C1FF08BD00B500F009F800F018
:1002A0000CF800F00FF800F012F800F015F800BD9F
:1002B0000FB54548FFF7DBFF0FBD0FB54448FFF70B
:1002C000D6FF0FBD0FB54348FFF7D1FF0FBD0FB5E8
:1002D0004148FFF7CCFF0FBD0FB537480168062234
:1002E00002601E2906D147F8046D4CF6407602F0F4
:1002F00064FF15E0282909D1436847F8046D1E0002
:1003000047F8046D062602F029FC09E0062907D00B
:1003100047F8046D44F20666C9000E4302F04DFF33
:1003200000F001F80FBD24481E21016281610161C6
:100330008160C1620621016000218162704707B5BA
:1003400047F8046D1E0000F049F847F8046D1E00E0
:1003500002F004FC07BD07B5C16A282904D1016B6E
:10036000994201D1002307BD0168002918D0816896
:10037000002915D00169002912D0816900290FD008
:10038000016A00290CD0036347F8046D1E0047F88A
:10039000046D002602F0E2FB2821C162002307BDA4
:1003A00047F8046D1E0000F019F847F8046D1E00B0
:1003B00002F0D4FB07BD000028000020B40E0000AE
:1003C000610200000020000048000020040D47F8F2
:1003D00040000020380000203000002037B53648AB
:1003E0000168826803698469056A062000F00EF8D6
:1003F000032000F00BF8022000F008F8012000F0C4
:1004000005F800232C481E21C16237BD814209D066
:10041000824207D0834205D0844203D0854201D076
:10042000030037BD704747F8046D4CF6007600B501
:1004300081581E2905D1FFF7D1FF83500121994032
:100440000E4300BD00B501681E2904D10022FFF74C
:10045000EAFF02F0B2FE00BD00B581681E2907D197
:100460000822FFF7E0FF0022FFF7E1FF02F0A5FE00
:1004700000BD00B501691E290AD11022FFF7D3FF84
:100480000822FFF7D4FF0022FFF7D1FF02F095FE0C
:1004900000BD00B581691E290DD11822FFF7C3FFE9
:1004A0001022FFF7C4FF0822FFF7C1FF0022FFF769
:1004B000BEFF02F082FE00BD2800002000B50168EA
:1004C000282904D14368FFF73AFF0360190000BDF3
:1004D00000B58168282904D1C368FFF730FF836025
:1004E000190000BD00B50169282904D14369FFF74F
:1004F00026FF0361190000BD3EB582680369846967
:10050000056A9A4203D0A24201D0AA420AD1072A20
:1005100008D847F8046DD600FFF760FF1E438360DC
:1005200002F04BFE3EBD3EB50168826803698469F6
:10053000056A914206D0994204D0A14202D0A94254
:1005400000D03EBD47F8046DCE00FFF747FF1E43C5
:10055000036002F032FE3EBD00B5FFF772FEFFF70A
:1005600066FEFFF73BFF036000BD01B50648036868
:10057000013308D00023DB43036047F8046D4BF2DE
:10058000005602F01AFE01BDD84F0020B005000051
:100590004202043264757000386847F8046D043F05
:1005A0003860704700B500F0D7FC00F0D5FC00BD06
:1005B000CE0500006202053264726F70043740CFCE
:1005C000704700B500F078FC00F076FC00BD140622
:1005D0000000440205327377617007CF043F386032
:1005E00047F8046D043F3A600E00704700B5FFF70E
:1005F00050FF026803690360026142684369436017
:1006000042618268836983608261C268C369C36032
:10061000C26100BD3C060000620204326E697000D7
:1006200007CF043F3860704700B5FFF732FFFFF790
:10063000DDFFFFF706FEFFF704FE00BD56060000D3
:10064000440005326F766572B86847F8046D043F60
:100650003860FE6870477A06000044000532747501
:10066000636B07CF043F386047F8046D043F3A607E
:10067000043F3960043F386070479C060000460024
:100680000432726F74003868B9683A69B8603961C9
:100690003A6079687E60FE68F9607047BE060000C7
:1006A000460005322D726F743868B9683A6938614E
:1006B0003960BA60F968FE607E6879607047E60666
:1006C0000000200203323E7201CF01B440B440CF9B
:1006D000704700B5FFF749FF00F011FC00F0B1FCD6
:1006E00000F0AFFC00BD1207000020020332723E92
:1006F00047F8046D40BC01BC043F3860704700B54A
:10070000FFF733FF00F0B9FC00F0B7FC00F0F7FB97
:1007100000BD4207000020020332724047F8046D1A
:10072000019E47F8046D009E704700B5FFF71DFF5E
:1007300047F8046D49F6010603F031FA03F02BFA8D
:1007400000BD68070000200206327264726F7000FC
:1007500002B0704700B5FFF708FF47F8046D4BF291
:10076000020602F02AFD00BD80070000420003647B
:10077000322F3868F1077610400808433860704718
:100780009607000062020364322A38680018764136
:100790003860704717E0B0070000420004647368D7
:1007A00072003868F10776084008084338607047DF
:1007B000FC0700006202046473686C00386800186B
:1007C00076413860704700B5FFF746FEFFF776FECA
:1007D000FFF7A9FE00F093FBFFF770FEFFF7A3FE03
:1007E00047F8046D402601F06DFC00F088FB47F8E7
:1007F000046D44F2401601F065FC00BD0E080000D7
:100800004200046461627300002E07D470472C0814
:100810000000420007646E656761746538680021F6
:10082000C043F64301304E41386070477C080000F9
:10083000640202642D0007CF121AB1410E00043F7A
:100840003A60704700B5FFF724FE00F0ADFBFFF7FC
:1008500035FEFFF768FE00F052FBFFF72FFEFFF7B3
:1008600062FEFFF7C3FE01F097FB00F0B9FB47F80B
:10087000046D44F2801600F045FD00BDCA0800007A
:10088000640202642B0007CF12184E41043F3A6005
:10089000704700B5FFF7FDFD00F086FBFFF70EFE89
:1008A000FFF741FE00F02BFBFFF708FEFFF73BFED2
:1008B000FFF79CFE01F055FB00F092FB47F8046D3A
:1008C00044F2401600F022FD00BDF4080000610271
:1008D00003733E6447F8046DF617704700B500F0E7
:1008E000D9FAFFF720FE47F8046D41F2C07601F017
:1008F000E9FB00BD52090000620203756D2A3868E9
:10090000A0FB06063860704747F8046DDFF82865DD
:1009100000B5FFF7A1FDFFF7D1FDFFF7D9FD016895
:100920000E43816856EA0146FFF78BFCFFF789FC0E
:10093000FFF77DFCFFF752FD036056EA0336FFF731
:1009400076FCFFF74BFD036056EA032602F064FCD9
:1009500000BD700900006202026D2A00386880FB49
:1009600006063860704747F8046DDFF8D064CFE7BB
:10097000AE09000044000375642A07CF5643414383
:100980007618010C130C59437618010C80B292B200
:100990005143434350430022C91852411204B61830
:1009A0000A04090C80184E41043F38607047400A21
:1009B000000044000475646D2A0010B5002447F857
:1009C000046D7E6847F8046D3E69FFF798FF3100BB
:1009D00040CF300040CF47F8046D3E6847F8046DC3
:1009E000FE6803B4FFF78BFF03BC330040CF320037
:1009F00040CF47F8046D3E6847F8046D3E690FB478
:100A0000FFF77DFF0FBC9219634140CF8919624106
:100A1000634140CF47F8046D7E6847F8046DFE6877
:100A20000FB4FFF76CFF0FBC9219634140CF8919D7
:100A30006241634140CF1E003A607960B86010BDEA
:100A4000620A00004300022A2F0000B540B440CFE4
:100A5000FFF784FF47F8046D40BC00F04CF8043702
:100A600000BD840A00004300052A2F6D6F6400B5A5
:100A700040B440CFFFF772FF47F8046D40BC00F070
:100A80003AF800BDA60A0000430003752A2F00B5FE
:100A900040B440CFFFF733FF47F8046D40BC00F08F
:100AA0001BF8043700BDCA0A0000430006752A2F50
:100AB0006D6F640000B540B440CFFFF720FF47F8EA
:100AC000046D40BC00F008F800BDEA0A00004300D5
:100AD00006756D2F6D6F640000B547F8046D002634
:100AE00000F019F840CF043700BD080B00004300A8
:100AF000056D2F6D6F6400B547F8046DF61700F0B3
:100B000032F840CF043700BD5A0B00004400067590
:100B1000642F6D6F640030B4002300227968B868D8
:100B200035003C6840264000494152415B41AB42A0
:100B300002D804D3A24202D3121BAB410130013EC2
:100B4000F1D10E0038607B60BA6030BC704730B4C1
:100B500000237A68B9680020E2E7D00B0000440067
:100B600005642F6D6F6400B5F01719D0FFF756FEBE
:100B7000FFF733FDF0170CD0FFF750FEFFF72DFD08
:100B8000FFF7C9FFFFF729FDFFF748FEFFF725FD37
:100B900000BDFFF722FDFFF7BEFFFFF73FFE00BDE0
:100BA000FFF71BFDF0170ED0FFF738FEFFF715FD1E
:100BB000FFF7B1FFFFF732FEFFF70FFDFFF72EFE45
:100BC000FFF70BFD00BDFFF708FDFFF7A4FF00BD19
:100BD000E60B0000440002642F0000B5FFF7C3FFDE
:100BE000FFF71EFD00BD2E0C0000440002662A0027
:100BF00000B5F0170DD0FFF711FEFFF7EEFCF01770
:100C00000DD0FFF70BFEFFF7D8FE40CF01CF3860C5
:100C100000BDFFF7E2FCF017F5D0FFF7FFFDFFF78F
:100C2000CCFE40CF01CF3860FFF7F8FD00BD7A0C55
:100C30000000440002662F0000B5F0170ED0FFF749
:100C4000EDFDFFF7CAFCF0170ED0FFF7E7FDFFF749
:100C5000C4FCFFF77CFFFFF7E3FC00BDFFF7BDFC22
:100C6000F017F4D0FFF7DAFDFFF7B7FCFFF76FFFDF
:100C7000FFF7D4FDFFF7D4FC00BDC20C000020023A
:100C80000232210006CF3160726040CF704700B55C
:100C9000FFF7EFFB0168426806B400F006FEFFF7BD
:100CA000C6FA06BC0160282906D047F8046D46F252
:100CB000400600F0FEFD00BD0432426000F0F5FD8C
:100CC00000BD0C0D0000200202324000043F70689D
:100CD00038603668704700B500F0DCF801682829F4
:100CE0000AD047F8046D46F6400600F0BFFD00F05C
:100CF00006F900F0B7FD00BD41680431416000F025
:100D0000B1FD00F0FCF800F0ADFD00BD2C0D0000C1
:100D100044000364753C07CF8E4204D801D1904251
:100D200001D8002670470026F64370474C0D00009E
:100D300044000364753E07CFB14204D801D182421A
:100D400001D8002670470026F64370476C0D00005E
:100D5000440002643C0007CF8E4204DC01D1904283
:100D600001DC002670470026F64370478C0D00001A
:100D7000440002643E0007CFB14204DC01D182424C
:100D800001DC002670470026F6437047A80D0000DE
:100D900062020364303C0437F617704700B500F078
:100DA000C1F800F03DFB00BDD00D000062020364FD
:100DB000303D01CF0643013EB641704700B547F8CC
:100DC000046D44F2003600F0A1FA00F005FB00BD0E
:100DD000F60D0000440203643C3E07CF50404E40F5
:100DE0000643013EB641F643704700B500F015F8E2
:100DF00000F005FB00BD400E0000440202643D000F
:100E000007CF50404E400643013EB641704700B503
:100E100000F003F800F0E0FA00BD00B5FFF739FB81
:100E200000F0C2F800F0C4F900F0DAF800F0C0F900
:100E300000F0B1F900BD00000000A0FB000080FB45
:100E4000520E000020000373704047F8046D3E000E
:100E50007047620E0000200003737021370040CFFE
:100E60007047740E000020000372704047F8046D54
:100E70006E467047840E0000200003727021B54654
:100E800040CF7047A80E000061020364757047F8F8
:100E9000046D704706B5FFF7D5FA01684268FFF7A1
:100EA000C6F90160426006BDD40E00006102046410
:100EB000726F700040CF704700B501681E2906D1DF
:100EC00047F8046D43F2047602F077F900BDFFF7AE
:100ED000B8F900BDEA0E00006100043F64757000BF
:100EE000002E01D047F8046D7047160F0000620213
:100EF00004737761700039683E600E0070470CB56E
:100F0000FFF7AAFA02688368036082604268C368D8
:100F10004360C2600CBD440F00006202036E697042
:100F20000437704700B5FFF78DFA81681E2902D09B
:100F3000FFF78DF900BD47F8046D43F2047602F027
:100F40003CF900BD6C0F00006202046F7665720010
:100F500047F8046D7E68704700B5FFF77DFA816839
:100F6000C268FFF764F90160426000BD920F0000A3
:100F70006202047475636B0001CF083F7E603860C5
:100F8000704700B5FFF768FAFFF784FF00F028F814
:100F900000BDC80F0000630203726F7403CF083FE7
:100FA00078603E600E0070470EB5FFF762FA016888
:100FB000826803698160026103604168C2684369B5
:100FC000C160426143600EBDEC0F00006302042D5E
:100FD000726F740003CF083F7E603960060070476F
:100FE00000B5FFF7E1FFFFF7DFFF00BDFE0F0000D8
:100FF0002000047069636B0057F826607047161074
:10100000000000000564657074684F49C91B47F80B
:10101000046D8E087047321000000000067264658F
:101020007074680047F8046D6E464849891B8E0845
:101030007047681000002002023E720040B440CFAA
:10104000704700B5FFF791FAFFF7FCF9FFF736FAA2
:1010500047F8046D4BF2004601228A40164302F025
:10106000ACF8FFF7EEF800BD9E10000020020272FF
:101070003E0047F8046D40BC704700B5FFF775FAB5
:10108000FFF7D5F8FFF7AAF9036047F8046D4BF6B0
:10109000004601229A40164302F08FF800BDBC10B2
:1010A000000020020272400047F8046D009E704765
:1010B00000B5FFF75AFA02F06EFD00BDE010000027
:1010C0002002057264726F7001B0704700B5FFF7BF
:1010D0004CFA47F8046D4BF2010602F06EF800BDC1
:1010E000F4100000200005727069636BB6006E4456
:1010F0003668704720110000000004726F6C6C00AD
:10110000002E01D140CF7047B0003958C019031FDD
:101110001A6802600438013EF9D104370E007047A6
:10112000501100000000052D726F6C6C002E01D173
:1011300040CF7047386839464A680A600431013E3A
:10114000FAD1086040CF70478C0200208C03002049
:101150006A110000620203616E6401CF06407047AD
:1011600047F8046D44F20006D0E0861100006202E8
:101170000362696301CFB0430600704747F8046D0E
:1011800044F28036BEE0A01100006202026F7200DD
:1011900001CF0643704747F8046D44F20036B5E0CE
:1011A000BA110000620203786F7201CF46407047A7
:1011B00047F8046D44F24006A8E0D2110000620234
:1011C000012A01CF4643704747F8046D44F2403688
:1011D0009CE006120000610203636C7AB6FA86F6A0
:1011E000704700B5FFF72EF947F8046D6F4EFFF713
:1011F00065F90E4356EA0146FFF7AEF956EA0326B3
:1012000002F00AF800BD16120000610003726F724E
:101210005FEA7606704728120000610003726F6C67
:10122000B61956F1000670476012000062020761AD
:1012300072736869667401CF30410600704700B56B
:1012400047F8046D44F2001647F8046D41F20006B9
:10125000FFF702F941681F292AD91F21416027E0C1
:101260008A1200006202067273686966740001CF18
:10127000F0400600704700B547F8046D44F2C00620
:1012800047F8046D40F6000612E0C8130000620241
:10129000066C73686966740001CFB0400600704741
:1012A00000B547F8046D44F2800647F8046D002647
:1012B000FFF7D2F80168282903D040CF00F022F8C8
:1012C00000BD04374168FEF7BCFF002901D140CFC3
:1012D00000BD1F290AD889010E430268D2001643B7
:1012E000FFF73AF91E4301F068FF00BD40CFFFF75A
:1012F00033F947F8046D42F200061B021E4301F069
:101300005CFF00BD0FB5FFF7A7F80CE00FB5FFF7C6
:10131000A3F80168062901D1FFF7F1FD8268282AA8
:1013200001D1FFF7ECFDFFF7D3F8016828291CD1A4
:1013300047F8046D466801F05DFB02CF002E40CFF8
:1013400013D0B6F5804F01D1194E1CE0194A9642D0
:1013500001D1194E17E0B6F5864F01D1174E12E0B4
:10136000174A964201D1174E0DE0FFF7C5F8FFF777
:10137000A5F8C90082680E43164301F01EFFFEF770
:1013800060FF0FBD0FB50E43816856EA0146FEF7B8
:1013900058FFFEF756FFFEF74AFFFFF71FF80360FE
:1013A00056EA032601F038FF0FBD000080F0B0FAC6
:1013B000000010F040400000000090F0000050F0ED
:1013C00080430000000030F0EC13000061020230A6
:1013D0003D00013EB641704700B500F0FDF800F059
:1013E0002EFEFEF72EFF7949816200BD1214000027
:1013F000610203303C3E013EB641F643704700B502
:1014000000F0EAF800F01BFEFEF71BFF7049816256
:1014100000BD38140000610202303C00F61770472E
:1014200000B500F0D9F847F8046D41F2C07600F03D
:1014300049FE6849816200BD4E14000060000474DA
:101440007275650047F8046D0026F6437047621414
:10145000000060000566616C736547F8046D002646
:101460007047881400004202023E3D0001CFB042A6
:10147000EADA0026704747F8046D4DF6003647F863
:10148000046D4DF60026B3E0AE1400004202023CAB
:101490003D0001CFB042D7DD0026704747F8046D0C
:1014A0004DF6004647F8046D4DF60056A0E0D21404
:1014B00000004202013C01CFB042C5DB002670476C
:1014C00047F8046D4DF6002647F8046D4DF60036DA
:1014D0008EE0F61400004202013E01CFB042B3DCC0
:1014E0000026704747F8046D4DF6005647F8046D26
:1014F0004DF600467CE01C150000620203753E3D7F
:1015000001CF861BB641F643704747F8046D4DF294
:10151000003647F8046D4DF2002669E042150000E0
:10152000620203753C3D01CF361AB641F64370475F
:1015300047F8046D4DF6000647F8046D4DF60016A9
:1015400056E066150000620202753C0001CF861B62
:10155000B641704747F8046D4DF2002647F8046D18
:101560004DF2003644E08A150000620202753E002A
:1015700001CF361AB641704747F8046D4DF6001694
:1015800047F8046D4DF6000632E0AC15000062022B
:10159000023C3E0001CF811B361A0E43704747F8CC
:1015A000046D4DF2000647F8046D21E014170000A9
:1015B0006202013D01CF361A013EB641704747F83D
:1015C000046D4DF2001647F8046D11E000D20000E2
:1015D00000D3000000D5000000B5FEF733FFFEF792
:1015E00067FEFEF76AFEFEF76DFEFEF771FF00BDB7
:1015F00000B5FEF731FFFEF75BFEFEF75EFEFEF77D
:1016000071FF8268282A04D1FFF779FC39683E60AF
:101610000E4640CF016828291DD14168FF2907D80F
:1016200047F8046D42F600060E43816809021AE08D
:1016300047F8046D466801F0DDF902CF002E40CF77
:1016400009D047F8046D694E0E43816856EA014699
:1016500001F0E2FD0AE0FEF731FF47F8046D44F2C5
:101660008026C90016430E4301F0A7FDFEF7E9FDF1
:10167000FEF7E7FD866240CF00BD0FB55C48816A8A
:10168000002933D047F8046D866A00218162310A4F
:10169000D52901D140CF0FBDFEF7C9FDFEF79EFE53
:1016A0000360D22903D1534E00F00CFD0FBDD329A6
:1016B00005D1504E00F006FD00F017FD0FBD0236BB
:1016C00001F07BFD47F8046D42F2000600F00FF8D0
:1016D00000F00BFD47F8046D4EF2000601F06DFDC1
:1016E00047F8046D42F2000600F001F80FBD00B5A6
:1016F000FEF7A8FEFEF717FF016809020E4301F08E
:101700005CFD00BD00B5816A090AD52901D1FEF74B
:1017100098FD00BD321700006202036D696E01CFB3
:10172000B04200DC0600704747F8046D4DF6003605
:101730002DE0501700006202036D617801CFB042C6
:1017400000DB0600704747F8046D4DF600461EE0CA
:1017500070170000620204756D61780001CFB0421D
:1017600000D30600704747F8046D4DF600060EE002
:10177000F8170000620204756D696E0001CFB04277
:1017800000D80600704747F8046D4DF2003600B5EA
:10179000FEF762FE01688268914203D140CFFEF7F6
:1017A00056FD00BD062A01D1FFF7A9FB01682829D3
:1017B00001D1FFF7A4FBFEF7B6FEFEF789FEC900D4
:1017C000026847F8046D44F280260E43164301F088
:1017D000F4FC01F0F2FC47F8046D44F200660E439D
:1017E000164301F0EAFCFEF732FD00BD000FB0F138
:1017F0002800002080410000361800000000046D21
:101800006F76650007B5310040CF320040CF002928
:101810000FD0B2420DD006D3013E013A705C505455
:101820000139FBD105E03078107001360132013901
:10183000F9D140CF07BD5818000000000466696C5C
:101840006C00300040CF310040CF002902D0013978
:101850007054FCD140CF70479A180000200201401C
:101860003668704747F8046D46F6000600B5FEF787
:10187000E9FD0368282B08D143687C211940090140
:101880000E437C218B43FEF766FDDB001E43FEF713
:1018900063FE1E4301F091FC00BDF218000020021F
:1018A000012103CF30600E00704747F8046D46F207
:1018B000000600B5FEF7D0FD0368282B09D1436868
:1018C0007C21194009010E437C218B43FEF743FD27
:1018D0000360DB001E438368282B02D1C368FEF738
:1018E0002EFD1E4301F069FCFEF7ABFCFEF7A9FCE0
:1018F00000BD281900002002022B210003CF32680E
:10190000121832600E00704700B5FEF7A5FDFFF714
:10191000C1FAFFF7A7FFFFF747FB00F022FBFFF735
:10192000EEFAFFF7C2FF00BD6C190000200202684A
:1019300040003688704700B5FEF784FD47F8046D17
:1019400048F600060368282B08D143683E21194059
:1019500049010E433E218B43FEF7FDFCDB001E4395
:10196000FEF7FAFD1E4301F028FC00BDC619000079
:1019700020020268210003CF30800E00704700B5BE
:10198000FEF76AFD47F8046D48F200060368282B4D
:1019900009D143683E21194049010E433E218B4342
:1019A000FEF7D9FC0360DB001E438368282B02D1BD
:1019B000C368FEF7C4FC1E4301F0FFFBFEF741FCC9
:1019C000FEF73FFC00BDFC190000200203682B213C
:1019D00003CF3288121832800E00704700B5FEF730
:1019E0003BFDFFF757FAFFF7A6FFFFF7DDFA00F020
:1019F000B8FAFFF784FAFFF7C2FF00BD401A0000F3
:101A00002002026340003678704700B5FEF71AFDE9
:101A100047F8046D47F600060368282B08D1436891
:101A20001F21194089010E431F218B43FEF793FCB0
:101A3000DB001E43FEF790FD1E4301F0BEFB00BD20
:101A40009A1A000020020263210003CF30700E00BA
:101A5000704700B5FEF700FD47F8046D47F2000639
:101A60000368282B09D143681F21194089010E43BF
:101A70001F218B43FEF76FFC0360DB001E4383686E
:101A8000282B02D1C368FEF75AFC1E4301F095FBD8
:101A9000FEF7D7FBFEF7D5FB00BDD01A00002002F1
:101AA00003632B2103CF3278121832700E00704777
:101AB00000B5FEF7D1FCFFF7EDF9FFF7A6FFFFF742
:101AC00073FA00F04EFAFFF71AFAFFF7C2FF00BDF3
:101AD000101B0000200204626973210003CF3268EA
:101AE000024332600E00704700B5FEF7B5FCFFF709
:101AF000D1F9FFF7B7FEFFF757FA47F8046D44F244
:101B00000036FFF703FCFFF7FAF9FFF7CEFE00BD42
:101B1000501B0000200204626963210003CF326879
:101B2000824332600E00704700B5FEF795FCFFF768
:101B3000B1F9FFF797FEFFF737FA47F8046D44F263
:101B40008036FFF7DFFBFFF7DAF9FFF7AEFE00BDE7
:101B5000901B0000200204786F72210003CF3268CE
:101B6000424032600E00704700B5FEF775FCFFF78B
:101B700091F9FFF777FEFFF717FA47F8046D44F283
:101B80004006FFF7C3FBFFF7BAF9FFF78EFE00BD73
:101B9000C61B0000200204626974400001CF366851
:101BA000064018BF4FF0FF36704700B5FEF754FCF3
:101BB000FFF758FE47F8046D44F20006FFF7A6FB56
:101BC000FFF71DFC00BD061C0000200205686269CD
:101BD000732103CF3288024332800E00704700B574
:101BE000FEF73AFCFFF756F9FFF7A5FEFFF7DCF921
:101BF00047F8046D44F20036FFF788FBFFF77FF9E2
:101C0000FFF7BDFE00BD461C0000200205686269AA
:101C1000632103CF3288824332800E00704700B5C3
:101C2000FEF71AFCFFF736F9FFF785FEFFF7BCF960
:101C300047F8046D44F28036FFF764FBFFF75FF965
:101C4000FFF79DFE00BD861C000020020568786F2E
:101C5000722103CF3288424032800E00704700B5B7
:101C6000FEF7FAFBFFF716F9FFF765FEFFF79CF9A1
:101C700047F8046D44F24006FFF748FBFFF73FF9D1
:101C8000FFF77DFE00BDBC1C0000200205686269F4
:101C9000744001CF3688064018BF4FF0FF367047BA
:101CA00000B5FEF7D9FBFFF746FE47F8046D44F296
:101CB0000006FFF72BFBFFF7A2FB00BDFC1C00009A
:101CC000200205636269732103CF327802433270C8
:101CD0000E00704700B5FEF7BFFBFFF7DBF8FFF71C
:101CE00094FEFFF761F947F8046D44F20036FFF700
:101CF0000DFBFFF704F9FFF7ACFE00BD3C1D000033
:101D0000200205636269632103CF32788243327017
:101D10000E00704700B5FEF79FFBFFF7BBF8FFF71B
:101D200074FEFFF741F947F8046D44F28036FFF77F
:101D3000E9FAFFF7E4F8FFF78CFE00BD7C1D000018
:101D400020020563786F722103CF327842403270EF
:101D50000E00704700B5FEF77FFBFFF79BF8FFF71B
:101D600054FEFFF721F947F8046D44F24006FFF7EF
:101D7000CDFAFFF7C4F8FFF76CFE00BDB21D0000FE
:101D8000200205636269744001CF3678064018BFAF
:101D90004FF0FF36704700B5FEF75EFBFFF735FEEC
:101DA00047F8046D44F20006FFF7B0FAFFF727FB8F
:101DB00000BD461E000000000768666C6173682164
:101DC000300040CF310040CF594B984221D3594B7E
:101DD00098421ED2584B1940994219D010F0010276
:101DE000002A16D102889A4213D110F10060534A9A
:101DF000534B1360534B1360534A0123136001800C
:101E0000524A136813F00103FBD14F4A8023136039
:101E1000704700F0AAFC2A57726F6E6720616464F5
:101E200072657373206F72206461746120666F72D3
:101E30002077726974696E6720666C61736820210F
:101E40000A0002F002BC941E000000000E666C61E5
:101E50007368706167656572617365000FB5300006
:101E600040CF334B984214D3344A354B1360354B33
:101E70001360354A02231360354A1060324A422308
:101E80001360324A136813F00103FBD12E4A8023FA
:101E900013600FBD121F000000000A6572617365B8
:101EA000666C61736800224872B622494FF6FF7271
:101EB000038893421CD047F8046D060047F8046D70
:101EC00000F053FC10457261736520626C6F636BA8
:101ED00020617420200000F0BBFC00F046FC0C20C8
:101EE00066726F6D20466C6173680A00FFF7B6FF7B
:101EF00002308842DCD100F038FC1246696E69730A
:101F00006865642E20526573657420210A0002F012
:101F100036BC541F000000000E6572617365666C6C
:101F200061736866726F6D0072B6300040CFBBE7B8
:101F30000050000000000100FFFF000004200240EC
:101F400023016745AB89EFCD102002400C200240F1
:101F5000142002408A1F00006202012B01CF3618B4
:101F6000704700B5FEF778FA47F8046D43F20006B3
:101F700047F8046DC84E47F8046D41F600068168C5
:101F8000282917D1FEF7BBFF14E0302000006202C1
:101F9000012D01CF861B704700B5FEF75DFA47F8AB
:101FA000046D43F6000647F8046DBC4E47F8046D17
:101FB00041F60026FEF78CFA0168282927D14168EE
:101FC000FF290CD840CF40CFFEF796FA0E43816828
:101FD00009020E4301F0F1F8FEF733F900BD47F8AE
:101FE000046D0E0000F006FD02CF002E40CF0ED093
:101FF00040CF04370E43816856EA0146FEF721F9C7
:10200000FEF7AAFA56EA032601F006F900BD0437E6
:102010000437FEF753FA89018268D2000E43164353
:10202000FEF70FF9FEF798FA1E4301F0C6F800BD5F
:1020300048200000610202312D00013E704747F840
:10204000046D41F640663DE060200000610202310F
:102050002B000136704747F8046D41F6404631E0E9
:1020600078200000610202322D00023E704747F8DE
:10207000046D41F6806625E0902000006102023286
:102080002B000236704747F8046D41F6804619E090
:10209000AA20000061020563656C6C2B0436704752
:1020A00047F8046D41F600560CE0DC2000006102A8
:1020B000066E6567617465007642704747F8046D87
:1020C00044F2402600B5FEF7BDF90168C9000E4391
:1020D000FEF742FA1E4301F070F800BDF420000044
:1020E0006102036E6F74F643704747F8046D44F263
:1020F000C036E7E70C2100006102037368727608BE
:10210000704747F8046D40F64006DBE71C210000ED
:1021100061020373686C7600704706E032210000AC
:10212000610202322A007600704747F8046D4026AB
:10213000C8E74A21000061020563656C6C73B60054
:10214000704747F8046D8026BCE7622100006102F9
:1021500002322F007610704747F8046D41F24006B6
:10216000B0E79E210000610203616273F017361828
:102170004640704700B5FEF765F947F8046D42F632
:102180000006016809020E4301F017F847F8046DD4
:102190004DF2005601F011F8FFF790FF00BDBC2191
:1021A0000000420005752F6D6F6401CF3100B0FB58
:1021B000F6F67143401A043F38607047DA21000098
:1021C0004200042F6D6F640001CF310090FBF6F6E2
:1021D0007143401A043F38607047EE21000042000E
:1021E000036D6F6400B5FFF7EFFF40CF00BD2E22F7
:1021F00000006202012F01CF90FBF6F6704700B598
:10220000FEF72AF9FEF75AF9FEF762F947F8046D6E
:10221000234E01680E43816856EA0146FEF711F825
:10222000FEF79AF956EA032600F0F6FF00BD4222B7
:1022300000006100046576656E00012030403618AC
:1022400070475A220000810004626173650047F8FC
:10225000046D144E70470A00000070220000000058
:102260000662696E617279000E4802210160704752
:1022700086220000000007646563696D616C09488F
:102280000A2101607047A8220000000003686578F9
:102290000448102101607047000010F10000B0F107
:1022A000F0F090FBFC4F0020C42200008100096880
:1022B0006F6F6B2D656D697447F8046D7D4E7047C7
:1022C000AE230000E0220000810008686F6F6B2DD4
:1022D0006B65790047F8046D774E7047D423000092
:1022E000FE22000081000A686F6F6B2D656D6974B6
:1022F0003F0047F8046D714E7047FE2300001A231B
:102300000000810009686F6F6B2D6B65793F47F89E
:10231000046D6B4E70472A240000382300008100B2
:102320000A686F6F6B2D70617573650047F8046DF7
:10233000644E70472E4700004E23000000000465E5
:102340006D6974000FB55B4800F026F80FBD62237D
:1023500000000000036B65790FB5574800F01CF8CA
:102360000FBD74230000000005656D69743F53487C
:1023700000688746862300000000046B65793F00F3
:102380004F48006887469C23000000000570617577
:1023900073654C480068874600688746C223000082
:1023A00000000B73657269616C2D656D697400B511
:1023B00000F025F8002E40CFFAD0434A167040CFE7
:1023C00000BDEA23000000000A73657269616C2D8C
:1023D0006B65790000B500F028F8002E40CFFAD0E8
:1023E00047F8046D384A167800BD18240000000034
:1023F0000C73657269616C2D656D69743F0000B581
:10240000FFF7C7FF47F8046D0026304801688020B9
:10241000014000D0F64300BD5E24000000000B73B5
:10242000657269616C2D6B65793F00B5FFF7B1FF8F
:1024300047F8046D0026254801682020014000D09F
:10244000F64300BD22492348086023492348086019
:102450002349462008602349234808607047EC243C
:102460000000000004696E69740000B5FFF7EAFF20
:1024700000F07BF93A4D6563726973702D53746592
:102480006C6C6172697320524120322E332E3020E1
:10249000666F722053544D333246313033206279A7
:1024A000204D61747468696173204B6F63680A0022
:1024B00000BD0000F84F0020F44F0020F04F002036
:1024C000EC4F0020E84F0020043801400038014064
:1024D000181002403D40000004080140B004000014
:1024E000083801400C3801400C2000001025000085
:1024F0000000076365787065637400B5386801B4DF
:102500000130386000F00BF801BC067040CF00BD10
:10251000862500000000066163636570740000B5E5
:1025200002CF01390022FFF717FF300040CF7F288C
:1025300009D0202819D2092816D00A281FD00D2822
:102540001DD00828EFD1002AEDD000F00EF90308C5
:102550002008002AE7D0885C013A80230340E2D0BB
:1025600040230340F5D0DEE72020B242DBD247F81B
:10257000046D0600FFF7E6FE01328854D3E716002B
:1025800000F0A2F800BD98250000400003746962C5
:1025900047F8046D294E7047AE2500008100033EC8
:1025A000696E47F8046D264E704700000000D42580
:1025B000000082000E63757272656E742D736F7504
:1025C0007263650047F8046D1E4E704700000000FE
:1025D000C4000020F0250000000009736574736FCB
:1025E00075726365174802CF0660416040CF70473F
:1025F0000E260000000006736F757263650047F8D1
:10260000046D104E043F7068386036687047482685
:10261000000000000571756572790FB5084800214A
:102620000160FFF7B5FF47F8046D47F8046DC82651
:10263000FFF775FFFFF7D6FF0FBD0000C4000020B5
:10264000E44F0020DC4F00209626000000000763C6
:102650006F6D706172650FB5310040CF01CF884258
:1026600002D040CF00260FBD02CF002810D0013885
:102670000A5C335C412A02D35B2A38BF2032412BEB
:1026800002D35B2B38BF20339A42EED000260FBD19
:102690000026F6430FBDAA26000000000263720068
:1026A00000B500F062F8010A00BDBC260000000081
:1026B00002626C0047F8046D20267047D0260000A7
:1026C000000005737061636547F8046D202639E6E4
:1026D000F02600000000067370616365730000B5AA
:1026E000002E03DDFFF7F0FF013EFBD140CF00BD20
:1026F000002700005000065B636861725D0005E022
:1027000018270000000004636861720000B501F042
:102710002BFC40CF367800BD28270000500401284C
:1027200047F8046D292606E0422700005004015CAA
:1027300047F8046D002600B501F020FC043740CFB7
:1027400000BD862700001000022E22009B4800B525
:1027500047F8046D060000F05EFA47F8046D222683
:1027600001F00CFC00F068FD00BD0AB447F8046DF0
:102770007646013E33780121013319405B181EEB88
:10278000030E0ABC39E0AC270000100002632200EF
:102790008B48DCE747F8046D7646013E337801212B
:1027A000013319405B181EEB030E7047D62700005B
:1027B0001000027322008348C9E747F8046D76468B
:1027C00047F8046D013E36780121731C19405B18EF
:1027D0001EEB030E7047EE270000000005636F75C7
:1027E0006E74013647F8046D013E3678704716283E
:1027F0000000000005637479706501B53078002829
:1028000007D0013647F8046D3678FFF79BFD013895
:10281000F7D140CF01BD4428000000000474797056
:102820006500310040CF300040CF00B5002908D00E
:10283000002247F8046D865CFFF784FD0132914267
:10284000F7D100BD7E2800000000046865782E00E6
:1028500007B5310040CF20200F22043847F8046D1F
:102860000E00C6401640092E01D9373600E030363A
:10287000FFF768FD0028F0D1FFF726FF07BD8E287F
:102880000000000003682E731FB54F4C0EE09E2819
:102890000000000003752E731FB54C4C06E01C2988
:1028A00000000000022E73001FB5494C4949C91BA6
:1028B0008908494A106803B40A201060FFF755FFE1
:1028C00008537461636B3A205B0047F8046D0E0097
:1028D00001F023FDFFF749FF025D200003BC3E4AE3
:1028E000106000290AD03D4A106806B447F8046D0C
:1028F0000600A04706BC043A0139F5D1FFF735FFC1
:102900000620544F533A200047F8046D3600A04784
:10291000FFF72BFF04202A3E0A001FBDE02900001C
:10292000000005776F72647300B5FFF71EFF010AA0
:1029300000F0BFFEFFF719FF09416464726573730D
:102940003A2047F8046DFFF783FFFFF70EFF064CB0
:10295000696E6B3A200047F8046D3668FFF778FF20
:10296000FFF703FF07466C6167733A2047F8046D71
:10297000B688FFF76DFFFFF7F8FE06436F64653A10
:102980002000B01D00F0CEFE47F8046D0600FFF7F2
:102990005FFFFFF7EAFE064E616D653A200047F8DB
:1029A000046D0636FFF729FFFFF7DFFE010A00F08E
:1029B00097FE300040CFBDD040CF00BD6A27000059
:1029C00094270000BA270000512800000B430000A4
:1029D0001B4300008C020020FC4F002088020020D6
:1029E000442B000000000D3132626974656E636F24
:1029F00064696E670FB5FF2E04D847F8046D5FF069
:102A0000FF360FBD16F0FF10B0420ED14FF6FF712A
:102A10000840310C814208D116F0FF0656F480566A
:102A200047F8046D5FF0FF360FBD16F0FF20B0428F
:102A30000FD14FF6FF710840310C814209D1360A9F
:102A400016F0FF0656F4005647F8046D5FF0FF36A7
:102A50000FBDFF2231001140300A1040884210D1D2
:102A6000300C104088420CD1300E1040884208D102
:102A700016F0FF0656F4405647F8046D5FF0FF3637
:102A80000FBD300000210131001850F100007FF02F
:102A90007F020240802A05D01F29F4D347F8046D35
:102AA00000260FBD0829F9D3060036F0800611F084
:102AB0000100C001064311F00E00C002064311F0F0
:102AC00010008005064347F8046D5FF0FF360FBD28
:102AD00047F8046DDFF854665FF4704110EA0102B4
:102AE000120116435FF4006110EA0102D20316439B
:102AF0005FF4E06110EA010212011643FF2110EABF
:102B0000010216431E4387E347F8046DDFF8206691
:102B10005FF0704110EA0102120B16435FF0006192
:102B200010EA0102520816435FF0E06110EA010268
:102B3000120B16435FF47F0110EA0102120C1643D8
:102B40001E4369E3AA2B00000000107265676973D9
:102B50007465726C69746572616C2C000FB533001A
:102B600040CF1B02FF2E05D856F400561E4300F03E
:102B700024FB0FBDFFF73EFF002E40CF06D0DFF84D
:102B8000B40506431E4300F047FB0FBDF643FFF7B5
:102B900031FF002E40CF06D0DFF89C0506431E43D0
:102BA00000F03AFB0FBDF6430BE00A2C00000000DA
:102BB000096D6F76776D6F76742C0FB5330040CF4B
:102BC0001B02300040CFFFF783FF4FF6FF7110EA82
:102BD000014001D0FFF798FF0FBD0FB5013630005F
:102BE00040CF0023FFF774FFFFF78EFF06E00FB51D
:102BF000013647F8046D0026FFF7B0FF47F8046D73
:102C000044F2807600F0D9FA0FBD702C000000006D
:102C10000563616C6C2C0FB5330000F026FE3000AC
:102C200040CF1B1A043BDFF814151940002906D0C9
:102C3000DFF80C25914202D0BDE80F40D7E740CF26
:102C40005B08DFF8000540F2FF7119400843DB0A1A
:102C500040F2FF311940090408439B0A13F00101B7
:102C60008906084347F8046D060000F0D5FA0FBD49
:102C7000A62C00000000086C69746572616C2C0061
:102C800008B547F8046D4FF6470600F096FA47F886
:102C9000046D46F6045600F090FA47F8046D0626D7
:102CA000FFF75CFF08BDCA2C0000000006637265D8
:102CB0006174650000B500F033F842F6E7408047E4
:102CC00047F8046DBEF1010600BD122D0000200082
:102CD00005646F65733E42F6E740804747F8046D30
:102CE000BEF10106704747F8046DBEF10106DFF83A
:102CF00058241368DFF8541409680220084000D0F3
:102D0000023102311160FFF768FF136000F0C4F96F
:102D100000BD542D00000000073C6275696C6473AF
:102D200000B500F055FB00F0A0FD0220064040CFAA
:102D300004D047F8046D362600F03FFA47F8046DDA
:102D40004BF2005600F039FA47F8046D0A2600F0FD
:102D5000A6FA00BD602D00005000035B275D03E074
:102D6000782D00000000012700B501F0FDF800F00B
:102D700017FD300040CF00BDAE2D000030000870C0
:102D80006F7374706F6E650000B5FFF7EDFF47F865
:102D9000046D060039683E600E46FFF771FFFFF7CD
:102DA0006FFF47F8046DEA4EFFF735FF00BD042EB4
:102DB0000000000007696E6C696E652C00B54BF26F
:102DC00000514BF6005244F270733088884208D0AC
:102DD000904208D0984206D047F8046D060000F0F3
:102DE000ECF90236F1E740CF00BD0EB44BF60052CD
:102DF00044F2707301880230914201D09942F9D1B6
:102E00000EBC70471A2E00000000047265742C007E
:102E100047F8046D4BF60056CFE1282E0000300035
:102E2000046578697400F3E7402E000030000772F3
:102E300065637572736547F8046DC44E3668EAE6DB
:102E4000582E0000810005737461746547F8046DA5
:102E5000C04E7047000000006A2E00000000015DB7
:102E6000BC480021C943016070477A2E0000100061
:102E7000015BB8480021016070479A2E00000000F5
:102E8000013A00B5B448076000F0A2FAB148012148
:102E90000160B2480021016000BD0C2F0000300825
:102EA000013B00B5AC480168B9420ED0FFF75DFCAC
:102EB0001520537461636B206E6F742062616C61C6
:102EC0006E6365642E0A01F0C0BBA2480068411C15
:102ED00010D00B2805D847F8046D40F6200600F006
:102EE0000AF947F8046D44F2707600F066F901F0D3
:102EF000B2FA05E047F8046D4BF6005600F05DF9B4
:102F000000F0CAF893480021016000BD202F0000A6
:102F100000000765786563757465300040CF8746AB
:102F2000382F0000100009696D6D65646961746572
:102F300047F8046D1026DEE04E2F000050000669B1
:102F40006E6C696E650047F8046D2026D3E0682F2B
:102F5000000010000B636F6D70696C656F6E6C79AB
:102F600047F8046D3026C6E0822F000050000A307A
:102F70002D666F6C6461626C650047F8046D4026D5
:102F8000B9E09C2F000050000A312D666F6C64611F
:102F9000626C650047F8046D4126ACE0B62F000076
:102FA00050000A322D666F6C6461626C650047F8F0
:102FB000046D42269FE0D02F000050000A332D669A
:102FC0006F6C6461626C650047F8046D432692E0A3
:102FD000EA2F000050000A342D666F6C6461626C49
:102FE000650047F8046D442685E004300000500079
:102FF0000A352D666F6C6461626C650047F8046D7C
:10300000452678E01E30000050000A362D666F6CB1
:103010006461626C650047F8046D46266BE03830E9
:10302000000050000A372D666F6C6461626C6500A9
:1030300047F8046D47265EE0683000000000086332
:103040006F6E7374616E740000B500F0C1F9FFF724
:1030500017FE47F8046D44F2707600F0AEF8FFF703
:103060008CFF00F019F800BD8A3000000000093222
:10307000636F6E7374616E7400B500F0A9F93968FE
:103080003E600E46FFF7FCFDE1E7E6300000000081
:1030900006736D756467650000B52B4801682A4AA0
:1030A00091421AD202390A882D4B9A4204D147F82C
:1030B000046D2C4E00F081F800F06EF82A4800688C
:1030C00047F8046D06002949096804311E4A13684F
:1030D000116000F072F8136000BD00F05DF847F871
:1030E000046D002608E0703100000000087365746C
:1030F000666C6167730000B513480168124A91421B
:1031000005D2194801683143016040CF00BD32004B
:1031100040CF1648006804300188114B994201D114
:10312000110000E01143018000BD0000000040F2EA
:103130000000C0F200005FF000007FF00100C0FF5F
:103140000000C0FF00F800F0000000201400002084
:103150005A430000D84F0020100000205C000020DF
:10316000FFFF0000000000002000002004000020FD
:103170008C310000410007616C69676E6564012055
:10318000304036180220304036187047B031000009
:10319000000005616C69676E00B582480168022015
:1031A000014004D047F8046D002600F006F800BD89
:1031B000F4310000000002682C000FB5B6B27A4866
:1031C0000168002902D0013100D001607548016812
:1031D000744A914205D247F8046D0E00FEF7F0FDE7
:1031E00002E0320040CF0A8047F8046D022600F06A
:1031F00056F80FBD0E3200000000012C00B547F854
:10320000046DFFF7DAFF360CFFF7D7FF00BD2A3257
:1032100000000000033E3C2C00B547F8046D360C5E
:10322000FFF7CBFFFFF7C9FF00BD9232000000009F
:1032300007737472696E672C07B5FF21314040CF68
:10324000300040CF002905D147F8046D0026FFF774
:10325000B4FF07BD47F8046D067836020E43FFF74A
:10326000ACFF0130013902290AD347F8046D4678D2
:10327000360202781643FFF7A0FF02300239F2E768
:10328000002900D107BD47F8046D0678FFF795FFC8
:1032900007BDEC320000000005616C6C6F744148A2
:1032A0000168404A91420FD2320040CF89183F4A0C
:1032B000914219D3FFF759FA0B466C617368206687
:1032C000756C6C0A01F0C1B9320040CF8918384AD8
:1032D0001268914208D3FFF748FA0952616D2066DF
:1032E000756C6C0A01F0B1B90160704714330000CD
:1032F00000000D636F6D70696C65746F72616D3F76
:1033000047F8046D0026274800682649884248D3BC
:10331000F64370473433000000000C636F6D706932
:103320006C65746F72616D001E4800681D498842AB
:1033300011D37047C033000000000E636F6D7069D9
:103340006C65746F666C6173680016480068154997
:10335000884200D270471748174902680B680A6014
:1033600003601048154902680B680A600360104842
:103370000068834215D300B5FFF7F7F923205661A3
:10338000726961626C657320636F6C6C696465203F
:10339000776974682064696374696F6E6172790A11
:1033A00000BD704700000020D84F00200000010041
:1033B00024000020040000201C0000201800002031
:1033C000AA34000000000828637265617465290052
:1033D00000B500F0C9FD002E0ED1FFF7C6F915208B
:1033E000437265617465206E65656473206E616DFE
:1033F0006520210A01F029B9386847F8046D043FB7
:10340000386000F09EF940CF002E40CF11D03868D0
:1034100047F8046D043F3860FFF7A7F90952656467
:103420006566696E6520FFF7FCF9FFF79EF9022ECD
:103430002000FFF7B1FE00F018FA8E4800688D49B1
:1034400088421CD28C480021016047F8046D062692
:10345000FFF725FFFDF7BEFDFFF7EEFE8748016889
:103460000A68874B9A4207D1824A1368116047F86D
:10347000046DFFF7C3FE1360066040CF10E07F4885
:1034800047F8046D0668FFF7B9FE47F8046D7D4EF6
:10349000FFF793FE7948310040CF0160FFF7CCFE83
:1034A000744801687848016000BDC2340000000023
:1034B000087661726961626C650047F8046D0126E7
:1034C00013E0DA340000000009327661726961624B
:1034D0006C6547F8046D022607E0B4350000000073
:1034E000096E7661726961626C6500B5FFF770FF05
:1034F000604801685F4A914234D20F200640B20012
:1035000062480168891A624A91420BD2FFF72DF98D
:103510000F4E6F7420656E6F7567682052414D0ABB
:1035200001F093B8016047F8046D0E00FFF7A8FBA7
:1035300047F8046D44F27076FFF73FFE300040CF4D
:103540000200002805D00E600431FFF757FE013855
:10355000F9D147F8046D80261643FFF7CCFDFFF73D
:103560009BFD00BD00F081F90220064040CF04D150
:1035700047F8046D3626FFF720FE47F8046D454EE8
:10358000FFF74AFE47F8046D434EFFF745FE47F844
:10359000046D44F27076FFF710FE300040CF002833
:1035A00003D0FFF72BFE0138FBD1FFF7E6FCFFF756
:1035B00073FD00BD9C3600000000076275666665FD
:1035C000723A00B5FFF704FF0120304036180220A0
:1035D0003040361827480168264A914228D22B48A5
:1035E0000168891B2A4A91420BD2FFF7BEF80F4EA1
:1035F0006F7420656E6F7567682052414D0A01F047
:1036000024B8016047F8046D0E00FFF739FB47F856
:10361000046D44F27076FFF7D0FDFFF7EFFD47F839
:10362000046D40F24016FFF766FDFFF735FD00BD63
:1036300000F01BF90220064040CF04D147F8046D8A
:103640003626FFF7BAFD47F8046D124EFFF7E4FD8A
:1036500047F8046D104EFFF7DFFD47F8046D44F2A4
:103660007076FFF7AAFDFFF71AFEFFF786FCFFF75B
:1036700013FD00BD000000202000002004000020F9
:10368000FFFFFFFFFFFF00001400002024000020C8
:103690008C0300203E60043F02367E46CA3600009E
:1036A00000000F64696374696F6E6172797374618D
:1036B000727441480068404947F8046D884201D25D
:1036C0003E4E70473E4E366870470437000000009B
:1036D0000E64696374696F6E6172796E65787400E7
:1036E00003B531683748814207D08879FF2804D074
:1036F0000E0047F8046D002603BD47F8046D002650
:10370000F64303BD3637000000000A736B6970731F
:103710007472696E67003178013101220A4089189C
:103720007618704706B40178013101220A408918E1
:10373000401806BC7047CC37000000000466696E74
:1037400064003FB500220023350040CF340040CF55
:10375000FFF7AFFF1C48B188884217D047F8046DC7
:103760000636FFF73EF847F8046D260047F8046D6B
:103770002E00FEF770FF002E40CF07D0B01DFFF7E0
:10378000D1FF02000B000C48824204D2FFF7A8FFD1
:10379000300040CFDED0160047F8046D1E003FBD5C
:1037A00000B531003868FFF7CCFF3A68002A01D134
:1037B00000F0FFFE00BD00000000002050010000EE
:1037C00004000020FFFFFFFFFFFF0000263800007D
:1037D000000006636A756D702C00320040CF310026
:1037E00040CF8B1B043BDA49194000290DD0D94842
:1037F00081420AD0FEF7B9FF0D4A756D7020746FD3
:103800006F206661720A00F020BF5B10FF210B4041
:10381000134330001E0000B5CF4A13681060FFF755
:10382000CCFC136000BD5E3800000000056A756DB9
:10383000702C310040CF300040CF0B1A043BC749F9
:103840001940002902D0C64A9142D3D15B10C54A23
:10385000134053F4604347F8046D1E00DBE77438EF
:103860000000000004686572650047F8046DBA4EF8
:1038700036687047AA39000000000D666C617368F5
:103880007661722D6865726547F8046DB64E3668CC
:10389000704700B547F8046D42F60066FFF78DFCEF
:1038A00047F8046D4CF64076FFF787FC00BDDCE777
:1038B00000B500F03AF839683E600E4647F8046DEE
:1038C0004DF20016FFF789FF00BD00B500F02DF89E
:1038D00039683E600E4647F8046D4DF20076FFF7FA
:1038E0007CFF00BD00B5FFF7D4FF00F01EF839687B
:1038F0003E600E4647F8046D4DF20006FFF76DFF7F
:1039000000BD00B500F011F839683E600E46FFF7C3
:1039100090FF00BD00B5FFF7BCFFFFF7A6FF47F81B
:10392000046D0226FFF7BBFC00BD00B5FFF79DFF4D
:1039300047F8046D0226FFF7B2FC00BD00B5FFF7A3
:1039400094FFFFF776FF00BD00B5FFF78EFF47F845
:10395000046D4DF20006FFF740FF00BD00B5FFF714
:1039600084FF47F8046D4DF20016FFF736FF00BDE7
:1039700000B5FCF767FDFCF79BFCFCF79EFCFCF731
:10398000A1FC8168282901D1FCF7A2FDFCF796FD76
:1039900047F8046D42F6000609020E43FFF70DFCDE
:1039A000FCF74FFCFCF778FC00BDD6390000300076
:1039B000047468656E00052E01D140CFBEE7F1B2F8
:1039C00000296DD100B5FFF750FF39683E600E4603
:1039D000FFF703FF00BDF2390000300004656C738F
:1039E000650000B500F036F8FCF7F7FDFFF7E3FFE0
:1039F00000BD483A000030060269660000B5FFF7D6
:103A000089FF47F8046D4DF2000600BD00B5FCF7D4
:103A1000ACFDFDF777FE816A002907D002B4FCF700
:103A20003BFCFFF782FF47F8046D40BDFFF7A0FFA6
:103A3000FFF71BFF47F8046D0226FFF730FC47F83D
:103A4000046D4DF2000600BD623A000030000561D1
:103A50006865616400B5FFF768FF47F8046D0526E7
:103A600000BD7C3A0000300006726570656174002C
:103A700000B500F05BF8FFF79EFF00BDC03A000004
:103A80003006057768696C6500B5FFF7B7FFFCF78E
:103A9000A4FD00BD00B5FFF7B9FFFCF79EFD00BD1A
:103AA000FEF763FE17537472756374757265732045
:103AB000646F6E2774206D617463680A00F0C5BD81
:103AC000203B0000300605756E74696C012EE7D14D
:103AD00040CF07E77047012EE2D140CF00B5FDF798
:103AE00011FE816A00290DD002B4FCF7D5FBFFF767
:103AF0001CFF39683E600E4647F8046D40BCFFF776
:103B00006CFE00BDFFF734FFFFF70FFF39683E6022
:103B10000E4647F8046D4DF20006FFF75EFE00BD4D
:103B2000343B0000300005616761696E012EB7D13A
:103B300040CFE6E66C3B0000300005626567696EC9
:103B400000B5FFF7B4FE47F8046D012600BD000084
:103B500001FFFFFF00FFFFFF0000002001F8FFFF53
:103B600000F8FFFFFF07000024000020863B000054
:103B70002002016B47F8046D029E704747F8046D00
:103B800049F602060BE0B43B00002002016A47F848
:103B9000046D009E704747F8046D49F6000600B5B5
:103BA000FCF745FBFCF71AFC03601B021E43FFF702
:103BB00004FB00BDE03B00002002016947F8046DF2
:103BC0002600704700B547F8046D40F22006FCF768
:103BD0002EFBFCF703FC03601E43FFF7EEFA00BD6B
:103BE0001E3C00003000056C6561766500B57548C7
:103BF00001683B00043F1A68043B1A6008338B429B
:103C0000F9D103B4FFF791FE03BC330040CF043970
:103C10000B60016004390A6801320A6000BD303C63
:103C20000000200006756E6C6F6F700030BC70472E
:103C3000683C00003000052B6C6F6F70032E00D0C5
:103C40002EE740CF00B547F8046D5F4EFFF7B6F89A
:103C5000FFF73BFE1AE014F10044641BA41940CFA7
:103C60002C44A4F100447047AA3C00003000046CCE
:103C70006F6F7000032E00D012E740CF00B547F8F9
:103C8000046D524EFFF79AF8FFF712FE00F052F95A
:103C90004C48310040CF016047F8046D4C4EFFF7AF
:103CA0008DF800BD0134AC427047F23C0000300298
:103CB00002646F0000B547F8046D464EFFF77EF8CA
:103CC0004048016847F8046D0E0047F8046D00266F
:103CD0000760FFF7ECFD47F8046D032600BD00B553
:103CE00000F02FF8ECE730B4340040CF350040CF7F
:103CF0007047D83D00003002033F646F00B547F8BD
:103D0000046D344EFFF75AF847F8046D44F2AC26C0
:103D1000FFF753FA2B48016847F8046D0E00FFF7D0
:103D200004FE013647F8046D012626480760FFF7B8
:103D3000BEFD47F8046D032600BD00B500F001F894
:103D4000E2E700B5FCF711FCFCF786FBFCF7B0FAE4
:103D5000FCF7B3FAFCF7B6FA47F8046D4BF23046BD
:103D6000FFF72BFA0168282908D047F8046D40F2C4
:103D70000406C9000E43FFF720FA07E047F8046D78
:103D8000466847F8046D0426FEF7E8FE8168282996
:103D900008D047F8046D40F20506C9000E43FFF74E
:103DA0000CFA07E047F8046DC66847F8046D05266D
:103DB000FEF7D4FEFCF745FAFCF743FAFCF78CFA61
:103DC00000BD00000C000020563C0000A43C000098
:103DD0002C3C0000E63C0000F83D0000300004638D
:103DE0006173650000B5FCF7C0FB47F8046D002661
:103DF00047F8046D082600BD0E3E00003000033F6A
:103E00006F66714809E0013EB64140CF7047D43E2D
:103E100000003002026F66006C48082E00D03FE6BA
:103E200040CF00B547F8046D0600FEF7C7FFFFF767
:103E30007CFD39683E600E46013647F8046D092660
:103E400047F8046D4CF64076FFF7B7F900BD082E31
:103E500000D025E640CF00B5FCF7FEFAFCF728FAC3
:103E6000FCF72BFAFCF72EFA47F8046D44F2802693
:103E7000FCF72EFB0E430268282A1ED14268FF2A57
:103E800008D840CF47F8046D42F6000616430902F1
:103E90000E4314E047F8046D4668FEF7ABFD04CF0F
:103EA000002E40CF06D04A4E164356EA0146FFF791
:103EB000B3F906E0FCF702FB0A00D2001643FFF755
:103EC0007CF9FCF7BEF9FCF707FAB0E7300040CF09
:103ED000B04270470A3F0000300005656E646F66AF
:103EE000092E00D0DCE540CF00B540B440CFFFF74D
:103EF0001CFD39683E600E46FFF730FD47F8046D43
:103F000040BC47F8046D082600BD5C3F000030004F
:103F100007656E6463617365082E00D0C0E540CF0D
:103F200000B547F8046D4CF64076FFF746F900F00F
:103F300001F800BD00B5300040CF00280DD003B41B
:103F400001213140002903D0013EFFF7FDFC01E0D3
:103F5000FFF7F4FC03BC0138EFE700BD703F000041
:103F6000000005746F6B656E47F8046D202605E050
:103F7000D83F0000000005706172736510B5FEF750
:103F80003EFB310040CF300040CF124A1268841807
:103F9000202E07D191420FD0835CB34202D101326F
:103FA0008418F7E7914207D0835C0132B342F9D11C
:103FB0008618361B013E01E08618361B043F3C6024
:103FC0000448026010BD0000063E0000CC3E000028
:103FD000000FB0F1E44F002016400000000005641F
:103FE00069676974CF4B1B68303E0BD30A2E0BD325
:103FF000073E0A2E06D3242E06D3203E0A2E01D3D6
:10400000242E01D3002670479E42FBD247F8046D50
:104010000026F6437047204100000000066E756DD3
:10402000626572003FB5310040CF701E012601224B
:1040300004B4BC4B1B680024002500293CD001308F
:10404000013902782D2A04D101B00022D24304B4F0
:10405000F3E7232A01D10A23EFE7242A01D1102311
:10406000EBE7252A01D10223E7E72E2A01D1022618
:10407000E3E72C2A36D047F8046D1600FFF7B4FFAB
:10408000002E40CF2BD047F8046D260047F8046D72
:104090002E0047F8046D1E0047F8046D00260FB48B
:1040A000FCF76BFC0FBC350040CF340040CF002242
:1040B000A419554140CFC0E704BC002A04D5002212
:1040C000E443ED430134554133002600012B02D077
:1040D00047F8046D2E0047F8046D1E003FBD01B087
:1040E00000263FBD2500002402260029E4D0425CC2
:1040F00001392E2AF9D047F8046D1600FFF774FF36
:10410000002E40CFEBD0043F3C6047F8046D1E000A
:104110000FB4FCF7E1FC0FBC340040CF40CFE4E724
:10412000424100000000062E6469676974000A2E8F
:1041300001D230367047242E01D2373670472326FD
:10414000704778410000000004686F6C6400330021
:1041500040CF754801783F290DD2013101704018D8
:10416000012907D001380278013002700138013985
:104170000129F7D1037070479841000000000568DD
:104180006F6C643C330040CF674801783F2902D20E
:104190000131017043547047B041000000000473C6
:1041A00069676E00002E01D440CF70472D26CEE700
:1041B000C4410000000002233E005B480678013045
:1041C00038607047DC41000000000366235310B5DF
:1041D000202400F008F8013CFBD110BDFE41000096
:1041E00000000266230000B547F8046D4D4E3668A6
:1041F000FCF785FBFFF79BFFFFF7C4FF00BD1A42EA
:10420000000000000223530000B500F00AF8002E61
:10421000FBD138680028F8D100BD464200000000FC
:10422000012300B547F8046D3E4E366847F8046D2B
:104230000026FCF770FCFCF7D0F940CFFFF777FFC2
:10424000FFF785FF00BD584200000000023C23003C
:1042500035480021017070476A4200000000026684
:104260002E0047F8046D202604E0B842000000004C
:1042700003662E6E00B510B4340040CFFCF77CFE10
:10428000FCF7C2FA47F8046D0026FFF7E1FFFFF7DD
:10429000BBFF40CF2C26FFF775FF002C03D0FFF7A4
:1042A000A2FF013CFBD110BC40CFFFF77BFF47F8DA
:1042B000046D47F8046D1CE0CE4200000000037559
:1042C000642E00B5FFF7C4FFFFF79EFF11E0004327
:1042D0000000000002642E0000B5FCF74DFEFCF764
:1042E00093FAFFF7B5FFFFF78FFFFCF757FEFFF7D5
:1042F00059FFFFF762FFFEF794FAFEF7E5F900BDFC
:1043000012430000000002752E0047F8046D0026DD
:10431000D7E7DE4400000000012E47F8046DF617D1
:10432000DAE70000FC4F00208400002030B5D74CB5
:104330002568002D01D13D00256030BD30B5D34C3E
:104340003D00256030BD30B5D04C0025256030BD26
:10435000CE4B1B68DB1B9B08704700B5310040CF7C
:10436000CB48084002D000F0A2F800BDC948084080
:1043700001D1FDF782F9320040CFFFF7D7FFC648E1
:10438000084003D047F8046D160000BDFFF7E0FFBA
:104390008020084006D14020084009D00F20084066
:1043A000834205D347F8046D1600FEF7B6FD00BD45
:1043B000BA48084014D0FBF7DEFE47F8046D16003B
:1043C00047F8046D0E0000F030F81000FEF70DFD08
:1043D000421CB3489047FFF7B1FFFBF7DBFE00BD7F
:1043E000FBF7C9FE47F8046D160047F8046D0E0090
:1043F00000F01BF8FBF750FFFFF7A5FFA9480840A6
:1044000001D1FCF7B2F847F8046D160010220A40FB
:1044100002D0FEF782FD00BD20220A4002D0FEF746
:10442000CDFC00BDFEF7F7FB00BD0FB5320040CF5D
:10443000330040CF9C480168062907D2062041433B
:104440009A48401803801B0C43808280964801687C
:10445000013101600FBD0FB59348016806291FD8CF
:10446000924801391DD047F8046D0E00FEF7A5FEF5
:1044700047F8046D0688FEF7A0FE47F8046D4688ED
:10448000FEF79BFE47F8046D8688FEF796FE063021
:104490000139EDD147F8046D41F20006FEF72BFE1D
:1044A0000FBD47F8046D4026FEF725FE0FBD00B591
:1044B000300040CFFEF799FC0188023047F8046DC8
:1044C000068842881204164347F8046D868803B4B0
:1044D000FFF743FF03BC06300139EFD100BD26458D
:1044E00000000000086576616C756174650000B5B8
:1044F000FEF785F801CF01B440B440CF6C480168A5
:1045000002B400210160FEF76DF800F014F868486D
:1045100002BC016047F8046D40BC01BC043F386038
:10452000FEF760F800BD22460000000009696E74C5
:1045300065727072657400B55E4887420BD9FEF7EC
:1045400014F910537461636B20756E646572666C48
:104550006F770A0079E0584887420AD2FEF705F9DA
:104560000F537461636B206F766572666C6F770AA8
:104570006BE0FFF7DBFEFFF7F7FC002E02D10437FC
:1045800040CF00BD386847F8046D043F3860FFF73E
:10459000D8F8310040CF320040CF002A15D138681A
:1045A0003100FDF76AF8FFF73DFD320040CF002AE9
:1045B000C2D1FEF73AF9FEF7D8F80C206E6F7420DE
:1045C000666F756E642E0A003FE03C4B1B68002B43
:1045D0001CD1FFF7B8FE30230B40302B0ED1FEF775
:1045E00020F9FEF7C2F81220697320636F6D7069BD
:1045F0006C652D6F6E6C792E0A0026E0043740CF73
:1046000047F8046D1600FEF788FC95E7043740CFA5
:1046100047F8046D160047F8046D0E00FFF79DFE85
:104620008AE73E460000810009686F6F6B2D717547
:10463000697447F8046D224E704776460000D446F0
:1046400000000000047175697400DFF878D0194F1C
:104650001D480A2101601948002101600B480160D2
:10466000FBF761FE1248016018480160184941607B
:10467000134800688746FDF7D0FFFFF75CFFFEF7A1
:1046800074F805206F6B2E0AF5E700000800002083
:1046900000100000000400000020000000020000E4
:1046A00028000020000800005C00002060000020BE
:1046B000E44F00208C0200208C010020D84F002005
:1046C000D44F00208C030020FC4F0020DC4F002042
:1046D000C4000020EE46000000000565696E743FCE
:1046E00047F8046DEFF31086013EB6417047FE4671
:1046F000000020000465696E740062B670470E47C2
:10470000000020000464696E740072B6704724478C
:104710000000200004697073720047F8046DEFF325
:1047200005867047304700000000036E6F707047C9
:1047300072470000000009756E68616E646C656404
:1047400000B5FEF712F814556E68616E646C65640E
:1047500020496E74657272757074200047F8046D9C
:10476000EFF30586FEF774F8FDF7FFFF02210A005C
:1047700000BD884700000000057265736574DFF8AE
:104780000407DFF804170160B447000081000B69DB
:1047900072712D7379737469636B47F8046DDFF878
:1047A000EC6670474047000044F6D070C2F200004B
:1047B00000688746DE4700008100096972712D6636
:1047C00061756C7447F8046DDFF8C4667047404744
:1047D000000044F6CC70C2F20000006887460E4824
:1047E000000081000E6972712D636F6C6C656374DB
:1047F000696F6E0047F8046DDFF8986670474047B0
:10480000000044F6C870C2F20000006887463648CF
:1048100000008100076972712D72746347F8046D9E
:10482000DFF8746670474047000044F6C470C2F277
:1048300000000068874660480000810009697271C5
:104840002D657874693047F8046DDFF8506670475D
:104850004047000044F6C070C2F20000006887467E
:104860008A4800008100096972712D657874693188
:1048700047F8046DDFF8286670474047000044F6AB
:10488000BC70C2F2000000688746B4480000810096
:10489000096972712D657874693247F8046DDFF823
:1048A000046670474047000044F6B870C2F200004A
:1048B00000688746DE4800008100096972712D6535
:1048C0007874693347F8046DDFF8DC65704740475A
:1048D000000044F6B470C2F2000000688746084940
:1048E00000008100096972712D657874693447F898
:1048F000046DDFF8B86570474047000044F6B070BB
:10490000C2F2000000688746304900008100076954
:1049100072712D61646347F8046DDFF89465704728
:104920004047000044F6AC70C2F2000000688746C1
:104930005A4900008100096972712D6578746935E2
:1049400047F8046DDFF86C6570474047000044F697
:10495000A870C2F200000068874686490000810006
:104960000B6972712D74696D3162726B47F8046D59
:10497000DFF8446570474047000044F6A470C2F277
:10498000000000688746B249000081000A69727120
:104990002D74696D3175700047F8046DDFF81C6582
:1049A00070474047000044F6A070C2F20000006863
:1049B0008746DE49000081000B6972712D74696DB4
:1049C0003174726747F8046DDFF8F464704740474C
:1049D000000044F69C70C2F20000006887460A4A54
:1049E000000081000A6972712D74696D3163630082
:1049F00047F8046DDFF8CC6470474047000044F688
:104A00009870C2F2000000688746344A00008100B6
:104A1000086972712D74696D320047F8046DDFF812
:104A2000A86470474047000044F69470C2F200004A
:104A3000006887465E4A00008100086972712D7423
:104A4000696D330047F8046DDFF8806470474047B4
:104A5000000044F69070C2F2000000688746884A61
:104A600000008100086972712D74696D340047F887
:104A7000046DDFF85C6470474047000044F68C70BA
:104A8000C2F2000000688746B44A000081000A694B
:104A900072712D6932633165760047F8046DDFF875
:104AA000346470474047000044F68870C2F200004A
:104AB00000688746E04A000081000A6972712D692A
:104AC00032633165720047F8046DDFF80C6470479B
:104AD0004047000044F68470C2F200000068874638
:104AE0000A4B000081000A6972712D6932633265D8
:104AF000760047F8046DF94E70474047000044F6D1
:104B00008070C2F2000000688746344B00008100CC
:104B10000A6972712D6932633265720047F8046D5B
:104B2000EF4E70474047000044F67C70C2F2000030
:104B3000006887465C4B00008100086972712D7324
:104B40007069310047F8046DE64E70474047000039
:104B500044F67870C2F2000000688746844B00007B
:104B60008100086972712D737069320047F8046D15
:104B7000DD4E70474047000044F67470C2F20000FA
:104B800000688746AE4B000081000A6972712D757E
:104B900073617274310047F8046DD44E704740471A
:104BA000000044F67070C2F2000000688746D84BDF
:104BB000000081000A6972712D7573617274320090
:104BC00047F8046DCA4E70474047000044F66C70C9
:104BD000C2F2000000688746024C000081000A69AA
:104BE00072712D7573617274330047F8046DC14E94
:104BF00070474047000044F66870C2F20000006849
:104C000087462C4C000081000A6972712D6578740A
:104C10006931300047F8046DB74E704740470000D7
:104C200044F66470C2F2000000688746584C0000E9
:104C300081000C6972712D727463616C61726D0018
:104C400047F8046DAD4E70474047000044F6607071
:104C5000C2F2000000688746824C000081000B69A8
:104C600072712D757362776B757047F8046DA44E81
:104C700070474047000044F65C70C2F200000068D4
:104C80008746AA4C00008100086972712D74696D15
:104C9000350047F8046D9B4E70474047000044F6CE
:104CA0005870C2F2000000688746D24C00008100B4
:104CB000086972712D737069330047F8046D924E64
:104CC00070474047000044F65470C2F2000000688C
:104CD0008746FA4C00008100096972712D75617276
:104CE000743447F8046D894E70474047000044F61D
:104CF0005070C2F2000000688746224D000081001B
:104D0000096972712D756172743547F8046D804EB2
:104D100070474047000044F64C70C2F20000006843
:104D200087464A4D00008100086972712D74696DD3
:104D3000360047F8046D774E70474047000044F650
:104D40004870C2F2000000688746724D0000810082
:104D5000086972712D74696D370047F8046D6E4EE5
:104D600070474047000044F64470C2F200000068FB
:104D700087469A4D00008100096972712D75736232
:104D8000667347F8046D654E70474047000044F66F
:104D90004070C2F200000068874600500000FFFF2C
:104DA000182D2D2D20466C61736820446963746949
:104DB0006F6E617279202D2D2D0059488546594F0F
:104DC0002A2659485649016058485949016047F810
:104DD000046D574E574DB188574B994224D0574BCD
:104DE0000B400AD0B01DFEF79DFCFDF7FEFF0388C7
:104DF000408800040343ED1A16E080230B4013D0D3
:104E00000F23194089006D1AB01DFEF78BFCFDF7CA
:104E1000ECFF47F8046D060047F8046D2E0047F8D4
:104E2000046D0E00FCF7EEFCFEF75AFC300040CF9C
:104E3000D1D04348066040CF4248056042484349CC
:104E40003D4A884204D0023803889342F9D00230A8
:104E50003F4908603F480021016047F8046D3E4E1D
:104E600047F8046D0426FEF76CFC40CF002E03D0FB
:104E7000FEF753F8FFF7FCBB40CFFFF7E6BB696EC8
:104E8000697400000CED00E00400FA05D04F00202A
:104E9000CC4F0020C84F0020C44F0020C04F00203E
:104EA000BC4F0020B84F0020B44F0020B04F00206E
:104EB000AC4F0020A84F0020A44F0020A04F00209E
:104EC0009C4F0020984F0020944F0020904F0020CE
:104ED0008C4F0020884F0020844F0020804F0020FE
:104EE0007C4F0020784F0020744F0020704F00202E
:104EF0006C4F0020684F0020644F0020604F00205E
:104F00005C4F0020584F0020544F0020504F00208D
:104F10004C4F0020484F0020444F0020404F0020BD
:104F20008C0300208C0200200000002004000020E0
:104F30005001000000500020FFFF000000010000B1
:104F40001C00002024000020000001000050000090
:104F500018000020080000207E4E0000FFFFFFFF29
:1050000030500000000006636869706964004FF268
:105010008070C1F6FF70836EC26E016F47F8046D39
:1050200047F8043D47F8042D47F8041D0326704750
:1050300058500000000004687769640000B5FFF76D
:10504000E6FF30B40124350040CF08CF5E40013484
:10505000AC42FAD130BC00BD885000002018086670
:105060006C6173682D6B62004FF2C070C1F6FF7007
:10507000038C47F8046D1E4670470200E0F7FF1FDF
:105080000020321900002002B050000061180362B5
:1050900069740123B3401E467047030001000000FD
:1050A0000020F60E0000620298120000620200006A
:1050B000CC5000004000044146494F0047F8046DC1
:1050C00040F20006C4F2010670470000EC500000F8
:1050D0004000094146494F2D4D41505247F8046D5B
:1050E00040F20406C4F201067047000008510000B7
:1050F0004000065553415254310047F8046D43F6C1
:105100000006C4F2010670472851000040000A550D
:1051100053415254312D4252520047F8046D43F628
:105120000806C4F2010670474051000040000352D7
:10513000434347F8046D41F20006C4F2020670478B
:105140005C5100004000065243432D43520047F893
:10515000046D41F20006C4F2020670477C51000063
:105160004000085243432D434647520047F8046D20
:1051700041F20406C4F20206704700009C51000090
:1051800040000B5243432D41504232454E5247F8A6
:10519000046D41F21806C4F202067047BC510000CB
:1051A00040000B5243432D41504231454E5247F887
:1051B000046D41F21C06C4F202067047D85100008B
:1051C000400005464C41534847F8046D42F2000642
:1051D000C4F2020670470000F85100004000094682
:1051E0004C4153482D41435247F8046D42F20006AA
:1051F000C4F202067047000070520000000005373C
:10520000324D487A42F20000C4F2020012230360D9
:1052100041F20000C4F20200036853F480330360DB
:1052200000B541F20000C4F20200036813F4003339
:105230005B1EF6D341F20000C4F2020048F20243C2
:10524000C0F21D034360036853F08073036041F2B2
:105250000000C4F20200036813F000735B1EF6D373
:1052600043F60000C4F2010040F27123836000BDE8
:105270009852000081000C632C636F6C6C65637442
:10528000696F6E0047F8046D44F63C76C2F2000682
:105290007047000000000000F052000000000263B0
:1052A0002C0044F60070C2F20000C36B47F8046D96
:1052B0001E4600B5002E01D047F8046D002E40CFE9
:1052C0000DD016F0FF0608CF1B021E43FDF775FF39
:1052D00044F60070C2F200000023C36307E056F4F6
:1052E000807644F60070C2F20000C66340CF00BD75
:1052F0001C53000000000663616C69676E0044F691
:105300000070C2F20000C36B00B5002B04D047F858
:10531000046D0026FFF7C5FF00BD000078530000B4
:1053200000000B636F726E657273746F6E6500B50B
:10533000FDF7F6FCFEF799FA40F2FF731E40002ECF
:1053400040CF05D047F8046D0026FDF736FFF1E7A2
:1053500042F6E740804747F8046DBEF1010633008E
:1053600040F2FF721340002B01D0B61CF7E7FDF7A7
:1053700097F9FCF7D9FD00BDA85300002018096972
:105380006E69742D72696E67761E08CF1E6040CFFD
:10539000704703003A2000006102F60E000062022E
:1053A000A218000020020000D85300002018046357
:1053B0002B2B40003378761C47F8043D70470400DF
:1053C0008E0E00006102061A00002002F60E000098
:1053D00062025220000061020454000000000972C1
:1053E000696E672D7374657008CFF618327800B552
:1053F00004B43278521C32701E7804BC1640043358
:10540000F61800BD2454000020080572696E672359
:105410003378761C3278761C3178761C561A1E400A
:10542000704700007854000000100572696E673FF5
:1054300047F8046D3378761C3278761C3178761C08
:10544000561A1E4008CF1B789E4202DA0026F64309
:1054500000E00026704705008E0E00006102105427
:1054600000002008F60E00006202061A000020026A
:10547000B614000042020000985400000000053EEF
:1054800072696E6747F8046D012600B5FFF7ACFF3F
:1054900008CF337040CF00BDB45400000000057247
:1054A000696E673E47F8046D022600B5FFF79CFF62
:1054B000367800BDE45400000000077573623A645A
:1054C0006576360000B542F6C140C0F20000804764
:1054D0001201000202000040830440570002010252
:1054E00003010000445500000000087573623A6330
:1054F0006F6E660000B542F6C140C0F20000804702
:1055000009024300020100C0320904000001020246
:1055100001000524001001052401000104240202F9
:105520000524060001070582030800FF09040100A5
:10553000020A00000007050302400000070581027F
:10554000400000006855000000000A7573623A6C64
:10555000616E67696400360000B542F6C140C0F272
:105560000000804704030904B055000000000A75DC
:1055700073623A76656E646F7200360000B542F66B
:10558000C140C0F20000804728034D006500630061
:10559000720069007300700020002800530054005E
:1055A0004D00330032004600310030007800290001
:1055B000F455000000000B7573623A70726F6475E9
:1055C0006374360000B542F6C140C0F20000804767
:1055D000240346006F00720074006800200053002E
:1055E00065007200690061006C00200050006F00CF
:1055F00072007400185600000000087573623A6C5F
:10560000696E650000B542F6C140C0F200008047F7
:1056100000C2010001000800545600000000087597
:1056200073623A696E69740000B542F6C140C0F217
:10563000000080478000000040000084C00000009F
:105640000000000040010000000000000000000019
:10565000000100846C56000040000355534247F897
:10566000046D45F60046C4F2000670478C560000F3
:105670004000085553422D455030520047F8046D04
:1056800045F60046C4F2000670470000AC56000024
:105690004000085553422D434E54520047F8046DC4
:1056A00045F64046C4F2000670470000CC560000A4
:1056B0004000085553422D495354520047F8046D99
:1056C00045F64446C4F2000670470000E856000064
:1056D0004000075553422D464E5247F8046D45F69B
:1056E0004846C4F2000670470857000040000955BC
:1056F00053422D444144445247F8046D45F64C460C
:10570000C4F20006704700002857000040000A5508
:1057100053422D425441424C450047F8046D45F632
:105720005046C4F20006704744570000400006553A
:1057300053424D454D0047F8046D46F20006C4F251
:1057400000067047685700002008077573622D70C7
:105750006D6116F001035B4276009E1946F200036C
:10576000C4F20003F6187047A05700000010087537
:1057700073622D706D61400016F001035B4276008C
:105780009E1946F20003C4F20003F61836887047EB
:1057900002005257000020083219000020020000C9
:1057A000DC5700000010087573622D706D612100D8
:1057B00016F001035B4276009E1946F20003C4F224
:1057C0000003F61808CF338040CF704702005257CD
:1057D0000000200876190000200200000C5800008C
:1057E00020180765702D61646472B60045F60043A9
:1057F000C4F20003F618704703003E210000610266
:10580000005C004000205C1F000062023C58000069
:1058100000000665702D72656700760008CF0822CB
:105820005343F61816F001035B4276009E1946F2C8
:105830000003C4F20003F61870470000805800000F
:105840000000077278737461742108CF9B0045F6DD
:105850000042C4F200029B1800B508B43603009B56
:105860001B885E4016F4405640F60F72134048F213
:10587000800213431E4308BC1E8040CF00BD0000C1
:10588000C45800000000077478737461742108CF55
:105890009B0045F60042C4F200029B1800B508B414
:1058A0003601009B1B885E4016F0300640F60F72F2
:1058B000134048F2800213431E4308BC1E8040CFB1
:1058C00000BD0000FC58000000000C65702D7265E2
:1058D0007365742D7278230047F8046D5FF40443F8
:1058E00047F8043D47F8046D032600B5FFF795FF20
:1058F00008CF33800326FFF7A8FF00BD2C59000016
:105900000000077278636C656172B60045F600436B
:10591000C4F20003F618338847F6FF72134048F6C6
:105920008F721340338040CF704700005C590000F5
:105930000000077478636C656172B60045F6004339
:10594000C4F20003F61833884FF67F72134048F60E
:105950008F721340338040CF70470000845900009D
:105960008200087573622D70656E640047F8046DDF
:1059700044F63476C2F200067047000000000000D2
:1059800000000000A859000040010A7573622D73E1
:10599000657269616C0047F8046D44F62076C2F2C6
:1059A0000006704714000000445A000000000A730B
:1059B00065742D73657269616C0044F68070C2F283
:1059C0000000C36F47F8046D1E4600B5FCF760FC8D
:1059D000FFF734FB47F8046D0026FEF739FC47F863
:1059E000046D30B40024082540CFFEF71AFC0134C2
:1059F000AC42FAD130BCFEF7E0FB30B400243500F5
:105A000040CF33782200521C520044F62071C2F27B
:105A1000000152181380761C0134AC42F1D130BC25
:105A200040CF44F68070C2F20000C66744F60070B2
:105A3000C2F2000040F21236068444F62076C2F22A
:105A4000000600BD745A000020180973656E642DAD
:105A50006461746108CF44F60070C2F200004663CE
:105A6000836340CF70470200344F00200020840C35
:105A7000000020026C5B000000000973656E642D5D
:105A80006E65787444F60070C2F20000836B426B5E
:105A900040218A4200DB0A4647F8046D47F8043D7E
:105AA00047F8042D462616F001035B4276009E1946
:105AB00046F20003C4F20003F618368808CF9E426F
:105AC00000DB1E4600B540B4009E01203040361871
:105AD00030B40024350040CFAC421FD02300F3186F
:105AE0001B882200803247F8046D47F8043D1646B3
:105AF00016F001035B4276009E1946F20003C4F2E1
:105B00000003F61808CF3380022614F10044641B0A
:105B1000A41940CF2C44A4F10044DFD730BC009E30
:105B200047F8046D022616F001035B4276009E19C9
:105B300046F20003C4F20003F61808CF33800026B3
:105B400047F8046D0326FFF7A2FE44F60070C2F288
:105B50000000836B426B02BC48425B18424144F632
:105B60000070C2F200004263836300BD4C5C000021
:105B700000000973656E642D6465736347F8046DF6
