:100000008C030020F34D00000B4800000B4800005B
:100010000B4800000B4800000B48000000000000E7
:100020000000000000000000000000003B4800004D
:100030003B480000000000003B480000E147000092
:100040003B4800003B4800003B480000634800007C
:100050003B4800003B4800008D480000B7480000C6
:10006000E14800000B490000354900003B48000012
:100070003B4800003B4800003B4800003B48000074
:100080003B4800003B4800005D4900003B48000041
:100090003B4800003B4800003B4800008749000007
:1000A000B3490000DF4900000B4A0000374A000056
:1000B000614A00008B4A0000B54A0000E14A000096
:1000C0000D4B0000374B0000614B0000894B0000D6
:1000D000B14B0000DB4B0000054C00002F4C000032
:1000E000594C0000854C0000AF4C0000000000009F
:1000F0000000000000000000000000000000000000
:100100000000000000000000D74C0000FF4C000081
:10011000274D00004F4D0000774D00009F4D00001F
:100120003B4800003B4800003B4800003B480000C3
:100130003B4800003B4800003B4800003B480000B3
:100140003B4800003B4800003B480000C74D000012
:1001500094050000FFFF1E2D2D2D204D6563726953
:1001600073702D5374656C6C6172697320436F7288
:1001700065202D2D2D0007B59148002B09D000F0EA
:100180003BF800F041F800F027F8426028210160B8
:10019000F3E707BD00B58A4800230168282905D187
:1001A000426800F004F800F04CF8F6E700BD03B533
:1001B00047F8046D160047F8046D1E0008B400F0FF
:1001C000B9FF08BC013347F8046D7E4E47F8046D53
:1001D0007D4E04F046F903BD03B5013B47F8046DBD
:1001E0001E0008B400F090FF08BC320047F8046D10
:1001F000764E04F036F903BD03B5754801681E2933
:1002000001D000F034F803BD8169016201698161A8
:100210008168016101688160C16941624169C161B0
:10022000C16841614168C1601E21016070470FB51E
:10023000634801681E2903D0FFF7DEFFFFF7E4FFE4
:100240000FBD02B581680160C168416000E002B580
:10025000016981604169C16081690161C169416170
:10026000016A8161416AC1611E21016202BD08B556
:1002700001681E220260082901D20B0004E028292F
:1002800009D1436800F05BF847F8046D514E56EA17
:10029000033602F0C7FF08BD00B500F009F800F012
:1002A0000CF800F00FF800F012F800F015F800BD9F
:1002B0000FB54748FFF7DBFF0FBD0FB54648FFF707
:1002C000D6FF0FBD0FB54548FFF7D1FF0FBD0FB5E6
:1002D0004348FFF7CCFF0FBD0FB539480168062230
:1002E00002601E2906D147F8046D4CF6407602F0F4
:1002F0006AFF15E0282909D1436847F8046D1E00FC
:1003000047F8046D062602F02FFC09E0062907D005
:1003100047F8046D44F20666C9000E4302F053FF2D
:1003200000F001F80FBD26481E21016281610161C4
:100330008160C1620621016000218162704707B5BA
:1003400047F8046D1E0000F04DF847F8046D1E00DC
:1003500002F00AFC07BD07B5C16A282904D1016B68
:10036000994201D1002307BD0168002900F01D80DA
:100370008168002900F019800169002900F01580CA
:100380008169002900F01180016A002900F00D80C8
:10039000036347F8046D1E0047F8046D002602F061
:1003A000E3FB2821C162002307BD47F8046D1E004E
:1003B00000F018F847F8046D1E0002F0D5FB07BDE9
:1003C00028000020BC0E0000610200000020000098
:1003D00048000020040D47F84000002038000020AD
:1003E0003000002037B536480168826803698469A7
:1003F000056A062000F00EF8032000F00BF802203A
:1004000000F008F8012000F005F800232C481E2118
:10041000C16237BD814209D0824207D0834205D0F4
:10042000844203D0854201D0030037BD704747F8AE
:10043000046D4CF6007600B581581E2905D1FFF7F2
:10044000D1FF8350012199400E4300BD00B50168E2
:100450001E2904D10022FFF7EAFF02F0B4FE00BD1E
:1004600000B581681E2907D10822FFF7E0FF0022AE
:10047000FFF7E1FF02F0A7FE00BD00B501691E29EC
:100480000AD11022FFF7D3FF0822FFF7D4FF002282
:10049000FFF7D1FF02F097FE00BD00B581691E296C
:1004A0000DD11822FFF7C3FF1022FFF7C4FF082267
:1004B000FFF7C1FF0022FFF7BEFF02F084FE00BD80
:1004C0002800002000B50168282904D14368FFF7FF
:1004D00036FF0360190000BD00B58168282904D1EA
:1004E000C368FFF72CFF8360190000BD00B50169E8
:1004F000282904D14369FFF722FF0361190000BDD9
:100500003EB5826803698469056A9A4203D0A242B3
:1005100001D0AA420AD1072A08D847F8046DD600AC
:10052000FFF760FF1E43836002F04DFE3EBD3EB507
:100530000168826803698469056A914206D099421C
:1005400004D0A14202D0A94200D03EBD47F8046DBC
:10055000CE00FFF747FF1E43036002F034FE3EBDAE
:1005600000B5FFF76EFEFFF762FEFFF73BFF03608B
:1005700000BD01B506480368013308D00023DB4302
:10058000036047F8046D4BF2005602F01CFE01BDFB
:10059000D84F0020B8050000420204326475700094
:1005A000386847F8046D043F3860704700B500F0C4
:1005B000D7FC00F0D5FC00BDD60500006202053274
:1005C00064726F70043740CF704700B500F078FC5C
:1005D00000F076FC00BD1C06000044020532737773
:1005E000617007CF043F386047F8046D043F3A60FC
:1005F0000E00704700B5FFF750FF02680369036003
:100600000261426843694360426182688369836032
:100610008261C268C369C360C26100BD4406000054
:10062000620204326E69700007CF043F3860704781
:1006300000B5FFF732FFFFF7DDFFFFF702FEFFF720
:1006400000FE00BD5E060000440005326F76657254
:10065000B86847F8046D043F3860FE68704782064A
:100660000000440005327475636B07CF043F3860A7
:1006700047F8046D043F3A60043F3960043F386036
:100680007047A406000046000432726F7400386898
:10069000B9683A69B86039613A6079687E60FE6825
:1006A000F9607047C6060000460005322D726F746F
:1006B0003868B9683A6938613960BA60F968FE60CB
:1006C0007E6879607047EE060000200203323E72B9
:1006D00001CF01B440B440CF704700B5FFF749FFE8
:1006E00000F011FC00F0B1FC00F0AFFC00BD1A07F7
:1006F000000020020332723E47F8046D40BC01BC8A
:10070000043F3860704700B5FFF733FF00F0B9FCD5
:1007100000F0B7FC00F0F7FB00BD4A070000200224
:100720000332724047F8046D019E47F8046D009E45
:10073000704700B5FFF71DFF47F8046D49F6010645
:1007400003F049FA03F043FA00BD700700002002ED
:1007500006327264726F700002B0704700B5FFF726
:1007600008FF47F8046D4BF2020602F02CFD00BDB5
:100770008807000042000364322F3868F1077610C2
:1007800040080843386070479E0700006202036417
:10079000322A3868001876413860704717E0B80789
:1007A000000042000464736872003868F10776083C
:1007B000400808433860704704080000620204647F
:1007C00073686C003868001876413860704700B56F
:1007D000FFF746FEFFF776FEFFF7A9FE00F093FB5A
:1007E000FFF770FEFFF7A3FE47F8046D402601F007
:1007F0006DFC00F088FB47F8046D44F2401601F0F0
:1008000065FC00BD160800004200046461627300CC
:10081000002E07D4704734080000420007646E655C
:100820006761746538680021C043F64301304E416A
:100830003860704784080000640202642D0007CF0E
:10084000121AB1410E00043F3A60704700B5FFF73D
:1008500024FE00F0ADFBFFF735FEFFF768FE00F069
:1008600052FBFFF72FFEFFF762FEFFF7C3FE01F01A
:1008700097FB00F0B9FB47F8046D44F2801600F0D6
:1008800045FD00BDD2080000640202642B0007CFC2
:1008900012184E41043F3A60704700B5FFF7FDFD66
:1008A00000F086FBFFF70EFEFFF741FE00F02BFB8A
:1008B000FFF708FEFFF73BFEFFF79CFE01F055FB3C
:1008C00000F092FB47F8046D44F2401600F022FD60
:1008D00000BDFC080000610203733E6447F8046D2C
:1008E000F617704700B500F0D9FAFFF720FE47F879
:1008F000046D41F2C07601F0E9FB00BD5A09000029
:10090000620203756D2A3868A0FB060638607047DE
:1009100047F8046DDFF8286500B5FFF7A1FDFFF784
:10092000D1FDFFF7D9FD01680E43816856EA014603
:10093000FFF787FCFFF785FCFFF779FCFFF752FD17
:10094000036056EA0336FFF772FCFFF74BFD0360C6
:1009500056EA032602F066FC00BD78090000620238
:10096000026D2A00386880FB06063860704747F839
:10097000046DDFF8D064CFE7B609000044000375CA
:10098000642A07CF564341437618010C130C594390
:100990007618010C80B292B2514343435043002277
:1009A000C91852411204B6180A04090C80184E41A5
:1009B000043F38607047480A000044000475646DC5
:1009C0002A0010B5002447F8046D7E6847F8046DCE
:1009D0003E69FFF798FF310040CF300040CF47F825
:1009E000046D3E6847F8046DFE6803B4FFF78BFFA3
:1009F00003BC330040CF320040CF47F8046D3E685F
:100A000047F8046D3E690FB4FFF77DFF0FBC9219E4
:100A1000634140CF89196241634140CF47F8046D7B
:100A20007E6847F8046DFE680FB4FFF76CFF0FBCDB
:100A30009219634140CF89196241634140CF1E0042
:100A40003A607960B86010BD6A0A00004300022A6B
:100A50002F0000B540B440CFFFF784FF47F8046D86
:100A600040BC00F04CF8043700BD8C0A0000430085
:100A7000052A2F6D6F6400B540B440CFFFF772FFB9
:100A800047F8046D40BC00F03AF800BDAE0A000023
:100A9000430003752A2F00B540B440CFFFF733FF62
:100AA00047F8046D40BC00F01BF8043700BDD20AC3
:100AB0000000430006752A2F6D6F640000B540B436
:100AC00040CFFFF720FF47F8046D40BC00F008F866
:100AD00000BDF20A0000430006756D2F6D6F6400C3
:100AE00000B547F8046D002600F019F840CF043730
:100AF00000BD100B00004300056D2F6D6F6400B545
:100B000047F8046DF61700F032F840CF043700BD07
:100B1000620B000044000675642F6D6F640030B4F2
:100B2000002300227968B86835003C684026400000
:100B3000494152415B41AB4202D804D3A24202D3A5
:100B4000121BAB410130013EF1D10E0038607B60D9
:100B5000BA6030BC704730B400237A68B9680020AE
:100B6000E2E7D80B0000440005642F6D6F6400B508
:100B7000F01719D0FFF756FEFFF733FDF0170CD032
:100B8000FFF750FEFFF72DFDFFF7C9FFFFF729FD27
:100B9000FFF748FEFFF725FD00BDFFF722FDFFF739
:100BA000BEFFFFF73FFE00BDFFF71BFDF0170ED0A5
:100BB000FFF738FEFFF715FDFFF7B1FFFFF732FE35
:100BC000FFF70FFDFFF72EFEFFF70BFD00BDFFF750
:100BD00008FDFFF7A4FF00BDEE0B00004400026417
:100BE0002F0000B5FFF7C3FFFFF71EFD00BD360C59
:100BF0000000440002662A0000B5F0170DD0FFF790
:100C000011FEFFF7EEFCF0170DD0FFF70BFEFFF71C
:100C1000D8FE40CF01CF386000BDFFF7E2FCF017EF
:100C2000F5D0FFF7FFFDFFF7CCFE40CF01CF3860D6
:100C3000FFF7F8FD00BD820C0000440002662F00A3
:100C400000B5F0170ED0FFF7EDFDFFF7CAFCF01767
:100C50000ED0FFF7E7FDFFF7C4FCFFF77CFFFFF7BF
:100C6000E3FC00BDFFF7BDFCF017F4D0FFF7DAFDA1
:100C7000FFF7B7FCFFF76FFFFFF7D4FDFFF7D4FCDA
:100C800000BDCA0C000020020232210006CF3160F4
:100C9000726040CF704700B5FFF7EFFB0168426814
:100CA00006B400F006FEFFF7C2FA06BC0160282970
:100CB00006D047F8046D46F2400600F0FEFD00BD88
:100CC0000432426000F0F5FD00BD140D000020026A
:100CD00002324000043F706838603668704700B5E3
:100CE00000F0DCF8016828290AD047F8046D46F6C0
:100CF000400600F0BFFD00F006F900F0B7FD00BDB2
:100D000041680431416000F0B1FD00F0FCF800F0F2
:100D1000ADFD00BD340D000044000364753C07CFF9
:100D20008E4204D801D1904201D800267047002697
:100D3000F6437047540D000044000364753E07CF2E
:100D4000B14204D801D1824201D800267047002662
:100D5000F6437047740D0000440002643C0007CF66
:100D60008E4204DC01D1904201DC0026704700264F
:100D7000F6437047940D0000440002643E0007CF24
:100D8000B14204DC01D1824201DC0026704700261A
:100D9000F6437047B00D000062020364303C043734
:100DA000F617704700B500F0C1F800F03DFB00BD3C
:100DB000D80D000062020364303D01CF0643013EBE
:100DC000B641704700B547F8046D44F2003600F0B4
:100DD000A1FA00F005FB00BDFE0D00004402036413
:100DE0003C3E07CF50404E400643013EB641F643DD
:100DF000704700B500F015F800F005FB00BD480E87
:100E00000000440202643D0007CF50404E400643BC
:100E1000013EB641704700B500F003F800F0E0FA7B
:100E200000BD00B5FFF739FB00F0C2F800F0C4F9CF
:100E300000F0DAF800F0C0F900F0B1F900BD0000F0
:100E40000000A0FB000080FB5A0E0000200003738E
:100E5000704047F8046D3E0070476A0E00002000A5
:100E600003737021370040CF70477C0E00002000D4
:100E70000372704047F8046D6E4670478C0E000098
:100E8000200003727021B54640CF7047B00E0000BD
:100E900061020364757047F8046D704706B5FFF78B
:100EA000D5FA01684268FFF7C2F90160426006BDE9
:100EB000DC0E000061020464726F700040CF704766
:100EC00000B501681E2906D147F8046D43F2047687
:100ED00002F079F900BDFFF7B4F900BDF20E000091
:100EE0006100043F64757000002E01D047F8046D66
:100EF00070471E0F0000620204737761700039684A
:100F00003E600E0070470CB5FFF7AAFA02688368CE
:100F1000036082604268C3684360C2600CBD4C0FCE
:100F200000006202036E69700437704700B5FFF776
:100F30008DFA81681E2902D0FFF789F900BD47F8B4
:100F4000046D43F2047602F03EF900BD740F000018
:100F50006202046F7665720047F8046D7E68704720
:100F600000B5FFF77DFA8168C268FFF760F901609C
:100F7000426000BD9A0F00006202047475636B004A
:100F800001CF083F7E603860704700B5FFF768FA10
:100F9000FFF784FF00F028F800BDD00F00006302C7
:100FA00003726F7403CF083F78603E600E00704795
:100FB0000EB5FFF762FA0168826803698160026119
:100FC00003604168C2684369C160426143600EBD0D
:100FD000F40F00006302042D726F740003CF083F0A
:100FE0007E6039600600704700B5FFF7E1FFFFF74C
:100FF000DFFF00BD061000002000047069636B0075
:1010000057F8266070471E100000000005646570E8
:1010100074684F49C91B47F8046D8E0870473A1031
:1010200000000000067264657074680047F8046D83
:101030006E464849891B8E087047701000002002D8
:10104000023E720040B440CF704700B5FFF791FAFE
:10105000FFF7FCF9FFF736FA47F8046D4BF200464C
:1010600001228A40164302F0AEF8FFF7EAF800BD0D
:10107000A6100000200202723E0047F8046D40BC3A
:10108000704700B5FFF775FAFFF7D1F8FFF7AAF937
:10109000036047F8046D4BF6004601229A40164360
:1010A00002F091F800BDC41000002002027240005E
:1010B00047F8046D009E704700B5FFF75AFA02F03A
:1010C00086FD00BDE81000002002057264726F709A
:1010D00001B0704700B5FFF74CFA47F8046D4BF2CA
:1010E000010602F070F800BDFC100000200005723F
:1010F0007069636BB6006E44366870472811000053
:10110000000004726F6C6C00002E01D140CF70475C
:10111000B0003958C019031F1A6802600438013E34
:10112000F9D104370E007047581100000000052D5A
:10113000726F6C6C002E01D140CF70473868394611
:101140004A680A600431013EFAD1086040CF704716
:101150008C0200208C0300207211000062020361E7
:101160006E6401CF0640704747F8046D44F20006F4
:10117000D0E08E11000062020362696301CFB043C8
:101180000600704747F8046D44F28036BEE0A811AF
:1011900000006202026F720001CF0643704747F8F9
:1011A000046D44F20036B5E0C2110000620203781B
:1011B0006F7201CF4640704747F8046D44F2400615
:1011C000A8E0DA1100006202012A01CF464370470D
:1011D00047F8046D44F240369CE00E1200006102B4
:1011E00003636C7AB6FA86F6704700B5FFF72EF9FE
:1011F00047F8046D6F4EFFF765F90E4356EA014656
:10120000FFF7AEF956EA032602F00CF800BD1E12F5
:101210000000610003726F725FEA76067047301259
:101220000000610003726F6CB61956F1000670473A
:10123000681200006202076172736869667401CF08
:1012400030410600704700B547F8046D44F20016BF
:1012500047F8046D41F20006FFF702F941681F29C3
:101260002AD91F21416027E0921200006202067213
:1012700073686966740001CFF0400600704700B5DE
:1012800047F8046D44F2C00647F8046D40F60006C6
:1012900012E0D01300006202066C73686966740085
:1012A00001CFB0400600704700B547F8046D44F226
:1012B000800647F8046D0026FFF7D2F80168282958
:1012C00003D040CF00F022F800BD04374168FEF79C
:1012D000B8FF002901D140CF00BD1F290AD88901DC
:1012E0000E430268D2001643FFF73AF91E4301F09D
:1012F0006AFF00BD40CFFFF733F947F8046D42F2B3
:1013000000061B021E4301F05EFF00BD0FB5FFF794
:10131000A7F80CE00FB5FFF7A3F80168062901D183
:10132000FFF7F1FD8268282A01D1FFF7ECFDFFF7F6
:10133000D3F8016828291CD147F8046D466801F0EC
:101340005FFB02CF002E40CF13D0B6F5804F01D106
:10135000194E1CE0194A964201D1194E17E0B6F514
:10136000864F01D1174E12E0174A964201D1174E0F
:101370000DE0FFF7C5F8FFF7A5F8C90082680E4336
:10138000164301F020FFFEF75CFF0FBD0FB50E43C3
:10139000816856EA0146FEF754FFFEF752FFFEF75A
:1013A00046FFFFF71FF8036056EA032601F03AFFF5
:1013B0000FBD000080F0B0FA000010F040400000C7
:1013C000000090F0000050F080430000000030F07A
:1013D000F4130000610202303D00013EB641704747
:1013E00000B500F0FDF800F02EFEFEF72AFF794967
:1013F000816200BD1A140000610203303C3E013ED0
:10140000B641F643704700B500F0EAF800F01BFE65
:10141000FEF717FF7049816200BD401400006102B1
:1014200002303C00F617704700B500F0D9F847F8D5
:10143000046D41F2C07600F049FE6849816200BD4A
:1014400056140000600004747275650047F8046D5E
:101450000026F64370476A14000060000566616C60
:10146000736547F8046D002670479014000042022F
:10147000023E3D0001CFB042EADA0026704747F84D
:10148000046D4DF6003647F8046D4DF60026B3E0C6
:10149000B61400004202023C3D0001CFB042D7DD4D
:1014A0000026704747F8046D4DF6004647F8046D76
:1014B0004DF60056A0E0DA1400004202013C01CFD4
:1014C000B042C5DB0026704747F8046D4DF6002694
:1014D00047F8046D4DF600368EE0FE14000042021F
:1014E000013E01CFB042B3DC0026704747F8046DDF
:1014F0004DF6005647F8046D4DF600467CE0241585
:101500000000620203753E3D01CF861BB641F643E3
:10151000704747F8046D4DF2003647F8046D4DF200
:10152000002669E04A150000620203753C3D01CFC8
:10153000361AB641F643704747F8046D4DF600067B
:1015400047F8046D4DF6001656E06E150000620275
:1015500002753C0001CF861BB641704747F8046D09
:101560004DF2002647F8046D4DF2003644E0921526
:101570000000620202753E0001CF361AB641704784
:1015800047F8046D4DF6001647F8046D4DF6000659
:1015900032E0B41500006202023C3E0001CF811B24
:1015A000361A0E43704747F8046D4DF2000647F8AF
:1015B000046D21E01C1700006202013D01CF361AC4
:1015C000013EB641704747F8046D4DF2001647F8EA
:1015D000046D11E000D2000000D3000000D500002F
:1015E00000B5FEF733FFFEF763FEFEF766FEFEF77B
:1015F00069FEFEF771FF00BD00B5FEF731FFFEF793
:1016000057FEFEF75AFEFEF771FF8268282A04D1C2
:10161000FFF779FC39683E600E4640CF0168282903
:101620001DD14168FF2907D847F8046D42F600062E
:101630000E43816809021AE047F8046D466801F01C
:10164000DFF902CF002E40CF09D047F8046D694E74
:101650000E43816856EA014601F0E4FD0AE0FEF718
:1016600031FF47F8046D44F28026C90016430E434B
:1016700001F0A9FDFEF7E5FDFEF7E3FD866240CF30
:1016800000BD0FB55C48816A002933D047F8046D6E
:10169000866A00218162310AD52901D140CF0FBD70
:1016A000FEF7C5FDFEF79EFE0360D22903D1534E1F
:1016B00000F00CFD0FBDD32905D1504E00F006FD02
:1016C00000F017FD0FBD023601F07DFD47F8046DF7
:1016D00042F2000600F00FF800F00BFD47F8046D31
:1016E0004EF2000601F06FFD47F8046D42F200066D
:1016F00000F001F80FBD00B5FEF7A8FEFEF717FFDA
:10170000016809020E4301F05EFD00BD00B5816A6B
:10171000090AD52901D1FEF794FD00BD3A17000052
:101720006202036D696E01CFB04200DC06007047B3
:1017300047F8046D4DF600362DE0581700006202A0
:10174000036D617801CFB04200DB0600704747F8B7
:10175000046D4DF600461EE0781700006202047525
:101760006D61780001CFB04200D30600704747F8A2
:10177000046D4DF600060EE00018000062020475CC
:101780006D696E0001CFB04200D80600704747F87F
:10179000046D4DF2003600B5FEF762FE0168826806
:1017A000914203D140CFFEF752FD00BD062A01D180
:1017B000FFF7A9FB0168282901D1FFF7A4FBFEF779
:1017C000B6FEFEF789FEC900026847F8046D44F2D0
:1017D00080260E43164301F0F6FC01F0F4FC47F8B6
:1017E000046D44F200660E43164301F0ECFCFEF774
:1017F0002EFD00BD000FB0F1280000208041000048
:101800003E1800000000046D6F76650007B53100DA
:1018100040CF320040CF00290FD0B2420DD006D3C6
:10182000013E013A705C50540139FBD105E030783B
:101830001070013601320139F9D140CF07BD60186F
:10184000000000000466696C6C00300040CF31007D
:1018500040CF002902D001397054FCD140CF7047ED
:10186000A2180000200201403668704747F8046D56
:1018700046F6000600B5FEF7E9FD0368282B08D1FF
:1018800043687C21194009010E437C218B43FEF7FC
:1018900062FDDB001E43FEF763FE1E4301F093FC76
:1018A00000BDFA1800002002012103CF30600E00B5
:1018B000704747F8046D46F2000600B5FEF7D0FD0C
:1018C0000368282B09D143687C21194009010E4384
:1018D0007C218B43FEF73FFD0360DB001E438368E2
:1018E000282B02D1C368FEF72AFD1E4301F06BFCD2
:1018F000FEF7A7FCFEF7A5FC00BD30190000200292
:10190000022B210003CF3268121832600E0070479C
:1019100000B5FEF7A5FDFFF7C1FAFFF7A7FFFFF738
:1019200047FB00F022FBFFF7EEFAFFF7C2FF00BD16
:10193000741900002002026840003688704700B524
:10194000FEF784FD47F8046D48F600060368282B6F
:1019500008D143683E21194049010E433E218B4383
:10196000FEF7F9FCDB001E43FEF7FAFD1E4301F013
:101970002AFC00BDCE19000020020268210003CF1E
:1019800030800E00704700B5FEF76AFD47F8046D21
:1019900048F200060368282B09D143683E2119400C
:1019A00049010E433E218B43FEF7D5FC0360DB006B
:1019B0001E438368282B02D1C368FEF7C0FC1E4378
:1019C00001F001FCFEF73DFCFEF73BFC00BD041AF4
:1019D0000000200203682B2103CF328812183280C6
:1019E0000E00704700B5FEF73BFDFFF757FAFFF713
:1019F000A6FFFFF7DDFA00F0B8FAFFF784FAFFF769
:101A0000C2FF00BD481A0000200202634000367881
:101A1000704700B5FEF71AFD47F8046D47F600065B
:101A20000368282B08D143681F21194089010E4300
:101A30001F218B43FEF78FFCDB001E43FEF790FD5A
:101A40001E4301F0C0FB00BDA21A00002002026389
:101A5000210003CF30700E00704700B5FEF700FD87
:101A600047F8046D47F200060368282B09D1436844
:101A70001F21194089010E431F218B43FEF76BFC88
:101A80000360DB001E438368282B02D1C368FEF786
:101A900056FC1E4301F097FBFEF7D3FBFEF7D1FB8C
:101AA00000BDD81A0000200203632B2103CF327837
:101AB000121832700E00704700B5FEF7D1FCFFF728
:101AC000EDF9FFF7A6FFFFF773FA00F04EFAFFF704
:101AD0001AFAFFF7C2FF00BD181B000020020462C3
:101AE0006973210003CF3268024332600E007047F1
:101AF00000B5FEF7B5FCFFF7D1F9FFF7B7FEFFF72A
:101B000057FA47F8046D44F20036FFF703FCFFF77D
:101B1000FAF9FFF7CEFE00BD581B00002002046258
:101B20006963210003CF3268824332600E00704740
:101B300000B5FEF795FCFFF7B1F9FFF797FEFFF749
:101B400037FA47F8046D44F28036FFF7DFFBFFF702
:101B5000DAF9FFF7AEFE00BD981B00002002047802
:101B60006F72210003CF3268424032600E0070472E
:101B700000B5FEF775FCFFF791F9FFF777FEFFF769
:101B800017FA47F8046D44F24006FFF7C3FBFFF76E
:101B9000BAF9FFF78EFE00BDCE1B000020020462E2
:101BA0006974400001CF3668064018BF4FF0FF3619
:101BB000704700B5FEF754FCFFF758FE47F8046D78
:101BC00044F20006FFF7A6FBFFF71DFC00BD0E1C4C
:101BD0000000200205686269732103CF3288024346
:101BE00032800E00704700B5FEF73AFCFFF756F959
:101BF000FFF7A5FEFFF7DCF947F8046D44F2003665
:101C0000FFF788FBFFF77FF9FFF7BDFE00BD4E1C15
:101C10000000200205686269632103CF3288824395
:101C200032800E00704700B5FEF71AFCFFF736F958
:101C3000FFF785FEFFF7BCF947F8046D44F28036E4
:101C4000FFF764FBFFF75FF9FFF79DFE00BD8E1CF9
:101C5000000020020568786F722103CF328842406D
:101C600032800E00704700B5FEF7FAFBFFF716F959
:101C7000FFF765FEFFF79CF947F8046D44F2400654
:101C8000FFF748FBFFF73FF9FFF77DFE00BDC41CDF
:101C90000000200205686269744001CF3688064062
:101CA00018BF4FF0FF36704700B5FEF7D9FBFFF7BE
:101CB00046FE47F8046D44F20006FFF72BFBFFF7E2
:101CC000A2FB00BD041D00002002056362697321B0
:101CD00003CF3278024332700E00704700B5FEF732
:101CE000BFFBFFF7DBF8FFF794FEFFF761F947F85A
:101CF000046D44F20036FFF70DFBFFF704F9FFF720
:101D0000ACFE00BD441D0000200205636269632132
:101D100003CF3278824332700E00704700B5FEF771
:101D20009FFBFFF7BBF8FFF774FEFFF741F947F899
:101D3000046D44F28036FFF7E9FAFFF7E4F8FFF7A5
:101D40008CFE00BD841D000020020563786F7221A7
:101D500003CF3278424032700E00704700B5FEF774
:101D60007FFBFFF79BF8FFF754FEFFF721F947F8D9
:101D7000046D44F24006FFF7CDFAFFF7C4F8FFF711
:101D80006CFE00BDBA1D000020020563626974404C
:101D900001CF3678064018BF4FF0FF36704700B5C8
:101DA000FEF75EFBFFF735FE47F8046D44F20006D0
:101DB000FFF7B0FAFFF727FB00BD4E1E0000000042
:101DC0000768666C61736821300040CF310040CFF6
:101DD000594B984221D3594B98421ED2584B194027
:101DE000994219D010F00102002A16D102889A42B5
:101DF00013D110F10060534A534B1360534B1360DF
:101E0000534A012313600180524A136813F00103FF
:101E1000FBD14F4A80231360704700F0ACFC2A5777
:101E2000726F6E672061646472657373206F7220D5
:101E30006461746120666F722077726974696E677D
:101E400020666C61736820210A0002F01ABC9C1E97
:101E5000000000000E666C617368706167656572F2
:101E6000617365000FB5300040CF334B984214D3F7
:101E7000344A354B1360354B1360354A02231360E7
:101E8000354A1060324A42231360324A136813F015
:101E90000103FBD12E4A802313600FBD1A1F0000DF
:101EA00000000A6572617365666C617368002248A0
:101EB00072B622494FF6FF72038893421CD047F84E
:101EC000046D060047F8046D00F055FC1045726182
:101ED000736520626C6F636B20617420200000F0DA
:101EE000BDFC00F048FC0C2066726F6D20466C61F2
:101EF00073680A00FFF7B6FF02308842DCD100F0B9
:101F00003AFC1246696E69736865642E20526573E7
:101F1000657420210A0002F04EBC5C1F0000000026
:101F20000E6572617365666C61736866726F6D00D1
:101F300072B6300040CFBBE7005000000000010047
:101F4000FFFF00000420024023016745AB89EFCD6D
:101F5000102002400C20024014200240921F00007A
:101F60006202012B01CF3618704700B5FEF778FAF0
:101F700047F8046D43F2000647F8046DC94E47F870
:101F8000046D41F600068168282917D1FEF7BBFFD2
:101F900014E0382000006202012D01CF861B70473B
:101FA00000B5FEF75DFA47F8046D43F6000647F802
:101FB000046DBD4E47F8046D41F60026FEF78CFA1D
:101FC0000168282927D14168FF290CD840CF40CF8C
:101FD000FEF796FA0E43816809020E4301F0F3F80A
:101FE000FEF72FF900BD47F8046D0E0000F008FD64
:101FF00002CF002E40CF0ED040CF04370E43816871
:1020000056EA0146FEF71DF9FEF7AAFA56EA03263C
:1020100001F008F900BD04370437FEF753FA8901CF
:102020008268D2000E431643FEF70BF9FEF798FACA
:102030001E4301F0C8F800BD5020000061020231CB
:102040002D00013E704747F8046D41F640663DE0C3
:1020500068200000610202312B000136704747F80A
:10206000046D41F6404631E08020000061020232FA
:102070002D00023E704747F8046D41F6806625E06A
:1020800098200000610202322B000236704747F8A8
:10209000046D41F6804619E0B2200000610205633C
:1020A000656C6C2B0436704747F8046D41F600569A
:1020B0000CE0E42000006102066E65676174650053
:1020C0007642704747F8046D44F2402600B5FEF7AB
:1020D000BDF90168C9000E43FEF742FA1E4301F044
:1020E00072F800BDFC2000006102036E6F74F643BD
:1020F000704747F8046D44F2C036E7E7142100004A
:102100006102037368727608704747F8046D40F601
:102110004006DBE72421000061020373686C76004F
:10212000704706E03A210000610202322A00760080
:10213000704747F8046D4026C8E75221000061024D
:102140000563656C6C73B600704747F8046D8026B4
:10215000BCE76A210000610202322F00761070474E
:1021600047F8046D41F24006B0E7AA210000610281
:1021700003616273F01736184640704700B5FEF7EA
:1021800065F947F8046D00260168C9000E43FEF7A3
:10219000E7F91E4301F017F847F8046D4DF20056B9
:1021A00001F011F8FFF78EFF00BDC82100004200CA
:1021B00005752F6D6F6401CF3100B0FBF6F67143EA
:1021C000401A043F38607047E62100004200042FA7
:1021D0006D6F640001CF310090FBF6F67143401A39
:1021E000043F38607047FA2100004200036D6F64BD
:1021F00000B5FFF7EFFF40CF00BD3A2200006202BA
:10220000012F01CF90FBF6F6704700B5FEF728F9D5
:10221000FEF758F9FEF760F947F8046D234E0168A0
:102220000E43816856EA0146FEF70BF8FEF798F96F
:1022300056EA032600F0F6FF00BD4E2200006100C2
:10224000046576656E0001203040361870476622BE
:102250000000810004626173650047F8046D144E4C
:1022600070470A0000007C22000000000662696ED0
:10227000617279000E4802210160704792220000CD
:10228000000007646563696D616C09480A2101609B
:102290007047B422000000000368657804481021EC
:1022A00001607047000010F10000B0F1F0F090FB09
:1022B000FC4F0020D0220000810009686F6F6B2D59
:1022C000656D697447F8046D7D4E7047BA23000050
:1022D000EC220000810008686F6F6B2D6B65790040
:1022E00047F8046D774E7047E02300000A23000092
:1022F00081000A686F6F6B2D656D69743F0047F848
:10230000046D714E70470A240000262300008100EE
:1023100009686F6F6B2D6B65793F47F8046D6B4EE5
:102320007047362400004423000081000A686F6F64
:102330006B2D70617573650047F8046D644E7047CE
:10234000664700005A230000000004656D697400B0
:102350000FB55B4800F026F80FBD6E2300000000AB
:10236000036B65790FB5574800F01CF80FBD80234B
:102370000000000005656D69743F5348006887469A
:10238000922300000000046B65793F004F4800680D
:102390008746A823000000000570617573654C48EE
:1023A0000068874600688746CE23000000000B7354
:1023B000657269616C2D656D697400B500F025F872
:1023C000002E40CFFAD0434A167040CF00BDF6230E
:1023D000000000000A73657269616C2D6B657900FD
:1023E00000B500F028F8002E40CFFAD047F8046D71
:1023F000384A167800BD2424000000000C73657272
:1024000069616C2D656D69743F0000B5FFF7C7FF0A
:1024100047F8046D0026304801688020014000D054
:10242000F64300BD6A24000000000B736572696109
:102430006C2D6B65793F00B5FFF7B1FF47F8046D70
:102440000026254801682020014000D0F64300BD49
:10245000224923480860234923480860234946202D
:1024600008602349234808607047F82400000000F2
:1024700004696E69740000B5FFF7EAFF00F07BF9AC
:102480003A4D6563726973702D5374656C6C61723B
:10249000697320524120322E332E3120666F722014
:1024A00053544D333246313033206279204D6174BC
:1024B0007468696173204B6F63680A0000BD000097
:1024C000F84F0020F44F0020F04F0020EC4F002088
:1024D000E84F002004380140003801401810024045
:1024E0003D40000004080140B004000008380140ED
:1024F0000C3801400C2000001C2500000000076380
:1025000065787065637400B5386801B4013038606F
:1025100000F00BF801BC067040CF00BD9225000012
:102520000000066163636570740000B502CF013975
:102530000022FFF717FF300040CF7F2809D0202866
:1025400019D2092816D00A281FD00D281DD0082816
:10255000EFD1002AEDD000F00EF903082008002A80
:10256000E7D0885C013A80230340E2D04023034057
:10257000F5D0DEE72020B242DBD247F8046D06003A
:10258000FFF7E6FE01328854D3E7160000F0A2F808
:1025900000BDA425000040000374696247F8046D83
:1025A000294E7047BA2500008100033E696E47F846
:1025B000046D264E704700000000E02500008200F8
:1025C0000E63757272656E742D736F75726365003C
:1025D00047F8046D1E4E704700000000C400002044
:1025E000FC250000000009736574736F75726365E4
:1025F000174802CF0660416040CF70471A2600009E
:10260000000006736F757263650047F8046D104E25
:10261000043F706838603668704754260000000038
:102620000571756572790FB5084800210160FFF7E3
:10263000B5FF47F8046D47F8046DC826FFF775FF2E
:10264000FFF7D6FF0FBD0000C4000020E44F0020BC
:10265000DC4F0020A2260000000007636F6D706150
:1026600072650FB5310040CF01CF884202D040CF14
:1026700000260FBD02CF002810D001380A5C335C61
:10268000412A02D35B2A38BF2032412B02D35B2B75
:1026900038BF20339A42EED000260FBD0026F64305
:1026A0000FBDB626000000000263720000B500F006
:1026B00062F8010A00BDC8260000000002626C003A
:1026C00047F8046D20267047DC26000000000573E3
:1026D0007061636547F8046D202639E6FC2600002A
:1026E0000000067370616365730000B5002E03DDA2
:1026F000FFF7F0FF013EFBD140CF00BD0C270000EB
:102700005000065B636861725D0005E024270000ED
:10271000000004636861720000B501F041FC40CF25
:10272000367800BD342700005004012847F8046DB6
:10273000292606E04E2700005004015C47F8046D8E
:10274000002600B501F036FC043740CF00BD9227CB
:1027500000001000022E22009B4800B547F8046DCF
:10276000060000F05EFA47F8046D222601F022FC14
:1027700000F068FD00BD0AB447F8046D7646013EDE
:1027800033780121013319405B181EEB030E0ABC9C
:1027900039E0B82700001000026322008B48DCE714
:1027A00047F8046D7646013E337801210133194024
:1027B0005B181EEB030E7047E22700001000027347
:1027C00022008348C9E747F8046D764647F8046D50
:1027D000013E36780121731C19405B181EEB030E75
:1027E0007047FA270000000005636F756E740136AC
:1027F00047F8046D013E367870472228000000003B
:1028000005637479706501B53078002807D001360A
:1028100047F8046D3678FFF79BFD0138F7D140CFBC
:1028200001BD50280000000004747970650031007B
:1028300040CF300040CF00B5002908D0002247F833
:10284000046D865CFFF784FD01329142F7D100BD33
:102850008A2800000000046865782E0007B5310062
:1028600040CF20200F22043847F8046D0E00C640E8
:102870001640092E01D9373600E03036FFF768FDE3
:102880000028F0D1FFF726FF07BD9A2800000000BE
:1028900003682E731FB54F4C0EE0AA2800000000FD
:1028A00003752E731FB54C4C06E02829000000006C
:1028B000022E73001FB5494C4949C91B8908494A72
:1028C000106803B40A201060FFF755FF08537461C5
:1028D000636B3A205B0047F8046D0E0001F039FD90
:1028E000FFF749FF025D200003BC3E4A106000294B
:1028F0000AD03D4A106806B447F8046D0600A047A8
:1029000006BC043A0139F5D1FFF735FF0620544FD4
:10291000533A200047F8046D3600A047FFF72BFF1D
:1029200004202A3E0A001FBDEC29000000000577A4
:102930006F72647300B5FFF71EFF010A00F0D5FE49
:10294000FFF719FF09416464726573733A2047F811
:10295000046DFFF783FFFFF70EFF064C696E6B3ABD
:10296000200047F8046D3668FFF778FFFFF703FF94
:1029700007466C6167733A2047F8046DB688FFF725
:102980006DFFFFF7F8FE06436F64653A2000B01D47
:1029900000F0E4FE47F8046D0600FFF75FFFFFF765
:1029A000EAFE064E616D653A200047F8046D063672
:1029B000FFF729FFFFF7DFFE010A00F0ADFE300050
:1029C00040CFBDD040CF00BD76270000A02700003B
:1029D000C62700005D280000434300005343000069
:1029E0008C020020FC4F002088020020502B0000A9
:1029F00000000D3132626974656E636F64696E67E1
:102A00000FB5FF2E04D847F8046D5FF0FF360FBDF9
:102A100016F0FF10B0420ED14FF6FF710840310C96
:102A2000814208D116F0FF0656F4805647F8046D2F
:102A30005FF0FF360FBD16F0FF20B0420FD14FF60A
:102A4000FF710840310C814209D1360A16F0FF06A9
:102A500056F4005647F8046D5FF0FF360FBDFF22B5
:102A600031001140300A1040884210D1300C104023
:102A700088420CD1300E1040884208D116F0FF0673
:102A800056F4405647F8046D5FF0FF360FBD300036
:102A900000210131001850F100007FF07F02024058
:102AA000802A05D01F29F4D347F8046D00260FBDF6
:102AB0000829F9D3060036F0800611F00100C001A4
:102AC000064311F00E00C002064311F0100080050D
:102AD000064347F8046D5FF0FF360FBD47F8046DFD
:102AE000DFF854665FF4704110EA010212011643E8
:102AF0005FF4006110EA0102D20316435FF4E06163
:102B000010EA010212011643FF2110EA01021643E6
:102B10001E4387E347F8046DDFF820665FF07041DD
:102B200010EA0102120B16435FF0006110EA010285
:102B3000520816435FF0E06110EA0102120B1643DF
:102B40005FF47F0110EA0102120C16431E4369E391
:102B5000B62B000000001072656769737465726CB3
:102B600069746572616C2C000FB5330040CF1B0295
:102B7000FF2E05D856F400561E4300F024FB0FBD6F
:102B8000FFF73EFF002E40CF06D0DFF8B405064326
:102B90001E4300F047FB0FBDF643FFF731FF002E49
:102BA00040CF06D0DFF89C0506431E4300F03AFBF9
:102BB0000FBDF6430BE0162C00000000096D6F7688
:102BC000776D6F76742C0FB5330040CF1B02300049
:102BD00040CFFFF783FF4FF6FF7110EA014001D0AD
:102BE000FFF798FF0FBD0FB50136300040CF00232F
:102BF000FFF774FFFFF78EFF06E00FB5013647F8C9
:102C0000046D0026FFF7B0FF47F8046D44F28076AC
:102C100000F0D9FA0FBD7C2C000000000563616C48
:102C20006C2C0FB5330000F03CFE300040CF1B1A77
:102C3000043BDFF814151940002906D0DFF80C25F5
:102C4000914202D0BDE80F40D7E740CF5B08DFF8E4
:102C5000000540F2FF7119400843DB0A40F2FF31E2
:102C60001940090408439B0A13F00101890608432F
:102C700047F8046D060000F0D5FA0FBDB22C000035
:102C80000000086C69746572616C2C0008B547F827
:102C9000046D4FF6470600F096FA47F8046D46F6C5
:102CA000045600F090FA47F8046D0626FFF75CFF23
:102CB00008BDD62C000000000663726561746500D3
:102CC00000B500F033F842F6F340804747F8046D52
:102CD000BEF1010600BD1E2D0000200005646F65D9
:102CE000733E42F6F340804747F8046DBEF101069B
:102CF000704747F8046DBEF10106DFF858241368E9
:102D0000DFF8541409680220084000D00231023173
:102D10001160FFF768FF136000F0C4F900BD602D7B
:102D200000000000073C6275696C647300B500F038
:102D30006BFB00F0B6FD0220064040CF04D047F800
:102D4000046D362600F03FFA47F8046D4BF200564A
:102D500000F039FA47F8046D0A2600F0A6FA00BD23
:102D60006C2D00005000035B275D03E0842D000004
:102D70000000012700B501F013F900F02DFD30002F
:102D800040CF00BDBA2D0000300008706F73747022
:102D90006F6E650000B5FFF7EDFF47F8046D0600A4
:102DA00039683E600E46FFF771FFFFF76FFF47F887
:102DB000046DEA4EFFF735FF00BD102E0000000045
:102DC00007696E6C696E652C00B54BF200514BF6CD
:102DD000005244F270733088884208D0904208D084
:102DE000984206D047F8046D060000F0ECF9023670
:102DF000F1E740CF00BD0EB44BF6005244F27073C1
:102E000001880230914201D09942F9D10EBC70473D
:102E1000262E00000000047265742C0047F8046D33
:102E20004BF60056CFE1342E00003000046578697F
:102E30007400F3E74C2E0000300007726563757272
:102E4000736547F8046DC44E3668EAE6642E0000E8
:102E5000810005737461746547F8046DC04E704756
:102E600000000000762E00000000015DBC4800213B
:102E7000C94301607047862E00001000015BB8480E
:102E8000002101607047A62E00000000013A00B545
:102E9000B448076000F0B8FAB14801210160B248B7
:102EA0000021016000BD182F00003008013B00B573
:102EB000AC480168B9420ED0FFF75DFC1520537491
:102EC00061636B206E6F742062616C616E63656418
:102ED0002E0A01F0D6BBA2480068411C10D00B2876
:102EE00005D847F8046D40F6200600F00AF947F8C7
:102EF000046D44F2707600F066F901F0C8FA05E05E
:102F000047F8046D4BF6005600F05DF900F0CAF882
:102F100093480021016000BD2C2F000000000765D0
:102F2000786563757465300040CF8746442F000094
:102F3000100009696D6D65646961746547F8046D19
:102F40001026DEE05A2F0000500006696E6C696E94
:102F5000650047F8046D2026D3E0742F00001000B0
:102F60000B636F6D70696C656F6E6C7947F8046DFB
:102F70003026C6E08E2F000050000A302D666F6CA0
:102F80006461626C650047F8046D4026B9E0A82FC3
:102F9000000050000A312D666F6C6461626C650040
:102FA00047F8046D4126ACE0C22F000050000A3201
:102FB0002D666F6C6461626C650047F8046D422693
:102FC0009FE0DC2F000050000A332D666F6C6461B7
:102FD000626C650047F8046D432692E0F62F00000E
:102FE00050000A342D666F6C6461626C650047F8AE
:102FF000046D442685E01030000050000A352D662F
:103000006F6C6461626C650047F8046D452678E07A
:103010002A30000050000A362D666F6C6461626CC5
:10302000650047F8046D46266BE044300000500010
:103030000A372D666F6C6461626C650047F8046D39
:1030400047265EE074300000000008636F6E737402
:10305000616E740000B500F0D7F9FFF717FE47F86E
:10306000046D44F2707600F0AEF8FFF78CFF00F0CC
:1030700019F800BD9630000000000932636F6E73CE
:1030800074616E7400B500F0BFF939683E600E4699
:10309000FFF7FCFDE1E7F2300000000006736D75FC
:1030A0006467650000B52B4801682A4A91421AD22C
:1030B00002390A882D4B9A4204D147F8046D2C4EF0
:1030C00000F081F800F06EF82A48006847F8046DB7
:1030D00006002949096804311E4A1368116000F08E
:1030E00072F8136000BD00F05DF847F8046D00262B
:1030F00008E07C310000000008736574666C61674D
:10310000730000B513480168124A914205D219486C
:1031100001683143016040CF00BD320040CF164806
:10312000006804300188114B994201D1110000E080
:103130001143018000BD0000000040F20000C0F219
:1031400000005FF000007FF00100C0FF0000C0FF42
:1031500000F800F00000002014000020924300005E
:10316000D84F0020100000205C000020FFFF00006E
:103170000000000020000020040000209831000022
:10318000410007616C69676E656401203040361844
:103190000220304036187047BC3100000000056145
:1031A0006C69676E00B58B4801680220014004D04D
:1031B00047F8046D002600F006F800BD003200005C
:1031C000000002682C000FB5B6B2834801680029E0
:1031D00002D0013100D001607E4801687D4A9142F1
:1031E00005D247F8046D0E00FEF7EEFD02E0320056
:1031F00040CF0A8047F8046D022600F056F80FBD54
:103200001A3200000000012C00B547F8046DFFF7EA
:10321000DAFF360CFFF7D7FF00BD363200000000A2
:10322000033E3C2C00B547F8046D360CFFF7CBFF8E
:10323000FFF7C9FF00BD9E320000000007737472E3
:10324000696E672C07B5FF21314040CF300040CF79
:10325000002905D147F8046D0026FFF7B4FF07BD2C
:1032600047F8046D067836020E43FFF7ACFF0130D5
:10327000013902290AD347F8046D467836020278EC
:103280001643FFF7A0FF02300239F2E7002900D110
:1032900007BD47F8046D0678FFF795FF07BDF832C4
:1032A0000000000005616C6C6F744A480168494A6F
:1032B00091420FD2320040CF8918484A914219D327
:1032C000FFF759FA0B466C6173682066756C6C0ADF
:1032D00001F0D7B9320040CF8918414A12689142B3
:1032E00008D3FFF748FA0952616D2066756C6C0AC5
:1032F00001F0C7B9016070471C3300000000096687
:103300006F7267657472616D00B500F025F8314821
:103310003449016034483549016000BD4433000040
:1033200000000D636F6D70696C65746F72616D3F45
:1033300047F8046D0026274800682649884248D38C
:10334000F64370476433000000000C636F6D7069D2
:103350006C65746F72616D001E4800681D4988427B
:1033600011D37047F833000000000E636F6D706971
:103370006C65746F666C6173680016480068154967
:10338000884200D270471848194902680B680A60E1
:1033900003601048174902680B680A600360104810
:1033A0000068834215D300B5FFF7E5F92320566185
:1033B000726961626C657320636F6C6C696465200F
:1033C000776974682064696374696F6E6172790AE1
:1033D00000BD704700000020D84F00200000010011
:1033E000240000208C030020040000205001000075
:1033F0001C00002018000020E23400000000082813
:10340000637265617465290000B500F0C9FD002E86
:103410000ED1FFF7B0F91520437265617465206E17
:1034200065656473206E616D6520210A01F029B91C
:10343000386847F8046D043F386000F09EF940CFCB
:10344000002E40CF11D0386847F8046D043F386033
:10345000FFF791F9095265646566696E6520FFF7AB
:10346000E6F9FFF788F9022E2000FFF79BFE00F037
:1034700018FA8E4800688D4988421CD28C48002179
:10348000016047F8046D0626FFF70FFFFDF7A6FD64
:10349000FFF7D8FE874801680A68874B9A4207D130
:1034A000824A1368116047F8046DFFF7ADFE1360A0
:1034B000066040CF10E07F4847F8046D0668FFF7CC
:1034C000A3FE47F8046D7D4EFFF77DFE794831007D
:1034D00040CF0160FFF7B6FE74480168784801608C
:1034E00000BDFA3400000000087661726961626C08
:1034F000650047F8046D012613E012350000000056
:1035000009327661726961626C6547F8046D022662
:1035100007E0EC3500000000096E766172696162B7
:103520006C6500B5FFF770FF604801685F4A914223
:1035300034D20F200640B20062480168891A624AFC
:1035400091420BD2FFF717F90F4E6F7420656E6F23
:103550007567682052414D0A01F093B8016047F841
:10356000046D0E00FFF792FB47F8046D44F270768D
:10357000FFF729FE300040CF0200002805D00E6082
:103580000431FFF741FE0138F9D147F8046D802678
:103590001643FFF7B6FDFFF785FD00BD00F081F98A
:1035A0000220064040CF04D147F8046D3626FFF7CD
:1035B0000AFE47F8046D454EFFF734FE47F8046DE8
:1035C000434EFFF72FFE47F8046D44F27076FFF785
:1035D000FAFD300040CF002803D0FFF715FE013878
:1035E000FBD1FFF7D0FCFFF75DFD00BDD436000036
:1035F0000000076275666665723A00B5FFF704FF62
:103600000120304036180220304036182748016823
:10361000264A914228D22B480168891B2A4A9142A6
:103620000BD2FFF7A8F80F4E6F7420656E6F7567A9
:10363000682052414D0A01F024B8016047F8046D3A
:103640000E00FFF723FB47F8046D44F27076FFF796
:10365000BAFDFFF7D9FD47F8046D40F24016FFF7B9
:1036600050FDFFF71FFD00BD00F01BF902200640D2
:1036700040CF04D147F8046D3626FFF7A4FD47F884
:10368000046D124EFFF7CEFD47F8046D104EFFF7A4
:10369000C9FD47F8046D44F27076FFF794FDFFF71B
:1036A00004FEFFF770FCFFF7FDFC00BD00000020EA
:1036B0002000002004000020FFFFFFFFFFFF0000AC
:1036C00014000020240000208C0300203E60043FF2
:1036D00002367E460237000000000F646963746999
:1036E0006F6E617279737461727441480068404909
:1036F00047F8046D884201D23E4E70473E4E366810
:1037000070473C37000000000E64696374696F6E97
:103710006172796E6578740003B53168374881420B
:1037200007D08879FF2804D00E0047F8046D0026E2
:1037300003BD47F8046D0026F64303BD6E37000055
:1037400000000A736B6970737472696E6700317878
:10375000013101220A4089187618704706B40178B1
:10376000013101220A408918401806BC704704380C
:10377000000000000466696E64003FB5002200236B
:10378000350040CF340040CFFFF7AFFF1C48B18871
:10379000884217D047F8046D0636FFF728F847F837
:1037A000046D260047F8046D2E00FEF75AFF002E28
:1037B00040CF07D0B01DFFF7D1FF02000B000C482F
:1037C000824204D2FFF7A8FF300040CFDED01600BF
:1037D00047F8046D1E003FBD00B531003868FFF7A3
:1037E000CCFF3A68002A01D100F0FFFE00BD0000C6
:1037F000000000205001000004000020FFFFFFFF38
:10380000FFFF00005E380000000006636A756D70FF
:103810002C00320040CF310040CF8B1B043BDA49F3
:10382000194000290DD0D94881420AD0FEF7A3FFE4
:103830000D4A756D7020746F6F206661720A00F01A
:1038400020BF5B10FF210B40134330001E0000B56A
:10385000CF4A13681060FFF7B6FC136000BD9638BE
:1038600000000000056A756D702C310040CF3000FB
:1038700040CF0B1A043BC7491940002902D0C64A61
:103880009142D3D15B10C54A134053F4604347F8CB
:10389000046D1E00DBE7AC380000000004686572B0
:1038A000650047F8046DBA4E36687047E23900008B
:1038B00000000D666C6173687661722D68657265D3
:1038C00047F8046DB64E3668704700B547F8046D8A
:1038D00042F60066FFF777FC47F8046D4CF6407639
:1038E000FFF771FC00BDDCE700B500F03AF839687D
:1038F0003E600E4647F8046D4DF20016FFF789FF53
:1039000000BD00B500F02DF839683E600E4647F85E
:10391000046D4DF20076FFF77CFF00BD00B5FFF7A8
:10392000D4FF00F01EF839683E600E4647F8046D7B
:103930004DF20006FFF76DFF00BD00B500F011F875
:1039400039683E600E46FFF790FF00BD00B5FFF7F7
:10395000BCFFFFF7A6FF47F8046D0226FFF7A5FCA2
:1039600000BD00B5FFF79DFF47F8046D0226FFF785
:103970009CFC00BD00B5FFF794FFFFF776FF00BD8C
:1039800000B5FFF78EFF47F8046D4DF20006FFF714
:1039900040FF00BD00B5FFF784FF47F8046D4DF20E
:1039A0000016FFF736FF00BD00B5FCF74FFDFCF732
:1039B0007FFCFCF782FCFCF785FC8168282901D19B
:1039C000FCF78AFDFCF77EFD47F8046D42F6000621
:1039D00009020E43FFF7F7FBFCF733FCFCF75CFC36
:1039E00000BD0E3A00003000047468656E00052EBC
:1039F00001D140CFBEE7F1B200296DD100B5FFF78C
:103A000050FF39683E600E46FFF703FF00BD2A3ABB
:103A10000000300004656C73650000B500F036F8F6
:103A2000FCF7DFFDFFF7E3FF00BD803A0000300642
:103A30000269660000B5FFF789FF47F8046D4DF293
:103A4000000600BD00B5FCF794FDFDF75FFE816A3E
:103A5000002907D002B4FCF71FFCFFF782FF47F8EC
:103A6000046D40BDFFF7A0FFFFF71BFF47F8046D93
:103A70000226FFF71AFC47F8046D4DF2000600BD60
:103A80009A3A0000300005616865616400B5FFF78F
:103A900068FF47F8046D052600BDB43A0000300009
:103AA000067265706561740000B500F05BF8FFF7A1
:103AB0009EFF00BDF83A00003006057768696C6526
:103AC00000B5FFF7B7FFFCF78CFD00BD00B5FFF7B1
:103AD000B9FFFCF786FD00BDFEF74DFE175374726B
:103AE0007563747572657320646F6E2774206D61E1
:103AF0007463680A00F0C5BD583B000030060575C8
:103B00006E74696C012EE7D140CF07E77047012E34
:103B1000E2D140CF00B5FDF7F9FD816A00290DD053
:103B200002B4FCF7B9FBFFF71CFF39683E600E4694
:103B300047F8046D40BCFFF76CFE00BDFFF734FF93
:103B4000FFF70FFF39683E600E4647F8046D4DF2EF
:103B50000006FFF75EFE00BD6C3B00003000056113
:103B60006761696E012EB7D140CFE6E6A43B000045
:103B7000300005626567696E00B5FFF7B4FE47F86F
:103B8000046D012600BD000001FFFFFF00FFFFFFE5
:103B90000000002001F8FFFF00F8FFFFFF07000012
:103BA00024000020BE3B00002002016B47F8046D9A
:103BB000029E704747F8046D49F602060BE0EC3BA5
:103BC00000002002016A47F8046D009E704747F824
:103BD000046D49F6000600B5FCF729FBFCF702FC72
:103BE00003601B021E43FFF7EEFA00BD183C000005
:103BF0002002016947F8046D2600704700B547F8B8
:103C0000046D40F22006FCF712FBFCF7EBFB0360AF
:103C10001E43FFF7D8FA00BD563C00003000056C8B
:103C20006561766500B5754801683B00043F1A6818
:103C3000043B1A6008338B42F9D103B4FFF791FEBD
:103C400003BC330040CF04390B60016004390A68BB
:103C500001320A6000BD683C0000200006756E6CF1
:103C60006F6F700030BC7047A03C00003000052B27
:103C70006C6F6F70032E00D02EE740CF00B547F871
:103C8000046D5F4EFFF7A0F8FFF73BFE1AE014F15A
:103C90000044641BA41940CF2C44A4F10044704795
:103CA000E23C00003000046C6F6F7000032E00D007
:103CB00012E740CF00B547F8046D524EFFF784F885
:103CC000FFF712FE00F052F94C48310040CF01607E
:103CD00047F8046D4C4EFFF777F800BD0134AC4255
:103CE00070472A3D0000300202646F0000B547F8BB
:103CF000046D464EFFF768F84048016847F8046DC8
:103D00000E0047F8046D00260760FFF7ECFD47F84A
:103D1000046D032600BD00B500F02FF8ECE730B4C9
:103D2000340040CF350040CF7047103E00003002D5
:103D3000033F646F00B547F8046D344EFFF744F855
:103D400047F8046D44F2AC26FFF73DFA2B480168B2
:103D500047F8046D0E00FFF704FE013647F8046DC6
:103D6000012626480760FFF7BEFD47F8046D0326CD
:103D700000BD00B500F001F8E2E700B5FCF7F9FB83
:103D8000FCF76EFBFCF794FAFCF797FAFCF79AFA4B
:103D900047F8046D4BF23046FFF715FA0168282901
:103DA00008D047F8046D40F20406C9000E43FFF73F
:103DB0000AFA07E047F8046D466847F8046D0426E0
:103DC000FEF7D2FE8168282908D047F8046D40F23A
:103DD0000506C9000E43FFF7F6F907E047F8046D42
:103DE000C66847F8046D0526FEF7BEFEFCF729FA03
:103DF000FCF727FAFCF770FA00BD00000C00002069
:103E00008E3C0000DC3C0000643C00001E3D0000D5
:103E1000303E0000300004636173650000B5FCF7BC
:103E2000A8FB47F8046D002647F8046D082600BD7E
:103E3000463E00003000033F6F66714809E0013ED6
:103E4000B64140CF70470C3F00003002026F660061
:103E50006C48082E00D03FE640CF00B547F8046D0F
:103E60000600FEF7B1FFFFF77CFD39683E600E46A5
:103E7000013647F8046D092647F8046D4CF6407684
:103E8000FFF7A1F900BD082E00D025E640CF00B510
:103E9000FCF7E6FAFCF70CFAFCF70FFAFCF712FA5B
:103EA00047F8046D44F28026FCF716FB0E430268C7
:103EB000282A1ED14268FF2A08D840CF47F8046D4F
:103EC00042F60006164309020E4314E047F8046D5B
:103ED0004668FEF795FD04CF002E40CF06D04A4E2F
:103EE000164356EA0146FFF79DF906E0FCF7EAFAA9
:103EF0000A00D2001643FFF766F9FCF7A2F9FCF7B7
:103F0000EBF9B0E7300040CFB0427047423F0000CD
:103F1000300005656E646F66092E00D0DCE540CF89
:103F200000B540B440CFFFF71CFD39683E600E4637
:103F3000FFF730FD47F8046D40BC47F8046D0826D4
:103F400000BD943F0000300007656E6463617365D7
:103F5000082E00D0C0E540CF00B547F8046D4CF600
:103F60004076FFF730F900F001F800BD00B53000F1
:103F700040CF00280DD003B401213140002903D0E7
:103F8000013EFFF7FDFC01E0FFF7F4FC03BC013844
:103F9000EFE700BDA83F0000000005746F6B656E81
:103FA00047F8046D202605E0104000000000057071
:103FB0006172736510B5FEF728FB310040CF300009
:103FC00040CF124A12688418202E07D191420FD098
:103FD000835CB34202D101328418F7E7914207D0E3
:103FE000835C0132B342F9D18618361B013E01E0F1
:103FF0008618361B043F3C600448026010BD000078
:104000003E3E0000043F0000000FB0F1E44F0020EE
:104010004E4000000000056469676974CF4B1B685F
:10402000303E0BD30A2E0BD3073E0A2E06D3242E86
:1040300006D3203E0A2E01D3242E01D3002670473A
:104040009E42FBD247F8046D0026F6437047584164
:1040500000000000066E756D626572003FB53100AC
:1040600040CF701E0126012204B4BC4B1B68002403
:10407000002500293CD00130013902782D2A04D1D5
:1040800001B00022D24304B4F3E7232A01D10A236A
:10409000EFE7242A01D11023EBE7252A01D10223DF
:1040A000E7E72E2A01D10226E3E72C2A36D047F88B
:1040B000046D1600FFF7B4FF002E40CF2BD047F859
:1040C000046D260047F8046D2E0047F8046D1E00AD
:1040D00047F8046D00260FB4FCF753FC0FBC350005
:1040E00040CF340040CF0022A419554140CFC0E753
:1040F00004BC002A04D50022E443ED4301345541B9
:1041000033002600012B02D047F8046D2E0047F83B
:10411000046D1E003FBD01B000263FBD25000024F8
:1041200002260029E4D0425C01392E2AF9D047F852
:10413000046D1600FFF774FF002E40CFEBD0043F54
:104140003C6047F8046D1E000FB4FCF7C9FC0FBCBF
:10415000340040CF40CFE4E77A4100000000062E53
:104160006469676974000A2E01D230367047242EC4
:1041700001D23736704723267047B0410000000057
:1041800004686F6C6400330040CF754801783F29A4
:104190000DD2013101704018012907D00138027891
:1041A00001300270013801390129F7D103707047DD
:1041B000D0410000000005686F6C643C330040CFC4
:1041C000674801783F2902D201310170435470479A
:1041D000E84100000000047369676E00002E01D4FE
:1041E00040CF70472D26CEE7FC410000000002239F
:1041F0003E005B480678013038607047144200008A
:1042000000000366235310B5202400F008F8013C99
:10421000FBD110BD3642000000000266230000B54D
:1042200047F8046D4D4E3668FCF76DFBFFF79BFFBA
:10423000FFF7C4FF00BD52420000000002235300FC
:1042400000B500F00AF8002EFBD138680028F8D13C
:1042500000BD7E4200000000012300B547F8046D58
:104260003E4E366847F8046D0026FCF758FCFCF714
:10427000B8F940CFFFF777FFFFF785FF00BD904209
:1042800000000000023C2300354800210170704707
:10429000A2420000000002662E0047F8046D2026AE
:1042A00004E0F0420000000003662E6E00B510B47A
:1042B000340040CFFCF764FEFCF7AAFA47F8046D1F
:1042C0000026FFF7E1FFFFF7BBFF40CF2C26FFF7EB
:1042D00075FF002C03D0FFF7A2FF013CFBD110BCFF
:1042E00040CFFFF77BFF47F8046D47F8046D1CE0F3
:1042F0000643000000000375642E00B5FFF7C4FFFD
:10430000FFF79EFF11E038430000000002642E001A
:1043100000B5FCF735FEFCF77BFAFFF7B5FFFFF7BA
:104320008FFFFCF73FFEFFF759FFFFF762FFFEF735
:104330007EFAFEF7CFF900BD4A4300000000027587
:104340002E0047F8046D0026D7E716450000000050
:10435000012E47F8046DF617DAE70000FC4F002045
:104360008400002030B5D74C2568002D01D13D00D8
:10437000256030BD30B5D34C3D00256030BD30B533
:10438000D04C0025256030BDCE4B1B68DB1B9B0845
:10439000704700B5310040CFCB48084002D000F054
:1043A000A2F800BDC948084001D1FDF76AF9320002
:1043B00040CFFFF7D7FFC648084003D047F8046D49
:1043C000160000BDFFF7E0FF8020084006D1402026
:1043D000084009D00F200840834205D347F8046DF8
:1043E0001600FEF7A0FD00BDBA48084014D0FBF748
:1043F000C2FE47F8046D160047F8046D0E0000F089
:1044000030F81000FEF7F7FC421CB3489047FFF766
:10441000B1FFFBF7BFFE00BDFBF7ADFE47F8046D33
:10442000160047F8046D0E0000F01BF8FBF734FF90
:10443000FFF7A5FFA948084001D1FCF79AF847F813
:10444000046D160010220A4002D0FEF76CFD00BD7C
:1044500020220A4002D0FEF7B7FC00BDFEF7E1FBC8
:1044600000BD0FB5320040CF330040CF9C480168FB
:10447000062907D2062041439A48401803801B0CA6
:104480004380828096480168013101600FBD0FB5FD
:104490009348016806291FD8924801391DD047F872
:1044A000046D0E00FEF78FFE47F8046D0688FEF7D8
:1044B0008AFE47F8046D4688FEF785FE47F8046DCE
:1044C0008688FEF780FE06300139EDD147F8046D8D
:1044D00041F20006FEF715FE0FBD47F8046D4026B9
:1044E000FEF70FFE0FBD00B5300040CFFEF783FC96
:1044F0000188023047F8046D06884288120416438A
:1045000047F8046D868803B4FFF743FF03BC063009
:104510000139EFD100BD5E450000000008657661FD
:104520006C756174650000B5FEF76FF801CF01B4DA
:1045300040B440CF6C48016802B400210160FEF72E
:1045400057F800F014F8684802BC016047F8046DA1
:1045500040BC01BC043F3860FEF74AF800BD5A4633
:104560000000000009696E7465727072657400B5B0
:104570005E4887420BD9FEF7FEF810537461636BF7
:1045800020756E646572666C6F770A0079E0584832
:1045900087420AD2FEF7EFF80F537461636B206F06
:1045A000766572666C6F770A6BE0FFF7DBFEFFF7EC
:1045B000F7FC002E02D1043740CF00BD386847F821
:1045C000046D043F3860FFF7D8F8310040CF320067
:1045D00040CF002A15D138683100FDF752F8FFF7B7
:1045E0003DFD320040CF002AC2D1FEF724F9FEF78C
:1045F000C2F80C206E6F7420666F756E642E0A0010
:104600003FE03C4B1B68002B1CD1FFF7B8FE30236A
:104610000B40302B0ED1FEF70AF9FEF7ACF8122052
:10462000697320636F6D70696C652D6F6E6C792E88
:104630000A0026E0043740CF47F8046D1600FEF765
:1046400072FC95E7043740CF47F8046D160047F831
:10465000046D0E00FFF79DFE8AE77646000081009C
:1046600009686F6F6B2D7175697447F8046D224E80
:104670007047AE4600000C470000000004717569E9
:104680007400DFF878D0194F1D480A2101601948DD
:10469000002101600B480160FBF745FE12480160F4
:1046A0001848016018494160134800688746FDF7C3
:1046B000BAFFFFF75CFFFEF75EF805206F6B2E0A6E
:1046C000F5E70000080000200010000000040000D2
:1046D0000020000000020000280000200008000068
:1046E0005C00002060000020E44F00208C020020CD
:1046F0008C010020D84F0020D44F00208C030020D4
:10470000FC4F0020DC4F0020C400002026470000A2
:1047100000000565696E743F47F8046DEFF310867D
:10472000013EB64170473647000020000465696EBF
:10473000740062B670474647000020000464696E4A
:10474000740072B670475C47000020000469707303
:10475000720047F8046DEFF3058670476847000064
:104760000000036E6F707047AA47000000000975D3
:104770006E68616E646C656400B5FDF7FCFF1455EE
:104780006E68616E646C656420496E7465727275E2
:104790007074200047F8046DEFF30586FEF75EF8AD
:1047A000FDF7E9FF02210A0000BDC047000000003C
:1047B000057265736574DFF80407DFF8041701609C
:1047C000EC47000081000B6972712D737973746975
:1047D000636B47F8046DDFF8EC66704778470000BC
:1047E00044F6D070C2F20000006887461648000008
:1047F0008100096972712D6661756C7447F8046DEA
:10480000DFF8C46670477847000044F6CC70C2F207
:104810000000006887464648000081000E697271FA
:104820002D636F6C6C656374696F6E0047F8046D7F
:10483000DFF8986670477847000044F6C870C2F207
:104840000000006887466E480000810007697271A9
:104850002D72746347F8046DDFF87466704778470B
:10486000000044F6C470C2F2000000688746984811
:1048700000008100096972712D657874693047F80C
:10488000046DDFF8506670477847000044F6C0704A
:10489000C2F2000000688746C24800008100096932
:1048A00072712D657874693147F8046DDFF82866F8
:1048B00070477847000044F6BC70C2F20000006800
:1048C0008746EC4800008100096972712D65787493
:1048D000693247F8046DDFF80466704778470000D6
:1048E00044F6B870C2F2000000688746164900001E
:1048F0008100096972712D657874693347F8046D18
:10490000DFF8DC6570477847000044F6B470C2F207
:104910000000006887464049000081000969727103
:104920002D657874693447F8046DDFF8B865704711
:104930007847000044F6B070C2F200000068874675
:10494000684900008100076972712D61646347F84E
:10495000046DDFF8946570477847000044F6AC704A
:10496000C2F2000000688746924900008100096990
:1049700072712D657874693547F8046DDFF86C65E0
:1049800070477847000044F6A870C2F20000006843
:104990008746BE49000081000B6972712D74696DF4
:1049A0003162726B47F8046DDFF8446570477847F1
:1049B000000044F6A470C2F2000000688746EA498D
:1049C000000081000A6972712D74696D3175700083
:1049D00047F8046DDFF81C6570477847000044F61F
:1049E000A070C2F2000000688746164A00008100ED
:1049F0000B6972712D74696D3174726747F8046DBB
:104A0000DFF8F46470477847000044F69C70C2F207
:104A1000000000688746424A000081000A697271FE
:104A20002D74696D3163630047F8046DDFF8CC6461
:104A300070477847000044F69870C2F200000068A2
:104A400087466C4A00008100086972712D74696D97
:104A5000320047F8046DDFF8A8647047784700001B
:104A600044F69470C2F2000000688746964A00003F
:104A70008100086972712D74696D330047F8046D07
:104A8000DFF8806470477847000044F69070C2F207
:104A9000000000688746C04A000081000869727102
:104AA0002D74696D340047F8046DDFF85C6470475D
:104AB0007847000044F68C70C2F200000068874618
:104AC000EC4A000081000A6972712D693263316518
:104AD000760047F8046DDFF83464704778470000CB
:104AE00044F68870C2F2000000688746184B000048
:104AF00081000A6972712D6932633165720047F86D
:104B0000046DDFF80C6470477847000044F6847049
:104B1000C2F2000000688746424B000081000A692B
:104B200072712D6932633265760047F8046DF94E73
:104B300070477847000044F68070C2F200000068B9
:104B400087466C4B000081000A6972712D693263DF
:104B50003265720047F8046DEF4E704778470000E9
:104B600044F67C70C2F2000000688746944B000057
:104B70008100086972712D737069310047F8046D06
:104B8000E64E70477847000044F67870C2F20000A5
:104B900000688746BC4B00008100086972712D7364
:104BA0007069320047F8046DDD4E704778470000A9
:104BB00044F67470C2F2000000688746E64B0000BD
:104BC00081000A6972712D7573617274310047F842
:104BD000046DD44E70477847000044F67070C2F2FE
:104BE000000000688746104C000081000A6972715D
:104BF0002D7573617274320047F8046DCA4E7047A8
:104C00007847000044F66C70C2F2000000688746E6
:104C10003A4C000081000A6972712D7573617274DB
:104C2000330047F8046DC14E70477847000044F6E2
:104C30006870C2F2000000688746644C0000810082
:104C40000A6972712D6578746931300047F8046D16
:104C5000B74E70477847000044F66470C2F2000017
:104C600000688746904C000081000C6972712D72BB
:104C70007463616C61726D0047F8046DAD4E7047EE
:104C80007847000044F66070C2F200000068874672
:104C9000BA4C000081000B6972712D757362776BDD
:104CA000757047F8046DA44E70477847000044F6CD
:104CB0005C70C2F2000000688746E24C0000810090
:104CC000086972712D74696D350047F8046D9B4E4B
:104CD00070477847000044F65870C2F20000006840
:104CE00087460A4D00008100086972712D73706952
:104CF000330047F8046D924E70477847000044F641
:104D00005470C2F2000000688746324D00008100F6
:104D1000096972712D756172743447F8046D894E9A
:104D200070477847000044F65070C2F200000068F7
:104D300087465A4D00008100096972712D756172B4
:104D4000743547F8046D804E70477847000044F68C
:104D50004C70C2F2000000688746824D000081005E
:104D6000086972712D74696D360047F8046D774ECD
:104D700070477847000044F64870C2F200000068AF
:104D80008746AA4D00008100086972712D74696D13
:104D9000370047F8046D6E4E70477847000044F6C0
:104DA0004470C2F2000000688746D24D00008100C6
:104DB000096972712D757362667347F8046D654EEB
:104DC00070477847000044F64070C2F20000006867
:104DD000874600500000FFFF182D2D2D20466C61E6
:104DE00073682044696374696F6E617279202D2D38
:104DF0002D0059488546594F2A2659485649016081
:104E000058485949016047F8046D574E574DB188CD
:104E1000574B994224D0574B0B400AD0B01DFEF798
:104E20009DFCFDF7E8FF0388408800040343ED1A6A
:104E300016E080230B4013D00F23194089006D1A10
:104E4000B01DFEF78BFCFDF7D6FF47F8046D06009A
:104E500047F8046D2E0047F8046D0E00FCF7D6FCF1
:104E6000FEF75AFC300040CFD1D04348066040CF17
:104E700042480560424843493D4A884204D00238CE
:104E800003889342F9D002303F4908603F4800212F
:104E9000016047F8046D3E4E47F8046D0426FEF7A6
:104EA0006CFC40CF002E03D0FEF73DF8FFF7FCBBB3
:104EB00040CFFFF7E6BB696E697400000CED00E0BF
:104EC0000400FA05D04F0020CC4F0020C84F00202E
:104ED000C44F0020C04F0020BC4F0020B84F00201E
:104EE000B44F0020B04F0020AC4F0020A84F00204E
:104EF000A44F0020A04F00209C4F0020984F00207E
:104F0000944F0020904F00208C4F0020884F0020AD
:104F1000844F0020804F00207C4F0020784F0020DD
:104F2000744F0020704F00206C4F0020684F00200D
:104F3000644F0020604F00205C4F0020584F00203D
:104F4000544F0020504F00204C4F0020484F00206D
:104F5000444F0020404F00208C0300208C02002092
:104F6000000000200400002050010000005000203C
:104F7000FFFF0000000100001C00002024000020B2
:104F80000000010000500000180000200800002070
:104F9000B64E0000FFFFFFFFFFFFFFFFFFFFFFFF19
:1050000030500000000006636869706964004FF268
:105010008070C1F6FF70836EC26E016F47F8046D39
:1050200047F8043D47F8042D47F8041D0326704750
:1050300058500000000004687769640000B5FFF76D
:10504000E6FF30B40124350040CF08CF5E40013484
:10505000AC42FAD130BC00BD885000002018086670
:105060006C6173682D6B62004FF2C070C1F6FF7007
:10507000038C47F8046D1E4670470200E0F7FF1FDF
:1050800000203A1900002002B050000061180362AD
:1050900069740123B3401E467047030001000000FD
:1050A0000020FE0E00006202A0120000620200005A
:1050B000CC5000004000044146494F0047F8046DC1
:1050C00040F20006C4F2010670470000EC500000F8
:1050D0004000094146494F2D4D41505247F8046D5B
:1050E00040F20406C4F201067047000008510000B7
:1050F0004000065553415254310047F8046D43F6C1
:105100000006C4F2010670472851000040000A550D
:1051100053415254312D4252520047F8046D43F628
:105120000806C4F2010670474051000040000352D7
:10513000434347F8046D41F20006C4F2020670478B
:105140005C5100004000065243432D43520047F893
:10515000046D41F20006C4F2020670477C51000063
:105160004000085243432D434647520047F8046D20
:1051700041F20406C4F20206704700009C51000090
:1051800040000A5243432D414842454E520047F8E1
:10519000046D41F21406C4F202067047BC510000CF
:1051A00040000B5243432D41504232454E5247F886
:1051B000046D41F21806C4F202067047DC5100008B
:1051C00040000B5243432D41504231454E5247F867
:1051D000046D41F21C06C4F202067047F85100004B
:1051E000400005464C41534847F8046D42F2000622
:1051F000C4F2020670470000185200004000094641
:105200004C4153482D41435247F8046D42F2000689
:10521000C4F20206704700009052000000000537FB
:10522000324D487A42F20000C4F2020012230360B9
:1052300041F20000C4F20200036853F480330360BB
:1052400000B541F20000C4F20200036813F4003319
:105250005B1EF6D341F20000C4F2020048F20243A2
:10526000C0F21D034360036853F08073036041F292
:105270000000C4F20200036813F000735B1EF6D353
:1052800043F60000C4F2010040F27123836000BDC8
:10529000B852000081000C632C636F6C6C65637402
:1052A000696F6E0047F8046D44F63C76C2F2000662
:1052B000704700000000000010530000000002636F
:1052C0002C0044F60070C2F20000C36B47F8046D76
:1052D0001E4600B5002E01D047F8046D002E40CFC9
:1052E0000DD016F0FF0608CF1B021E43FDF76BFF23
:1052F00044F60070C2F200000023C36307E056F4D6
:10530000807644F60070C2F20000C66340CF00BD54
:105310003C53000000000663616C69676E0044F650
:105320000070C2F20000C36B00B5002B04D047F838
:10533000046D0026FFF7C5FF00BD00009853000074
:1053400000000B636F726E657273746F6E6500B5EB
:10535000FDF7ECFCFEF7A5FA40F2FF731E40002EAD
:1053600040CF05D047F8046D0026FDF72CFFF1E78C
:1053700042F6F340804747F8046DBEF10106330062
:1053800040F2FF721340002B01D0B61CF7E7FDF787
:105390008DF9FCF7CDFD00BDC85300002018096948
:1053A0006E69742D72696E67761E08CF1E6040CFDD
:1053B00070470300422000006102FE0E00006202FE
:1053C000AA18000020020000F8530000201804630F
:1053D0002B2B40003378761C47F8043D70470400BF
:1053E000960E000061020E1A00002002FE0E000060
:1053F00062025A2000006102245400000000097279
:10540000696E672D7374657008CFF618327800B531
:1054100004B43278521C32701E7804BC1640043337
:10542000F61800BD4454000020080572696E672319
:105430003378761C3278761C3178761C561A1E40EA
:10544000704700009854000000100572696E673FB5
:1054500047F8046D3378761C3278761C3178761CE8
:10546000561A1E4008CF1B789E4202DA0026F643E9
:1054700000E0002670470500960E000061023054DF
:1054800000002008FE0E000062020E1A000020023A
:10549000BE14000042020000B85400000000053EA7
:1054A00072696E6747F8046D012600B5FFF7ACFF1F
:1054B00008CF337040CF00BDD45400000000057207
:1054C000696E673E47F8046D022600B5FFF79CFF42
:1054D000367800BD045500000000077573623A6419
:1054E0006576360000B542F6CD40C0F20000804738
:1054F0001201000202000040830440570002010232
:1055000003010000645500000000087573623A63EF
:105510006F6E660000B542F6CD40C0F200008047D5
:1055200009024300020100C0320904000001020226
:1055300001000524001001052401000104240202D9
:105540000524060001070582030800FF0904010085
:10555000020A00000007050302400000070581025F
:10556000400000008855000000000A7573623A6C24
:10557000616E67696400360000B542F6CD40C0F246
:105580000000804704030904D055000000000A759C
:1055900073623A76656E646F7200360000B542F64B
:1055A000CD40C0F20000804728034D006500630035
:1055B000720069007300700020002800530054003E
:1055C0004D003300320046003100300078002900E1
:1055D0001456000000000B7573623A70726F6475A8
:1055E0006374360000B542F6CD40C0F2000080473B
:1055F000240346006F00720074006800200053000E
:1056000065007200690061006C00200050006F00AE
:1056100072007400385600000000087573623A6C1E
:10562000696E650000B542F6CD40C0F200008047CB
:1056300000C2010001000800745600000000087557
:1056400073623A696E69740000B542F6CD40C0F2EB
:10565000000080478000000040000084C00000007F
:1056600000000000400100000000000000000000F9
:10567000000100848C56000040000355534247F857
:10568000046D45F60046C4F200067047AC560000B3
:105690004000085553422D455030520047F8046DE4
:1056A00045F60046C4F2000670470000CC560000E4
:1056B0004000085553422D434E54520047F8046DA4
:1056C00045F64046C4F2000670470000EC56000064
:1056D0004000085553422D495354520047F8046D79
:1056E00045F64446C4F20006704700000857000023
:1056F0004000075553422D464E5247F8046D45F67B
:105700004846C4F20006704728570000400009557B
:1057100053422D444144445247F8046D45F64C46EB
:10572000C4F20006704700004857000040000A55C8
:1057300053422D425441424C450047F8046D45F612
:105740005046C4F2000670476457000040000655FA
:1057500053424D454D0047F8046D46F20006C4F231
:1057600000067047885700002008077573622D7087
:105770006D6116F001035B4276009E1946F200034C
:10578000C4F20003F6187047C057000000100875F7
:1057900073622D706D61400016F001035B4276006C
:1057A0009E1946F20003C4F20003F61836887047CB
:1057B00002007257000020083A1900002002000081
:1057C000FC5700000010087573622D706D61210098
:1057D00016F001035B4276009E1946F20003C4F204
:1057E0000003F61808CF338040CF7047020072578D
:1057F000000020087E190000200200002C58000044
:1058000020180765702D61646472B60045F6004388
:10581000C4F20003F618704703004621000061023D
:10582000005C00400020641F000062025C58000021
:1058300000000665702D72656700760008CF0822AB
:105840005343F61816F001035B4276009E1946F2A8
:105850000003C4F20003F61870470000A0580000CF
:105860000000077278737461742108CF9B0045F6BD
:105870000042C4F200029B1800B508B43603009B36
:105880001B885E4016F4405640F60F72134048F2F3
:10589000800213431E4308BC1E8040CF00BD0000A1
:1058A000E45800000000077478737461742108CF15
:1058B0009B0045F60042C4F200029B1800B508B4F4
:1058C0003601009B1B885E4016F0300640F60F72D2
:1058D000134048F2800213431E4308BC1E8040CF91
:1058E00000BD00001C59000000000C65702D7265A1
:1058F0007365742D7278230047F8046D5FF40443D8
:1059000047F8043D47F8046D032600B5FFF795FFFF
:1059100008CF33800326FFF7A8FF00BD4C590000D5
:105920000000077278636C656172B60045F600434B
:10593000C4F20003F618338847F6FF72134048F6A6
:105940008F721340338040CF704700007C590000B5
:105950000000077478636C656172B60045F6004319
:10596000C4F20003F61833884FF67F72134048F6EE
:105970008F721340338040CF70470000A45900005D
:105980008200087573622D70656E640047F8046DBF
:1059900044F63476C2F200067047000000000000B2
:1059A00000000000C859000040010A7573622D73A1
:1059B000657269616C0047F8046D44F62076C2F2A6
:1059C0000006704714000000645A000000000A73CB
:1059D00065742D73657269616C0044F68070C2F263
:1059E0000000C36F47F8046D1E4600B5FCF756FC77
:1059F000FFF724FB47F8046D0026FEF745FC47F847
:105A0000046D30B40024082540CFFEF726FC013495
:105A1000AC42FAD130BCFEF7ECFB30B400243500C8
:105A200040CF33782200521C520044F62071C2F25B
:105A3000000152181380761C0134AC42F1D130BC05
:105A400040CF44F68070C2F20000C66744F6007092
:105A5000C2F2000040F21236068444F62076C2F20A
:105A6000000600BD945A000020180973656E642D6D
:105A70006461746108CF44F60070C2F200004663AE
:105A8000836340CF70470200344F002000208C0C0D
:105A9000000020028C5B000000000973656E642D1D
:105AA0006E65787444F60070C2F20000836B426B3E
:105AB00040218A4200DB0A4647F8046D47F8043D5E
:105AC00047F8042D462616F001035B4276009E1926
:105AD00046F20003C4F20003F618368808CF9E424F
:105AE00000DB1E4600B540B4009E01203040361851
:105AF00030B40024350040CFAC421FD02300F3184F
:105B00001B882200803247F8046D47F8043D164692
:105B100016F001035B4276009E1946F20003C4F2C0
:105B20000003F61808CF3380022614F10044641BEA
:105B3000A41940CF2C44A4F10044DFD730BC009E10
