:100000008C0300208B4D00009F4700009F4700009D
:100010009F4700009F4700009F470000000000002E
:10002000000000000000000000000000CF470000BA
:10003000CF47000000000000CF47000075470000D8
:10004000CF470000CF470000CF470000F747000030
:10005000CF470000CF470000214800004B48000078
:10006000754800009F480000C9480000CF470000C5
:10007000CF470000CF470000CF470000CF47000028
:10008000CF470000CF470000F1480000CF470000F5
:10009000CF470000CF470000CF4700001B490000BA
:1000A00047490000734900009F490000CB49000008
:1000B000F54900001F4A0000494A0000754A000047
:1000C000A14A0000CD4A0000F94A0000214B00007F
:1000D000494B0000734B00009D4B0000C74B0000D4
:1000E000F14B00001D4C0000474C000000000000D8
:1000F0000000000000000000000000000000000000
:1001000000000000000000006F4C0000974C000051
:10011000BF4C0000E74C00000F4D0000374D0000C1
:10012000CF470000CF470000CF470000CF47000077
:10013000CF470000CF470000CF470000CF47000067
:10014000CF470000CF470000CF4700005F4D0000C1
:1001500088050000FFFF1E2D2D2D204D656372695F
:1001600073702D5374656C6C6172697320436F7288
:1001700065202D2D2D0007B59048002B09D000F0EB
:100180003DF800F043F800F028F8426028210160B3
:10019000F3E707BD00B5894800230168282905D188
:1001A000426800F004F800F04EF8F6E700BD03B531
:1001B00047F8046D160047F8046D1E0008B400F0FF
:1001C000B3FF08BC013347F8046D7D4E47F8046D5A
:1001D00040F2612604F01AF903BD03B5013B47F86C
:1001E000046D1E0008B400F089FF08BC320047F817
:1001F000046D4FF4005604F009F903BD03B57148CE
:1002000001681E2901D000F034F803BD8169016244
:10021000016981618168016101688160C169416230
:100220004169C161C16841614168C1601E210160CD
:1002300070470FB5614801681E2903D0FFF7DEFF44
:10024000FFF7E4FF0FBD02B581680160C16841603E
:1002500000E002B5016981604169C16081690161A5
:10026000C1694161016A8161416AC1611E21016206
:1002700002BD08B501681E220260082901D20B00E8
:1002800004E0282909D1436800F05BF847F8046DC1
:100290004D4E56EA033602F090FF08BD00B500F05F
:1002A00009F800F00CF800F00FF800F012F800F078
:1002B00015F800BD0FB54348FFF7DBFF0FBD0FB5C5
:1002C0004248FFF7D6FF0FBD0FB54148FFF7D1FFFA
:1002D0000FBD0FB53F48FFF7CCFF0FBD0FB5374837
:1002E0000168062202601E2906D147F8046D4CF60B
:1002F000407602F031FF15E0282909D1436847F81C
:10030000046D1E0047F8046D062602F0F5FB09E0B7
:10031000062907D047F8046D44F20666C9000E436B
:1003200002F01AFF00F001F80FBD24481E210162FF
:10033000816101618160C1620621016000218162E9
:10034000704707B547F8046D1E0000F045F847F800
:10035000046D1E0002F0D0FB07BD07B5C16A282955
:1003600004D1016B994201D1002307BD0168002926
:1003700018D08168002915D00169002912D081693F
:1003800000290FD0016A00290CD0036347F8046DDF
:100390001E0047F8046D002602F0AEFB2821C16262
:1003A000002307BD47F8046D1E0000F015F847F85C
:1003B000046D1E0002F0A0FB07BD00002800002015
:1003C000B00E000048000020040D47F84000002057
:1003D000380000203000002037B5364801688268B8
:1003E00003698469056A062000F00EF8032000F016
:1003F0000BF8022000F008F8012000F005F80023B7
:100400002C481E21C16237BD814209D0824207D0EB
:10041000834205D0844203D0854201D0030037BD1A
:10042000704747F8046D4CF6007600B581581E29D8
:1004300005D1FFF7D1FF8350012199400E4300BD44
:1004400000B501681E2904D10022FFF7EAFF02F07F
:1004500083FE00BD00B581681E2907D10822FFF781
:10046000E0FF0022FFF7E1FF02F076FE00BD00B5DD
:1004700001691E290AD11022FFF7D3FF0822FFF7D6
:10048000D4FF0022FFF7D1FF02F066FE00BD00B5E9
:1004900081691E290DD11822FFF7C3FF1022FFF733
:1004A000C4FF0822FFF7C1FF0022FFF7BEFF02F0E2
:1004B00053FE00BD2800002000B50168282904D1A2
:1004C0004368FFF73EFF0360190000BD00B5816877
:1004D000282904D1C368FFF734FF8360190000BDE9
:1004E00000B50169282904D14369FFF72AFF036198
:1004F000190000BD3EB5826803698469056A9A42A5
:1005000003D0A24201D0AA420AD1072A08D847F84C
:10051000046DD600FFF760FF1E43836002F01CFEEF
:100520003EBD3EB50168826803698469056A9142EF
:1005300006D0994204D0A14202D0A94200D03EBDCB
:1005400047F8046DCE00FFF747FF1E43036002F03B
:1005500003FE3EBD00B5FFF776FEFFF76AFEFFF72C
:100560003BFF036000BD01B506480368013308D0B6
:100570000023DB43036047F8046D4BF2005602F0A2
:10058000EBFD01BDD84F0020AC0500004202043253
:1005900064757000386847F8046D043F3860704730
:1005A00000B500F0D7FC00F0D5FC00BDCA05000086
:1005B0006202053264726F70043740CF704700B535
:1005C00000F078FC00F076FC00BD1006000044024C
:1005D00005327377617007CF043F386047F8046DC8
:1005E000043F3A600E00704700B5FFF750FF026805
:1005F0000369036002614268436943604261826843
:10060000836983608261C268C369C360C26100BDDF
:1006100038060000620204326E69700007CF043FA2
:100620003860704700B5FFF732FFFFF7DDFFFFF7D7
:100630000AFEFFF708FE00BD520600004400053226
:100640006F766572B86847F8046D043F3860FE68DD
:10065000704776060000440005327475636B07CF5F
:10066000043F386047F8046D043F3A60043F396046
:10067000043F386070479806000046000432726FED
:1006800074003868B9683A69B86039613A60796865
:100690007E60FE68F9607047BA06000046000532C9
:1006A0002D726F743868B9683A6938613960BA6018
:1006B000F968FE607E6879607047E20600002002FB
:1006C00003323E7201CF01B440B440CF704700B551
:1006D000FFF749FF00F011FC00F0B1FC00F0AFFCA7
:1006E00000BD0E07000020020332723E47F8046D81
:1006F00040BC01BC043F3860704700B5FFF733FFD2
:1007000000F0B9FC00F0B7FC00F0F7FB00BD3E07BD
:10071000000020020332724047F8046D019E47F842
:10072000046D009E704700B5FFF71DFF47F8046D8C
:1007300049F6010603F01FFA03F019FA00BD640739
:100740000000200206327264726F700002B07047BF
:1007500000B5FFF708FF47F8046D4BF2020602F000
:10076000FBFC00BD7C07000042000364322F3868A8
:10077000F107761040080843386070479207000080
:1007800062020364322A3868001876413860704784
:1007900017E0AC0700004200046473687200386818
:1007A000F10776084008084338607047F8070000F2
:1007B0006202046473686C0038680018764138601F
:1007C000704700B5FFF746FEFFF776FEFFF7A9FE7C
:1007D00000F093FBFFF770FEFFF7A3FE47F8046DF0
:1007E000402601F069FC00F088FB47F8046D44F2F4
:1007F000401601F061FC00BD0A08000042000464DC
:1008000061627300002E07D4704728080000420080
:1008100007646E656761746538680021C043F643FC
:1008200001304E413860704778080000640202646D
:100830002D0007CF121AB1410E00043F3A607047F5
:1008400000B5FFF724FE00F0ADFBFFF735FEFFF724
:1008500068FE00F052FBFFF72FFEFFF762FEFFF786
:10086000C3FE01F093FB00F0B9FB47F8046D44F2BE
:10087000801600F045FD00BDC60800006402026459
:100880002B0007CF12184E41043F3A60704700B565
:10089000FFF7FDFD00F086FBFFF70EFEFFF741FEC0
:1008A00000F02BFBFFF708FEFFF73BFEFFF79CFE77
:1008B00001F051FB00F092FB47F8046D44F2401642
:1008C00000F022FD00BDF0080000610203733E64E9
:1008D00047F8046DF617704700B500F0D9FAFFF736
:1008E00020FE47F8046D41F2C07601F0E5FB00BD43
:1008F0004E090000620203756D2A3868A0FB0606E7
:100900003860704747F8046DDFF8286500B5FFF7D9
:10091000A1FDFFF7D1FDFFF7D9FD01680E43816806
:1009200056EA0146FFF78FFCFFF78DFCFFF781FCCD
:10093000FFF752FD036056EA0336FFF77AFCFFF734
:100940004BFD036056EA032602F037FC00BD6C093C
:1009500000006202026D2A00386880FB06063860DB
:10096000704747F8046DDFF8D064CFE7AA090000AC
:1009700044000375642A07CF564341437618010C9F
:10098000130C59437618010C80B292B25143434381
:1009900050430022C91852411204B6180A04090C27
:1009A00080184E41043F386070473C0A0000440004
:1009B0000475646D2A0010B5002447F8046D7E6844
:1009C00047F8046D3E69FFF798FF310040CF3000D3
:1009D00040CF47F8046D3E6847F8046DFE6803B4E5
:1009E000FFF78BFF03BC330040CF320040CF47F806
:1009F000046D3E6847F8046D3E690FB4FFF77DFF54
:100A00000FBC9219634140CF89196241634140CFC5
:100A100047F8046D7E6847F8046DFE680FB4FFF771
:100A20006CFF0FBC9219634140CF89196241634149
:100A300040CF1E003A607960B86010BD5E0A0000C9
:100A40004300022A2F0000B540B440CFFFF784FFD7
:100A500047F8046D40BC00F04CF8043700BD800A34
:100A600000004300052A2F6D6F6400B540B440CFED
:100A7000FFF772FF47F8046D40BC00F03AF800BD84
:100A8000A20A0000430003752A2F00B540B440CFEE
:100A9000FFF733FF47F8046D40BC00F01BF8043744
:100AA00000BDC60A0000430006752A2F6D6F640062
:100AB00000B540B440CFFFF720FF47F8046D40BCBD
:100AC00000F008F800BDE60A0000430006756D2F2F
:100AD0006D6F640000B547F8046D002600F019F84A
:100AE00040CF043700BD040B00004300056D2F6D9F
:100AF0006F6400B547F8046DF61700F032F840CF88
:100B0000043700BD560B000044000675642F6D6F5E
:100B1000640030B4002300227968B86835003C686E
:100B200040264000494152415B41AB4202D804D3C8
:100B3000A24202D3121BAB410130013EF1D10E00A3
:100B400038607B60BA6030BC704730B400237A688C
:100B5000B9680020E2E7CC0B0000440005642F6D6B
:100B60006F6400B5F01719D0FFF756FEFFF733FD9D
:100B7000F0170CD0FFF750FEFFF72DFDFFF7C9FF70
:100B8000FFF729FDFFF748FEFFF725FD00BDFFF742
:100B900022FDFFF7BEFFFFF73FFE00BDFFF71BFD85
:100BA000F0170ED0FFF738FEFFF715FDFFF7B1FF86
:100BB000FFF732FEFFF70FFDFFF72EFEFFF70BFDED
:100BC00000BDFFF708FDFFF7A4FF00BDE20B00002A
:100BD000440002642F0000B5FFF7C3FFFFF71EFDBE
:100BE00000BD2A0C0000440002662A0000B5F01780
:100BF0000DD0FFF711FEFFF7EEFCF0170DD0FFF759
:100C00000BFEFFF7D8FE40CF01CF386000BDFFF7E5
:100C1000E2FCF017F5D0FFF7FFFDFFF7CCFE40CF69
:100C200001CF3860FFF7F8FD00BD760C00004400EE
:100C300002662F0000B5F0170ED0FFF7EDFDFFF7AD
:100C4000CAFCF0170ED0FFF7E7FDFFF7C4FCFFF773
:100C50007CFFFFF7E3FC00BDFFF7BDFCF017F4D00D
:100C6000FFF7DAFDFFF7B7FCFFF76FFFFFF7D4FDE3
:100C7000FFF7D4FC00BDBE0C0000200202322100B0
:100C800006CF3160726040CF704700B5FFF7EFFBD1
:100C90000168426806B400F002FEFFF7CAFA06BC1B
:100CA0000160282906D047F8046D46F2400600F09E
:100CB000FAFD00BD0432426000F0F1FD00BD080DF8
:100CC0000000200202324000043F7068386036683D
:100CD000704700B500F0DCF8016828290AD047F811
:100CE000046D46F6400600F0BBFD00F006F900F08A
:100CF000B3FD00BD41680431416000F0ADFD00F07E
:100D0000FCF800F0A9FD00BD280D000044000364BC
:100D1000753C07CF8E4204D801D1904201D80026FD
:100D200070470026F6437047480D000044000364F6
:100D3000753E07CFB14204D801D1824201D80026C6
:100D400070470026F6437047680D000044000264B7
:100D50003C0007CF8E4204DC01D1904201DC00262A
:100D600070470026F6437047880D00004400026477
:100D70003E0007CFB14204DC01D1824201DC0026F3
:100D800070470026F6437047A40D0000620203641A
:100D9000303C0437F617704700B500F0C1F800F09A
:100DA0003DFB00BDCC0D000062020364303D01CF6D
:100DB0000643013EB641704700B547F8046D44F262
:100DC000003600F0A1FA00F003FB00BDF20D0000B8
:100DD000440203643C3E07CF50404E400643013E70
:100DE000B641F643704700B500F015F800F004FB7B
:100DF00000BD3C0E0000440202643D0007CF50409D
:100E00004E400643013EB641704700B500F003F87E
:100E100000F0DEFA00BD00B5FFF739FB00F0C2F8C4
:100E200000F0C4F900F0DAF800F0C0F900F0B1F910
:100E300000BD00000000A0FB000080FB4E0E000083
:100E400020000373704047F8046D3E0070475E0E4B
:100E50000000200003737021370040CF7047700EF0
:100E6000000020000372704047F8046D6E46704722
:100E7000800E0000200003727021B54640CF7047FD
:100E8000A40E000061020364757047F8046D70479A
:100E900006B5FFF7D5FA01684268FFF7CAF90160A5
:100EA000426006BDD00E000061020464726F7000E3
:100EB00040CF704700B501681E2906D147F8046D80
:100EC00043F2047602F048F900BDFFF7BCF900BD1B
:100ED000E60E00006100043F64757000002E01D032
:100EE00047F8046D7047120F0000620204737761C7
:100EF000700039683E600E0070470CB5FFF7AAFA23
:100F000002688368036082604268C3684360C260AD
:100F10000CBD400F00006202036E69700437704719
:100F200000B5FFF78DFA81681E2902D0FFF791F90D
:100F300000BD47F8046D43F2047602F00DF900BDE0
:100F4000680F00006202046F7665720047F8046D56
:100F50007E68704700B5FFF77DFA8168C268FFF7C9
:100F600068F90160426000BD8E0F000062020474E7
:100F700075636B0001CF083F7E603860704700B535
:100F8000FFF768FAFFF784FF00F028F800BDC40FF0
:100F90000000630203726F7403CF083F78603E6005
:100FA0000E0070470EB5FFF762FA016882680369A8
:100FB0008160026103604168C2684369C160426147
:100FC00043600EBDE80F00006302042D726F7400D1
:100FD00003CF083F7E6039600600704700B5FFF719
:100FE000E1FFFFF7DFFF00BDFA0F000020000470F3
:100FF00069636B0057F8266070471210000000000C
:101000000564657074684F49C91B47F8046D8E0804
:1010100070472E100000000006726465707468004E
:1010200047F8046D6E464849891B8E087047641066
:1010300000002002023E720040B440CF704700B56D
:10104000FFF791FAFFF7FCF9FFF736FA47F8046D5E
:101050004BF2004601228A40164302F07DF8FFF76A
:10106000F2F800BD9A100000200202723E0047F81C
:10107000046D40BC704700B5FFF775FAFFF7D9F86B
:10108000FFF7AAF9036047F8046D4BF6004601220A
:101090009A40164302F060F800BDB810000020022C
:1010A0000272400047F8046D009E704700B5FFF7DC
:1010B0005AFA02F05CFD00BDDC100000200205724F
:1010C00064726F7001B0704700B5FFF74CFA47F8D3
:1010D000046D4BF2010602F03FF800BDF010000075
:1010E000200005727069636BB6006E443668704705
:1010F0001C110000000004726F6C6C00002E01D106
:1011000040CF7047B0003958C019031F1A680260F9
:101110000438013EF9D104370E0070474C1100002D
:101120000000052D726F6C6C002E01D140CF70470E
:10113000386839464A680A600431013EFAD10860CD
:1011400040CF70478C0200208C0300206611000005
:10115000620203616E6401CF0640704747F8046D78
:1011600044F20006D0E0821100006202036269636B
:1011700001CFB0430600704747F8046D44F2803653
:10118000BEE09C1100006202026F720001CF0643B4
:10119000704747F8046D44F20036B5E0B611000020
:1011A000620203786F7201CF4640704747F8046DC2
:1011B00044F24006A8E0CE1100006202012A01CFED
:1011C0004643704747F8046D44F240369CE00212F3
:1011D0000000610203636C7AB6FA86F6704700B5C8
:1011E000FFF72EF947F8046D704EFFF765F90E43CF
:1011F00056EA0146FFF7AEF956EA032601F0DDFF95
:1012000000BD12120000610003726F725FEA760681
:10121000704724120000610003726F6CB61956F11A
:10122000000670475C120000620207617273686911
:10123000667401CF30410600704700B547F8046D71
:1012400044F2001647F8046D41F20006FFF702F978
:1012500041681F292AD91F21416027E0861200001A
:101260006202067273686966740001CFF04006007E
:10127000704700B547F8046D44F2C00647F8046DA6
:1012800040F6000612E0C01300006202066C7368AC
:101290006966740001CFB0400600704700B547F89A
:1012A000046D44F2800647F8046D0026FFF7D2F87B
:1012B0000168282903D040CF00F022F800BD043790
:1012C0004168FEF7C0FF002901D140CF00BD1F29B2
:1012D0000AD889010E430268D2001643FFF73AF993
:1012E0001E4301F039FF00BD40CFFFF733F947F847
:1012F000046D42F200061B021E4301F02DFF00BDEB
:101300000FB5FFF7A7F80CE00FB5FFF7A3F80168DA
:10131000062901D1FFF7F1FD8268282A01D1FFF7E4
:10132000ECFDFFF7D3F8016828291ED147F8046DBA
:10133000466801F02DFB02CF002E40CF15D0B6F548
:10134000804F01D11A4E1EE044F24002964201D174
:10135000184E18E0B6F5864F01D1174E13E04FF442
:101360008742964201D1154E0DE0FFF7C3F8FFF713
:10137000A3F8C90082680E43164301F0EDFEFEF7A4
:1013800062FF0FBD0FB50E43816856EA0146FEF7B6
:101390005AFFFEF758FFFEF74CFFFFF71DF80360FA
:1013A00056EA032601F009FF0FBD000080F0B0FAF5
:1013B000000010F0000090F0000050F0000030F04D
:1013C000E6130000610202303D00013EB641704765
:1013D00000B500F0FAF800F02CFEFEF734FF4FF4F1
:1013E0005241816200BD0E140000610203303C3E98
:1013F000013EB641F643704700B500F0E6F800F054
:1014000018FEFEF720FF4FF45341816200BD3614F1
:101410000000610202303C00F617704700B500F092
:10142000D4F847F8046D41F2C07600F045FE4FF461
:101430005541816200BD4C14000060000474727557
:10144000650047F8046D0026F643704760140000FD
:1014500060000566616C736547F8046D002670478F
:10146000861400004202023E3D0001CFB042EADA9B
:101470000026704747F8046D4DF6003647F8046DB6
:101480004DF60026ADE0AC1400004202023C3D00E7
:1014900001CFB042D7DD0026704747F8046D4DF606
:1014A000004647F8046D4DF600569AE0D01400004F
:1014B0004202013C01CFB042C5DB0026704747F82D
:1014C000046D4DF6002647F8046D4DF6003688E0B1
:1014D000F41400004202013E01CFB042B3DC00260A
:1014E000704747F8046D4DF6005647F8046D4DF609
:1014F000004676E01A150000620203753E3D01CFFA
:10150000861BB641F643704747F8046D4DF200362E
:1015100047F8046D4DF2002663E0401500006202BA
:1015200003753C3D01CF361AB641F643704747F884
:10153000046D4DF6000647F8046D4DF6001650E0B8
:1015400064150000620202753C0001CF861BB641A3
:10155000704747F8046D4DF2002647F8046D4DF2D0
:1015600000363EE088150000620202753E0001CFA1
:10157000361AB641704747F8046D4DF6001647F825
:10158000046D4DF600062CE0AA1500006202023C34
:101590003E0001CF811B361A0E43704747F8046D99
:1015A0004DF2000647F8046D1BE00A1700006202C6
:1015B000013D01CF361A013EB641704747F8046D30
:1015C0004DF2001647F8046D0BE000B5FEF738FF4A
:1015D000FEF770FEFEF773FEFEF776FEFEF776FF6F
:1015E00000BD00B5FEF736FFFEF764FEFEF767FEAE
:1015F000FEF776FF8268282A04D1FFF77EFC39685F
:101600003E600E4640CF016828291DD14168FF2960
:1016100007D847F8046D42F600060E4381680902B8
:101620001AE047F8046D466801F0B2F902CF002EC7
:1016300040CF09D047F8046D6A4E0E43816856EAE0
:10164000014601F0BAFD0AE0FEF736FF47F8046DE7
:1016500044F28026C90016430E4301F07DFDFEF7DB
:10166000F2FDFEF7F0FD866240CF00BD0FB55E488B
:10167000816A002935D047F8046D866A00218162AD
:10168000310AD52901D140CF0FBDFEF7D2FDFEF7BB
:10169000A3FE0360D22904D14FF4834600F00CFD71
:1016A0000FBDD32906D14FF4834600F005FD00F0AD
:1016B00016FD0FBD023601F04FFD47F8046D42F2F2
:1016C000000600F00FF800F00AFD47F8046D4EF236
:1016D000000601F041FD47F8046D42F2000600F0FB
:1016E00001F80FBD00B5FEF7ABFEFEF71AFF01686B
:1016F00009020E4301F030FD00BD00B5816A090A00
:10170000D52901D1FEF79FFD00BD28170000620218
:10171000036D696E01CFB04200DC0600704747F8E8
:10172000046D4DF600362DE0461700006202036D91
:10173000617801CFB04200DB0600704747F8046DC6
:101740004DF600461EE066170000620204756D61EA
:10175000780001CFB04200D30600704747F8046D0F
:101760004DF600060EE0EC170000620204756D698C
:101770006E0001CFB04200D80600704747F8046DF4
:101780004DF2003600B5FEF765FE016882689142B1
:1017900003D140CFFEF75DFD00BD062A01D1FFF762
:1017A000ACFB0168282901D1FFF7A7FBFEF7B9FEC2
:1017B000FEF78CFEC900026847F8046D44F28026EB
:1017C0000E43164301F0C8FC01F0C6FC47F8046D57
:1017D00044F200660E43164301F0BEFCFEF739FDED
:1017E00000BD0000000FB0F1280000202A18000002
:1017F0000000046D6F76650007B5310040CF320000
:1018000040CF00290FD0B2420DD006D3013E013A9D
:10181000705C50540139FBD105E03078107001360E
:1018200001320139F9D140CF07BD4C18000000004A
:101830000466696C6C00300040CF310040CF002955
:1018400002D001397054FCD140CF70478E1800008F
:10185000200201403668704747F8046D46F60006DE
:1018600000B5FEF7EDFD0368282B08D143687C2105
:10187000194009010E437C218B43FEF76EFDDB000E
:101880001E43FEF767FE1E4301F066FC00BDE6182E
:1018900000002002012103CF30600E00704747F89E
:1018A000046D46F2000600B5FEF7D4FD0368282B50
:1018B00009D143687C21194009010E437C218B43E7
:1018C000FEF74BFD0360DB001E438368282B02D12B
:1018D000C368FEF736FD1E4301F03EFCFEF7B3FC85
:1018E000FEF7B1FC00BD1C1900002002022B2100F4
:1018F00003CF3268121832600E00704700B5FEF751
:10190000A9FDFFF7C5FAFFF7A7FFFFF74BFB00F0B4
:1019100022FBFFF7F2FAFFF7C2FF00BD60190000DB
:101920002002026840003688704700B5FEF788FD47
:1019300047F8046D48F600060368282B08D1436871
:101940003E21194049010E433E218B43FEF705FD20
:10195000DB001E43FEF7FEFD1E4301F0FDFB00BD54
:10196000BA19000020020268210003CF30800E0067
:10197000704700B5FEF76EFD47F8046D48F20006AB
:101980000368282B09D143683E21194049010E43C1
:101990003E218B43FEF7E1FC0360DB001E438368BE
:1019A000282B02D1C368FEF7CCFC1E4301F0D4FB08
:1019B000FEF749FCFEF747FC00BDF01900002002CD
:1019C00003682B2103CF3288121832800E00704733
:1019D00000B5FEF73FFDFFF75BFAFFF7A6FFFFF745
:1019E000E1FA00F0B8FAFFF788FAFFF7C2FF00BD8E
:1019F000341A00002002026340003678704700B5B8
:101A0000FEF71EFD47F8046D47F600060368282B15
:101A100008D143681F21194089010E431F218B43C0
:101A2000FEF79BFCDB001E43FEF794FD1E4301F016
:101A300093FB00BD8E1A000020020263210003CF39
:101A400030700E00704700B5FEF704FD47F8046DD6
:101A500047F200060368282B09D143681F2119406B
:101A600089010E431F218B43FEF777FC0360DB00E7
:101A70001E438368282B02D1C368FEF762FC1E4315
:101A800001F06AFBFEF7DFFBFEF7DDFB00BDC41AC9
:101A90000000200203632B2103CF3278121832702A
:101AA0000E00704700B5FEF7D5FCFFF7F1F9FFF720
:101AB000A6FFFFF777FA00F04EFAFFF71EFAFFF7DE
:101AC000C2FF00BD041B00002002046269732100F4
:101AD00003CF3268024332600E00704700B5FEF754
:101AE000B9FCFFF7D5F9FFF7B7FEFFF75BFA47F848
:101AF000046D44F20036FFF707FCFFF7FEF9FFF72D
:101B0000CEFE00BD441B0000200204626963210078
:101B100003CF3268824332600E00704700B5FEF793
:101B200099FCFFF7B5F9FFF797FEFFF73BFA47F887
:101B3000046D44F28036FFF7E3FBFFF7DEF9FFF7B1
:101B4000AEFE00BD841B0000200204786F722100ED
:101B500003CF3268424032600E00704700B5FEF796
:101B600079FCFFF795F9FFF777FEFFF71BFA47F8C7
:101B7000046D44F24006FFF7C7FBFFF7BEF9FFF71D
:101B80008EFE00BDBA1B0000200204626974400092
:101B900001CF3668064018BF4FF0FF36704700B5DA
:101BA000FEF758FCFFF758FE47F8046D44F20006B4
:101BB000FFF7AAFBFFF720FC00BDFA1B0000200284
:101BC00005686269732103CF3288024332800E00B8
:101BD000704700B5FEF73EFCFFF75AF9FFF7A5FE88
:101BE000FFF7E0F947F8046D44F20036FFF78CFB8D
:101BF000FFF783F9FFF7BDFE00BD3A1C000020028D
:101C000005686269632103CF3288824332800E0007
:101C1000704700B5FEF71EFCFFF73AF9FFF785FEA7
:101C2000FFF7C0F947F8046D44F28036FFF768FB10
:101C3000FFF763F9FFF79DFE00BD7A1C000020024C
:101C40000568786F722103CF3288424032800E00DF
:101C5000704700B5FEF7FEFBFFF71AF9FFF765FEC8
:101C6000FFF7A0F947F8046D44F24006FFF74CFB7C
:101C7000FFF743F9FFF77DFE00BDB01C0000200216
:101C800005686269744001CF3688064018BF4FF07E
:101C9000FF36704700B5FEF7DDFBFFF746FE47F85D
:101CA000046D44F20006FFF72FFBFFF7A5FB00BD14
:101CB000F01C0000200205636269732103CF3278B3
:101CC000024332700E00704700B5FEF7C3FBFFF70A
:101CD000DFF8FFF794FEFFF765F947F8046D44F26B
:101CE0000036FFF711FBFFF708F9FFF7ACFE00BD68
:101CF000301D0000200205636269632103CF327842
:101D0000824332700E00704700B5FEF7A3FBFFF769
:101D1000BFF8FFF774FEFFF745F947F8046D44F28A
:101D20008036FFF7EDFAFFF7E8F8FFF78CFE00BD0D
:101D3000701D000020020563786F722103CF327896
:101D4000424032700E00704700B5FEF783FBFFF78C
:101D50009FF8FFF754FEFFF725F947F8046D44F2AA
:101D60004006FFF7D1FAFFF7C8F8FFF76CFE00BD99
:101D7000A61D0000200205636269744001CF367819
:101D8000064018BF4FF0FF36704700B5FEF762FB04
:101D9000FFF735FE47F8046D44F20006FFF7B4FA8A
:101DA000FFF72AFB00BD401E000000000768666CBC
:101DB00061736821300040CF310040CF4FF4A04321
:101DC000984223D34FF4803398421FD24FF6FF73CB
:101DD0001940994219D010F00102002A16D1028848
:101DE0009A4213D110F10060514A524B1360524B8A
:101DF0001360524A012313600180514A136813F0A3
:101E00000103FBD14D4A80231360704700F07BFC37
:101E10002A57726F6E672061646472657373206FF6
:101E200072206461746120666F72207772697469D0
:101E30006E6720666C61736820210A0002F0F6BBB1
:101E4000901E000000000E666C617368706167652B
:101E50006572617365000FB5300040CF4FF4A04349
:101E6000984214D3324A334B1360334B1360334AD6
:101E700002231360334A1060304A42231360304A11
:101E8000136813F00103FBD12C4A802313600FBDAC
:101E9000121F000000000A6572617365666C617351
:101EA00068004FF4A04072B64FF480314FF6FF72D5
:101EB000038893421CD047F8046D060047F8046D70
:101EC00000F021FC10457261736520626C6F636BDA
:101ED00020617420200000F089FC00F014FC0C202C
:101EE00066726F6D20466C6173680A00FFF7B3FF7E
:101EF00002308842DCD100F006FC1246696E69733C
:101F00006865642E20526573657420210A0002F012
:101F10001CBC481F000000000E6572617365666C92
:101F200061736866726F6D00300040CFBBE70000E0
:101F30000420024023016745AB89EFCD1020024009
:101F40000C200240142002407E1F00006202012B80
:101F500001CF3618704700B5FEF77CFA47F8046DDC
:101F600043F2000647F8046DC94E47F8046D41F688
:101F700000068168282917D1FEF7BFFF14E024204E
:101F800000006202012D01CF861B704700B5FEF7ED
:101F900061FA47F8046D43F6000647F8046DBD4E3C
:101FA00047F8046D41F60026FEF790FA01682829EB
:101FB00027D14168FF290CD840CF40CFFEF79AFACD
:101FC0000E43816809020E4301F0C6F8FEF73BF9A3
:101FD00000BD47F8046D0E0000F0DAFC02CF002EC1
:101FE00040CF0ED040CF04370E43816856EA0146F9
:101FF000FEF729F9FEF7AEFA56EA032601F0DDF8FE
:1020000000BD04370437FEF757FA89018268D20011
:102010000E431643FEF717F9FEF79CFA1E4301F034
:102020009BF800BD3C200000610202312D00013E02
:10203000704747F8046D41F640663DE054200000CB
:10204000610202312B000136704747F8046D41F6FA
:10205000404631E06C200000610202322D00023E59
:10206000704747F8046D41F6806625E08420000043
:10207000610202322B000236704747F8046D41F6C8
:10208000804619E09E20000061020563656C6C2BA0
:102090000436704747F8046D41F600560CE0D02036
:1020A00000006102066E65676174650076427047E4
:1020B00047F8046D44F2402600B5FEF7C1F9016807
:1020C000C9000E43FEF746FA1E4301F045F800BD75
:1020D000E82000006102036E6F74F643704747F812
:1020E000046D44F2C036E7E700210000610203738B
:1020F00068727608704747F8046D40F64006DBE7E3
:102100001021000061020373686C7600704706E0DE
:1021100026210000610202322A007600704747F84B
:10212000046D4026C8E73E21000061020563656C2E
:102130006C73B600704747F8046D8026BCE75621E3
:102140000000610202322F007610704747F8046DDC
:1021500041F24006B0E7962100006102036162731C
:10216000F01736184640704700B5FEF769F947F892
:10217000046D00260168C9000E43FEF7EBF91E430B
:1021800000F0EAFF47F8046D4DF2005600F0E4FF5E
:10219000FFF78EFF00BDB4210000420005752F6DD2
:1021A0006F6401CF3100B0FBF6F67143401A043F73
:1021B00038607047D22100004200042F6D6F640028
:1021C00001CF310090FBF6F67143401A043F3860AE
:1021D0007047E62100004200036D6F6400B5FFF711
:1021E000EFFF40CF00BD262200006202012F01CF89
:1021F00090FBF6F6704700B5FEF72CF9FEF75CF998
:10220000FEF764F947F8046D234E01680E438168B8
:1022100056EA0146FEF717F8FEF79CF956EA032640
:1022200000F0CBFF00BD3A22000061000465766536
:102230006E000120304036187047522200008100A5
:1022400004626173650047F8046D144E70470A001C
:1022500000006822000000000662696E6172790069
:102260000E480221016070477E22000000000764D2
:102270006563696D616C09480A2101607047A0229D
:102280000000000003686578044810210160704771
:10229000000010F10000B0F1F0F090FBFC4F0020C6
:1022A000BC220000810009686F6F6B2D656D697439
:1022B00047F8046D694E7047A6230000D82200003D
:1022C000810008686F6F6B2D6B65790047F8046DAE
:1022D000634E7047CC230000F622000081000A689C
:1022E0006F6F6B2D656D69743F0047F8046D5D4E2F
:1022F0007047F623000012230000810009686F6F09
:102300006B2D6B65793F47F8046D574E704722245B
:1023100000003023000081000A686F6F6B2D706130
:102320007573650047F8046D504E7047FA4600001B
:1023300046230000000004656D6974000FB547482E
:1023400000F026F80FBD5A2300000000036B6579EA
:102350000FB5434800F01CF80FBD6C2300000000CF
:1023600005656D69743F3F48006887467E2300001D
:102370000000046B65793F003B4800688746942362
:102380000000000005706175736538480068874675
:1023900000688746BA23000000000B73657269610C
:1023A0006C2D656D697400B500F025F8002E40CFE6
:1023B000FAD02F4A167040CF00BDE2230000000083
:1023C0000A73657269616C2D6B65790000B500F068
:1023D00028F8002E40CFFAD047F8046D244A16782A
:1023E00000BD1024000000000C73657269616C2D43
:1023F000656D69743F0000B5FFF7C7FF47F8046DCE
:1024000000261C4801688020014000D0F64300BD32
:102410008824000000000B73657269616C2D6B6588
:10242000793F00B5FFF7B1FF47F8046D002611486A
:1024300001682020014000D0F64300BD0E4944F25F
:102440003D0008600D494FF4966008600C49462035
:1024500008600C4942F20C0008607047F84F0020F9
:10246000F44F0020F04F0020EC4F0020E84F0020F8
:1024700004380140003801401810024004080140AF
:10248000083801400C380140AC240000000007630C
:1024900065787065637400B5386801B401303860E0
:1024A00000F00BF801BC067040CF00BD22250000F3
:1024B0000000066163636570740000B502CF0139E6
:1024C0000022FFF745FF300040CF7F2809D02028A9
:1024D00019D2092816D00A281FD00D281DD0082887
:1024E000EFD1002AEDD000F00EF903082008002AF1
:1024F000E7D0885C013A80230340E2D040230340C8
:10250000F5D0DEE72020B242DBD247F8046D0600AA
:10251000FFF714FF01328854D3E7160000F0A2F849
:1025200000BD3425000040000374696247F8046D63
:10253000294E70474A2500008100033E696E47F826
:10254000046D264E704700000000702500008200D8
:102550000E63757272656E742D736F7572636500AC
:1025600047F8046D1E4E704700000000C4000020B4
:102570008C250000000009736574736F75726365C4
:10258000174802CF0660416040CF7047AA2500007F
:10259000000006736F757263650047F8046D104E96
:1025A000043F7068386036687047E425000000001A
:1025B0000571756572790FB5084800210160FFF754
:1025C000B5FF47F8046D47F8046DC826FFF775FF9F
:1025D000FFF7D6FF0FBD0000C4000020E44F00202D
:1025E000DC4F002032260000000007636F6D706131
:1025F00072650FB5310040CF01CF884202D040CF85
:1026000000260FBD02CF002810D001380A5C335CD1
:10261000412A02D35B2A38BF2032412B02D35B2BE5
:1026200038BF20339A42EED000260FBD0026F64375
:102630000FBD4626000000000263720000B500F0E6
:1026400062F8010A00BD58260000000002626C001A
:1026500047F8046D202670476C26000000000573C3
:102660007061636547F8046D202667E68C260000DC
:102670000000067370616365730000B5002E03DD12
:10268000FFF7F0FF013EFBD140CF00BD9C260000CC
:102690005000065B636861725D0005E0B4260000CF
:1026A000000004636861720000B501F049FC40CF8E
:1026B000367800BDC42600005004012847F8046D98
:1026C000292606E0DE2600005004015C47F8046D70
:1026D000002600B501F03EFC043740CF00BD2227A4
:1026E00000001000022E22009B4800B547F8046D40
:1026F000060000F05EFA47F8046D222601F02AFC7D
:1027000000F06BFD00BD0AB447F8046D7646013E4B
:1027100033780121013319405B181EEB030E0ABC0C
:1027200039E0482700001000026322008B48DCE7F4
:1027300047F8046D7646013E337801210133194094
:102740005B181EEB030E7047722700001000027327
:1027500022008348C9E747F8046D764647F8046DC0
:10276000013E36780121731C19405B181EEB030EE5
:1027700070478A270000000005636F756E7401368C
:1027800047F8046D013E36787047B227000000001C
:1027900005637479706501B53078002807D001367B
:1027A00047F8046D3678FFF7C9FD0138F7D140CFFF
:1027B00001BDE0270000000004747970650031005D
:1027C00040CF300040CF00B5002908D0002247F8A4
:1027D000046D865CFFF7B2FD01329142F7D100BD76
:1027E0001A2800000000046865782E0007B5310043
:1027F00040CF20200F22043847F8046D0E00C64059
:102800001640092E01D9373600E03036FFF796FD25
:102810000028F0D1FFF726FF07BD2A28000000009E
:1028200003682E731FB54F4C0EE03A2800000000DD
:1028300003752E731FB54C4C06E0B828000000004D
:10284000022E73001FB5494C4949C91B8908494AE2
:10285000106803B40A201060FFF755FF0853746135
:10286000636B3A205B0047F8046D0E0001F041FDF8
:10287000FFF749FF025D200003BC3E4A10600029BB
:102880000AD03D4A106806B447F8046D0600A04718
:1028900006BC043A0139F5D1FFF735FF0620544F45
:1028A000533A200047F8046D3600A047FFF72BFF8E
:1028B00004202A3E0A001FBD7C2900000000057785
:1028C0006F72647300B5FFF71EFF010A00F0E3FEAC
:1028D000FFF719FF09416464726573733A2047F882
:1028E000046DFFF783FFFFF70EFF064C696E6B3A2E
:1028F000200047F8046D3668FFF778FFFFF703FF05
:1029000007466C6167733A2047F8046DB688FFF795
:102910006DFFFFF7F8FE06436F64653A2000B01DB7
:1029200000F0F5FE47F8046D0600FFF75FFFFFF7C4
:10293000EAFE064E616D653A200047F8046D0636E2
:10294000FFF729FFFFF7DFFE010A00F0BDFE3000B0
:1029500040CFBDD040CF00BD06270000302700008B
:1029600056270000ED270000E3420000F34200007C
:102970008C020020FC4F002088020020E02A00008A
:1029800000000D3132626974656E636F64696E6751
:102990000FB5FF2E04D847F8046D5FF0FF360FBD6A
:1029A00016F0FF10B0420ED14FF6FF710840310C07
:1029B000814208D116F0FF0656F4805647F8046DA0
:1029C0005FF0FF360FBD16F0FF20B0420FD14FF67B
:1029D000FF710840310C814209D1360A16F0FF061A
:1029E00056F4005647F8046D5FF0FF360FBDFF2226
:1029F00031001140300A1040884210D1300C104094
:102A000088420CD1300E1040884208D116F0FF06E3
:102A100056F4405647F8046D5FF0FF360FBD3000A6
:102A200000210131001850F100007FF07F020240C8
:102A3000802A05D01F29F4D347F8046D00260FBD66
:102A40000829F9D3060036F0800611F00100C00114
:102A5000064311F00E00C002064311F0100080057D
:102A6000064347F8046D5FF0FF360FBD47F8046D6D
:102A7000DFF860665FF4704110EA0102120116434C
:102A80005FF4006110EA0102D20316435FF4E061D3
:102A900010EA010212011643FF2110EA0102164357
:102AA0001E438AE347F8046DDFF82C665FF070413F
:102AB00010EA0102120B16435FF0006110EA0102F6
:102AC000520816435FF0E06110EA0102120B164350
:102AD0005FF47F0110EA0102120C16431E436CE3FF
:102AE000462B000000001072656769737465726C94
:102AF00069746572616C2C000FB5330040CF1B0206
:102B0000FF2E05D856F400561E4300F025FB0FBDDE
:102B1000FFF73EFF002E40CF06D0DFF8C00506438A
:102B20001E4300F04AFB0FBDF643FFF731FF002EB6
:102B300040CF06D0DFF8A80506431E4300F03DFB5A
:102B40000FBDF6430BE0A62B00000000096D6F7669
:102B5000776D6F76742C0FB5330040CF1B023000B9
:102B600040CFFFF783FF4FF6FF7110EA014001D01D
:102B7000FFF798FF0FBD0FB50136300040CF00239F
:102B8000FFF774FFFFF78EFF06E00FB5013647F839
:102B9000046D0026FFF7B0FF47F8046D44F280761D
:102BA00000F0DAFA0FBD0C2C000000000563616C28
:102BB0006C2C0FB5330000F04CFE300040CF1B1AD8
:102BC000043BDFF820151940002906D0DFF818254E
:102BD000914202D0BDE80F40D7E740CF5B08DFF855
:102BE0000C0540F2FF7119400843DB0A40F2FF3147
:102BF0001940090408439B0A13F0010189060843A0
:102C000047F8046D060000F0D8FA0FBD422C000012
:102C10000000086C69746572616C2C0008B547F897
:102C2000046D4FF6470600F097FA47F8046D46F634
:102C3000045600F091FA47F8046D0626FFF75CFF92
:102C400008BD662C000000000663726561746500B3
:102C500000B500F033F842F68340804747F8046D32
:102C6000BEF1010600BDAE2C0000200005646F65BA
:102C7000733E42F68340804747F8046DBEF101067B
:102C8000704747F8046DBEF101064FF0005213681B
:102C9000DFF85C1409680220084000D002310231DC
:102CA0001160FFF768FF136000F0C4F900BDF02C5D
:102CB00000000000073C6275696C647300B500F0A9
:102CC00075FB00F0C6FD0220064040CF04D047F857
:102CD000046D362600F040FA47F8046D4BF20056BA
:102CE00000F03AFA47F8046D0A2600F0A9FA00BD90
:102CF000FC2C00005000035B275D03E0142D000056
:102D00000000012700B501F01BF900F040FD300084
:102D100040CF00BD4A2D0000300008706F73747002
:102D20006F6E650000B5FFF7EDFF47F8046D060014
:102D300039683E600E46FFF771FFFFF76FFF47F8F7
:102D4000046DEC4EFFF735FF00BDA02D0000000024
:102D500007696E6C696E652C00B54BF200514BF63D
:102D6000005244F270733088884208D0904208D0F4
:102D7000984206D047F8046D060000F0EDF90236DF
:102D8000F1E740CF00BD0EB44BF6005244F2707331
:102D900001880230914201D09942F9D10EBC7047AE
:102DA000B62D00000000047265742C0047F8046D15
:102DB0004BF60056D0E1C42D000030000465786960
:102DC0007400F3E7DC2D0000300007726563757254
:102DD000736547F8046DC64E3668EAE6F42D0000C8
:102DE000810005737461746547F8046DC24E7047C5
:102DF00000000000062E00000000015DBE4800211A
:102E0000C94301607047162E00001000015BBA48EC
:102E1000002101607047362E00000000013A00B525
:102E2000B648076000F0C2FAB34801210160B44817
:102E30000021016000BDA82E00003008013B00B554
:102E4000AE480168B9420ED0FFF75DFC15205374FF
:102E500061636B206E6F742062616C616E63656488
:102E60002E0A01F0E3BBA4480068411C10D00B28D7
:102E700005D847F8046D40F6200600F00EF947F833
:102E8000046D44F2707600F067F901F0D5FA05E0C0
:102E900047F8046D4BF6005600F05EF900F0CAF8F2
:102EA00095480021016000BDBC2E000000000765B0
:102EB000786563757465300040CF8746D42E000076
:102EC000100009696D6D65646961746547F8046D8A
:102ED0001026E2E0EA2E0000500006696E6C696E72
:102EE000650047F8046D2026D7E0042F000010008D
:102EF0000B636F6D70696C656F6E6C7947F8046D6C
:102F00003026CAE01E2F000050000A302D666F6C7C
:102F10006461626C650047F8046D4026BDE0382F9F
:102F2000000050000A312D666F6C6461626C6500B0
:102F300047F8046D4126B0E0522F000050000A32DD
:102F40002D666F6C6461626C650047F8046D422603
:102F5000A3E06C2F000050000A332D666F6C646193
:102F6000626C650047F8046D432696E0862F0000EA
:102F700050000A342D666F6C6461626C650047F81E
:102F8000046D442689E0A02F000050000A352D660C
:102F90006F6C6461626C650047F8046D45267CE0E7
:102FA000BA2F000050000A362D666F6C6461626CA7
:102FB000650047F8046D46266FE0D42F00005000EE
:102FC0000A372D666F6C6461626C650047F8046DAA
:102FD000472662E004300000000008636F6E7374DF
:102FE000616E740000B500F0E1F9FFF717FE47F8D5
:102FF000046D44F2707600F0AFF8FFF78CFF00F03C
:1030000019F800BD2630000000000932636F6E73AE
:1030100074616E7400B500F0C9F939683E600E46FF
:10302000FFF7FCFDE1E78A300000000006736D75D4
:103030006467650000B54FF0005001684FF0005222
:1030400091421CD202390A884FF6FF739A4204D18A
:1030500047F8046D002600F07FF800F06BF829486F
:10306000006847F8046D06002749096804314FF0ED
:1030700000521368116000F06FF8136000BD00F09B
:1030800059F847F8046D002608E00C3100000000F4
:1030900008736574666C6167730000B54FF000508B
:1030A00001684FF00052914205D216480168314341
:1030B000016040CF00BD320040CF134800680430AB
:1030C00001884FF6FF73994201D1110000E01143CE
:1030D000018000BD000040F20000C0F200005FF07F
:1030E00000007FF00100C0FF0000C0FF00F800F00A
:1030F0001400002032430000D84F002010000020B0
:103100005C00002020000020040000202831000086
:10311000410007616C69676E6564012030403618B4
:1031200002203040361870474E3100000000056123
:103130006C69676E00B54FF00050016802200140D5
:1031400004D047F8046D002600F006F800BD963163
:103150000000000002682C000FB5B6B28848016874
:10316000002902D0013100D001604FF00050016809
:103170004FF00052914205D247F8046D0E00FEF761
:1031800019FE02E0320040CF0A8047F8046D0226A3
:1031900000F056F80FBDB03100000000012C00B562
:1031A00047F8046DFFF7D8FF360CFFF7D5FF00BDD9
:1031B000CC3100000000033E3C2C00B547F8046D04
:1031C000360CFFF7C9FFFFF7C7FF00BD3432000020
:1031D000000007737472696E672C07B5FF213140D8
:1031E00040CF300040CF002905D147F8046D0026BC
:1031F000FFF7B2FF07BD47F8046D067836020E43AD
:10320000FFF7AAFF0130013902290AD347F8046DFC
:103210004678360202781643FFF79EFF02300239E5
:10322000F2E7002900D107BD47F8046D0678FFF7E3
:1032300093FF07BD94320000000005616C6C6F7451
:103240004FF0005001684FF00052914210D232000E
:1032500040CF89184FF48032914219D3FFF753FAC7
:103260000B466C6173682066756C6C0A01F0DEB900
:10327000320040CF8918434A1268914208D3FFF7C1
:1032800042FA0952616D2066756C6C0A01F0CEB984
:1032900001607047BA320000000009666F7267650E
:1032A0007472616D00B500F028F84FF00050364997
:1032B000016036483649016000BDE632000000007A
:1032C0000D636F6D70696C65746F72616D3F47F867
:1032D000046D00264FF0005000684FF00051884206
:1032E0004DD3F64370470A33000000000C636F6D46
:1032F00070696C65746F72616D004FF0005000680A
:103300004FF00051884213D370479C3300000000F7
:103310000E636F6D70696C65746F666C61736800C5
:103320004FF0005000684FF00051884200D27047C3
:103330001648184902680B680A6003604FF0005095
:10334000154902680B680A6003600E4800688342F2
:1033500015D300B5FFF7D7F9232056617269616272
:103360006C657320636F6C6C696465207769746841
:103370002064696374696F6E6172790A00BD704779
:10338000D84F0020240000208C03002004000020DF
:10339000500100001C0000201800002092340000A2
:1033A00000000828637265617465290000B500F0AB
:1033B000C7FD002E0ED1FFF7A6F9152043726561F7
:1033C0007465206E65656473206E616D6520210AE9
:1033D00001F02CB9386847F8046D043F386000F0FC
:1033E000A5F940CF002E40CF11D0386847F8046DC2
:1033F000043F3860FFF787F9095265646566696EB6
:103400006520FFF7DCF9FFF77EF9022E2000FFF7B9
:1034100091FE00F01EFA4FF0005000684FF000518E
:1034200088421ED28F480021016047F8046D0626AD
:10343000FFF706FFFDF7CCFDFFF7CFFE8A480168D6
:103440000A684FF0FF339A4208D14FF000521368D8
:10345000116047F8046DFFF7A2FE1360066040CFCD
:1034600011E0814847F8046D0668FFF798FE47F8B9
:10347000046D4FF6FF76FFF76FFE7B48310040CFBB
:103480000160FFF7AAFE4FF0005001687748016025
:1034900000BDAA3400000000087661726961626CA8
:1034A000650047F8046D012613E0C23400000000F7
:1034B00009327661726961626C6547F8046D0226B3
:1034C00007E0A03500000000096E76617269616254
:1034D0006C6500B5FFF76AFF4FF0005001684FF0D0
:1034E0000052914234D20F200640B2006048016879
:1034F000891A604A91420BD2FFF705F90F4E6F749B
:1035000020656E6F7567682052414D0A01F08EB8D4
:10351000016047F8046D0E00FFF780FB47F8046D6B
:1035200044F27076FFF718FE300040CF020000280A
:1035300005D00E600431FFF732FE0138F9D147F8AB
:10354000046D80261643FFF7A8FDFFF773FD00BD4D
:1035500000F07FF90220064040CF04D147F8046D07
:103560003626FFF7F9FD47F8046D434EFFF725FEB9
:1035700047F8046D414EFFF720FE47F8046D44F212
:103580007076FFF7E9FD300040CF002803D0FFF749
:1035900006FE0138FBD1FFF7BEFCFFF74BFD00BD77
:1035A000803600000000076275666665723A00B5F5
:1035B000FFF7FCFE0120304036180220304036185C
:1035C0004FF0005001684FF00052914228D2284835
:1035D0000168891B274A91420BD2FFF794F80F4EDE
:1035E0006F7420656E6F7567682052414D0A01F057
:1035F0001DB8016047F8046D0E00FFF70FFB47F898
:10360000046D44F27076FFF7A7FDFFF7C8FD47F899
:10361000046D40F24016FFF740FDFFF70BFD00BDC3
:1036200000F017F90220064040CF04D147F8046D9E
:103630003626FFF791FD47F8046D0F4EFFF7BDFDED
:1036400047F8046D0D4EFFF7B8FD47F8046D44F2DE
:103650007076FFF781FDFFF7F3FDFFF75CFCFFF7E6
:10366000E9FC00BD20000020040000201400002020
:10367000240000208C0300203E60043F02367E467A
:10368000B236000000000F64696374696F6E617286
:103690007973746172744FF0005000684FF00051FC
:1036A00047F8046D884201D23E4E70473E4E366860
:1036B0007047EE36000000000E64696374696F6E37
:1036C0006172796E6578740003B531684FF0FF3030
:1036D000814207D08879FF2804D00E0047F8046D96
:1036E000002603BD47F8046D0026F64303BD2037CE
:1036F000000000000A736B6970737472696E670072
:103700003178013101220A4089187618704706B4D1
:103710000178013101220A408918401806BC70471F
:10372000AC37000000000466696E64003FB50022FB
:103730000023350040CF340040CFFFF7ACFF4FF6F9
:10374000FF70B188884218D047F8046D0636FFF73D
:1037500016F847F8046D260047F8046D2E00FEF7B2
:1037600048FF002E40CF08D0B01DFFF7D0FF020069
:103770000B004FF00050824204D2FFF7A5FF30004B
:1037800040CFDCD0160047F8046D1E003FBD00B5E9
:1037900031003868FFF7CAFF3A68002A01D100F00B
:1037A000F9FE00BD50010000040000200C380000AC
:1037B000000006636A756D702C00320040CF310046
:1037C00040CF8B1B043B6FF0FE01194000290ED047
:1037D0006FF0FF0081420AD0FEF795FF0D4A756D2C
:1037E0007020746F6F206661720A00F01FBF5B105B
:1037F000FF210B40134330001E0000B54FF0005274
:1038000013681060FFF7A8FC136000BD4638000085
:103810000000056A756D702C310040CF300040CF3C
:103820000B1A043BC4491940002902D0C34A9142F3
:10383000D2D15B1040F2FF72134053F4604347F85B
:10384000046D1E00D9E75E38000000000468657250
:10385000650047F8046D4FF000563668704794399C
:10386000000000000D666C6173687661722D6865FA
:10387000726547F8046DB24E3668704700B547F878
:10388000046D42F60066FFF767FC47F8046D4CF6DE
:103890004076FFF761FC00BDDBE700B500F03AF8C9
:1038A00039683E600E4647F8046D4DF20016FFF78A
:1038B00084FF00BD00B500F02DF839683E600E466B
:1038C00047F8046D4DF20076FFF777FF00BD00B5B5
:1038D000FFF7D4FF00F01EF839683E600E4647F847
:1038E000046D4DF20006FFF768FF00BD00B500F063
:1038F00011F839683E600E46FFF78EFF00BD00B537
:10390000FFF7BCFFFFF7A5FF47F8046D0226FFF79E
:1039100097FC00BD00B5FFF79CFF47F8046D022639
:10392000FFF78EFC00BD00B5FFF793FFFFF774FFB4
:1039300000BD00B5FFF78DFF47F8046D4DF200069E
:10394000FFF73BFF00BD00B5FFF783FF47F8046DAD
:103950004DF20016FFF731FF00BD00B5FCF770FD1A
:10396000FCF7A8FCFCF7ABFCFCF7AEFC816828294F
:1039700001D1FCF7ABFDFCF79FFD47F8046D42F663
:10398000000609020E43FFF7E7FBFCF75CFCFCF7BF
:1039900085FC00BDC03900003000047468656E000D
:1039A000052E01D140CFBEE7F1B200296DD100B59F
:1039B000FFF74FFF39683E600E46FFF7FEFE00BD81
:1039C000DC390000300004656C73650000B500F060
:1039D00036F8FCF700FEFFF7E3FF00BD323A0000C7
:1039E00030060269660000B5FFF789FF47F8046DED
:1039F0004DF2000600BD00B5FCF7B5FDFDF77DFEFC
:103A0000816A002907D002B4FCF748FCFFF782FF67
:103A100047F8046D40BDFFF7A0FFFFF71AFF47F816
:103A2000046D0226FFF70CFC47F8046D4DF200060A
:103A300000BD4C3A0000300005616865616400B566
:103A4000FFF768FF47F8046D052600BD663A0000E1
:103A50003000067265706561740000B500F05BF8B7
:103A6000FFF79EFF00BDAA3A00003006057768699F
:103A70006C6500B5FFF7B7FFFCF7ADFD00BD00B505
:103A8000FFF7B9FFFCF7A7FD00BDFEF73CFE17539B
:103A900074727563747572657320646F6E27742019
:103AA0006D617463680A00F0C1BD0A3B0000300616
:103AB00005756E74696C012EE7D140CF07E770473A
:103AC000012EE2D140CF00B5FDF717FE816A002933
:103AD0000DD002B4FCF7E2FBFFF71CFF39683E6033
:103AE0000E4647F8046D40BCFFF767FE00BDFFF7C8
:103AF00034FFFFF70FFF39683E600E4647F8046D4C
:103B00004DF20006FFF759FE00BD1E3B00003000DD
:103B100005616761696E012EB7D140CFE6E6443B8F
:103B20000000300005626567696E00B5FFF7B4FEFE
:103B300047F8046D012600BD01F8FFFF00F8FFFF04
:103B4000240000205E3B00002002016B47F8046D5A
:103B5000029E704747F8046D49F602060BE08C3B65
:103B600000002002016A47F8046D009E704747F884
:103B7000046D49F6000600B5FCF75BFBFCF72CFC76
:103B800003601B021E43FFF7E7FA00BDB83B0000CD
:103B90002002016947F8046D2600704700B547F818
:103BA000046D40F22006FCF744FBFCF715FC0360B3
:103BB0001E43FFF7D1FA00BDF63B00003000056C54
:103BC0006561766500B5754801683B00043F1A6879
:103BD000043B1A6008338B42F9D103B4FFF79AFE15
:103BE00003BC330040CF04390B60016004390A681C
:103BF00001320A6000BD083C0000200006756E6CB2
:103C00006F6F700030BC7047403C00003000052BE7
:103C10006C6F6F70032E00D037E740CF00B547F8C8
:103C2000046D5F4EFFF798F8FFF744FE1AE014F1B9
:103C30000044641BA41940CF2C44A4F100447047F5
:103C4000823C00003000046C6F6F7000032E00D0C7
:103C50001BE740CF00B547F8046D524EFFF77CF8E4
:103C6000FFF71BFE00F052F94C48310040CF0160D5
:103C700047F8046D4C4EFFF76FF800BD0134AC42BD
:103C80007047CA3C0000300202646F0000B547F87C
:103C9000046D464EFFF760F84048016847F8046D30
:103CA0000E0047F8046D00260760FFF7F5FD47F8A2
:103CB000046D032600BD00B500F02FF8ECE730B42A
:103CC000340040CF350040CF7047B03D0000300297
:103CD000033F646F00B547F8046D344EFFF73CF8BE
:103CE00047F8046D44F2AC26FFF736FA2B4801681A
:103CF00047F8046D0E00FFF70DFE013647F8046D1E
:103D0000012626480760FFF7C7FD47F8046D032624
:103D100000BD00B500F001F8E2E700B5FCF723FCB8
:103D2000FCF798FBFCF7C6FAFCF7C9FAFCF7CCFAEB
:103D300047F8046D4BF23046FFF70EFA0168282968
:103D400008D047F8046D40F20406C9000E43FFF79F
:103D500003FA07E047F8046D466847F8046D042647
:103D6000FEF7CAFE8168282908D047F8046D40F2A2
:103D70000506C9000E43FFF7EFF907E047F8046DA9
:103D8000C66847F8046D0526FEF7B6FEFCF75BFA39
:103D9000FCF759FAFCF7A2FA00BD00000C00002065
:103DA0002E3C00007C3C0000043C0000BE3C0000B7
:103DB000D03D0000300004636173650000B5FCF77E
:103DC000D2FB47F8046D002647F8046D082600BDB5
:103DD000E63D00003000033F6F66714809E0013E98
:103DE000B64140CF7047AC3E00003002026F660023
:103DF0006C48082E00D048E640CF00B547F8046D67
:103E00000600FEF7A9FFFFF785FD39683E600E4604
:103E1000013647F8046D092647F8046D4CF64076E4
:103E2000FFF79AF900BD082E00D02EE640CF00B56E
:103E3000FCF710FBFCF73EFAFCF741FAFCF744FAFA
:103E400047F8046D44F28026FCF740FB0E430268FD
:103E5000282A1ED14268FF2A08D840CF47F8046DAF
:103E600042F60006164309020E4314E047F8046DBB
:103E70004668FEF78DFD04CF002E40CF06D04A4E97
:103E8000164356EA0146FFF798F906E0FCF714FBE3
:103E90000A00D2001643FFF75FF9FCF7D4F9FCF7EC
:103EA0001DFAB0E7300040CFB0427047E23E00005C
:103EB000300005656E646F66092E00D0E5E540CFE1
:103EC00000B540B440CFFFF725FD39683E600E468F
:103ED000FFF739FD47F8046D40BC47F8046D08262C
:103EE00000BD343F0000300007656E646361736598
:103EF000082E00D0C9E540CF00B547F8046D4CF658
:103F00004076FFF729F900F001F800BD00B5300058
:103F100040CF00280DD003B401213140002903D047
:103F2000013EFFF706FD01E0FFF7FDFC03BC013891
:103F3000EFE700BD483F0000000005746F6B656E41
:103F400047F8046D202605E0B03F00000000057032
:103F50006172736510B5FEF720FB310040CF300071
:103F600040CF124A12688418202E07D191420FD0F8
:103F7000835CB34202D101328418F7E7914207D043
:103F8000835C0132B342F9D18618361B013E01E051
:103F90008618361B043F3C600448026010BD0000D8
:103FA000DE3D0000A43E0000000FB0F1E44F002011
:103FB000EE3F00000000056469676974CF4B1B6821
:103FC000303E0BD30A2E0BD3073E0A2E06D3242EE7
:103FD00006D3203E0A2E01D3242E01D3002670479B
:103FE0009E42FBD247F8046D0026F6437047F84026
:103FF00000000000066E756D626572003FB531000D
:1040000040CF701E0126012204B4BC4B1B68002463
:10401000002500293CD00130013902782D2A04D135
:1040200001B00022D24304B4F3E7232A01D10A23CA
:10403000EFE7242A01D11023EBE7252A01D102233F
:10404000E7E72E2A01D10226E3E72C2A36D047F8EB
:10405000046D1600FFF7B4FF002E40CF2BD047F8B9
:10406000046D260047F8046D2E0047F8046D1E000D
:1040700047F8046D00260FB4FCF77DFC0FBC35003B
:1040800040CF340040CF0022A419554140CFC0E7B3
:1040900004BC002A04D50022E443ED430134554119
:1040A00033002600012B02D047F8046D2E0047F89C
:1040B000046D1E003FBD01B000263FBD2500002459
:1040C00002260029E4D0425C01392E2AF9D047F8B3
:1040D000046D1600FFF774FF002E40CFEBD0043FB5
:1040E0003C6047F8046D1E000FB4FCF7F3FC0FBCF6
:1040F000340040CF40CFE4E71A4100000000062E14
:104100006469676974000A2E01D230367047242E24
:1041100001D2373670472326704750410000000017
:1041200004686F6C6400330040CF754801783F2904
:104130000DD2013101704018012907D001380278F1
:1041400001300270013801390129F7D1037070473D
:1041500070410000000005686F6C643C330040CF84
:10416000674801783F2902D20131017043547047FA
:10417000884100000000047369676E00002E01D4BE
:1041800040CF70472D26CEE79C410000000002235F
:104190003E005B480678013038607047B44100004B
:1041A00000000366235310B5202400F008F8013CFA
:1041B000FBD110BDD641000000000266230000B50F
:1041C00047F8046D4D4E3668FCF797FBFFF79BFFF1
:1041D000FFF7C4FF00BDF2410000000002235300BE
:1041E00000B500F00AF8002EFBD138680028F8D19D
:1041F00000BD1E4200000000012300B547F8046D19
:104200003E4E366847F8046D0026FCF782FCFCF74A
:10421000E2F940CFFFF777FFFFF785FF00BD30429F
:1042200000000000023C2300354800210170704767
:1042300042420000000002662E0047F8046D20266E
:1042400004E090420000000003662E6E00B510B43A
:10425000340040CFFCF78EFEFCF7D4FA47F8046D2B
:104260000026FFF7E1FFFFF7BBFF40CF2C26FFF74B
:1042700075FF002C03D0FFF7A2FF013CFBD110BC5F
:1042800040CFFFF77BFF47F8046D47F8046D1CE053
:10429000A642000000000375642E00B5FFF7C4FFBE
:1042A000FFF79EFF11E0D8420000000002642E00DC
:1042B00000B5FCF75FFEFCF7A5FAFFF7B5FFFFF7C7
:1042C0008FFFFCF769FEFFF759FFFFF762FFFEF76C
:1042D00076FAFEF7C7F900BDEA4200000000027559
:1042E0002E0047F8046D0026D7E7C0440000000008
:1042F000012E47F8046DF617DAE70000FC4F0020A6
:104300008400002030B5D94C2568002D01D13D0036
:10431000256030BD30B5D54C3D00256030BD30B591
:10432000D24C0025256030BDD04B1B68DB1B9B08A1
:10433000704700B5310040CF4FF48050084002D0A4
:1043400000F0A6F800BD4FF48060084001D1FDF7F1
:104350008DF9320040CFFFF7D5FF4FF400500840F1
:1043600003D047F8046D160000BDFFF7DDFF802085
:10437000084006D14020084009D00F200840834261
:1043800005D347F8046D1600FEF795FD00BD4FF408
:104390000070084014D0FBF7EEFE47F8046D1600DD
:1043A00047F8046D0E0000F031F81000FEF7EBFC4A
:1043B000421CAF489047FFF7ADFFFBF7EBFE00BD97
:1043C000FBF7D9FE47F8046D160047F8046D0E00A0
:1043D00000F01CF8FBF762FFFFF7A1FF4FF400604D
:1043E000084001D1FCF7BFF847F8046D1600102211
:1043F0000A4002D0FEF75FFD00BD20220A4002D035
:10440000FEF7AAFC00BDFEF7D4FB00BD0FB53200DD
:1044100040CF330040CF97480168062907D20620D5
:1044200041439548401803801B0C4380828091488B
:104430000168013101600FBD0FB58E480168062982
:104440001FD88D4801391DD047F8046D0E00FEF7C6
:1044500083FE47F8046D0688FEF77EFE47F8046D7C
:104460004688FEF779FE47F8046D8688FEF774FEED
:1044700006300139EDD147F8046D41F20006FEF730
:104480000CFE0FBD47F8046D4026FEF706FE0FBD7B
:1044900000B5300040CFFEF776FC0188023047F8C7
:1044A000046D068842881204164347F8046D868816
:1044B00003B4FFF73EFF03BC06300139EFD100BD66
:1044C000084500000000086576616C756174650040
:1044D00000B5FEF762F801CF01B440B440CF6748A1
:1044E000016802B400210160FEF74AF800F014F8F8
:1044F000624802BC016047F8046D40BC01BC043F47
:104500003860FEF73DF800BD044600000000096970
:104510006E7465727072657400B5594887420BD924
:10452000FEF7F1F810537461636B20756E64657269
:10453000666C6F770A0079E0524887420AD2FEF72C
:10454000E2F80F537461636B206F766572666C6F6F
:10455000770A6BE0FFF7D6FEFFF7F2FC002E02D1E0
:10456000043740CF00BD386847F8046D043F386019
:10457000FFF7DCF8310040CF320040CF002A15D1E0
:1045800038683100FDF772F8FFF738FD320040CF90
:10459000002AC2D1FEF717F9FEF7B5F80C206E6FAE
:1045A0007420666F756E642E0A003FE0364B1B6800
:1045B000002B1CD1FFF7B3FE30230B40302B0ED164
:1045C000FEF7FDF8FEF79FF81220697320636F6D08
:1045D00070696C652D6F6E6C792E0A0026E00437C9
:1045E00040CF47F8046D1600FEF765FC95E70437E9
:1045F00040CF47F8046D160047F8046D0E00FFF732
:1046000098FE8AE720460000810009686F6F6B2DD5
:104610007175697447F8046D1C4E70475846000068
:10462000A04600000000047175697400DFF860D0D6
:10463000134F18480A2101601348002101600B48FC
:104640000160FBF772FE0D480160134801601349D9
:1046500041600E4800688746FDF7ADFFFFF75CFF3D
:10466000FEF751F805206F6B2E0AF5E708000020D1
:10467000280000205C00002060000020E44F0020A3
:104680008C0200208C010020D84F0020D44F002045
:104690008C030020FC4F0020DC4F0020C4000020D1
:1046A000BA46000000000565696E743F47F8046D66
:1046B000EFF31086013EB6417047CA460000200065
:1046C0000465696E740062B67047DA460000200027
:1046D0000464696E740072B67047F04600002000F2
:1046E00004697073720047F8046DEFF30586704734
:1046F000FC4600000000036E6F7070473E470000EC
:10470000000009756E68616E646C656400B5FDF744
:10471000FAFF14556E68616E646C656420496E74AE
:10472000657272757074200047F8046DEFF30586AA
:10473000FEF75CF8FDF7E7FF02210A0000BD5447D1
:1047400000000000057265736574DFF85807DFF834
:10475000581701608047000081000B6972712D734A
:1047600079737469636B47F8046DDFF840677047CD
:104770000C47000044F6D070C2F200000068874683
:10478000AA4700008100096972712D6661756C7419
:1047900047F8046DDFF8186770470C47000044F6CF
:1047A000CC70C2F2000000688746DA470000810042
:1047B0000E6972712D636F6C6C656374696F6E0046
:1047C00047F8046DDFF8EC6670470C47000044F6CC
:1047D000C870C2F2000000688746024800008100ED
:1047E000076972712D72746347F8046DDFF8C8664B
:1047F00070470C47000044F6C470C2F20000006825
:1048000087462C4800008100096972712D65787413
:10481000693047F8046DDFF8A46670470C47000064
:1048200044F6C070C2F20000006887465648000097
:104830008100096972712D657874693147F8046DDA
:10484000DFF87C6670470C47000044F6BC70C2F28B
:104850000000006887468048000081000969727185
:104860002D657874693247F8046DDFF85866704733
:104870000C47000044F6B870C2F20000006887469A
:10488000AA4800008100096972712D657874693346
:1048900047F8046DDFF8306670470C47000044F6B7
:1048A000B470C2F2000000688746D448000081005E
:1048B000096972712D657874693447F8046DDFF801
:1048C0000C6670470C47000044F6B070C2F200005E
:1048D00000688746FC4800008100076972712D61FD
:1048E000646347F8046DDFF8E86570470C47000023
:1048F00044F6AC70C2F2000000688746264900000A
:104900008100096972712D657874693547F8046D05
:10491000DFF8C06570470C47000044F6A870C2F28B
:104920000000006887465249000081000B697271DF
:104930002D74696D3162726B47F8046DDFF898650C
:1049400070470C47000044F6A470C2F200000068F3
:1049500087467E49000081000A6972712D74696D75
:104960003175700047F8046DDFF8706570470C47CB
:10497000000044F6A070C2F2000000688746AA4911
:10498000000081000B6972712D74696D317472675A
:1049900047F8046DDFF8486570470C47000044F69F
:1049A0009C70C2F2000000688746D6490000810072
:1049B0000A6972712D74696D3163630047F8046D83
:1049C000DFF8206570470C47000044F69870C2F28B
:1049D000000000688746004A000081000869727183
:1049E0002D74696D320047F8046DDFF8FC64704780
:1049F0000C47000044F69470C2F20000006887463D
:104A00002A4A00008100086972712D74696D3300B3
:104A100047F8046DDFF8D46470470C47000044F693
:104A20009070C2F2000000688746544A000081007E
:104A3000086972712D74696D340047F8046DDFF8F0
:104A4000B06470470C47000044F68C70C2F200005E
:104A500000688746804A000081000A6972712D69EA
:104A600032633165760047F8046DDFF8886470477B
:104A70000C47000044F68870C2F2000000688746C8
:104A8000AC4A000081000A6972712D693263316598
:104A9000720047F8046DDFF8606470470C4700004F
:104AA00044F68470C2F2000000688746D84A0000CD
:104AB00081000A6972712D6932633265760047F8A8
:104AC000046DDFF8386470470C47000044F68070CE
:104AD000C2F2000000688746044B000081000A69AA
:104AE00072712D6932633265720047F8046DDFF828
:104AF000106470470C47000044F67C70C2F200005E
:104B0000006887462C4B00008100086972712D7384
:104B10007069310047F8046DFA4E70470C47000089
:104B200044F67870C2F2000000688746544B0000DB
:104B30008100086972712D737069320047F8046D45
:104B4000F14E70470C47000044F67470C2F200004A
:104B5000006887467E4B000081000A6972712D75DE
:104B600073617274310047F8046DE84E70470C476A
:104B7000000044F67070C2F2000000688746A84B3F
:104B8000000081000A6972712D75736172743200C0
:104B900047F8046DDE4E70470C47000044F66C7019
:104BA000C2F2000000688746D24B000081000A690B
:104BB00072712D7573617274330047F8046DD54EB0
:104BC00070470C47000044F66870C2F200000068AD
:104BD0008746FC4B000081000A6972712D6578746C
:104BE0006931300047F8046DCB4E70470C47000028
:104BF00044F66470C2F2000000688746284C00004A
:104C000081000C6972712D727463616C61726D0048
:104C100047F8046DC14E70470C47000044F66070C1
:104C2000C2F2000000688746524C000081000B6908
:104C300072712D757362776B757047F8046DB84E9D
:104C400070470C47000044F65C70C2F20000006838
:104C500087467A4C00008100086972712D74696D75
:104C6000350047F8046DAF4E70470C47000044F61E
:104C70005870C2F2000000688746A24C0000810014
:104C8000086972712D737069330047F8046DA64E80
:104C900070470C47000044F65470C2F200000068F0
:104CA0008746CA4C00008100096972712D756172D6
:104CB000743447F8046D9D4E70470C47000044F66D
:104CC0005070C2F2000000688746F24C000081007C
:104CD000096972712D756172743547F8046D944ECF
:104CE00070470C47000044F64C70C2F200000068A8
:104CF00087461A4D00008100086972712D74696D34
:104D0000360047F8046D8B4E70470C47000044F6A0
:104D10004870C2F2000000688746424D00008100E2
:104D2000086972712D74696D370047F8046D824E01
:104D300070470C47000044F64470C2F2000000685F
:104D400087466A4D00008100096972712D75736292
:104D5000667347F8046D794E70470C47000044F6BF
:104D60004070C2F200000068874600500000FFFF5C
:104D7000182D2D2D20466C61736820446963746979
:104D80006F6E617279202D2D2D00FDF757FB6C4859
:104D900085466C4F2A264FF00050694901606A48E9
:104DA0006A49016047F8046D684E694DB1884FF655
:104DB000FF73994225D04FF480730B400AD0B01D89
:104DC000FEF7A5FCFDF7DFFF0388408800040343DE
:104DD000ED1A16E080230B4013D00F2319408900F1
:104DE0006D1AB01DFEF793FCFDF7CDFF47F8046D7B
:104DF000060047F8046D2E0047F8046D0E00FCF71E
:104E0000FBFCFEF761FC300040CFCFD0514806607C
:104E100040CF514805604FF480304FF4A0414FF629
:104E2000FF72884204D0023803889342F9D00230DE
:104E30004A490860FDF767FC3A4D65637269737013
:104E40002D5374656C6C6172697320524120322E4F
:104E5000332E3320666F722053544D333246313037
:104E600033206279204D61747468696173204B6FDF
:104E700063680A003A480021016047F8046D394E22
:104E800047F8046D0426FEF751FC40CF002E03D0F6
:104E9000FEF711F8FFF7DDBB40CFFFF7C7BB696E28
:104EA000697400000CED00E00400FA05D04F00200A
:104EB000CC4F0020C84F0020C44F0020C04F00201E
:104EC000BC4F0020B84F0020B44F0020B04F00204E
:104ED000AC4F0020A84F0020A44F0020A04F00207E
:104EE0009C4F0020984F0020944F0020904F0020AE
:104EF0008C4F0020884F0020844F0020804F0020DE
:104F00007C4F0020784F0020744F0020704F00200D
:104F10006C4F0020684F0020644F0020604F00203D
:104F20005C4F0020584F0020544F0020504F00206D
:104F30004C4F0020484F0020444F0020404F00209D
:104F40008C0300208C02002004000020500100008F
:104F5000005000201C000020240000201800002029
:104F6000080000209E4E0000FFFFFFFFFFFFFFFF35
:1050000030500000000006636869706964004FF268
:105010008070C1F6FF70836EC26E016F47F8046D39
:1050200047F8043D47F8042D47F8041D0326704750
:1050300058500000000004687769640000B5FFF76D
:10504000E6FF30B40124350040CF08CF5E40013484
:10505000AC42FAD130BC00BD885000002018086670
:105060006C6173682D6B62004FF2C070C1F6FF7007
:10507000038C47F8046D1E4670470200E0F7FF1FDF
:105080000020261900002002B050000061180362C1
:1050900069740123B3401E467047030001000000FD
:1050A0000020F20E00006202941200006202000072
:1050B000CC5000004000044146494F0047F8046DC1
:1050C00040F20006C4F2010670470000EC500000F8
:1050D0004000094146494F2D4D41505247F8046D5B
:1050E00040F20406C4F201067047000008510000B7
:1050F0004000065553415254310047F8046D43F6C1
:105100000006C4F2010670472851000040000A550D
:1051100053415254312D4252520047F8046D43F628
:105120000806C4F2010670474051000040000352D7
:10513000434347F8046D41F20006C4F2020670478B
:105140005C5100004000065243432D43520047F893
:10515000046D41F20006C4F2020670477C51000063
:105160004000085243432D434647520047F8046D20
:1051700041F20406C4F20206704700009C51000090
:1051800040000A5243432D414842454E520047F8E1
:10519000046D41F21406C4F202067047BC510000CF
:1051A00040000B5243432D41504232454E5247F886
:1051B000046D41F21806C4F202067047DC5100008B
:1051C00040000B5243432D41504231454E5247F867
:1051D000046D41F21C06C4F202067047F85100004B
:1051E000400005464C41534847F8046D42F2000622
:1051F000C4F2020670470000185200004000094641
:105200004C4153482D41435247F8046D42F2000689
:10521000C4F20206704700009052000000000537FB
:10522000324D487A42F20000C4F2020012230360B9
:1052300041F20000C4F20200036853F480330360BB
:1052400000B541F20000C4F20200036813F4003319
:105250005B1EF6D341F20000C4F2020048F20243A2
:10526000C0F21D034360036853F08073036041F292
:105270000000C4F20200036813F000735B1EF6D353
:1052800043F60000C4F2010040F27123836000BDC8
:10529000B852000081000C632C636F6C6C65637402
:1052A000696F6E0047F8046D44F63C76C2F2000662
:1052B000704700000000000010530000000002636F
:1052C0002C0044F60070C2F20000C36B47F8046D76
:1052D0001E4600B5002E01D047F8046D002E40CFC9
:1052E0000DD016F0FF0608CF1B021E43FDF734FF5A
:1052F00044F60070C2F200000023C36307E056F4D6
:10530000807644F60070C2F20000C66340CF00BD54
:105310003C53000000000663616C69676E0044F650
:105320000070C2F20000C36B00B5002B04D047F838
:10533000046D0026FFF7C5FF00BD00009853000074
:1053400000000B636F726E657273746F6E6500B5EB
:10535000FDF7B4FCFEF77DFA40F2FF731E40002E0D
:1053600040CF05D047F8046D0026FDF7F5FEF1E7C4
:1053700042F68340804747F8046DBEF101063300D2
:1053800040F2FF721340002B01D0B61CF7E7FDF787
:1053900055F9FCF7C9FD00BDC85300002018096984
:1053A0006E69742D72696E67761E08CF1E6040CFDD
:1053B000704703002E2000006102F20E000062021E
:1053C0009618000020020000F85300002018046323
:1053D0002B2B40003378761C47F8043D70470400BF
:1053E0008A0E00006102FA1900002002F20E00008D
:1053F000620246200000610224540000000009728D
:10540000696E672D7374657008CFF618327800B531
:1054100004B43278521C32701E7804BC1640043337
:10542000F61800BD4454000020080572696E672319
:105430003378761C3278761C3178761C561A1E40EA
:10544000704700009854000000100572696E673FB5
:1054500047F8046D3378761C3278761C3178761CE8
:10546000561A1E4008CF1B789E4202DA0026F643E9
:1054700000E00026704705008A0E000061023054EB
:1054800000002008F20E00006202FA19000020025B
:10549000B414000042020000B85400000000053EB1
:1054A00072696E6747F8046D012600B5FFF7ACFF1F
:1054B00008CF337040CF00BDD45400000000057207
:1054C000696E673E47F8046D022600B5FFF79CFF42
:1054D000367800BD045500000000077573623A6419
:1054E0006576360000B542F65D40C0F200008047A8
:1054F0001201000202000040830440570002010232
:1055000003010000645500000000087573623A63EF
:105510006F6E660000B542F65D40C0F20000804745
:1055200009024300020100C0320904000001020226
:1055300001000524001001052401000104240202D9
:105540000524060001070582030800FF0904010085
:10555000020A00000007050302400000070581025F
:10556000400000008855000000000A7573623A6C24
:10557000616E67696400360000B542F65D40C0F2B6
:105580000000804704030904D055000000000A759C
:1055900073623A76656E646F7200360000B542F64B
:1055A0005D40C0F20000804728034D0065006300A5
:1055B000720069007300700020002800530054003E
:1055C0004D003300320046003100300078002900E1
:1055D0001456000000000B7573623A70726F6475A8
:1055E0006374360000B542F65D40C0F200008047AB
:1055F000240346006F00720074006800200053000E
:1056000065007200690061006C00200050006F00AE
:1056100072007400385600000000087573623A6C1E
:10562000696E650000B542F65D40C0F2000080473B
:1056300000C2010001000800745600000000087557
:1056400073623A696E69740000B542F65D40C0F25B
:10565000000080478000000040000084C00000007F
:1056600000000000400100000000000000000000F9
:10567000000100848C56000040000355534247F857
:10568000046D45F60046C4F200067047AC560000B3
:105690004000085553422D455030520047F8046DE4
:1056A00045F60046C4F2000670470000CC560000E4
:1056B0004000085553422D434E54520047F8046DA4
:1056C00045F64046C4F2000670470000EC56000064
:1056D0004000085553422D495354520047F8046D79
:1056E00045F64446C4F20006704700000857000023
:1056F0004000075553422D464E5247F8046D45F67B
:105700004846C4F20006704728570000400009557B
:1057100053422D444144445247F8046D45F64C46EB
:10572000C4F20006704700004857000040000A55C8
:1057300053422D425441424C450047F8046D45F612
:105740005046C4F2000670476457000040000655FA
:1057500053424D454D0047F8046D46F20006C4F231
:1057600000067047885700002008077573622D7087
:105770006D6116F001035B4276009E1946F200034C
:10578000C4F20003F6187047C057000000100875F7
:1057900073622D706D61400016F001035B4276006C
:1057A0009E1946F20003C4F20003F61836887047CB
:1057B0000200725700002008261900002002000095
:1057C000FC5700000010087573622D706D61210098
:1057D00016F001035B4276009E1946F20003C4F204
:1057E0000003F61808CF338040CF7047020072578D
:1057F000000020086A190000200200002C58000058
:1058000020180765702D61646472B60045F6004388
:10581000C4F20003F6187047030032210000610251
:10582000005C00400020501F000062025C58000035
:1058300000000665702D72656700760008CF0822AB
:105840005343F61816F001035B4276009E1946F2A8
:105850000003C4F20003F61870470000A0580000CF
:105860000000077278737461742108CF9B0045F6BD
:105870000042C4F200029B1800B508B43603009B36
:105880001B885E4016F4405640F60F72134048F2F3
:10589000800213431E4308BC1E8040CF00BD0000A1
:1058A000E45800000000077478737461742108CF15
:1058B0009B0045F60042C4F200029B1800B508B4F4
:1058C0003601009B1B885E4016F0300640F60F72D2
:1058D000134048F2800213431E4308BC1E8040CF91
:1058E00000BD00001C59000000000C65702D7265A1
:1058F0007365742D7278230047F8046D5FF40443D8
:1059000047F8043D47F8046D032600B5FFF795FFFF
:1059100008CF33800326FFF7A8FF00BD4C590000D5
:105920000000077278636C656172B60045F600434B
:10593000C4F20003F618338847F6FF72134048F6A6
:105940008F721340338040CF704700007C590000B5
:105950000000077478636C656172B60045F6004319
:10596000C4F20003F61833884FF67F72134048F6EE
:105970008F721340338040CF70470000A45900005D
:105980008200087573622D70656E640047F8046DBF
:1059900044F63476C2F200067047000000000000B2
:1059A00000000000C859000040010A7573622D73A1
:1059B000657269616C0047F8046D44F62076C2F2A6
:1059C0000006704714000000645A000000000A73CB
:1059D00065742D73657269616C0044F68070C2F263
:1059E0000000C36F47F8046D1E4600B5FCF74CFC81
:1059F000FFF724FB47F8046D0026FEF715FC47F877
:105A0000046D30B40024082540CFFEF7F6FB0134C6
:105A1000AC42FAD130BCFEF7BCFB30B400243500F8
:105A200040CF33782200521C520044F62071C2F25B
:105A3000000152181380761C0134AC42F1D130BC05
:105A400040CF44F68070C2F20000C66744F6007092
:105A5000C2F2000040F21236068444F62076C2F20A
:105A6000000600BD945A000020180973656E642D6D
:105A70006461746108CF44F60070C2F200004663AE
:105A8000836340CF70470200344F00200020800C19
:105A9000000020028C5B000000000973656E642D1D
:105AA0006E65787444F60070C2F20000836B426B3E
:105AB00040218A4200DB0A4647F8046D47F8043D5E
:105AC00047F8042D462616F001035B4276009E1926
:105AD00046F20003C4F20003F618368808CF9E424F
:105AE00000DB1E4600B540B4009E01203040361851
:105AF00030B40024350040CFAC421FD02300F3184F
:105B00001B882200803247F8046D47F8043D164692
:105B100016F001035B4276009E1946F20003C4F2C0
:105B20000003F61808CF3380022614F10044641BEA
:105B3000A41940CF2C44A4F10044DFD730BC009E10
:105B400047F8046D022616F001035B4276009E19A9
:105B500046F20003C4F20003F61808CF3380002693
:105B600047F8046D0326FFF7A2FE44F60070C2F268
