:100000008C030020294D00006D4900006D4900005F
:1000200000000000000000000000000097490000F0
:100030000000000000000000974900004B4900004C
:100040009749000097490000B74900009749000010
:1000500097490000DB490000FF490000254A0000E5
:10006000494A00006D4A0000934A0000B74A000068
:10007000D74A0000FB4A0000974900001D4B0000D2
:10008000974900003F4B0000974900009749000046
:10009000A54B000097490000C94B0000ED4B000044
:1000A000114C0000354C0000594C00007F4C000002
:1000B000A34C0000C34C0000E34C0000034D0000C3
:1000C0001405000000001E2D2D2D204D6563726962
:1000D00073702D5374656C6C6172697320436F7219
:1000E00065202D2D2D0007B59048002B09D000F07C
:1000F0003BF800F041F800F027F842602821016049
:10010000F3E707BD00B5894800230168282905D118
:10011000426800F004F800F04CF8F6E700BD03B5C3
:10012000043F3E601600043F3E601E0008B400F02D
:10013000CFFF08BC0133043F3E607D4E043F3E606C
:100140007C4E04F042FA03BD03B5013B043F3E6020
:100150001E0008B400F0A6FF08BC3200043F3E6059
:10016000754E04F032FA03BD03B5744801681E29C8
:1001700001D000F034F803BD816901620169816139
:100180008168016101688160C16941624169C16141
:10019000C16841614168C1601E21016070470FB5AF
:1001A000624801681E2903D0FFF7DEFFFFF7E4FF76
:1001B0000FBD02B581680160C168416000E002B511
:1001C000016981604169C16081690161C169416101
:1001D000016A8161416AC1611E21016202BD08B5E7
:1001E00001681E220260082901D20B0004E02829C0
:1001F0000DD1436800F05DF8043F3E60504E03F0BF
:1002000080F8043F3E604F4E1E4303F07AF808BD6D
:1002100000B500F009F800F00CF800F00FF800F05D
:1002200012F800F015F800BD0FB54448FFF7D7FFEE
:100230000FBD0FB54448FFF7D2FF0FBD0FB54348C0
:10024000FFF7CDFF0FBD0FB54148FFF7C8FF0FBD4A
:100250000FB536480168062202601E2905D1043F09
:100260003E603C4E03F04DF814E0282909D1436864
:10027000043F3E601E00043F3E60062602F09CFCE8
:1002800008E0062906D0043F3E60334EC9000E4305
:1002900003F037F800F001F80FBD24481E21016279
:1002A000816101618160C16206210160002181627A
:1002B000704707B5043F3E601E0000F04FF8043F52
:1002C0003E601E0002F078FC07BD07B5C16A282910
:1002D00004D1016B994201D1002307BD01680029B7
:1002E00018D08168002915D00169002912D08169D0
:1002F00000290FD0016A00290CD00363043F3E603F
:100300001E00043F3E60002602F056FC2821C16218
:10031000002307BD043F3E601E0000F01FF8043FAD
:100320003E601E0002F048FC07BD000028000020CF
:10033000540E00006182000000A000004800002070
:10034000043F00003860000040000020380000201A
:100350003000002040CF00000646000037B5364888
:100360000168826803698469056A062000F00EF856
:10037000032000F00BF8022000F008F8012000F044
:1003800005F800232C481E21C16237BD814209D0E7
:10039000824207D0834205D0844203D0854201D0F7
:1003A000030037BD7047043F3E60244E00B58158BE
:1003B0001E2905D1FFF7D2FF8350012199400E433A
:1003C00000BD00B501681E2904D10022FFF7EBFF34
:1003D00002F097FF00BD00B581681E2907D10822F1
:1003E000FFF7E1FF0022FFF7E1FF02F08AFF00BD07
:1003F00000B501691E290AD11022FFF7D4FF082297
:10040000FFF7D4FF0022FFF7D1FF02F07AFF00BD13
:1004100000B581691E290DD11822FFF7C4FF1022F3
:10042000FFF7C4FF0822FFF7C1FF0022FFF7BEFF5E
:1004300002F067FF00BD00002800002000CF000090
:1004400000B50168282904D14368FFF732FF036033
:10045000190000BD00B58168282904D1C368FFF7E1
:1004600028FF8360190000BD00B50169282904D167
:100470004369FFF71EFF0361190000BD3EB58268A6
:1004800003698469056A9A4203D0A24201D0AA4254
:100490000AD1072A08D8043F3E60D600FFF75EFF66
:1004A0001E43836002F02DFF3EBD3EB501688268A9
:1004B00003698469056A914206D0994204D0A14239
:1004C00002D0A94200D03EBD043F3E60CE00FFF7FF
:1004D00045FF1E43036002F014FF3EBD00B5FFF769
:1004E00068FEFFF75CFEFFF739FF036000BD01B552
:1004F00006480368013307D00023DB430360043F51
:100500003E60034E02F0FDFE01BD0000D81F00203A
:1005100000B50000380500004282043264757000A6
:100520003868043F3E60043F3860704700B500F013
:10053000E3FC00F0E1FC00BD5805000062820532DA
:1005400064726F70043740CF704700B500F084FCD0
:1005500000F082FC00BDC046A005000044820532C8
:100560007377617007CF043F3860043F3E60043FFB
:100570003A600E00704700B5FFF74AFF0268036952
:100580000360026142684369436042618268836933
:1005900083608261C268C369C360C26100BDC04636
:1005A000C8050000628204326E69700007CF043F04
:1005B0003860704700B5FFF72BFFFFF7DCFFFFF750
:1005C000F8FDFFF7F6FD00BDE405000044800532AC
:1005D0006F766572B868043F3E60043F3860FE681D
:1005E0007047C04608060000448005327475636B8E
:1005F00007CF043F3860043F3E60043F3A60043F49
:100600003960043F386070472C0600004680043291
:10061000726F74003868B9683A69B86039613A60D5
:1006200079687E60FE68F9607047C0465006000039
:10063000468005322D726F743868B9683A6938613E
:100640003960BA60F968FE607E6879607047C046BC
:1006500078060000208203323E7201CF01B440B41C
:1006600040CF704700B5FFF742FF00F019FC00F0E3
:10067000BBFC00F0B9FC00BDA406000020820332E0
:10068000723E043F3E6040BC01BC043F386070478E
:1006900000B5FFF72CFF00F0C2FC00F0C0FC00F03A
:1006A000FFFB00BDD4060000208203327240043FED
:1006B0003E60019E043F3E60009E704700B5FFF71C
:1006C00016FF043F3E600C4E03F031FB03F02CFBA1
:1006D00000BDC04600070000208206327264726FBF
:1006E000700002B0704700B5FFF701FF043F3E60A5
:1006F000024E02F006FE00BD0198000002B00000AC
:100700001807000042800364322F3868F107761022
:100710004008084338607047300700006282036475
:10072000322A3868001876413860704719E0C046B0
:100730004C07000042800464736872003868F10757
:1007400076084008084338607047C04698070000A4
:100750006282046473686C003868001876413860FF
:10076000704700B5FFF737FEFFF76AFEFFF79DFE03
:1007700000F096FBFFF764FEFFF797FE043F3E6034
:10078000402601F0F9FC00F08BFB043F3E60404E38
:1007900001F0F2FC00BDC046AC07000042800464DA
:1007A00061627300002E08D47047C046CC07000079
:1007B000428007646E656761746538680021C043D4
:1007C000F64301304E4138607047C0461C080000B7
:1007D000648202642D0007CF121AB1410E00043F5B
:1007E0003A60704700B5FFF713FE00F0AEFBFFF76D
:1007F00027FEFFF75AFE00F053FBFFF721FEFFF73D
:1008000054FEFFF7B8FE01F042FC00F0BBFB043FD2
:100810003E60204E00F03FFD00BDC046680800006D
:10082000648202642B0007CF12184E41043F3A60E5
:10083000704700B5FFF7ECFD00F087FBFFF700FE07
:10084000FFF733FE00F02CFBFFF7FAFDFFF72DFE5C
:10085000FFF791FE01F005FC00F094FB043F3E60C1
:100860000B4E00F01CFD00BD9C080000618203736C
:100870003E64043F3E60F617704700B500F0DAFAB8
:10088000FFF713FE043F3E60034E01F075FC00BD10
:100890004041000080410000C0170000C80800006F
:1008A000428003756D2A3868030073433B60010C76
:1008B000320C0B005343B6B280B24E43504336184D
:1008C000360CF6187047C046F80800004280026DEA
:1008D0002A003868C11705D040423860F01704D0AC
:1008E0007642E0E7F017DED0764200B5FFF7DBFF97
:1008F000FFF763FF00BDC046380900004480037560
:10090000642A07CF564341437618010C130C594310
:100910007618010C80B292B25143434350430022F7
:10092000C91852411204B6180A04090C80184E4125
:10093000043F38607047C046CC090000448004750D
:10094000646D2A0010B50024043F3E607E68043FB9
:100950003E603E69FFF7A7FF310040CF300040CF37
:10096000043F3E603E68043F3E60FE6803B4FFF70C
:100970009AFF03BC330040CF320040CF043F3E60BB
:100980003E68043F3E603E690FB4FFF78CFF0FBC2A
:100990009219634140CF89196241634140CF043FBE
:1009A0003E607E68043F3E60FE680FB4FFF77BFF49
:1009B0000FBC9219634140CF89196241634140CF16
:1009C0001E003A607960B86010BDC046F0090000B2
:1009D0004380022A2F0000B540B440CFFFF779FFD3
:1009E000043F3E6040BC00F04FF8043700BDC046F5
:1009F000140A00004380052A2F6D6F6400B540B4CF
:100A000040CFFFF766FF043F3E6040BC00F03CF87B
:100A100000BDC046380A0000438003752A2F00B588
:100A200040B440CFFFF73FFF043F3E6040BC00F0C2
:100A30001CF8043700BDC0465C0A00004380067500
:100A40002A2F6D6F640000B540B440CFFFF72BFF35
:100A5000043F3E6040BC00F008F800BD7C0A000086
:100A6000438006756D2F6D6F640000B5043F3E60D6
:100A7000002600F01AF840CF043700BD9C0A0000A1
:100A80004380056D2F6D6F6400B5043F3E60F6171F
:100A900000F034F840CF043700BDC046F00A000033
:100AA00044800675642F6D6F640030B4002300220B
:100AB0007968B86835003C68402640004941524199
:100AC0005B41AB4202D804D3A24202D3121BAB411A
:100AD0000130013EF1D10E0038607B60BA6030BC5D
:100AE000704730B400237A68B9680020E2E7C04656
:100AF000680B0000448005642F6D6F6400B5F0172B
:100B000019D0FFF75AFEFFF72DFDF0170CD0FFF7B5
:100B100054FEFFF727FDFFF7C8FFFFF723FDFFF7A0
:100B20004CFEFFF71FFD00BDFFF71CFDFFF7BDFFEB
:100B3000FFF743FE00BDFFF715FDF0170ED0FFF7DE
:100B40003CFEFFF70FFDFFF7B0FFFFF736FEFFF7A4
:100B500009FDFFF732FEFFF705FD00BDFFF702FDBF
:100B6000FFF7A3FF00BDC046800B00004480026475
:100B70002F0000B5FFF7C2FFFFF718FD00BDC0460C
:100B8000C80B0000448002662A0000B5F0170DD0A3
:100B9000FFF713FEFFF7E6FCF0170DD0FFF70DFE91
:100BA000FFF7D0FE40CF01CF386000BDFFF7DAFC81
:100BB000F017F5D0FFF701FEFFF7C4FE40CF01CFDD
:100BC0003860FFF7FAFD00BD140C00004480026697
:100BD0002F0000B5F0170ED0FFF7EFFDFFF7C2FCB6
:100BE000F0170ED0FFF7E9FDFFF7BCFCFFF779FF28
:100BF000FFF7DCFC00BDFFF7B5FCF017F4D0FFF702
:100C0000DCFDFFF7AFFCFFF76CFFFFF7D6FDFFF74A
:100C1000CDFC00BD5C0C000020820232210006CF1A
:100C20003160726040CF704700B5FFF7E1FB0168AB
:100C3000426806B400F0D2FDFFF7B1FA06BC0160CD
:100C4000282905D0043F3E60614E00F0CAFD00BD7A
:100C50000432426000F0C2FD00BDC046A40C00009A
:100C6000208202324000043F706838603668704766
:100C700000B500F0DFF80168282909D0043F3E6084
:100C8000544E00F08CFD00F00BF900F085FD00BD26
:100C900041680431416000F07FFD00F001F900F08F
:100CA0007BFD00BDC40C000044800364753C07CF8D
:100CB0008E4204D801D1904201D800267047002608
:100CC000F6437047E40C000044800364753E07CF90
:100CD000B14204D801D1824201D8002670470026D3
:100CE000F6437047040D0000448002643C0007CFC7
:100CF0008E4204DC01D1904201DC002670470026C0
:100D0000F6437047240D0000448002643E0007CF84
:100D1000B14204DC01D1824201DC0026704700268A
:100D2000F6437047400D000062820364303C043794
:100D3000F617704700B500F0C6F800F010FB00BDD4
:100D4000680D000062820364303D01CF0643013E1E
:100D5000B641704700B5043F3E601F4E00F09FFA59
:100D600000F0D8FA00BDC046900D00004482036434
:100D70003C3E07CF50404E400643013EB641F6434D
:100D8000704700B500F016F800F0D7FA00BDC04675
:100D9000DC0D0000448202643D0007CF50404E400D
:100DA0000643013EB641704700B500F003F800F07D
:100DB000B1FA00BD00B5FFF72BFB00F0C6F800F05C
:100DC000CFF900F0DFF800F0CBF900F0BDF900BD7D
:100DD000406000004068000000430000F00D00008B
:100DE000208003737040043F3E603E007047C04661
:100DF000000E0000208003737021370040CF704741
:100E0000140E0000208003727040043F3E606E4666
:100E10007047C046240E0000208003727021B54642
:100E200040CF7047480E0000618203647570043F34
:100E30003E60704706B5FFF7C4FA01684268FFF7E5
:100E4000AEF90160426006BD740E00006182046468
:100E5000726F700040CF704700B501681E2905D140
:100E6000043F3E60A14E02F04CFA00BDFFF7A1F92D
:100E700000BDC0468C0E00006180043F64757000A8
:100E8000002E01D0043F3E607047C046B80E0000FF
:100E9000628204737761700039683E600E007047AB
:100EA0000CB5FFF798FA02688368036082604268B5
:100EB000C3684360C2600CBDE40E00006282036E32
:100EC00069700437704700B5FFF77BFA81681E2907
:100ED00002D0FFF774F900BD043F3E60834E02F07C
:100EE00010FA00BD0C0F00006282046F766572007C
:100EF000043F3E607E68704700B5FFF76CFA81687A
:100F0000C268FFF74CF90160426000BD340F000079
:100F10006282047475636B0001CF083F7E603860A5
:100F2000704700B5FFF757FAFFF784FF00F02AF883
:100F300000BDC0466C0F0000638203726F7403CF64
:100F4000083F78603E600E0070470EB5FFF750FA1C
:100F50000168826803698160026103604168C26858
:100F60004369C160426143600EBDC046900F0000FE
:100F70006382042D726F740003CF083F7E60396076
:100F80000600704700B5FFF7E0FFFFF7DEFF00BD8A
:100F9000A40F00002080047069636B00B0003E580D
:100FA0007047C046BC0F000000800564657074681F
:100FB0004F49C91B043F3E608E087047D80F0000A0
:100FC00000800672646570746800043F3E606E467F
:100FD0004849891B8E0870470C1000002082023E91
:100FE000720040B440CF704700B5FFF780FAFFF7BA
:100FF000E8F9FFF725FA043F3E603F4E01228A40A0
:10100000164302F07EF9FFF7D4F800BD401000004F
:10101000208202723E00043F3E6040BC704700B533
:10102000FFF765FAFFF7BBF8FFF798F90360043F95
:101030003E60324E01229A40164302F062F900BD32
:1010400060100000208202724000043F3E60009E5B
:10105000704700B5FFF74BFA02F066FE00BDC046D0
:10106000841000002082057264726F7001B07047B6
:1010700000B5FFF73CFA043F3E60214E02F041F913
:1010800000BDC04698100000208005727069636B37
:10109000B6006E4436687047C410000000800472C9
:1010A0006F6C6C00002E01D140CF7047B0003958F2
:1010B000C019031F1A6802600438013EF9D10437D1
:1010C0000E007047041100000080052D726F6C6CDB
:1010D000002E01D140CF7047386839464A680A600F
:1010E0000431013EFAD1086040CF70470437000058
:1010F0008C0200208C03002000B4000000BC000023
:1011000001B000001C110000628203616E6401CF17
:1011100006407047043F3E606F4EC0E0381100004B
:1011200062820362696301CFB04306007047043FE7
:101130003E606A4EAFE0C046501100006282026F0E
:10114000720001CF06437047043F3E60644EA6E044
:1011500068110000628203786F7201CF46407047C9
:10116000043F3E605F4E9AE0801100006282012AD7
:1011700001CF46437047043F3E605B4E8FE0C04660
:10118000A0110000418003636C7A300006D0002675
:10119000400002D001D20136FAE77047202670479E
:1011A000B0110000618003726F720120C641704768
:1011B000C4110000618003726F6C0020B6194641B3
:1011C0007047C046F8110000628207617273686957
:1011D000667401CF30410600704700B5043F3E60A1
:1011E000424E043F3E60424EFFF7F5F841681F292A
:1011F00028D91F21416025E020120000628206727A
:1012000073686966740001CFF0400600704700B54E
:10121000043F3E60374E043F3E60374E12E0C0460A
:10122000041300006282066C73686966740001CF63
:10123000B0400600704700B5043F3E602F4E043FAB
:101240003E600026FFF7C7F80168282903D040CF89
:1012500000F021F800BD04374168FEF7AAFF00291D
:1012600001D140CF00BD1F290AD889010E43026871
:10127000D2001643FFF732F91E4302F042F800BDD8
:1012800040CFFFF72BF9043F3E601D4E1B021E436B
:1012900002F037F800BD0FB5FFF79DF80CE00FB571
:1012A000FFF799F80168062901D1FFF7F9FD826877
:1012B000282A01D1FFF7F4FDFFF7CCF8FFF7DEF89D
:1012C000FFF7BEF8C90082680E43164302F019F812
:1012D000FEF76FFF0FBD00000040000080430000DC
:1012E0000043000040400000404300000041000077
:1012F00000100000C0400000000800008040000016
:101300000020000028130000618202303D00013EF1
:10131000B641704700B500F003F900F0ECFEFEF7AF
:1013200048FF7349816200BD5013000061820330A1
:101330003C3E013EB641F643704700B500F0F0F880
:1013400000F0D9FEFEF735FF6A49816200BDC04654
:1013500074130000618202303C00F617704700B53C
:1013600000F0DEF8043F3E60634E00F005FF634985
:10137000816200BD8C13000060800474727565008A
:10138000043F3E600026F6437047C046A0130000AD
:1013900060800566616C7365043F3E60002670479F
:1013A000C41300004282023E3D0001CFB042E9DAA0
:1013B00000267047043F3E60514E043F3E60514E50
:1013C000BAE0C046E81300004282023C3D0001CF73
:1013D000B042D7DD00267047043F3E604A4E043FCE
:1013E0003E604A4EA8E0C046081400004282013C1C
:1013F00001CFB042C6DB00267047043F3E60414E3D
:10140000043F3E603E4E97E0281400004282013EB9
:1014100001CFB042B6DC00267047043F3E603B4E31
:10142000043F3E60384E87E04C1400006282037532
:101430003E3D01CF861BB641F6437047043F3E60F8
:101440002C4E043F3E602A4E76E0C04670140000E9
:10145000628203753C3D01CF361AB641F6437047B0
:10146000043F3E602A4E043F3E602A4E64E0C04680
:1014700090140000628202753C0001CF861BB641C9
:101480007047043F3E601A4E043F3E60194E53E0E1
:10149000B0140000628202753E0001CF361AB641D8
:1014A0007047043F3E601B4E043F3E60184E43E0D1
:1014B000D01400006282023C3E0001CF811B361A2C
:1014C0000E437047043F3E60134E043F3E6033E0DE
:1014D0002C1600006282013D01CF361A013EB64152
:1014E0007047043F3E600D4E043F3E6024E0000024
:1014F00000D2000000D30000C017000000D500009B
:1015000000DB000000DA000000DC000000DD00006D
:1015100000D8000000D9000000D0000000D1000079
:1015200000B5FEF74EFFFEF77FFEFEF782FEFEF7E8
:1015300085FEFEF78FFF00BD00B5FEF74CFFFEF7FE
:1015400073FEFEF776FEFEF78FFF8268282A04D12D
:10155000FFF7A6FC39683E600E4640CF0168282997
:1015600009D14168FF2906D8043F3E60634E0E430F
:101570008168090206E0FEF763FF043F3E60604EAB
:10158000C90016430E4301F0BCFEFEF712FEFEF743
:1015900010FE866240CF00BD0FB55A48816A00290F
:1015A00030D0043F3E60866A00218162310AD5292D
:1015B00001D140CF0FBDFEF7F2FDFEF7CFFE036075
:1015C000D22903D1504E00F0D7FD0FBDD32905D14C
:1015D0004D4E00F0D1FD00F0E2FD0FBD023601F0EE
:1015E00090FE043F3E60494E00F00DF800F0D7FD3C
:1015F000043F3E60464E01F084FE043F3E60434E91
:1016000000F001F80FBD00B5FEF7DBFEFEF74DFF61
:10161000016809020E4301F074FE00BD00B5816A45
:10162000090AD52901D1FEF7C4FD00BD4816000006
:101630006282036D696E01CFB04200DC0600704724
:10164000043F3E60334E2BE0641600006282036D5F
:10165000617801CFB04200DB06007047043F3E6076
:101660002D4E1DE084160000628204756D617800C5
:1016700001CFB04200D306007047043F3E60274EC2
:101680000EE0C04628170000628204756D696E0086
:1016900001CFB04200D806007047043F3E60204EA4
:1016A00000B5FEF798FE01688268914203D140CFF1
:1016B000FEF785FD00BD062A01D1FFF7F1FB0168A9
:1016C000282901D1FFF7ECFBFEF7EFFEFEF7C2FE83
:1016D000C9000268043F3E60094E0E43164301F004
:1016E00010FE01F00EFE043F3E600E4E0E43164308
:1016F00001F007FEFEF763FD00BD000000280000BA
:1017000080420000280000208041000000200000EE
:1017100000E0000000DB000000DC000000D800005A
:1017200000D3000000460000681700000080046D30
:101730006F76650007B5310040CF320040CF0029F9
:101740000FD0B2420DD006D3013E013A705C505426
:101750000139FBD105E030781070013601320139D2
:10176000F9D140CF07BDC0468C1700000080046649
:10177000696C6C00300040CF310040CF002902D0AE
:1017800001397054FCD140CF7047C046CC170000DF
:101790002082014036687047043F3E60994E00B594
:1017A000FEF70FFE0368282B08D143687C211940FF
:1017B00009010E437C218B43FEF787FDDB001E43AE
:1017C000FEF78CFE1E4301F09CFD00BD24180000B6
:1017D0002082012103CF30600E007047043F3E603D
:1017E000894E00B5FEF7F7FD0368282B09D1436841
:1017F0007C21194009010E437C218B43FEF765FDD6
:101800000360DB001E438368282B02D1C368FEF708
:1018100050FD1E4301F075FDFEF7CBFCFEF7C9FC41
:1018200000BDC0465C1800002082022B210003CFBF
:101830003268121832600E00704700B5FEF7CBFD1B
:10184000FFF7F8FAFFF7A8FFFFF77FFB00F009FCAE
:10185000FFF726FBFFF7C2FF00BDC046A01800003F
:101860002082026840003688704700B5FEF7A9FD67
:10187000043F3E60654E0368282B08D143683E2133
:10188000194049010E433E218B43FEF71EFDDB004C
:101890001E43FEF723FE1E4301F033FD00BDC0468C
:1018A000F818000020820268210003CF30800E006B
:1018B000704700B5FEF78FFD043F3E60544E03684D
:1018C000282B09D143683E21194049010E433E218E
:1018D0008B43FEF7FAFC0360DB001E438368282B72
:1018E00002D1C368FEF7E5FC1E4301F00AFDFEF7D6
:1018F00060FCFEF75EFC00BD30190000208203682A
:101900002B2103CF3288121832800E00704700B5A9
:10191000FEF761FDFFF78EFAFFF7A7FFFFF715FB54
:1019200000F09FFBFFF7BCFAFFF7C3FF00BDC04606
:10193000741900002082026340003678704700B5B9
:10194000FEF73FFD043F3E60324E0368282B08D16E
:1019500043681F21194089010E431F218B43FEF765
:10196000B4FCDB001E43FEF7B9FD1E4301F0C9FCC9
:1019700000BDC046CC19000020820263210003CFC5
:1019800030700E00704700B5FEF725FD043F3E6045
:10199000214E0368282B09D143681F211940890172
:1019A0000E431F218B43FEF790FC0360DB001E43B8
:1019B0008368282B02D1C368FEF77BFC1E4301F02D
:1019C000A0FCFEF7F6FBFEF7F4FB00BD1C1A0000BE
:1019D000208203632B2103CF3278121832700E005D
:1019E000704700B5FEF7F7FCFFF724FAFFF7A7FFF3
:1019F000FFF7ABFA00F035FBFFF752FAFFF7C3FF32
:101A000000BD0000006800000060000000880000C9
:101A10000080000000780000007000005C1A0000E8
:101A2000208204626973210003CF3268024332606E
:101A30000E00704700B5FEF7CEFCFFF7FBF9FFF78D
:101A4000ABFEFFF782FA043F3E60AB4EFFF727FC88
:101A5000FFF726FAFFF7C2FE00BDC0469C1A000041
:101A6000208204626963210003CF326882433260BE
:101A70000E00704700B5FEF7AEFCFFF7DBF9FFF78D
:101A80008BFEFFF762FA043F3E609C4EFFF703FCBB
:101A9000FFF706FAFFF7A2FE00BDC046DC1A000001
:101AA000208204786F72210003CF32684240326096
:101AB0000E00704700B5FEF78EFCFFF7BBF9FFF78D
:101AC0006BFEFFF742FA043F3E608D4EFFF7E7FBE7
:101AD000FFF7E6F9FFF782FE00BDC046101B0000CD
:101AE000208204626974400001CF36680640013EDE
:101AF000B641F643704700B5FEF76DFCFFF74CFEAC
:101B0000043F3E607F4EFFF7CAFBFFF716FC00BDA7
:101B1000501B0000208205686269732103CF328860
:101B2000024332800E00704700B5FEF754FCFFF709
:101B300081F9FFF79AFEFFF708FA043F3E606E4E08
:101B4000FFF7ADFBFFF7ACF9FFF7B3FE00BDC046F2
:101B5000901B0000208205686269632103CF3288F0
:101B6000824332800E00704700B5FEF734FCFFF769
:101B700061F9FFF77AFEFFF7E8F9043F3E605F4E38
:101B8000FFF789FBFFF78CF9FFF793FE00BDC04616
:101B9000D01B000020820568786F722103CF328845
:101BA000424032800E00704700B5FEF714FCFFF78C
:101BB00041F9FFF75AFEFFF7C8F9043F3E60504E67
:101BC000FFF76DFBFFF76CF9FFF773FE00BDC04632
:101BD000041C0000208205686269744001CF3688C9
:101BE0000640013EB641F643704700B5FEF7F3FBF1
:101BF000FFF73BFE043F3E60424EFFF750FBFFF70E
:101C00009CFB00BD441C00002082056362697321B7
:101C100003CF3278024332700E00704700B5FEF7F2
:101C2000DAFBFFF707F9FFF78AFEFFF78EF9043FAB
:101C30003E60314EFFF733FBFFF732F9FFF7A3FEAB
:101C400000BDC046841C00002082056362696321D8
:101C500003CF3278824332700E00704700B5FEF732
:101C6000BAFBFFF7E7F8FFF76AFEFFF76EF9043FEC
:101C70003E60224EFFF70FFBFFF712F9FFF783FEDE
:101C800000BDC046C41C000020820563786F72212D
:101C900003CF3278424032700E00704700B5FEF735
:101CA0009AFBFFF7C7F8FFF74AFEFFF74EF9043F2C
:101CB0003E60134EFFF7F3FAFFF7F2F8FFF763FE0B
:101CC00000BDC046081D00002082056362697440A3
:101CD00001CF36780640013EB641F643704700B565
:101CE000FEF779FBFFF72BFE043F3E60054EFFF742
:101CF000D6FAFFF722FB00BD00430000804300003E
:101D00004040000000400000F01D0000008006661A
:101D10006C6173682100300040CF310040CF794BB7
:101D2000984253D3032202401AD1002917D00268E7
:101D3000002A32D1744A8018744A754B1360754B6F
:101D40001360754A754B1360754B13600160754ADB
:101D5000136801210B40FBD1734A072313607047BE
:101D600000F0DCFD30416464726573732068617358
:101D700020746F20626520342D616C69676E656424
:101D800020666F722077726974696E6720666C6175
:101D9000736820210A0002F027FD00F0BFFD2946EC
:101DA0006C617368206C6F636174696F6E2063612E
:101DB0006E6E6F74206265207772697474656E2030
:101DC000747769636520210A02F00EFD00F0A6FD1C
:101DD0001943616E6E6F7420777269746520696E45
:101DE000746F20636F726520210A02F0FDFCC0460B
:101DF000681E000000800E666C6173687061676524
:101E00006572617365000FB5300040CF3D4B98425D
:101E10001BD33D4A80183D4A3D4B13603D4B136038
:101E20003D4A3E4B13603E4B13603F4A3F4B1360AD
:101E30007F218843002202603A4A136801210B4047
:101E4000FBD1394A072313600FBD00F067FD14432F
:101E5000616E6E6F7420657261736520636F726569
:101E600020210A0002F0C0FCE41E000000800A6588
:101E700072617365666C61736800224872B62C49A2
:101E80000388002B1CD0043F3E600600043F3E60E8
:101E900000F044FD10457261736520626C6F636BE6
:101EA00020617420200000F0B1FD00F037FD0C200F
:101EB00066726F6D20466C6173680A00FFF7A3FFBE
:101EC00002308842DCD100F029FD1246696E697348
:101ED0006865642E20526573657420210A0002F043
:101EE00021FDC0467C1F000000800E657261736595
:101EF000666C61736866726F6D0072B6300040CFB9
:101F0000BCE7000000500000000000080C20024068
:101F1000EFCDAB890504030210200240BFAE9D8CBB
:101F20001615141318200240042002400802000075
:101F30000000010046486021002202800230013981
:101F4000FBD17047424860210288002A12D000F07D
:101F5000E5FC1D556E7061697265642031362D6235
:101F6000697420466C6173682077726974652E0A03
:101F700002F03AFC02300139E6D1704754200000EB
:101F800000800768666C6173682130B5320040CF0D
:101F9000500813D300F0C2FC1E68666C61736821A0
:101FA000206E65656473206576656E206164647279
:101FB00065737365732E0A0002F016FC022353400A
:101FC00023482021048845882D042C439C422AD094
:101FD00006300139F6D11E482021048845882D0499
:101FE0002C431AD006300139F7D100F097FC275462
:101FF0006F6F206D616E7920756E706169726564B6
:102000002031362D62697420466C617368207772C6
:10201000697465732E0A02F0E7FB0280120C42809D
:10202000868040CF30BD0221114003D0023A818822
:10203000360401E0818809040E43043F3E60160027
:102040000021018041808180FFF765FE30BD0000E6
:102050008C030020802000006282012B01CF361803
:10206000704700B5FEF7B7F9043F3E60CE4E043F1F
:102070003E60CE4E8168282912D1FEF711FF0FE095
:10208000E82000006282012D01CF861B704700B559
:10209000FEF7A1F9043F3E60C54E043F3E60C54EC9
:1020A000FEF7D8F9016828290ED14168FF290BD81D
:1020B00040CFFEF7E3F90E43816809020E4301F0B9
:1020C00020F9FEF776F800BD0437FEF7B9F989016B
:1020D0008268D2000E431643FEF76BF8FEF7FEF956
:1020E0001E4301F00EF900BD0021000061820231A3
:1020F0002D00013E7047043F3E60AF4E3CE0C046BD
:1021000018210000618202312B0001367047043F24
:102110003E60AA4E30E0C0463021000061820232AB
:102120002D00023E7047043F3E60A54E24E0C046AD
:1021300048210000618202322B0002367047043FC2
:102140003E60A04E18E0C046602100006182056339
:10215000656C6C2B04367047043F3E609A4E0BE072
:10216000902100006182066E6567617465007642A9
:102170007047043F3E60954E00B5FEF722F90168B6
:10218000C9000E43FEF7AAF91E4301F0BAF800BDDC
:10219000A82100006182036E6F74F6437047043F0C
:1021A0003E608B4EE8E7C046C021000061820373A9
:1021B000687276087047043F3E60864EDCE7C04692
:1021C000D021000061820373686C7600704706E0DE
:1021D000E8210000618202322A0076007047043F45
:1021E0003E604026C8E7C0460022000061820563C9
:1021F000656C6C73B6007047043F3E608026BBE799
:1022000018220000618202322F0076107047043FCE
:102210003E60714EB0E7C046582200006182036103
:102220006273F01736184640704700B5FEF7C9F8DC
:10223000043F3E6000260168C9000E43FEF74EF9D8
:102240001E4301F05EF8043F3E60644E01F059F811
:10225000FFF78FFF00BDC046A02200004280057539
:102260002F6D6F64310040CF002903D1043F3E60E1
:1022700000267047012200238E4206D9003104D483
:102280005200490001D48E42FAD88E4201D3761A08
:10229000134349085208F8D1043F3E601E007047BE
:1022A000102300004280042F6D6F640000B53000E1
:1022B00040CF002E1CDA764200280CDA4042043F60
:1022C0003E600600FFF7CEFF300040CF7642043F6D
:1022D0003E60060000BD043F3E600600FFF7C2FFFF
:1022E000300040CF40427642043F3E60060000BDD1
:1022F000002807DA4042043F3E600600FFF7B2FFC5
:10230000764200BD043F3E600600FFF7ABFF00BD14
:10231000242300004280036D6F6400B5FFF7C6FF01
:1023200040CF00BD382300004280012F00B5FFF7E9
:10233000BDFF043700BDC0464C230000618004652A
:1023400076656E0001203040361870476423000027
:102350008180046261736500043F3E60204E7047D7
:102360000A0000007C23000000800662696E617232
:1023700079001B48022101607047C0469423000089
:10238000008007646563696D616C15480A2101600E
:102390007047C04624240000008003686578104818
:1023A000102101607047000000300000001800009C
:1023B00000380000001A0000401E0000401C000011
:1023C000801E0000801C0000001D00004042000034
:1023D000C0430000400800004010000000D500008D
:1023E000FC1F00209349944808609449012008602C
:1023F000086804221040FBD09149012008609149EF
:102400009148086091499248086092499248086052
:1024100092499348086093498B20086092499348F9
:102420000860704788240000008004696E697400A9
:1024300000B5FFF7D7FF00F071FA494D6563726987
:1024400073702D5374656C6C6172697320524120F6
:10245000322E332E352077697468204D3020636F1B
:10246000726520666F722053544D33324C303533D1
:102470004338206279204D61747468696173204B20
:102480006F63680A00BDC046A4240000818009680B
:102490006F6F6B2D656D6974043F3E60744E7047BD
:1024A0009A250000C0240000818008686F6F6B2DA2
:1024B0006B657900043F3E606E4E7047C225000098
:1024C000E024000081800A686F6F6B2D656D697470
:1024D0003F00043F3E60684E7047EC250000C04658
:1024E000FC240000818009686F6F6B2D6B65793F5C
:1024F000043F3E60614E70471A2600001C25000014
:1025000081800A686F6F6B2D706175736500043F81
:102510003E605B4E7047D2480000C0463425000044
:10252000008004656D6974000FB5514800F029F80A
:102530000FBDC046482500000080036B65790FB5CC
:102540004C4800F01EF80FBD5C25000000800565BA
:102550006D69743F484800688746C0467025000092
:102560000080046B65793F00444800688746C04698
:10257000882500000080057061757365404800681B
:10258000874600688746C046B025000000800B7370
:10259000657269616C2D656D697400B500F026F88F
:1025A000002E40CFFAD0374A167040CF00BDC0464B
:1025B000D825000000800A73657269616C2D6B6517
:1025C000790000B500F029F8002E40CFFAD0043F82
:1025D0003E602D4A167800BD0826000000800C736E
:1025E000657269616C2D656D69743F0000B5FFF718
:1025F000C5FF043F3E60002624480168802001405A
:1026000000D0F64300BDC0469026000000800B734A
:10261000657269616C2D6B65793F00B5FFF7AEFFA0
:10262000043F3E600026194801682020014000D088
:10263000F64300BD0070004000080000001002409A
:102640000C1002402C1002408F0000003410024099
:102650000040000000000050FFFCEBEB24000050A5
:10266000400400000C380140003801400D0000001B
:10267000F81F0020F41F0020F01F0020EC1F002096
:10268000E81F002028380140243801401C38014050
:10269000B42600000080076365787065637400B538
:1026A000386801B40130386000F00BF801BC0670E6
:1026B00040CF00BD2C270000008006616363657079
:1026C000740000B502CF01390022FFF738FF300057
:1026D00040CF7F2809D0202819D2092816D00A28EF
:1026E0001FD00D281DD00828EFD1002AEDD000F012
:1026F00015F903082008002AE7D0885C013A8023F6
:102700000340E2D040230340F5D0DEE72020B24270
:10271000DBD2043F3E600600FFF706FF013288541B
:10272000D3E7160000F0A8F800BDC046402700001F
:10273000408003746962043F3E602B4E7047C04680
:10274000582700008180033E696E043F3E60274E9B
:10275000704700000000C0468027000082800E63A2
:10276000757272656E742D736F7572636500043FC8
:102770003E601F4E704700000000C4000020C046AD
:102780009C270000008009736574736F7572636520
:10279000174802CF0660416040CF7047BC27000059
:1027A000008006736F7572636500043F3E60104ED3
:1027B000043F7068386036687047C046F4270000F0
:1027C00000800571756572790FB5084800210160B8
:1027D000FFF7B1FF043F3E60043F3E60C826FFF7AD
:1027E00070FFFFF7D5FF0FBDC4000020E41F0020DD
:1027F000DC1F002044280000008007636F6D7061BB
:1028000072650FB5310040CF01CF884202D040CF72
:1028100000260FBD02CF002810D001380A5C335CBF
:10282000412A02D35B2A00D22032412B02D35B2BF8
:1028300000D220339A42EED000260FBD0026F64388
:102840000FBDC0465828000000800263720000B52A
:1028500000F064F8010A00BD6C28000000800262EC
:102860006C00043F3E6020267047C0468028000070
:102870000080057370616365043F3E60202653E667
:10288000A02800000080067370616365730000B5C6
:10289000002E03DDFFF7F0FF013EFBD140CF00BD6E
:1028A000B02800005080065B636861725D0005E03F
:1028B000C8280000008004636861720000B501F060
:1028C00015FC40CF367800BDD82800005084012880
:1028D000043F3E60292606E0F42800005084015C95
:1028E000043F3E60002600B501F00AFC043740CFEB
:1028F00000BDC0463C2900001080022E22009F48E7
:1029000000B5043F3E60060000F0F8F9043F3E6069
:10291000222601F0F5FB00F034FD00BD0AB4043FAF
:102920003E607646013E33780121013319405B1841
:102930007146C9188E460ABC3CE0C04664290000B6
:102940001080026322008E48DAE7043F3E6076463C
:10295000013E33780121013319405B187146C918D3
:102960008E4670479029000010800273220085482F
:10297000C6E7043F3E607646043F3E60013E36783F
:102980000121731C19405B187146C9188E467047A7
:10299000A8290000008005636F756E740136043F3E
:1029A0003E60013E36787047D02900000080056304
:1029B0007479706501B53078002807D00136043F7E
:1029C0003E603678FFF7B0FD0138F7D140CF01BD4A
:1029D000002A00000080047479706500310040CF47
:1029E000300040CF00B5002908D00022043F3E60EF
:1029F000865CFFF799FD01329142F7D100BDC046D8
:102A00003C2A00000080046865782E0007B531007C
:102A100040CF20200F220438043F3E600E00C64005
:102A20001640092E01D9373600E03036FFF77CFD1D
:102A30000028F0D1FFF720FF07BDC0464C2A000058
:102A4000008003682E731FB54F4C0EE05C2A000017
:102A5000008003752E731FB54C4C06E0DC2A000085
:102A60000080022E73001FB5494C4A49C91B8908D2
:102A7000494A106803B40A201060FFF74FFF08535B
:102A80007461636B3A205B00043F3E600E0001F00E
:102A900015FDFFF743FF025D200003BC3E4A1060B6
:102AA00000290AD03D4A106806B4043F3E60060083
:102AB000A04706BC043A0139F5D1FFF72FFF0620E5
:102AC000544F533A2000043F3E603600A047FFF7C2
:102AD00025FF04202A3E0A001FBDC046A02B00008F
:102AE000008005776F72647300B5FFF717FF010A66
:102AF00000F09FFEFFF712FF094164647265737373
:102B00003A20043F3E60FFF781FFFFF707FF064CC6
:102B1000696E6B3A2000043F3E603668FFF776FF2F
:102B2000FFF7FCFE07466C6167733A20043F3E6086
:102B3000B688FFF76BFFFFF7F1FE06436F64653A57
:102B40002000B01D00F0B0FE043F3E600600FFF71D
:102B50005DFFFFF7E3FE064E616D653A2000043F1E
:102B60003E600636FFF726FFFFF7D8FE010A00F0A9
:102B700078FE300040CFBDD040CF00BD1C29000002
:102B80004A290000722900000D2A0000AB44000011
:102B9000BD4400008C020020FC1F002088020020A1
:102BA000F02C000000801072656769737465726CA8
:102BB00069746572616C2C003FB5A64B386818408B
:102BC00098420FD13868C043386040B400F00DF827
:102BD000043F3E60A04E01BC0643C000064300F027
:102BE00090FB3FBD00F001F83FBD00B5350040CF80
:102BF0002900C90029432D0298480543FF230022DC
:102C00003000D040984301D00132F9E73000D04085
:102C100018402843043F3E60060000F072FB9048D5
:102C2000054318009040864310D000243000E04057
:102C3000984301D00134F9E7101B043F3E600E00B9
:102C40008001064300F05DFB2200DFE7002A06D08A
:102C5000043F3E600E009201164300F052FB40CF4D
:102C600000BD1FB5310040CF7E4C0C43C9000C4362
:102C70004901300040CF020EFF231A40774B0B432F
:102C80001343043F3E601E0000F03BFB043F3E60E8
:102C9000260000F036FB020CFF231A40724B0B4358
:102CA0001343043F3E601E0000F02BFB043F3E60D8
:102CB000260000F026FB020AFF231A406A4B0B4352
:102CC0001343043F3E601E0000F01BFB043F3E60C8
:102CD000260000F016FB0200FF231A40624B0B4354
:102CE0001343043F3E601E0000F00BFB1FBDC046B7
:102CF000602D000000800563616C6C2C0FB5330003
:102D000000F074FE300040CF1B1A043B57491940B5
:102D100000290ED0564A91420BD00136043F3E6046
:102D20000026FFF749FF043F3E60524E00F0E9FAEB
:102D30000FBD40CF5B085048504919400843DB0A9B
:102D40004F491940090408439B0A0121194089068B
:102D50000843043F3E60060000F003FB0FBDC04681
:102D6000942D00000080086C69746572616C2C0001
:102D700000B5043F3E60434E00F0C3FA043F3E609E
:102D8000414E00F0BEFA043F3E600626FFF714FFF6
:102D900000BDC046BC2D00000080066372656174F2
:102DA000650000B500F03DF82D200002DB308047C3
:102DB000043F3E607646013E00BDC046142E000032
:102DC000208005646F65733E2D200002DB30804754
:102DD000043F3E607646013E7047043F3E607646C3
:102DE000013E2A4A13682A4909680220084000D196
:102DF0000231023111600136043F3E600026FFF7C8
:102E000030FF043F3E601B4E00F07BFA136000F081
:102E1000EAF900BD982E00000080073C6275696CDD
:102E2000647300B500F092FB00F0E0FD0220064064
:102E300040CF04D1043F3E60362600F062FA043FE2
:102E40003E60144E00F05DFA043F3E60102600F034
:102E5000CBFA00BD0000FFFFC043000000200000CF
:102E60000010000000020000003000000100C0FF60
:102E70000000C0FF8047000000F800F0FF070000DE
:102E8000FF030000043F00003E600000000000203F
:102E90001400002000B50000A42E00005080035B49
:102EA000275D03E0BC2E00000080012700B501F083
:102EB0001DF900F038FD300040CF00BDF42E0000B9
:102EC000308008706F7374706F6E650000B5FFF727
:102ED000EDFF043F3E60060039683E600E46FFF796
:102EE00047FFFFF745FF043F3E60E44EFFF706FF54
:102EF00000BDC046402F0000008007696E6C696EFF
:102F0000652C00B5DE49DF4ADF4B3088884208D0A7
:102F1000904208D0984206D0043F3E60060000F080
:102F2000F0F90236F1E740CF00BD0EB4D54AD64BDA
:102F300001880230914201D09942F9D10EBC70470C
:102F4000542F00000080047265742C00043F3E6022
:102F5000CC4ED6E1642F000030800465786974009F
:102F6000F4E7C0467C2F00003080077265637572FD
:102F70007365043F3E60C54E3668BFE6942F00007F
:102F80008180057374617465043F3E60C04E704774
:102F900000000000A82F00000080015DBC48002157
:102FA000C94301607047C046B82F00001080015B24
:102FB000B748002101607047D82F00000080013A17
:102FC00000B5B448076000F0C1FAB14801210160C2
:102FD000B1480021016000BD443000003088013B51
:102FE00000B5AC480168B9420ED0FFF797FC152038
:102FF000537461636B206E6F742062616C616E63E9
:1030000065642E0A01F0F0FBA1480068411C0ED057
:103010000B2804D8043F3E60A04E00F015F9043F91
:103020003E60994E00F06DF901F0E5FA04E0043FCE
:103030003E60944E00F065F900F0D5F89448002108
:10304000016000BD58300000008007657865637539
:103050007465300040CF87467030000010800969E9
:103060006D6D656469617465043F3E601026EBE038
:1030700088300000508006696E6C696E6500043F00
:103080003E602026E0E0C046A430000010800B63C4
:103090006F6D70696C656F6E6C79043F3E603026B1
:1030A000D2E0C046C030000050800A302D666F6C00
:1030B0006461626C6500043F3E604026C4E0C04627
:1030C000DC30000050800A312D666F6C6461626CE8
:1030D0006500043F3E604126B6E0C046F83000007F
:1030E00050800A322D666F6C6461626C6500043F2B
:1030F0003E604226A8E0C0461431000050800A33EA
:103100002D666F6C6461626C6500043F3E6043260F
:103110009AE0C0463031000050800A342D666F6C52
:103120006461626C6500043F3E6044268CE0C046EA
:103130004C31000050800A352D666F6C6461626C02
:103140006500043F3E6045267EE0C04668310000D1
:1031500050800A362D666F6C6461626C6500043FB6
:103160003E60462670E0C0468431000050800A3739
:103170002D666F6C6461626C6500043F3E6047269B
:1031800062E0C046B4310000008008636F6E737463
:10319000616E740000B500F0D9F9FFF7E9FD043F56
:1031A0003E60394E00F0ADF8FFF785FF00F01BF8E8
:1031B00000BDC046D831000000800932636F6E73D5
:1031C00074616E7400B500F0C1F939683E600E4656
:1031D000FFF7CEFDE1E7C0463832000000800673FD
:1031E0006D756467650000B52D4801682C4A9142F1
:1031F0001CD202390A882B4B9A4204D1043F3E600C
:10320000294E00F07EF800F06BF828480068043F73
:103210003E600600264909680431214A136811609E
:1032200000F06FF81360FEF78DFE00BD00F058F857
:10323000043F3E601F4E08E0B83200000080087373
:103240006574666C6167730000B515480168144ABF
:10325000914205D2154801683143016040CF00BD5D
:10326000320040CF12480068043001880E4B99426A
:1032700001D1110000E01143018000BDFA440000BB
:1032800000B5000000BD00007047000014000020E1
:10329000D81F0020100000205C0000202008000043
:1032A0000000002000000000FFFF000020000020C0
:1032B0000400002000800000D4320000418007613B
:1032C0006C69676E6564012030403618022030401A
:1032D00036187047F8320000008005616C69676E2F
:1032E00000B58C4801680220014004D0043F3E60D4
:1032F000894E00F006F800BD3C33000000800268F3
:103300002C000FB5B6B285480168002902D0013102
:1033100000D001607F4801687E4A914205D2043F97
:103320003E600E00FEF731FE02E0320040CF0A8020
:10333000043F3E60022600F057F80FBD58330000EE
:103340000080012C00B5043F3E60FFF7DAFF360C29
:10335000FFF7D7FF00BDC046743300000080033E76
:103360003C2C00B5043F3E60360CFFF7CAFFFFF768
:10337000C8FF00BDDC330000008007737472696E03
:10338000672C07B5FF21314040CF300040CF0029E6
:1033900005D1043F3E600026FFF7B3FF07BD043FA1
:1033A0003E60067836020E43FFF7ABFF013001396D
:1033B00002290AD3043F3E6046783602027816435B
:1033C000FFF79FFF02300239F2E7002900D107BD65
:1033D000043F3E600678FFF794FF07BD38340000D5
:1033E000008005616C6C6F744A480168494A9142DB
:1033F0000FD2320040CF8918494A914219D3FFF7C2
:103400008DFA0B466C6173682066756C6C0A01F06E
:10341000EBF9320040CF8918424A1268914208D332
:10342000FFF77CFA0952616D2066756C6C0A01F039
:10343000DBF901607047C0465C340000008009661B
:103440006F7267657472616D00B500F025F83148E0
:103450003549016035483649016000BD84340000BB
:1034600000800D636F6D70696C65746F72616D3F84
:10347000043F3E600026274800682649884248D31A
:10348000F6437047A434000000800C636F6D7069D0
:103490006C65746F72616D001E4800681D4988423A
:1034A00011D370473C35000000800E636F6D70696A
:1034B0006C65746F666C6173680016480068154926
:1034C000884200D2704719481A4902680B680A609E
:1034D00003601048184902680B680A6003601148CD
:1034E0000068834215D300B5FFF718FA2320566110
:1034F000726961626C657320636F6C6C69646520CE
:10350000776974682064696374696F6E6172790A9F
:1035100000BD704700000020FFFF0000D81F002002
:1035200000000100240000204C04002004000020C2
:10353000C00000001C0000201800002028360000F9
:1035400000800828637265617465290000B500F089
:10355000CDFD002E0ED1FFF7E1F915204372656114
:103560007465206E65656473206E616D6520210A47
:1035700001F03AF93868043F3E60043F386000F0DB
:10358000A3F940CF002E40CF11D03868043F3E60F1
:10359000043F3860FFF7C2F9095265646566696ED9
:1035A0006520FFF71BFAFFF7B9F9022E2000FFF79D
:1035B00097FE00F01BFA8D4800688C4988421CD2A7
:1035C0008B488C490160043F3E600626FFF70CFFE4
:1035D000FDF7D2FCFFF7D5FE874801680A68874BE4
:1035E0009A4207D1814A13681160043F3E60FFF799
:1035F000A9FE1360066040CF10E07F48043F3E60A4
:103600000668FFF79FFE043F3E607C4EFFF779FEA1
:103610007948310040CF0160FFF7B3FE734801687D
:103620007748016000BDC046403600000080087643
:1036300061726961626C6500043F3E60012613E0BF
:1036400058360000008009327661726961626C65EB
:10365000043F3E60022607E0303700000080096E1C
:103660007661726961626C6500B5FFF76FFF5F4854
:1036700001685E4A914233D20F200640B200614891
:103680000168891A604A91420BD2FFF747F90F4E41
:103690006F7420656E6F7567682052414D0A01F0A6
:1036A000A3F80160043F3E600E00FFF761FB043F9A
:1036B0003E60564EFFF725FE300040CF0200002846
:1036C00005D00E600431FFF73DFE0138F9D1043F0B
:1036D0003E6080261643FFF7B7FDFFF784FD00BD6F
:1036E00000F084F90220064040CF04D1043F3E6040
:1036F0003626FFF706FE043F3E60454EFFF731FEDB
:10370000043F3E60434EFFF72CFE043F3E603F4EB9
:10371000FFF7F7FD300040CF002803D0FFF712FE7F
:103720000138FBD1FFF7C7FCFFF75DFD00BDC046C8
:103730001C3800000080076275666665723A00B545
:10374000FFF704FF012030403618022030403618C1
:1037500026480168254A914226D22A480168891BD9
:10376000294A91420BD2FFF7D9F80F4E6F742065AA
:103770006E6F7567682052414D0A01F035F801609F
:10378000043F3E600E00FFF7F3FA043F3E601F4E19
:10379000FFF7B7FDFFF7D6FD043F3E601E4EFFF773
:1037A00053FDFFF720FD00BD00F020F90220064088
:1037B00040CF04D1043F3E603626FFF7A2FD043F10
:1037C0003E60134EFFF7CDFD043F3E60114EFFF704
:1037D000C8FD043F3E600D4EFFF793FDFFF704FE6A
:1037E000FFF769FCFFF7FFFC00BD000000000020B0
:1037F00020000020008000000400002000000000E5
:1038000014000020240000204C0400207047000019
:103810003E60043F02367E46408100004C38000086
:1038200000800F64696374696F6E6172797374618B
:103830007274424800684149043F3E60884201D2A8
:103840003F4E70473F4E36687047C046883800008C
:1038500000800E64696374696F6E6172796E657859
:10386000740003B531683848814207D08879002850
:1038700004D00E00043F3E60002603BD043F3E60BE
:103880000026F64303BDC046BC38000000800A7322
:103890006B6970737472696E67003178013101224F
:1038A0000A4089187618704706B401780131012260
:1038B0000A408918401806BC7047C0464C390000C1
:1038C00000800466696E64003FB500220023350065
:1038D00040CF340040CFFFF7ACFF1B48B18888428F
:1038E00017D0043F3E600636FFF758F8043F3E60AD
:1038F0002600043F3E602E00FEF783FF002E40CFDF
:1039000007D0B01DFFF7D0FF02000B000B4882422A
:1039100004D2FFF7A6FF300040CFDED01600043FF0
:103920003E601E003FBD00B531003868FFF7CCFF98
:103930003A68002A01D100F00BFF00BD0000002012
:10394000C00000000400002000000000A8390000B2
:10395000008006636A756D702C00320040CF310024
:1039600040CF8B1B043BD849194000290DD0D748C4
:1039700081420AD0FEF7D2FF0D4A756D7020746F38
:103980006F206661720A00F02FFF5B10FF210B4071
:10399000134330001E0000B5CD4A13681060FFF7D6
:1039A000B0FC136000BDC046E03900000080056A2D
:1039B000756D702C310040CF300040CF0B1A043BA6
:1039C000C4491940002902D0C34A9142D2D15B10A8
:1039D000C24A1340C24A1343043F3E601E00DAE766
:1039E000F83900000080046865726500043F3E609D
:1039F000B74E36687047C046203B000000800D6619
:103A00006C6173687661722D68657265043F3E6013
:103A1000B44E3668704700B5043F3E60B24EFFF7C3
:103A200070FC043F3E60B14EFFF76BFC00BDDDE76C
:103A300000B500F037F839683E600E46043F3E603E
:103A4000AB4EFFF78AFF00BD00B500F02BF83968D8
:103A50003E600E46043F3E60A64EFFF77EFF00BD6F
:103A600000B5FFF7D8FF00F01DF839683E600E463C
:103A7000043F3E60A04EFFF770FF00BD00B500F0B0
:103A800011F839683E600E46FFF794FF00BD00B59F
:103A9000FFF7C1FFFFF7AAFF043F3E600226FFF7D2
:103AA000A3FC00BD00B5FFF7A1FF043F3E60022666
:103AB000FFF79AFC00BD00B5FFF798FFFFF77AFF0C
:103AC00000BD00B5FFF792FF043F3E608A4EFFF74E
:103AD00044FF00BD00B5FFF789FF043F3E60844E00
:103AE000FFF73BFF00BD00B5FCF76BFCFCF79CFB50
:103AF000FCF79FFBFCF7A2FB8168282901D1FCF7AA
:103B0000A9FCFCF79DFC043F3E607C4E09020E437D
:103B1000FFF7F7FBFCF74DFBFCF77AFB00BDC04657
:103B20004C3B00003080047468656E00052E01D1A6
:103B300040CFC0E7F1B200296ED100B5FFF756FFC4
:103B400039683E600E46FFF708FF00BD683B000085
:103B5000308004656C73650000B500F035F8FCF743
:103B600001FDFFF7E3FF00BDBC3B000030860269AA
:103B7000660000B5FFF78BFF043F3E605E4E00BD60
:103B800000B5FCF7B4FCFDF749FD816A002907D0B8
:103B900002B4FCF73DFBFFF785FF043F3E6040BDEC
:103BA000FFF7A1FFFFF722FF043F3E600226FFF769
:103BB0001BFC043F3E60504E00BDC046D83B000099
:103BC000308005616865616400B5FFF76BFF043FF5
:103BD0003E60052600BDC046F43B00003080067202
:103BE00065706561740000B500F05CF8FFF79EFF3A
:103BF00000BDC046383C00003086057768696C65BA
:103C000000B5FFF7B6FFFCF7ADFC00BD00B5FFF750
:103C1000B7FFFCF7A7FC00BDFEF780FE17537472D8
:103C20007563747572657320646F6E2774206D619F
:103C30007463680A00F0D8FD983C00003086057572
:103C40006E74696C012EE7D140CF09E77047012EF1
:103C5000E2D140CF00B5FDF7E1FC816A00290DD02B
:103C600002B4FCF7D5FAFFF71DFF39683E600E4637
:103C7000043F3E6040BCFFF770FE00BDFFF733FF1E
:103C8000FFF710FF39683E600E46043F3E601A4E53
:103C9000FFF763FE00BDC046AC3C0000308005610C
:103CA0006761696E012EB7D140CFE7E6003D0000A5
:103CB000308005626567696E00B5FFF7B8FE043FA6
:103CC0003E60012600BD000001FFFFFF00FFFFFF77
:103CD0000000002001F8FFFF00F8FFFFFF070000D1
:103CE00000E0000024000020002E000040CF000073
:103CF00000D1000000D7000000D000000028000024
:103D0000183D00002082016B043F3E60029E704718
:103D1000043F3E608E4E0AE0443D00002082016A6E
:103D2000043F3E60009E7047043F3E60894E00B5F0
:103D3000FCF735FAFCF712FB03601B021E43FFF78A
:103D4000E0FA00BD703D000020820169043F3E6042
:103D50002600704700B5043F3E607F4EFCF71FFA17
:103D6000FCF7FCFA03601E43FFF7CBFA00BDC04628
:103D7000B03D00003080056C6561766500B5774820
:103D800001683B00043F1A68043B1A6008338B4209
:103D9000F9D103B4FFF786FE03BC330040CF0439EA
:103DA0000B60016004390A6801320A6000BDC04638
:103DB000C43D0000208006756E6C6F6F700030BCD3
:103DC0007047C046FC3D00003080052B6C6F6F7063
:103DD000032E00D020E740CF00B5043F3E60604E88
:103DE000FFF78FF8FFF730FE1AE080200006001979
:103DF000A419401B801940CF7047C046403E0000C8
:103E00003080046C6F6F7000032E00D004E740CF49
:103E100000B5043F3E60534EFFF773F8FFF708FE0E
:103E200000F04AF94D48310040CF0160043F3E6048
:103E30004D4EFFF766F800BD0134AC427047C046F6
:103E4000883E0000308202646F0000B5043F3E608F
:103E5000464EFFF756F841480168043F3E600E00A9
:103E6000043F3E6000260760FFF7E1FD043F3E602F
:103E7000032600BD00B500F02EF8ECE730B43400A6
:103E800040CF350040CF7047803F00003082033F75
:103E9000646F00B5043F3E60344EFFF732F8043FD4
:103EA0003E60334EFFF72DFA2C480168043F3E6018
:103EB0000E00FFF7F7FD0136043F3E60012627485C
:103EC0000760FFF7B4FD043F3E60032600BD00B568
:103ED00000F001F8E3E700B5FCF709FBFCF77BFA1B
:103EE000FCF7A2F9FCF7A5F9FCF7A8F9043F3E603E
:103EF000204EFFF706FA0168282907D0043F3E60EC
:103F00001D4EC9000E43FFF7FCF907E0043F3E6079
:103F10004668043F3E600426FEF74EFE816828296D
:103F200007D0043F3E60154EC9000E43FFF7E9F984
:103F300007E0043F3E60C668043F3E600526FEF78A
:103F40003BFEFCF736F9FCF734F9FCF781F900BDCC
:103F50000298000000980000200000000C000020E3
:103F6000EA3D0000383E0000BE3D00007C3E0000FF
:103F7000AC42000030B40000040000000500000066
:103F8000A03F0000308004636173650000B5FCF75A
:103F9000AEFA043F3E600026043F3E60082600BDA6
:103FA000B83F00003080033F6F6668480AE0013E7A
:103FB000B64140CF7047C046584000003082026F83
:103FC00066006348082E00D026E640CF00B5043FC7
:103FD0003E600600FEF795FFFFF764FD39683E601E
:103FE0000E460136043F3E600926043F3E60594EAE
:103FF000FFF787F900BD082E00D00DE640CF00B5D1
:10400000FCF7E9F9FCF710F9FCF713F9FCF716F9DE
:10401000043F3E60504EFCF71DFA0E430268282A0A
:104020000DD14268FF2A07D840CF043F3E604B4E77
:10403000164309020E4304E0FCF702FA0A00D2001C
:104040001643FFF75EF9FCF7B4F8FCF701F9C3E794
:10405000300040CFB042704790400000308005658E
:104060006E646F66092E00D0D6E540CF00B540B42F
:1040700040CFFFF717FD39683E600E46FFF72AFD77
:10408000043F3E6040BC043F3E60082600BDC04681
:10409000E0400000308007656E6463617365082E40
:1040A00000D0B9E540CF00B5043F3E60294EFFF790
:1040B00028F900F001F800BD00B5300040CF00281D
:1040C0000DD003B401213140002903D0013EFFF798
:1040D000F8FC01E0FFF7EFFC03BC0138EFE700BD9F
:1040E000F4400000008005746F6B656E043F3E6015
:1040F000202605E064410000008005706172736550
:1041000010B5FEF752FB310040CF300040CF144ACB
:1041100012688418202E07D191420FD0835CB342DD
:1041200002D101328418F7E7914207D0835C013253
:10413000B342F9D18618361B013E01E08618361BC2
:10414000043F3C600648026010BD0000AE3F000026
:104150005040000040CF00008042000000280000D6
:10416000E41F0020A44100000080056469676974B1
:10417000D44B1B68303E0BD30A2E0BD3073E0A2EBE
:1041800006D3242E06D3203E0A2E01D3242E01D39B
:10419000002670479E42FBD2043F3E600026F64355
:1041A0007047C046B04200000080066E756D6265C3
:1041B00072003FB5310040CF701E0126012204B4C9
:1041C000C04B1B680024002500293CD00130013978
:1041D00002782D2A04D101B00022D24304B4F3E7BF
:1041E000232A01D10A23EFE7242A01D11023EBE788
:1041F000252A01D10223E7E72E2A01D10226E3E78F
:104200002C2A36D0043F3E601600FFF7B3FF002E85
:1042100040CF2BD0043F3E602600043F3E602E007E
:10422000043F3E601E00043F3E6000260FB4FCF7D2
:1042300068FB0FBC350040CF340040CF0022A419EA
:10424000554140CFC0E704BC002A04D50022E44316
:10425000ED430134554133002600012B02D0043FC9
:104260003E602E00043F3E601E003FBD01B00026B0
:104270003FBD2500002402260029E4D0425C01391C
:104280002E2AF9D0043F3E601600FFF773FF002E80
:1042900040CFEBD0043F3C60043F3E601E000FB4B3
:1042A000FCF7E3FB0FBC340040CF40CFE4E7C0464F
:1042B000D44200000080062E6469676974000A2EEB
:1042C00001D230367047242E01D23736704723266C
:1042D0007047C0460C430000008004686F6C6400A7
:1042E000330040CF784801783F290DD20131017069
:1042F0004018012907D001380278013002700138D6
:1043000001390129F7D103707047C0462C430000E2
:10431000008005686F6C643C330040CF6A480178C8
:104320003F2902D2013101704354704744430000D9
:104330000080047369676E00002E01D440CF70477F
:104340002D26CDE758430000008002233E005E4842
:1043500006780130386070477043000000800366C3
:10436000235310B5202400F008F8013CFBD110BD08
:104370009443000000800266230000B5043F3E60C5
:10438000504E3668FCF78FFAFFF799FFFFF7C4FF2E
:1043900000BDC046B043000000800223530000B5BA
:1043A00000F00AF8002EFBD138680028F8D100BDD3
:1043B000DC4300000080012300B5043F3E60414E15
:1043C0003668043F3E600026FCF76FFBFCF7CAF836
:1043D00040CFFFF774FFFFF783FF00BDF0430000FD
:1043E0000080023C23003848002101707047C0461D
:1043F00004440000008002662E00043F3E60202638
:1044000005E0C04654440000008003662E6E00B5EF
:1044100010B4340040CFFCF77FFDFCF7C3F9043F34
:104420003E600026FFF7DFFFFFF7B9FF40CF2C26E5
:10443000FFF772FF002C03D0FFF79FFF013CFBD179
:1044400010BC40CFFFF778FF043F3E60043F3E6062
:104450001EE0C0466C44000000800375642E00B569
:10446000FFF7C1FFFFF79BFF12E0C046A04400002A
:10447000008002642E0000B5FCF74EFDFCF792F9B7
:10448000FFF7B1FFFFF78BFFFCF759FDFFF754FF74
:10449000FFF75DFFFEF7A2FAFEF7EEF900BDC0469A
:1044A000B4440000008002752E00043F3E600026E8
:1044B000D5E7C0467C4600000080012E043F3E60E8
:1044C000F617D8E7FC1F00208400002030B5D74C39
:1044D0002568002D01D13D00256030BD30B5D34C9D
:1044E0003D00256030BD30B5D04C0025256030BD85
:1044F000CE4B1B68DB1B9B08704700B5310040CFDB
:10450000CB48084002D000F0A1F800BDC9480840DF
:1045100001D1FDF741F8320040CFFFF7D7FFC64881
:10452000084003D0043F3E60160000BDFFF7E0FFE7
:104530008020084006D14020084009D00F200840C4
:10454000834205D3043F3E601600FEF782FD00BDA6
:10455000BA48084014D0FBF7C6FD043F3E60160081
:10456000043F3E600E0000F030F81000FEF7DDFC66
:10457000421CB3489047FFF7B1FFFBF7C3FD00BDF6
:10458000FBF7B1FD043F3E601600043F3E600E00A5
:1045900000F01BF8FBF73CFEFFF7A5FFA948084019
:1045A00001D1FBF7A4FF043F3E60160010220A4031
:1045B00002D0FEF74EFD00BD20220A4002D0FEF7D9
:1045C000A0FC00BDFEF79AFB00BD0FB5320040CF46
:1045D000330040CF9C480168062907D2062041439A
:1045E0009A48401803801B0C4380828096480168DB
:1045F000013101600FBD0FB59348016806291ED82F
:10460000924801391CD0043F3E600E00FEF779FE4F
:10461000043F3E600688FEF774FE043F3E60468815
:10462000FEF76FFE043F3E608688FEF76AFE0630A6
:104630000139EDD1043F3E607D4EFEF705FE0FBD12
:10464000043F3E604026FEF7FFFD0FBD00B5300081
:1046500040CFFEF76AFC01880230043F3E600688C6
:10466000428812041643043F3E60868803B4FFF775
:1046700044FF03BC06300139EFD100BDC446000041
:104680000080086576616C756174650000B5FEF7A1
:104690008CF801CF01B440B440CF6D48016802B43A
:1046A00000210160FEF774F800F014F8684802BCBD
:1046B0000160043F3E6040BC01BC043F3860FEF72F
:1046C00067F800BDC0470000008009696E7465721C
:1046D0007072657400B55F4887420BD9FEF71EF90A
:1046E00010537461636B20756E646572666C6F77CE
:1046F0000A0079E0584887420AD2FEF70FF90F53B3
:104700007461636B206F766572666C6F770A6BE01D
:10471000FFF7DCFEFFF7EAFC002E02D1043740CFA2
:1047200000BD3868043F3E60043F3860FFF7CCF8B6
:10473000310040CF320040CF002A15D13868310017
:10474000FCF72AFFFFF735FD320040CF002AC2D127
:10475000FEF748F9FEF7E2F80C206E6F7420666FE2
:10476000756E642E0A003FE03C4B1B68002B1CD189
:10477000FFF7B9FE30230B40302B0ED1FEF72EF998
:10478000FEF7CCF81220697320636F6D70696C6559
:104790002D6F6E6C792E0A0026E0043740CF043F5F
:1047A0003E601600FEF755FC95E7043740CF043F06
:1047B0003E601600043F3E600E00FFF79EFE8AE753
:1047C000DC470000818009686F6F6B2D717569741B
:1047D000043F3E60224E70471848000074480000B5
:1047E00000800471756974001E488546194FFDF7F5
:1047F000A1FB1D480A2101601848002101600B48F7
:104800000160FBF74AFD1248016018480160184931
:104810004160134800688746FDF7D6FFFFF75AFF4F
:10482000FEF77CF805206F6B2E0AF5E708000020E4
:104830000010000000040000002000000002000042
:1048400028000020000800005C000020600000201C
:10485000E41F00208C0200208C010020D81F0020C3
:10486000D41F00208C030020FC1F0020DC1F002030
:10487000C40000209048000000800565696E743F08
:10488000043F3E60EFF31086013EB6417047C046DC
:10489000A048000020800465696E740062B670470D
:1048A000B048000020800464696E740072B67047DE
:1048B000C84800002080046970737200043F3E60A5
:1048C000EFF305867047C046D44800000080036EB1
:1048D0006F70704718490000008009756E68616E3E
:1048E000646C656400B5FEF719F814556E68616E66
:1048F000646C656420496E74657272757074200012
:10490000043F3E60EFF30586FEF780F8FEF706F8F9
:1049100002210A0000BDC0462C490000008005723B
:1049200065736574874888490160C0465049000036
:1049300081800B6972712D7379737469636B043FA5
:104940003E60824E7047E448000080480068874619
:10495000744900008180096972712D6661756C74FB
:10496000043F3E607A4E7047E44800007848006893
:104970008746C0469C49000081800E6972712D6394
:104980006F6C6C656374696F6E00043F3E60714EBE
:104990007047E44800006F4800688746BC49000043
:1049A0008180076972712D727463043F3E606A4EA4
:1049B0007047E4480000684800688746E049000006
:1049C00081800B6972712D65787469305F31043FA5
:1049D0003E60624E7047E4480000604800688746C9
:1049E000044A000081800B6972712D657874693208
:1049F0005F33043F3E605A4E7047E4480000584819
:104A0000006887462C4A000081800C6972712D6510
:104A1000787469345F313500043F3E60514E704711
:104A2000E44800004F4800688746C046504A0000EE
:104A30008180096972712D746F756368043F3E60EF
:104A4000494E7047E4480000474800688746C04622
:104A5000744A00008180086972712D646D613100B3
:104A6000043F3E60414E7047E44800003F48006804
:104A70008746C046984A000081800A6972712D6499
:104A80006D61325F3300043F3E60394E7047E44849
:104A90000000374800688746BC4A000081800A69E8
:104AA00072712D646D61345F3700043F3E60314E9A
:104AB0007047E44800002F4800688746DC4A000041
:104AC0008180076972712D616463043F3E602A4EE4
:104AD0007047E4480000284800688746004B000003
:104AE00081800A6972712D6C7074696D3100043FA8
:104AF0003E60224E7047E448000020480068874628
:104B0000244B00008180086972712D74696D320038
:104B1000043F3E601A4E7047E448000018480068A1
:104B20008746C046884B00008180076972712D64FA
:104B30006163043F3E60134E7047E4480000114833
:104B4000006887460CED00E00400FA05D01F002045
:104B5000CC1F0020C81F0020C41F0020C01F002041
:104B6000BC1F0020B81F0020B41F0020B01F002071
:104B7000AC1F0020A81F0020A41F0020A01F0020A1
:104B80009C1F0020981F0020AC4B00008180096909
:104B900072712D74696D3231043F3E60954E7047DD
:104BA000E4480000934800688746C046D04B0000A8
:104BB0008180096972712D74696D3232043F3E60E3
:104BC0008D4E7047E44800008B4800688746C04619
:104BD000F44B00008180086972712D6932633100E5
:104BE000043F3E60854E7047E448000083480068FB
:104BF0008746C046184C00008180086972712D6993
:104C000032633200043F3E607D4E7047E44800004E
:104C10007B4800688746C0463C4C0000818008699C
:104C200072712D7370693100043F3E60754E70479C
:104C3000E4480000734800688746C046604C0000A6
:104C40008180086972712D7370693200043F3E6083
:104C50006D4E7047E44800006B4800688746C046C8
:104C6000844C000081800A6972712D7573617274C1
:104C70003100043F3E60654E7047E44800006348E1
:104C800000688746A84C000081800A6972712D7502
:104C9000736172743200043F3E605D4E7047E448B9
:104CA00000005B4800688746C84C000081800769A7
:104CB00072712D726E67043F3E60564E7047E44835
:104CC0000000544800688746E84C0000818007696E
:104CD00072712D6C6364043F3E604F4E7047E44830
:104CE00000004D4800688746084D00008180076934
:104CF00072712D757362043F3E60484E7047E44800
:104D00000000464800688746005000000000182D4B
:104D10002D2D20466C6173682044696374696F6E41
:104D2000617279202D2D2D003D4885463D4F2A2664
:104D30003D483E4901603E483E490160043F3E60B7
:104D40003C4E3D4DB1883D4B994224D03C4B0B40ED
:104D50000AD0B01DFEF7A8FDFEF7E7F803884088EB
:104D600000040343ED1A16E080230B4013D00F23F9
:104D7000194089006D1AB01DFEF796FDFEF7D5F8B3
:104D8000043F3E600600043F3E602E00043F3E604C
:104D90000E00FCF7CFFCFEF764FD300040CFD1D011
:104DA0002848066040CF2848056028482849234AFB
:104DB000884204D0023803889342F9D00230254952
:104DC0000860FDF7B7F8244800210160FBF765FA99
:104DD000043F3E60214E043F3E600426FEF774FD12
:104DE00040CF002E02D0FEF734F912E540CFFBE4AD
:104DF000696E6974941F0020901F00208C1F002092
:104E0000881F0020841F0020801F00207C1F00209E
:104E1000781F0020741F0020701F00206C1F0020CE
:104E20008C0300208C020020000000204C04002095
:104E300004000020C000000000200020000000004E
:104E4000000100001C0000202400002000000100E0
:104E5000005000001800002008000020F04D000065
:105000006450000000800B636F726E657273746F82
:105010006E6500B5FDF705FFFEF7E8FC7F231E4037
:10502000002E40CF07D0043F3E60FF263602FF36F9
:10503000FEF767F9F0E72D200002DB308047043FE0
:105040003E607646013EFDF702FC33007F221340AE
:10505000002B01D0B61CF8E7FDF7F9FBFCF74DFF7C
:1050600000BDFFFF0051000000800A65726173659A
:10507000666C6173680000B5002000020030000219
:10508000503000023F308047FFFFFFFFFFFFFFFF70
:10509000FFFFFFFFFFFFFFFFFFFFFFFFFFFFFFFF20
:1050A000FFFFFFFFFFFFFFFFFFFFFFFFFFFFFFFF10
:1050B000FFFFFFFFFFFFFFFFFFFFFFFFFFFFFFFF00
:1050C000FFFFFFFFFFFFFFFFFFFFFFFFFFFFFFFFF0
:1050D000FFFFFFFFFFFFFFFFFFFFFFFFFFFFFFFFE0
:1050E000FFFFFFFFFFFFFFFFFFFFFFFFFFFFFFFFD0
:1050F000FFFFFFFFFFFFFFFFFFFFFFFFFFFFFFFFC0
:105100002C51000081800D636C6F736573742D6684
:105110006F756E64043F3E6080267604FB36760130
:105120000836704700000000FFFFFFFFF451000049
:1051300000800C7472616365696E736964652E002A
:1051400001239E43043F3E6000B5FEF75FFC08CF9D
:10515000B34240CF01D340CF00BD80204004F8309F
:1051600040010023836640B440CFFEF762FB009B02
:105170009E420FD2009B9B1B009A80204004F83077
:105180004001816E521A934204DA80204004F830C4
:1051900040018666FEF765FB002E40CFE7D08020F9
:1051A0004004F8304001866E002E01D0043F3E607E
:1051B000002E40CF1BD0043F3E60FDF7AFFB02281E
:1051C00020000636FEF769FB043F3E60FDF71EFC3B
:1051D000FDF7A4FB022B2000009B9E1BFDF716FC95
:1051E000FDF79CFB022920000636FDF7E3FB01B02A
:1051F00000BDFFFF4852000000800263740000B54C
:10520000FDF725FBFBF7E1FE30B40024350040CF6D
:105210002300043F3E601E46FDF7F8FB23009B1C65
:10522000043F3E601E46B6006E443668043F3E6052
:10523000FDF7ECFBFFF784FFFDF709FB0134AC42FF
:10524000E6D130BC00BDFFFF88520000008006633D
:10525000742D6972710000B5FDF7F9FAFDF7F7FAE0
:10526000FFF740FBFDF7F3FAFDF7EDFBFDF7EFFA73
:10527000FDF754FB0A43616C6C74726163653A001C
:10528000FFF7BDFFFEE700BDB45200000080096ECD
:10529000657874746F6B656E00B5FEF727FF731E3B
:1052A00006D2043740CFFDF7D2FAFDF78DFAF4E7C6
:1052B00000BDFFFFA05300005080065B656C736566
:1052C0005D00043F3E60012600B5FFF7E5FF08CF13
:1052D000043F3B60043F3E60043F3B60FDF749FBF9
:1052E000045B69665D00FDF78CFA40B448CF043F6B
:1052F0003E60043F3B60043F3E601E46FDF739FBC5
:10530000075B69666465665DFDF77BFA08BC1E4352
:1053100040B448CF043F3E60043F3B60043F3E60E2
:105320001E46FDF726FB085B69666E6465665D00D8
:10533000FDF767FA08BC1E43002E40CF03D00437A8
:1053400040CF761C24E008CF043F3B60043F3E6022
:10535000043F3B60FDF70DFB065B656C73655D000C
:10536000FDF74FFA002E40CF06D0043740CF761E0F
:10537000002E00D0761C0BE0FDF7FBFA065B74688C
:10538000656E5D00FDF73DFA002E40CF00D0761E21
:10539000002E01D0043F3E60761E40CF95D200BD66
:1053A000B45300005080065B7468656E5D0000B504
:1053B00000BDFFFFE45300005180045B69665D009F
:1053C000761E00B540CF0BD2043F3E60A526F60105
:1053D0004236043F3E60802636025036FFF78DF895
:1053E00000BDFFFF205400005080075B69666465C4
:1053F000665D00B5FEF77AFEFEF766FA40CF761ED0
:1054000040CF0BD2043F3E60A526F6014236043F52
:105410003E60802636025036FFF76FF800BDFFFF72
:105420005C5400005080085B69666E6465665D00D0
:1054300000B5FEF75BFEFEF747FA40CF761E40CF81
:105440000BD3043F3E60A526F6014236043F3E6082
:10545000802636025036FFF750F800BDC8540000D1
:105460000080022E760000B5FDF758FA07537461EC
:10547000636B2023FBF79CFDFFF720F8FDF74EFA46
:10548000023C2000043F3E600026F643FBF790FDFF
:10549000764208CF30B434001D0040CFAC420CD06F
:1054A000043F3E603E0023009B1C9B00F61A3668BA
:1054B000FFF704F80134AC42F2D130BCFDF72EFA0C
:1054C000013EFDF7C4F900BDF854000000800375EB
:1054D0002E34043F3E60002600B5FEF784FFFEF741
:1054E0006BFFFEF769FFFEF767FFFEF765FFFEF74C
:1054F0002EFFFDF773FA00BD2055000000800375F4
:105500002E32043F3E60002600B5FEF76CFFFEF72A
:1055100053FFFEF751FFFEF71AFFFDF75FFA00BDDC
:105520005C550000008003682E3480204004FC306D
:105530004001C36F043F3E601E4600B5FCF72FFFDD
:1055400008CF043F3E601E46FFF7C3FF80204004A3
:10555000FC304001C66740CF00BDFFFF98550000FA
:10556000008003682E3280204004FC304001C36F6D
:10557000043F3E601E4600B5FCF711FF08CF043F14
:105580003E601E46FFF7BDFF80204004FC30400116
:10559000C66740CF00BDFFFFC0550000818009688D
:1055A00065782E656D707479043F3E6080267604C0
:1055B000FB36760104367047FF000000FFFFFFFF57
:1055C000B856000000800768657864756D7000B596
:1055D000FDF73DF9043F3E6030B40024FF252D0265
:1055E000FF3540CF230010332200043F3E600026E9
:1055F000043F3E6030B414001D0040CF23001B78F0
:1056000080204004F8304001426E934202D00023D3
:10561000DB4300E000231E430134AC42EED130BC3A
:10562000002E40CF30D0FDF779F9033A3130230016
:10563000043F3E601E46FFF778FFFDF76FF902302A
:105640003000230010332200120A9B18220010326F
:105650002100043F3E60043F3B6030B40C00150065
:1056600040CF23001B78043F3E601E46FFF77BFFC0
:1056700023001B78F6180134AC42F2D130BC7642DC
:10568000FFF771FFFDF7E3F8043F3E60102680202E
:1056900000060019A419401B801940CFA2D730BCC6
:1056A000FDF73CF90B3A303030303030303146467F
:1056B000FDF7CDF800BDFFFF8457000000800664B1
:1056C000756D703136000F239E43043F3E6000B578
:1056D000FDF79CF9043F3E600226FDF7D8F8330041
:1056E0001033043F3E6030B434001D0040CF23002F
:1056F0001B78043F3E601E46FFF735FFFDF7BCF800
:1057000023000F221340072B04D1043F3E600226E2
:10571000FDF7BDF80134AC42E9D130BC043F3E6036
:105720000226FDF7B4F83300103330B434001D0006
:1057300040CF23001B78202B9B41DB4322001278B3
:10574000043F3E607F2AB6411E40002E40CF05D068
:1057500023001B78043F3E601E4602E0043F3E608B
:105760002E26FCF7E1FE23000F221340072B01D168
:10577000FDF782F80134AC42DBD130BCFDF767F8AD
:1057800000BDFFFFD057000000800464756D7000FD
:1057900000B5FDF75CF808CF1A000F210A40043F5E
:1057A0003B60002A00D0103608CF043F3E60043F23
:1057B0003B601E46FFF787FF103608CF103B043FC3
:1057C0003E60002B1E46EFDC043740CF00BDFFFFDC
:1057D000EC5700004080094750494F2D4241534546
:1057E000043F3E60A026F6057047FFFF0858000002
:1057F00040800A4750494F2E4D4F44455200043FC8
:105800003E6000267047FFFF2458000040800B4791
:1058100050494F2E4F5459504552043F3E60042684
:105820007047FFFF4058000040800C4750494F2E02
:105830004F53504545445200043F3E600826704790
:105840005C58000040800A4750494F2E5055504444
:105850005200043F3E600C267047FFFF7458000062
:105860004080084750494F2E49445200043F3E6053
:10587000102670478C5800004080084750494F2E32
:105880004F445200043F3E6014267047A458000065
:105890004080094750494F2E42535252043F3E60C8
:1058A00018267047BC5800004080094750494F2EC9
:1058B0004146524C043F3E6020267047D4580000B9
:1058C0004080094750494F2E41465248043F3E60B0
:1058D00024267047FC580000619803626974012314
:1058E000B3401E46704703000100000000A0980E60
:1058F000000062822E1200006282FFFF2859000021
:10590000008004626974210000B5002E40CF05D0EC
:1059100008CF32681A43326040CF04E008CF3268C3
:105920009A43326040CF00BD54590000629802692A
:105930006F0008CF1B021E4370470400980E000042
:1059400062820800000000A02E1200006282421154
:105950000000628274590000619803696F231F235D
:105960001E40704702001F00000000A00E11000042
:105970006282FFFFB0590000619807696F2D6D6169
:10598000736B1F231E400123B3401E467047050062
:105990001F00000000A00E11000062820100000044
:1059A00000A0980E000062822E1200006282FFFFAB
:1059B000D0590000619807696F2D706F7274360AB4
:1059C000704702000800000000A00612000062827A
:1059D000F0590000618807696F2D62617365F023DB
:1059E0001B011E40B600A023DB05F6187047FFFF21
:1059F000205A0000008003696F40043F3E60F0239E
:105A00001B011E40B600A023DB05F61810363668D1
:105A100008CF1F221340DE4001231E40764270470C
:105A2000545A0000008004696F73210033001F2264
:105A3000134001229A40043F3A60F0231B011E40AC
:105A4000B600A023DB05F618183608CF336040CF28
:105A50007047FFFF6C5A0000008004696F632100EB
:105A6000103600B5FFF7E2FF00BDFFFF8C5A0000C3
:105A7000008003696F2108CF5B1E9B4110221340F9
:105A8000F61800B5FFF7D2FF00BDFFFFB45A0000C3
:105A9000008004696F782100043F3E6000B5FFF785
:105AA000ACFF761EB64108CF043F3E601E46FFF7AE
:105AB000E2FF00BDD05A000040800B494D4F4445E5
:105AC0002D464C4F4154043F3E6000267047FFFF77
:105AD000EC5A000040800A494D4F44452D48494743
:105AE0004800043F3E6010267047FFFF045B000043
:105AF000408009494D4F44452D4C4F57043F3E606F
:105B0000202670471C5B0000408009494D4F4445EA
:105B10002D414443043F3E600C267047385B000033
:105B200040800B4F4D4F44452D41462D5050043F72
:105B30003E600A267047FFFF545B000040800B4F19
:105B40004D4F44452D41462D4F44043F3E604A266B
:105B50007047FFFF6C5B00004080084F4D4F44458D
:105B60002D505000043F3E6006267047845B0000C5
:105B70004080084F4D4F44452D4F4400043F3E6048
:105B800046267047A05B000040800A4F4D4F4445B9
:105B90002D5745414B00043F3E600126F6437047B8
:105BA000BC5B000040800A4F4D4F44452D534C4F85
:105BB0005700043F3E600026F6437047D85B000064
:105BC00040800A4F4D4F44452D4641535400043FF9
:105BD0003E6001267047FFFF305C000000800969CD
:105BE0006F2D636F6E66696708CF043F3B60043FAB
:105BF0003E601E46F0231B011E40B600A023DB05BD
:105C0000F61808CF9E1900B540B440CF1F231E40A0
:105C100076000323B340009A12689A4308CF032109
:105C20000B40B3401A4340BC326040CF00BDFFFF81
:105C3000C45C0000008008696F2D6D6F64652100F1
:105C400008CF043F3B60043F3E60043F3B60043F9D
:105C50003E60082600B5FFF7C7FF08CF9A08043F4B
:105C60003B60043F3E60043F3A60043F3E600026D4
:105C7000FFF7BAFF08CF1A09043F3B60043F3E60BC
:105C8000043F3A60043F3E600C26FFF7ADFF33004F
