:10000000300300206B3B00007F3500007F3500008F
:100010007F3500007F3500007F35000000000000C4
:10002000000000000000000000000000AF350000EC
:10003000AF35000000000000AF350000553500006E
:10004000AF350000AF350000AF350000D7350000F8
:10005000AF350000AF350000013600002B36000040
:10006000553600007F360000A9360000AF3500008D
:10007000AF350000AF350000AF350000AF350000F0
:10008000AF350000AF350000D1360000AF350000BD
:10009000AF350000AF350000AF350000FB36000083
:1000A00027370000533700007F370000AB370000D0
:1000B000D5370000FF370000293800005538000010
:1000C00081380000AD380000D93800000139000047
:1000D00029390000533900007D390000A73900009C
:1000E000D1390000FD390000273A0000000000006F
:1000F0000000000000000000000000000000000000
:1001000000000000000000004F3A0000773A0000B5
:100110009F3A0000C73A0000EF3A0000173B00008A
:10012000AF350000AF350000AF350000AF3500003F
:10013000AF350000AF350000AF350000AF3500002F
:10014000AF350000AF350000AF3500003F3B000089
:1001500076010000FFFF1E2D2D2D204D6563726975
:1001600073702D5374656C6C6172697320436F7288
:1001700065202D2D2D008E01000042000432647593
:100180007000386847F8046D043F38607047A0017C
:1001900000006200053264726F70043740CF704710
:1001A000BE010000440005327377617007CF043F41
:1001B000386047F8046D043F3A600E007047D20182
:1001C0000000620004326E69700007CF043F38609F
:1001D0007047EC010000440005326F766572B86824
:1001E00047F8046D043F3860FE6870471002000055
:1001F000440005327475636B07CF043F386047F8DD
:10020000046D043F3A60043F3960043F3860704732
:100210003202000046000432726F74003868B96818
:100220003A69B86039613A6079687E60FE68F96061
:10023000704754020000460005322D726F74386812
:10024000B9683A6938613960BA60F968FE607E68F9
:100250007960704768020000200003323E7201CFCF
:1002600001B440B440CF7047800200002000033248
:10027000723E47F8046D40BC01BC043F38607047D3
:100280009802000020000332724047F8046D019E7E
:1002900047F8046D009E7047AA0200002000063255
:1002A0007264726F700002B07047C20200004200B8
:1002B0000364322F3868F10776104008084338602D
:1002C0007047D602000062000364322A38680018C2
:1002D000764138607047F0020000420004647368A1
:1002E00072003868F10776084008084338607047A4
:1002F000060300006200046473686C00386800182C
:10030000764138607047180300004200046461625F
:100310007300002E07D470473603000042000764C4
:100320006E656761746538680021C043F64301302B
:100330004E41386070474E030000640002642D0097
:1003400007CF121AB1410E00043F3A6070476403B0
:100350000000640002642B0007CF12184E41043FD6
:100360003A60704776030000610003733E6447F80B
:10037000046DF61770478A030000620003756D2A4A
:100380003868A0FB0606386070479E0300006200D4
:10039000026D2A00386880FB060638607047DC036F
:1003A000000044000375642A07CF56434143761882
:1003B000010C130C59437618010C80B292B25143D0
:1003C000434350430022C91852411204B6180A048C
:1003D000090C80184E41043F386070476E040000DD
:1003E00044000475646D2A0010B5002447F8046DBC
:1003F0007E6847F8046D3E69FFF7C2FF310040CFC9
:10040000300040CF47F8046D3E6847F8046DFE6841
:1004100003B4FFF7B5FF03BC330040CF320040CF39
:1004200047F8046D3E6847F8046D3E690FB4FFF766
:10043000A7FF0FBC9219634140CF89196241634104
:1004400040CF47F8046D7E6847F8046DFE680FB42E
:10045000FFF796FF0FBC9219634140CF89196241A3
:10046000634140CF1E003A607960B86010BD9004CF
:1004700000004300022A2F0000B540B440CFFFF730
:1004800089FF47F8046D40BC00F04CF8043700BD0C
:10049000B20400004300052A2F6D6F6400B540B41C
:1004A00040CFFFF777FF47F8046D40BC00F03AF803
:1004B00000BDD4040000430003752A2F00B540B4EA
:1004C00040CFFFF75DFF47F8046D40BC00F01BF81C
:1004D000043700BDF8040000430006752A2F6D6F35
:1004E000640000B540B440CFFFF74AFF47F8046D01
:1004F00040BC00F008F800BD180500004300067578
:100500006D2F6D6F640000B547F8046D002600F094
:1005100019F840CF043700BD360500004300056DD3
:100520002F6D6F6400B547F8046DF61700F032F8D0
:1005300040CF043700BD8805000044000675642FD5
:100540006D6F640030B4002300227968B86835000C
:100550003C6840264000494152415B41AB4202D8D1
:1005600004D3A24202D3121BAB410130013EF1D1B0
:100570000E0038607B60BA6030BC704730B4002336
:100580007A68B9680020E2E7FE05000044000564CF
:100590002F6D6F6400B5F01719D0FFF7C4FEFFF799
:1005A00005FEF0170CD0FFF7BEFEFFF7FFFDFFF7CB
:1005B000C9FFFFF7FBFDFFF7B6FEFFF7F7FD00BD34
:1005C000FFF7F4FDFFF7BEFFFFF7ADFE00BDFFF73D
:1005D000EDFDF0170ED0FFF7A6FEFFF7E7FDFFF7E2
:1005E000B1FFFFF7A0FEFFF7E1FDFFF79CFEFFF76D
:1005F000DDFD00BDFFF7DAFDFFF7A4FF00BD140627
:100600000000440002642F0000B5FFF7C3FFFFF7AE
:10061000DCFD00BD5C060000440002662A0000B557
:10062000F0170DD0FFF77FFEFFF7C0FDF0170DD0DC
:10063000FFF779FEFFF7D8FE40CF01CF386000BD4D
:10064000FFF7B4FDF017F5D0FFF76DFEFFF7CCFE16
:1006500040CF01CF3860FFF766FE00BDA80600005E
:10066000440002662F0000B5F0170ED0FFF75BFEC6
:10067000FFF79CFDF0170ED0FFF755FEFFF796FD34
:10068000FFF77CFFFFF7A1FD00BDFFF78FFDF0171F
:10069000F4D0FFF748FEFFF789FDFFF76FFFFFF784
:1006A00042FEFFF792FD00BDBC06000020000232B2
:1006B000210006CF3160726040CF7047D006000045
:1006C000200002324000043F70683860366870478E
:1006D000F006000044000364753C07CF8E4204D846
:1006E00001D1904201D8002670470026F64370479A
:1006F0001007000044000364753E07CFB14204D8E0
:1007000001D1824201D8002670470026F643704787
:1007100030070000440002643C0007CF8E4204DC36
:1007200001D1904201DC002670470026F643704755
:1007300050070000440002643E0007CFB14204DCD1
:1007400001D1824201DC002670470026F643704743
:100750006007000062000364303C0437F6177047FE
:100760007407000062000364303D01CF0643013E80
:10077000B64170478E070000440003643C3E07CF3B
:1007800050404E400643013EB641F6437047A6072F
:100790000000440002643D0007CF50404E40064335
:1007A000013EB6417047B807000020000373704057
:1007B00047F8046D3E007047C8070000200003732F
:1007C0007021370040CF7047DA0700002000037225
:1007D000704047F8046D6E467047EA07000020003D
:1007E00003727021B54640CF7047FA0700006100E0
:1007F0000364757047F8046D70470A0800006100D3
:100800000464726F700040CF7047200800006100E0
:10081000043F64757000002E01D047F8046D7047E6
:1008200034080000620004737761700039683E602C
:100830000E007047420800006200036E69700437C2
:100840007047560800006200046F7665720047F832
:10085000046D7E6870476C08000062000474756364
:100860006B0001CF083F7E6038607047820800004F
:10087000630003726F7403CF083F78603E600E0020
:1008800070479A0800006300042D726F740003CF54
:10089000083F7E60396006007047AC080000200009
:1008A000047069636B0057F826607047C408000045
:1008B0000000056465707468BC49C91B47F8046D85
:1008C0008E087047E00800000000067264657074CE
:1008D000680047F8046D6E46B549891B8E0870475D
:1008E000F00800002000023E720040B440CF704784
:1008F00002090000200002723E0047F8046D40BC6F
:1009000070471409000020000272400047F8046D8F
:10091000009E7047240900002000057264726F7009
:1009200001B0704738090000200005727069636BE0
:10093000B6006E44366870474E0900006E000361D1
:100940006E6401CF064070470640000616F0660947
:1009500000006E000362696301CFB0430600704778
:100960008643000636F07C0900006E00026F7200BC
:1009700001CF064370470643000656F09209000077
:100980006E0003786F7201CF464070474640000604
:1009900096F0A00900006100036E6F74F643704783
:1009A000B0090000610003636C7AB6FA86F67047FE
:1009B000BE09000061000373687276087047CC09B5
:1009C000000061000373686C76007047DC0900006A
:1009D000610003726F725FEA76067047EE090000ED
:1009E000610003726F6CB61956F100067047080A71
:1009F00000006C00067273686966740001CFF040F5
:100A00000600704736080026220A00006C000761C5
:100A100072736869667401CF304106007047361002
:100A2000F6173C0A00006C00066C73686966740077
:100A300001CFB04006007047360000264C0A000087
:100A4000610002303D00013EB64170475E0A000081
:100A5000610003303C3E013EB641F64370476C0AEC
:100A60000000610002303C00F6177047820A000067
:100A7000600004747275650047F8046D0026F64343
:100A80007047960A000060000566616C736547F860
:100A9000046D00267047AA0A00004200023E3D0095
:100AA00001CFB042EADA00267047BE0A00004200D9
:100AB000023C3D0001CFB042E0DD00267047D00A85
:100AC00000004200013C01CFB042D7DB0026704756
:100AD000E20A00004200013E01CFB042CEDC002617
:100AE0007047F60A0000620003753E3D01CF861B89
:100AF000B641F64370470A0B0000620003753C3DA7
:100B000001CF361AB641F64370471C0B0000620055
:100B100002753C0001CF861BB64170472E0B0000CA
:100B2000620002753E0001CF361AB6417047440B91
:100B300000006B00023C3E0001CF361A013EB64178
:100B4000F6437047560B00006B00013D01CF361A8B
:100B5000013EB64170476A0B00006200036D696E8A
:100B600001CFB04200DC060070477E0B000062003F
:100B7000036D617801CFB04200DB06007047940B33
:100B80000000620004756D61780001CFB04200D3AF
:100B900006007047B40B0000620004756D696E00BA
:100BA00001CFB04200D8060070470000300200209C
:100BB00030030020F20B00000000046D6F7665002A
:100BC00007B5310040CF320040CF00290FD0B242EC
:100BD0000DD006D3013E013A705C50540139FBD16F
:100BE00005E030781070013601320139F9D140CF7B
:100BF00007BD140C000000000466696C6C00300036
:100C000040CF310040CF002902D001397054FCD1CF
:100C100040CF7047200C000020000140366870472C
:100C2000380C00006D00012103CF30600E007047CA
:100C300006607047016070475E0C00006D00022B7B
:100C4000210003CF3268121832600E00704702682C
:100C500092190260704702685218026070476C0C6B
:100C6000000020000268400036887047860C0000B3
:100C70006D000268210003CF30800E0070470680AF
:100C8000704701807047AC0C00006D0003682B2199
:100C900003CF3288121832800E00704702889219F2
:100CA000028070470288521802807047BA0C000018
:100CB00020000263400036787047D40C00006D00BD
:100CC0000263210003CF30700E007047067070473A
:100CD00001707047FA0C00006D0003632B2103CFF5
:100CE0003278121832700E00704702789219027032
:100CF00070470278521802707047220D00006D0094
:100D000004626973210003CF3268024332600E002F
:100D10007047026832430260704702680A4302600B
:100D200070474A0D00006D0004626963210003CF23
:100D30003268824332600E0070470268B24302603C
:100D4000704702688A4302607047720D00006D00B0
:100D500004786F72210003CF3268424032600E0087
:100D60007047026872400260704702684A40026041
:100D70007047DC0D0000680004626974400001CF18
:100D80003668064018BF4FF0FF3670474FF4D04228
:100D900000B5012B0AD147F8046D002600F086FE4D
:100DA00047F8046D160001F0A5F911E002CF013BF0
:100DB00002F00AFB47F8046D3626164301F09AF953
:100DC00047F8046D0E0047F8046D002600F06EFE33
:100DD00047F8046DB74E00F09DFF00BD040E000003
:100DE0006D0005686269732103CF32880243328047
:100DF0000E007047028832430280704702880A431F
:100E0000028070472C0E00006D0005686269632146
:100E100003CF3288824332800E0070470288B2438B
:100E20000280704702888A4302807047540E000097
:100E30006D000568786F722103CF3288424032809E
:100E40000E007047028872400280704702884A4054
:100E500002807047740E0000680005686269744083
:100E600001CF3688064018BF4FF0FF3670474FF469
:100E700008428DE79C0E00006D00056362697321D6
:100E800003CF3278024332700E007047027832434B
:100E90000270704702780A4302707047C40E000067
:100EA0006D0005636269632103CF3278824332703B
:100EB0000E0070470278B2430270704702788A438E
:100EC00002707047EC0E00006D000563786F7221B0
:100ED00003CF3278424032700E0070470278724081
:100EE0000270704702784A40027070470C0F000091
:100EF000680005636269744001CF3678064018BF08
:100F00004FF0FF3670474FF4F04241E71C0F0000EE
:100F100061000563656C6C2B043670472C0F000074
:100F200061000563656C6C73B6007047C60F000006
:100F300000000768666C61736821300040CF3100A3
:100F400040CF4FF48043984223D34FF480339842EC
:100F50001FD24FF6FF731940994219D010F00102C9
:100F6000002A16D102889A4213D110F10060524A29
:100F7000524B1360524B1360524A0123136001809D
:100F8000514A136813F00103FBD14E4A80231360CA
:100F9000704700F092FB2A57726F6E67206164649D
:100FA00072657373206F72206461746120666F7262
:100FB0002077726974696E6720666C61736820219E
:100FC0000A0002F028BA1610000000000E666C61DC
:100FD0007368706167656572617365000FB5300095
:100FE00040CF4FF48043984214D3334A334B1360BD
:100FF000334B1360334A02231360344A1060314A82
:1010000042231360304A136813F00103FBD12D4AC9
:10101000802313600FBD9810000000000A65726104
:101020007365666C617368004FF4804072B64FF46C
:1010300080314FF6FF72038893421CD047F8046D4D
:10104000060047F8046D00F038FB104572617365C7
:1010500020626C6F636B20617420200000F0A0FBA5
:1010600000F02BFB0C2066726F6D20466C6173687C
:101070000A00FFF7B3FF02308842DCD100F01DFB0D
:101080001246696E69736865642E205265736574D3
:1010900020210A0002F049BAD010000000000E65BD
:1010A00072617365666C61736866726F6D003000A3
:1010B00040CFBBE7820D00000420024023016745BA
:1010C000AB89EFCD102002400C20024014200240DA
:1010D000E61000006900012B01CF36187047361862
:1010E0000036000616F1FC1000006900012D01CF4A
:1010F000861B7047361A003E0006B6F10A11000042
:10110000610002312D00013E70471811000061009E
:1011100002312B00013670472611000061000232B7
:101120002D00023E704734110000610002322B0096
:1011300002367047461100006100066E65676174F3
:1011400065007642704758110000610003616273C8
:10115000F0173618464070477611000042000575BA
:101160002F6D6F6401CF3100B0FBF6F67143401A6A
:10117000043F38607047941100004200042F6D6FE7
:10118000640001CF310090FBF6F67143401A043F32
:1011900038607047A81100004200036D6F6400B50D
:1011A000FFF7EFFF40CF00BDB81100006200012F34
:1011B00001CF90FBF6F67047C81100006A00012AC3
:1011C00001CF464370474643D6110000610002320A
:1011D0002A0076007047E4110000610002322F00FF
:1011E00076107047F81100006100046576656E00A6
:1011F0000120304036187047101200008100046250
:101200006173650047F8046D804E70470A00000066
:101210002612000000000662696E617279007B4848
:101220000221016070473C12000000000764656302
:10123000696D616C75480A21016070474E120000AB
:1012400000000368657871481021016070476A12D8
:101250000000810009686F6F6B2D656D697447F838
:10126000046D6B4E7047541300008612000081001D
:1012700008686F6F6B2D6B65790047F8046D654EDC
:1012800070477A130000A412000081000A686F6F93
:101290006B2D656D69743F0047F8046D5E4E7047B5
:1012A000A4130000C0120000810009686F6F6B2D4D
:1012B0006B65793F47F8046D584E7047D0130000B6
:1012C000DE12000081000A686F6F6B2D706175730C
:1012D000650047F8046D524E7047DA340000F4128E
:1012E0000000000004656D6974000FB5484800F007
:1012F00026F80FBD081300000000036B65790FB5D9
:10130000444800F01CF80FBD1A13000000000565EA
:101310006D69743F4048006887462C130000000048
:10132000046B65793F003D48006887464213000022
:10133000000005706175736539480068874600686C
:1013400087466813000000000B73657269616C2D9D
:10135000656D697400B500F025F8002E40CFFAD015
:10136000304A167040CF00BD9013000000000A7391
:10137000657269616C2D6B65790000B500F028F825
:10138000002E40CFFAD047F8046D264A167800BDEB
:10139000BE13000000000C73657269616C2D656DF1
:1013A00069743F0000B5FFF7C7FF47F8046D0026DA
:1013B0001D4801688020014000D0F64300BD3C1468
:1013C000000000000B73657269616C2D6B65793FDD
:1013D00000B5FFF7B1FF47F8046D00261248016819
:1013E0002020014000D0F64300BD104944F23D00EA
:1013F00008600F494FF4966008600E494620086067
:101400000D4942F20C00086070470000FC4F0020BC
:10141000F84F0020F44F0020F04F0020EC4F002048
:10142000E84F002004380140003801401810024005
:1014300004080140083801400C38014060140000E5
:101440000000076365787065637400B5386801B49F
:101450000130386000F00BF801BC067040CF00BDD1
:10146000D61400000000066163636570740000B567
:1014700002CF01390022FFF742FF300040CF7F2822
:1014800009D0202819D2092816D00A281FD00D28E3
:101490001DD00828EFD1002AEDD000F00EF9030886
:1014A0002008002AE7D0885C013A80230340E2D07C
:1014B00040230340F5D0DEE72020B242DBD247F8DC
:1014C000046D0600FFF711FF01328854D3E71600C0
:1014D00000F0A2F800BDE814000040000374696247
:1014E00047F8046D294E7047FE1400008100033E4A
:1014F000696E47F8046D264E704700000000241501
:10150000000082000E63757272656E742D736F75C4
:101510007263650047F8046D1E4E704700000000BE
:101520006800002040150000000009736574736FA7
:1015300075726365174802CF0660416040CF7047FF
:101540005E150000000006736F757263650047F852
:10155000046D104E043F7068386036687047981507
:10156000000000000571756572790FB5084800210B
:101570000160FFF7B5FF47F8046D47F8046DC82612
:10158000FFF775FFFFF7D6FF0FBD000068000020D2
:10159000E44F0020DC4F0020E61500000000076348
:1015A0006F6D706172650FB5310040CF01CF884219
:1015B00002D040CF00260FBD02CF002810D0013846
:1015C0000A5C335C412A02D35B2A38BF2032412BAC
:1015D00002D35B2B38BF20339A42EED000260FBDDA
:1015E0000026F6430FBDFA150000000002637200EA
:1015F00000B500F062F8010A00BD0C160000000002
:1016000002626C0047F8046D202670472016000027
:10161000000005737061636547F8046D202664E679
:10162000401600000000067370616365730000B52A
:10163000002E03DDFFF7F0FF013EFBD140CF00BDE0
:10164000501600005000065B636861725D0005E0A3
:1016500068160000000004636861720000B501F0C4
:1016600054FB40CF367800BD7816000050000128AA
:1016700047F8046D292606E0921600005000015C30
:1016800047F8046D002600B501F049FB043740CF50
:1016900000BDD61600001000022E22009B4800B5A7
:1016A00047F8046D060000F05EFA47F8046D222644
:1016B00001F035FB00F058FD00BD0AB447F8046D99
:1016C0007646013E33780121013319405B181EEB49
:1016D000030E0ABC39E0FC16000010000263220071
:1016E0008B48DCE747F8046D7646013E33780121EC
:1016F000013319405B181EEB030E704726170000DC
:101700001000027322008348C9E747F8046D76464B
:1017100047F8046D013E36780121731C19405B18AF
:101720001EEB030E70473E170000000005636F7547
:101730006E74013647F8046D013E367870476617BF
:101740000000000005637479706501B530780028E9
:1017500007D0013647F8046D3678FFF7C6FD01382B
:10176000F7D140CF01BD94170000000004747970D8
:101770006500310040CF300040CF00B5002908D0CF
:10178000002247F8046D865CFFF7AFFD01329142FD
:10179000F7D100BDCE1700000000046865782E0068
:1017A00007B5310040CF20200F22043847F8046DE0
:1017B0000E00C6401640092E01D9373600E03036FB
:1017C000FFF793FD0028F0D1FFF726FF07BDDE17D6
:1017D0000000000003682E731FB54F4C0EE0EE179B
:1017E0000000000003752E731FB54C4C06E06C180A
:1017F00000000000022E73001FB5494C4949C91B67
:101800008908494A106803B40A201060FFF755FFA1
:1018100008537461636B3A205B0047F8046D0E0057
:1018200001F055FCFFF749FF025D200003BC3E4A72
:10183000106000290AD03D4A106806B447F8046DCC
:101840000600A04706BC043A0139F5D1FFF735FF81
:101850000620544F533A200047F8046D3600A04745
:10186000FFF72BFF04202A3E0A001FBD301900009D
:10187000000005776F72647300B5FFF71EFF010A61
:1018800000F0B7FEFFF719FF0941646472657373D6
:101890003A2047F8046DFFF783FFFFF70EFF064C71
:1018A000696E6B3A200047F8046D3668FFF778FFE1
:1018B000FFF703FF07466C6167733A2047F8046D32
:1018C000B688FFF76DFFFFF7F8FE06436F64653AD1
:1018D0002000B01D00F0C9FE47F8046D0600FFF7B8
:1018E0005FFFFFF7EAFE064E616D653A200047F89C
:1018F000046D0636FFF729FFFFF7DFFE010A00F04F
:1019000091FE300040CFBDD040CF00BDBA160000E0
:10191000E41600000A170000A1170000BF30000005
:10192000CF30000030020020FC4F00202C020020AD
:10193000941A000000000D3132626974656E636FA5
:1019400064696E670FB5FF2E04D847F8046D5FF029
:10195000FF360FBD16F0FF10B0420ED14FF6FF71EB
:101960000840310C814208D116F0FF0656F480562B
:1019700047F8046D5FF0FF360FBD16F0FF20B04250
:101980000FD14FF6FF710840310C814209D1360A60
:1019900016F0FF0656F4005647F8046D5FF0FF3668
:1019A0000FBDFF2231001140300A1040884210D193
:1019B000300C104088420CD1300E1040884208D1C3
:1019C00016F0FF0656F4405647F8046D5FF0FF36F8
:1019D0000FBD300000210131001850F100007FF0F0
:1019E0007F020240802A05D01F29F4D347F8046DF6
:1019F00000260FBD0829F9D3060036F0800611F045
:101A00000100C001064311F00E00C002064311F0B0
:101A100010008005064347F8046D5FF0FF360FBDE8
:101A200047F8046DDFF848665FF4704110EA010280
:101A3000120116435FF4006110EA0102D20316435B
:101A40005FF4E06110EA010212011643FF2110EA7F
:101A5000010216431E4377E347F8046DDFF814666E
:101A60005FF0704110EA0102120B16435FF0006153
:101A700010EA0102520816435FF0E06110EA010229
:101A8000120B16435FF47F0110EA0102120C164399
:101A90001E4359E3FA1A000000001072656769736B
:101AA0007465726C69746572616C2C000FB53300DB
:101AB00040CF1B02FF2E05D856F400561E4300F0FF
:101AC00019FB0FBDFFF73EFF002E40CF06D0DFF819
:101AD000A80506431E4300F037FB0FBDF643FFF792
:101AE00031FF002E40CF06D0DFF8900506431E439D
:101AF00000F02AFB0FBDF6430BE05A1B000000006C
:101B0000096D6F76776D6F76742C0FB5330040CF0B
:101B10001B02300040CFFFF783FF4FF6FF7110EA42
:101B2000014001D0FFF798FF0FBD0FB5013630001F
:101B300040CF0023FFF774FFFFF78EFF06E00FB5DD
:101B4000013647F8046D0026FFF7B0FF47F8046D33
:101B500044F2807600F0CEFA0FBDC01B00000000FA
:101B60000563616C6C2C0FB5330000F01CFE300077
:101B700040CF1B1A043BDFF808151940002906D096
:101B8000DFF80025914202D0BDE80F40D7E740CFF3
:101B90005B08DFF8F40440F2FF7119400843DB0AE8
:101BA00040F2FF311940090408439B0A13F0010178
:101BB0008906084347F8046D060000F0C5FA0FBD1A
:101BC000F61B00000000086C69746572616C2C00E3
:101BD00008B547F8046D4FF6470600F08BFA47F852
:101BE000046D46F6045600F085FA47F8046D0626A3
:101BF000FFF75CFF08BD1A1C000000000663726559
:101C00006174650000B500F033F841F63740804755
:101C100047F8046DBEF1010600BD621C0000200003
:101C200005646F65733E41F63740804747F8046DA1
:101C3000BEF10106704747F8046DBEF101064FF092
:101C400000521368DFF8441409680220084000D0ED
:101C5000023102311160FFF768FF136000F0B7F93D
:101C600000BDA41C00000000073C6275696C647331
:101C700000B500F049FB00F096FD0220064040CF81
:101C800004D047F8046D362600F034FA47F8046DA6
:101C90004BF2005600F02EFA47F8046D0A2600F0C9
:101CA00096FA00BDB01C00005000035B275D03E006
:101CB000C81C00000000012700B501F026F800F064
:101CC00014FD300040CF00BD061D0000300008703C
:101CD0006F7374706F6E650000B5FFF7EDFF102134
:101CE00001400DD12021014005D0FFF771FF47F8D9
:101CF000046DE74E04E0FFF76BFF47F8046DE54E17
:101D0000FFF731FF00BD5C1D0000000007696E6C2D
:101D1000696E652C00B54BF200514BF6005244F24F
:101D200070733088884208D0904208D0984206D01C
:101D300047F8046D060000F0DDF90236F1E740CF08
:101D400000BD0EB44BF6005244F2707301880230AD
:101D5000914201D09942F9D10EBC7047721D00002A
:101D60000000047265742C0047F8046D4BF60056B1
:101D7000C0E1801D00003000046578697400F3E75D
:101D8000981D00003000077265637572736547F82F
:101D9000046DBE4E3668E6E6B01D00008100057396
:101DA0007461746547F8046DBB4E70470000000015
:101DB000C21D00000000015DB7480021C943016059
:101DC0007047D21D00001000015BB3480021016084
:101DD0007047FA1D00000000013A00B5AF480760E7
:101DE00000F092FA47F8046D4BF2005600F082F9C9
:101DF000A9480021C943016000BD421E0000300017
:101E0000013B00B5A5480168B9420ED0FFF755FC6B
:101E10001520537461636B206E6F742062616C6176
:101E20006E6365642E0A01F0F6BA47F8046D4BF64E
:101E3000005600F05FF900F0CAF8974800210160F1
:101E400000BD561E00000000076578656375746567
:101E5000300040CF87466E1E0000100009696D6D8E
:101E600065646961746547F8046D1026E2E0841EBC
:101E70000000500006696E6C696E650047F8046DDD
:101E80002026D7E09E1E000010000B636F6D706966
:101E90006C656F6E6C7947F8046D3026CAE0B81E29
:101EA000000050000A302D666F6C6461626C650042
:101EB00047F8046D4026BDE0D21E000050000A31F4
:101EC0002D666F6C6461626C650047F8046D412695
:101ED000B0E0EC1E000050000A322D666F6C6461A9
:101EE000626C650047F8046D4226A3E0061F0000FF
:101EF00050000A332D666F6C6461626C650047F8B0
:101F0000046D432696E0201F000050000A342D6621
:101F10006F6C6461626C650047F8046D442689E06B
:101F20003A1F000050000A352D666F6C6461626CC8
:101F3000650047F8046D45267CE0541F0000500002
:101F40000A362D666F6C6461626C650047F8046D3B
:101F500046266FE06E1F000050000A372D666F6C3A
:101F60006461626C650047F8046D472662E09E1F5D
:101F70000000000008636F6E7374616E740000B53A
:101F800000F0C2F9FFF724FE47F8046D44F27076C2
:101F900000F0B0F8FFF78CFF00F019F800BDC01F8B
:101FA000000000000932636F6E7374616E7400B5D7
:101FB00000F0AAF939683E600E46FFF709FEE1E736
:101FC00024200000000006736D756467650000B58D
:101FD0004FF0005001684FF0005291421CD202397C
:101FE0000A884FF6FF739A4204D147F8046D002621
:101FF00000F080F800F06CF82948006847F8046D9C
:1020000006002849096804314FF000521368116036
:1020100000F070F8136000BD00F05AF847F8046D46
:10202000002608E0A8200000000008736574666CB4
:102030006167730000B54FF0005001684FF0005227
:10204000914205D2164801683143016040CF00BD7E
:10205000320040CF13480068043001884FF6FF7308
:10206000994201D1110000E01143018000BD000040
:10207000000040F20000C0F200005FF000007FF0BE
:102080000100C0FF0000C0FF00F800F014000020B5
:10209000141D0000661B0000D84F00201000002017
:1020A0002000002004000020C4200000410007613F
:1020B0006C69676E6564012030403618022030403C
:1020C00036187047EA200000000005616C69676EF1
:1020D00000B54FF0005001680220014004D047F8DD
:1020E000046D002600F006F800BD24210000000069
:1020F00002682C000FB5B6B24FF0005001684FF0E7
:102100000052914205D247F8046D0E00FEF715FF0C
:1021100002E0320040CF0A8047F8046D022600F04A
:1021200056F80FBD3E2100000000012C00B547F815
:10213000046DFFF7DFFF360CFFF7DCFF00BD5A210F
:1021400000000000033E3C2C00B547F8046D360C3F
:10215000FFF7D0FFFFF7CEFF00BDC2210000000057
:1021600007737472696E672C07B5FF21314040CF49
:10217000300040CF002905D147F8046D0026FFF755
:10218000B9FF07BD47F8046D067836020E43FFF726
:10219000B1FF0130013902290AD347F8046D4678AE
:1021A000360202781643FFF7A5FF02300239F2E744
:1021B000002900D107BD47F8046D0678FFF79AFFA4
:1021C00007BD22220000000005616C6C6F744FF0A7
:1021D000005001684FF00052914210D2320040CFBF
:1021E00089184FF48032914219D3FFF766FA0B46F3
:1021F0006C6173682066756C6C0A01F00CB9320072
:1022000040CF8918384A1268914208D3FFF755FA2F
:102210000952616D2066756C6C0A01F0FCB80160B2
:1022200070474E22000000000D636F6D70696C6591
:10223000746F72616D3F47F8046D00264FF00050D7
:1022400000684FF0005188424DD3F6437047722228
:10225000000000000C636F6D70696C65746F7261D3
:102260006D004FF0005000684FF00051884213D3CA
:102270007047F822000000000E636F6D70696C6596
:10228000746F666C617368004FF0005000684FF027
:102290000051884200D270471448154902680B6803
:1022A0000A6003604FF00050124902680B680A6030
:1022B00003600D480068834215D300B5FFF7FDF9B0
:1022C00023205661726961626C657320636F6C6C68
:1022D00069646520776974682064696374696F6EE6
:1022E0006172790A00BD70472400002004000020BC
:1022F0001C00002018000020EE2300000000082829
:10230000637265617465290000B500F0FEFC002E63
:102310000ED1FFF7D2F91520437265617465206E06
:1023200065656473206E616D6520210A01F073B8E4
:10233000386847F8046D043F386000F0A5F940CFD5
:10234000002E40CF11D0386847F8046D043F386044
:10235000FFF7B3F9095265646566696E6520FFF79A
:1023600008FAFFF7AAF9022E2000FFF7B1FE00F0ED
:102370001AFA4FF0005000684FF0005188421ED208
:102380008F480021016047F8046D0626FFF71FFF04
:10239000FEF77DFAFFF7E8FE8A4801680A684FF009
:1023A000FF339A4208D14FF000521368116047F88A
:1023B000046DFFF7BBFE1360066040CF11E081485B
:1023C00047F8046D0668FFF7B1FE47F8046D4FF655
:1023D000FF76FFF78FFE7B48310040CF0160FFF7AB
:1023E000C3FE4FF0005001687748016000BD06242D
:1023F00000000000087661726961626C650047F850
:10240000046D012613E01E240000000009327661ED
:10241000726961626C6547F8046D022607E0FC246E
:1024200000000000096E7661726961626C6500B53A
:10243000FFF76AFF4FF0005001684FF000529142E1
:1024400034D20F200640B20060480168891A604A01
:1024500091420BD2FFF731F90F4E6F7420656E6F0A
:102460007567682052414D0A00F0D5BF016047F8FA
:10247000046D0E00FFF7ACFB47F8046D44F2707674
:10248000FFF738FE300040CF0200002805D00E6074
:102490000431FFF74BFE0138F9D147F8046D80266F
:1024A0001643FFF7C7FDFFF792FD00BD00F07BF973
:1024B0000220064040CF04D147F8046D3626FFF7CE
:1024C00019FE47F8046D434EFFF73EFE47F8046DD2
:1024D000414EFFF739FE47F8046D44F27076FFF77E
:1024E00009FE300040CF002803D0FFF71FFE01385F
:1024F000FBD1FFF7DDFCFFF76AFD00BDDC25000026
:102500000000076275666665723A00B5FFF7FCFE6B
:102510000120304036180220304036184FF000506D
:1025200001684FF00052914228D228480168891B67
:10253000274A91420BD2FFF7C0F80F4E6F74206507
:102540006E6F7567682052414D0A00F064BF0160EC
:1025500047F8046D0E00FFF73BFB47F8046D44F2AB
:102560007076FFF7C7FDFFF7E1FD47F8046D40F215
:102570004016FFF75FFDFFF72AFD00BD00F013F9DD
:102580000220064040CF04D147F8046D3626FFF7FD
:10259000B1FD47F8046D0F4EFFF7D6FD47F8046D07
:1025A0000D4EFFF7D1FD47F8046D44F27076FFF74A
:1025B000A1FDFFF70CFEFFF77BFCFFF708FD00BD58
:1025C000200000200400002014000020240000202F
:1025D000300300203E60043F02367E460E26000097
:1025E00000000F64696374696F6E6172797374615E
:1025F00072744FF0005000684FF0005147F8046DBE
:10260000884201D2EA4E7047EA4E366870474A2641
:10261000000000000E64696374696F6E6172796E08
:102620006578740003B531684FF0FF30814207D000
:102630008879FF2804D00E0047F8046D002603BDFA
:1026400047F8046D0026F64303BD7C260000000019
:102650000A736B6970737472696E67003178013147
:1026600001220A4089187618704706B401780131B2
:1026700001220A408918401806BC70470027000054
:1026800000000466696E64003FB500220023350037
:1026900040CF340040CFFFF7ACFF4FF6FF70B1885A
:1026A000884218D047F8046D0636FFF742F847F81D
:1026B000046D260047F8046D2E00FEF774FF002E0F
:1026C00040CF08D0B01DFFF7D0FF02000B004FF045
:1026D0000050824204D2FFF7A5FF300040CFDCD08B
:1026E000160047F8046D1E003FBD00B53100386884
:1026F000FFF7CAFF3A68002A01D100F05DFD00BD76
:1027000060270000000006636A756D702C003200BF
:1027100040CF310040CF8B1B043B6FF0FE011940CE
:1027200000290ED06FF0FF0081420AD0FEF7C5FFEE
:102730000D4A756D7020746F6F206661720A00F02B
:102740006ABE5B10FF210B40134330001E0000B532
:102750004FF0005213681060FFF7CCFC136000BD0F
:102760009A2700000000056A756D702C310040CF7B
:10277000300040CF0B1A043B8F491940002902D08A
:102780008E4A9142D2D15B1040F2FF72134053F453
:10279000604347F8046D1E00D9E7B227000000002F
:1027A00004686572650047F8046D4FF0005636689E
:1027B0007047AE28000000000D666C61736876619A
:1027C000722D6865726547F8046D7D4E36687047F6
:1027D00000B547F8046D42F60066FFF78BFC47F83A
:1027E000046D4CF64076FFF785FC00BDDBE700B5D5
:1027F00000F03AF839683E600E4647F8046D4DF235
:102800000016FFF784FF00BD00B500F02DF8396811
:102810003E600E4647F8046D4DF20076FFF777FFF5
:1028200000BD00B5FFF7D4FF00F01EF839683E6028
:102830000E4647F8046D4DF20006FFF768FF00BD35
:1028400000B500F011F839683E600E46FFF78EFFC4
:1028500000BD00B5FFF7BCFFFFF7A5FF47F8046D0B
:102860000226FFF7B4FC00BD00B5FFF79CFF47F858
:10287000046D0226FFF7ABFC00BD00B5FFF793FF28
:10288000FFF774FF00BD00B5FFF78DFF47F8046D3B
:102890004DF20006FFF73BFF00BD00B5FFF783FFD9
:1028A00047F8046D4DF20016FFF731FF00BDEA282E
:1028B00000003000047468656E00052E01D140CF21
:1028C000DBE7022E01D140CFDDE7FEF7F6FE17531E
:1028D00074727563747572657320646F6E277420EB
:1028E0006D617463680A00F096BD14290000300021
:1028F00004656C73650000B5022EE6D140CFFFF78A
:10290000B3FF39683E600E46FFF7BDFF47F8046D20
:10291000052600BD2C29000030000269660000B5C4
:10292000FFF797FF47F8046D022600BD522900000B
:1029300030000672657065617400042EC5D140CF09
:1029400039683E600E4600B5FFF77AFFFFF79BFF40
:1029500000BD6E2900003000057768696C65012EA6
:10296000B3D140CF00B5FFF7DAFF023600BD8229B0
:102970000000300005756E74696C012EA5D140CF42
:102980004FE796290000300005616761696E012EEE
:102990009BD140CF54E7C429000030000562656731
:1029A000696E00B5FFF722FF47F8046D012600BDF0
:1029B000500100000400002001F8FFFF00F8FFFFB5
:1029C00024000020D42900002000016B47F8046D8A
:1029D000029E7047E42900002000016A47F8046D58
:1029E000009E7047F42900002000016947F8046D3B
:1029F00026007047322A00003000056C656176655C
:102A000000B5D94801683B00043F1A68043B1A60CE
:102A100008338B42F9D103B4FFF726FF03BC330020
:102A200040CF04390B60016004390A6801320A6042
:102A300000BD442A0000200006756E6C6F6F7000A8
:102A400030BC70477C2A00003000052B6C6F6F7023
:102A5000032E00D039E740CF00B547F8046DC34ED0
:102A6000FFF758F9FFF7D0FE1AE014F10044641B99
:102A7000A41940CF2C44A4F100447047BE2A0000A2
:102A80003000046C6F6F7000032E00D01DE740CF44
:102A900000B547F8046DB64EFFF73CF9FFF7A7FE07
:102AA00000F019F9B048310040CF016047F8046DDB
:102AB000B04EFFF72FF900BD0134AC427047062B32
:102AC0000000780002646F0000B547F8046DAA4E5C
:102AD000FFF720F9A448016847F8046D0E0047F895
:102AE000046D00260760FFF781FE47F8046D03269A
:102AF00000BD00B500F02FF8ECE730B4340040CF53
:102B0000350040CF7047A02B00007800033F646F72
:102B100000B547F8046D984EFFF7FCF847F8046DD0
:102B200044F2AC26FFF7E6FA8F48016847F8046DD7
:102B30000E00FFF799FE013647F8046D01268A481A
:102B40000760FFF753FE47F8046D032600BD00B58C
:102B500000F001F8E2E700B547F8046D4BF23046AB
:102B6000FFF7C8FA47F8046D0426FEF79FFF013B04
:102B700008D047F8046D0526FEF798FF013B00F0EA
:102B800023FC00BD47F8046D3526FFF7B3FA47F87C
:102B9000046D4CF64076FFF7ADFA00F015FC00BD71
:102BA000BA2B0000300004636173650047F8046DC0
:102BB000002647F8046D08267047D02B000030002F
:102BC000033F6F666D4809E0013EB64140CF704754
:102BD000762C00007800026F66006948082E00D04D
:102BE00073E640CF00B547F8046D0600FFF792F892
:102BF000FFF73AFE39683E600E46013647F8046D2D
:102C0000092647F8046D4CF64076FFF773FA00BDCD
:102C100000B5300040CF013B01B400F0D5FB01BC52
:102C2000082E00D051E640CF47F8046D0600FF2182
:102C30003140B14205D14FF438510E43FFF75AFAF3
:102C4000D6E7FEF77FFE002E40CF04D04D48064366
:102C5000FFF77AFACCE747F8046D0026FEF726FF67
:102C600047F8046D44F2B026FFF744FAC0E730009D
:102C700040CFB0427047AC2C0000300005656E6458
:102C80006F66092E00D020E640CF00B540B440CF9B
:102C9000FFF7EAFD39683E600E46FFF7FEFD47F894
:102CA000046D40BC47F8046D082600BDFE2C0000F2
:102CB000300007656E6463617365082E00D004E61A
:102CC00040CF00B547F8046D4CF64076FFF712FA96
:102CD00000F001F800BD00B5300040CF00280DD055
:102CE00003B401213140002903D0013EFFF7CBFDA1
:102CF00001E0FFF7C2FD03BC0138EFE700BD122D74
:102D00000000000005746F6B656E47F8046D2026A7
:102D100005E08C2D0000000005706172736510B530
:102D2000FEF715FC310040CF300040CF164A126844
:102D30008418202E07D191420FD0835CB34202D178
:102D400001328418F7E7914207D0835C0132B34225
:102D5000F9D18618361B013E01E08618361B043F68
:102D60003C600948026010BD0C0000206A2A000087
:102D7000B82A0000402A0000FA2A0000C82B0000F0
:102D80006E2C0000000FB6F1E44F0020CA2D0000A9
:102D90000000056469676974CF4B1B68303E0BD334
:102DA0000A2E0BD3073E0A2E06D3242E06D3203E2E
:102DB0000A2E01D3242E01D3002670479E42FBD257
:102DC00047F8046D0026F6437047D42E000000003B
:102DD000066E756D626572003FB5310040CF701EA2
:102DE0000126012204B4BC4B1B68002400250029E5
:102DF0003CD00130013902782D2A04D101B00022E3
:102E0000D24304B4F3E7232A01D10A23EFE7242AAB
:102E100001D11023EBE7252A01D10223E7E72E2A6F
:102E200001D10226E3E72C2A36D047F8046D1600BC
:102E3000FFF7B4FF002E40CF2BD047F8046D2600DB
:102E400047F8046D2E0047F8046D1E0047F8046D26
:102E500000260FB4FDF7A8FA0FBC350040CF3400B0
:102E600040CF0022A419554140CFC0E704BC002A3E
:102E700004D50022E443ED430134554133002600DC
:102E8000012B02D047F8046D2E0047F8046D1E0098
:102E90003FBD01B000263FBD2500002402260029C9
:102EA000E4D0425C01392E2AF9D047F8046D1600AF
:102EB000FFF774FF002E40CFEBD0043F3C6047F893
:102EC000046D1E000FB4FDF71EFB0FBC340040CF95
:102ED00040CFE4E7F62E00000000062E6469676923
:102EE00074000A2E01D230367047242E01D23736B4
:102EF0007047232670472C2F0000000004686F6C79
:102F00006400330040CF754801783F290DD201316C
:102F100001704018012907D0013802780130027091
:102F2000013801390129F7D1037070474C2F000097
:102F3000000005686F6C643C330040CF674801783F
:102F40003F2902D20131017043547047642F0000C1
:102F50000000047369676E00002E01D440CF7047F3
:102F60002D26CEE7782F0000000002233E005B48AC
:102F70000678013038607047902F0000000003662B
:102F8000235310B5202400F008F8013CFBD110BDFC
:102F9000B22F000000000266230000B547F8046D60
:102FA0004D4E3668FDF7ECF9FFF79BFFFFF7C4FFC6
:102FB00000BDCE2F000000000223530000B500F03A
:102FC0000AF8002EFBD138680028F8D100BDFA2F8E
:102FD00000000000012300B547F8046D3E4E36683E
:102FE00047F8046D0026FDF7ADFAFDF7DFF840CF96
:102FF000FFF777FFFFF785FF00BD0C3000000000F2
:10300000023C230035480021017070471E3000004B
:10301000000002662E0047F8046D202604E06C30A4
:103020000000000003662E6E00B510B4340040CFDF
:10303000FDF717FCFDF76DF947F8046D0026FFF763
:10304000E1FFFFF7BBFF40CF2C26FFF775FF002CF9
:1030500003D0FFF7A2FF013CFBD110BC40CFFFF72C
:103060007BFF47F8046D47F8046D1CE082300000D8
:1030700000000375642E00B5FFF7C4FFFFF79EFF45
:1030800011E0B4300000000002642E0000B5FDF72E
:10309000E8FBFDF73EF9FFF7B5FFFFF78FFFFDF700
:1030A000EAFBFFF759FFFFF762FFFEF762FBFEF74F
:1030B000B3FA00BDC6300000000002752E0047F8CC
:1030C000046D0026D7E7E03000000000012E47F82D
:1030D000046DF617DAE70000FC4F002028000020FE
:1030E000283100000000086576616C756174650028
:1030F00000B5FEF72CFA01CF01B440B440CFD5485B
:10310000016802B400210160FEF714FA00F014F81F
:10311000D04802BC016047F8046D40BC01BC043FCC
:103120003860FEF707FA00BDEE33000000000969C1
:103130006E7465727072657430B5C74887420BD97A
:10314000FEF7BBFA10537461636B20756E64657291
:10315000666C6F770A005EE1C04887420AD2FEF7CC
:10316000ACFA0F537461636B206F766572666C6F97
:10317000770A50E1BA4C2568002D01D13D00256049
:10318000FFF7C3FD002E02D1043740CF30BD3868B1
:1031900047F8046D043F3860FFF776FA310040CFFE
:1031A000320040CF002A13D138683100FFF714FEF7
:1031B000320040CF002AC0D1FEF7DFFAFEF77DFAD9
:1031C0000C206E6F7420666F756E642E0A0022E10B
:1031D000A44B1B68002B1DD10025256030230B401C
:1031E000302B0ED1FEF7C5FAFEF767FA122069738D
:1031F00020636F6D70696C652D6F6E6C792E0A009F
:1032000009E1043740CF47F8046D1600FEF720FEB1
:10321000FFF793FF043740CF802008400ED1EB1B0F
:103220009B08402008400FD00820084002D0002B07
:1032300000D01DE00F200840834205D347F8046DFD
:103240001600FEF705FE78E700F0BEF847F8046DBB
:10325000160010220A4002D0FEF7FAFD6DE7202288
:103260000A4002D0FEF756FD67E7FEF77CFC64E7F4
:10327000072001401000FEF764FD01291FD1012B3A
:10328000DCD1FF213140B14204D140880643FEF732
:1032900031FF52E7FEF756FB002E40CF04D04068C6
:1032A0000643FEF751FF48E747F8046D0026FEF796
:1032B000FDFB47F8046D0688FEF71CFF3DE7022979
:1032C00002D1012BBAD1EFE7032927D1012BB5D1C8
:1032D000FF213140B1420BD14FF478510E43FEF73C
:1032E00009FF043247F8046D1600FEF713FD24E7CA
:1032F000FEF728FB002E40CF04D05B490E43FEF7BB
:1033000023FFEEE747F8046D0026FEF7CFFB0232FD
:1033100047F8046D1600FEF7FDFC0EE7042918D1EE
:10332000012B8BD1330040CF002B00D105E71F22AA
:103330001A409A4205D047F8046D4688FEF7DAFE37
:10334000FBE647F8046D06889B011E43FEF7D2FE9C
:10335000F3E6052924D1012B10D147F8046D00268E
:10336000FEF7A4FB47F8046D0600FEF7D3FC47F810
:10337000046D4CF64076FEF7BDFEDEE647F8046DC0
:103380000026FEF793FB47F8046D0126FEF78EFB3F
:10339000FEF7D7FC47F8046D0600FEF7BBFCCCE651
:1033A00006290ED1012B7FF449AFFEF7CBFA002E90
:1033B00040CF3FF479AFD0F802000643FEF7C4FED9
:1033C000BBE601308047B8E600B5002B0CD0013BCE
:1033D00047F8046D1E0057F82660FEF7F9FB002B36
:1033E000F5D1043D2F0040CF0025256000BD0A34F3
:1033F0000000810009686F6F6B2D7175697447F863
:10340000046D1A4E70473E34000080340000000006
:10341000047175697400DFF858D00F4F15480A2100
:1034200001601048002101600D48016009480160F9
:1034300011480160114941600C4800688746FEF759
:1034400094F8FFF779FEFEF738F905206F6B2E0A26
:10345000F5E70000E44F002030020020300100209A
:1034600008000020D84F00200006B6F1D44F0020FD
:1034700030030020FC4F0020DC4F002068000020BB
:103480009A34000000000565696E743F47F8046DCA
:10349000EFF31086013EB6417047AA3400002000C9
:1034A0000465696E740062B67047BA34000020008B
:1034B0000464696E740072B67047D0340000200056
:1034C00004697073720047F8046DEFF30586704766
:1034D000DC3400000000036E6F7070471E35000082
:1034E000000009756E68616E646C656400B5FEF776
:1034F000E4F814556E68616E646C656420496E74FE
:10350000657272757074200047F8046DEFF30586DC
:10351000FEF746F9FEF7D1F802210A0000BD343566
:1035200000000000057265736574DFF85407DFF86A
:10353000541701606035000081000B6972712D73B2
:1035400079737469636B47F8046DDFF83C67704703
:10355000EC34000044F6D070C2F2000000688746E8
:103560008A3500008100096972712D6661756C747D
:1035700047F8046DDFF814677047EC34000044F638
:10358000CC70C2F2000000688746BA3500008100A6
:103590000E6972712D636F6C6C656374696F6E0078
:1035A00047F8046DDFF8E8667047EC34000044F635
:1035B000C870C2F2000000688746E2350000810052
:1035C000076972712D72746347F8046DDFF8C46681
:1035D0007047EC34000044F6C470C2F2000000688A
:1035E00087460C3600008100096972712D65787478
:1035F000693047F8046DDFF8A0667047EC340000CE
:1036000044F6C070C2F200000068874636360000FB
:103610008100096972712D657874693147F8046D0C
:10362000DFF878667047EC34000044F6BC70C2F2F4
:1036300000000068874660360000810009697271E9
:103640002D657874693247F8046DDFF85466704769
:10365000EC34000044F6B870C2F2000000688746FF
:103660008A3600008100096972712D6578746933AA
:1036700047F8046DDFF82C667047EC34000044F620
:10368000B470C2F2000000688746B43600008100C2
:10369000096972712D657874693447F8046DDFF833
:1036A00008667047EC34000044F6B070C2F20000C7
:1036B00000688746DC3600008100076972712D6161
:1036C000646347F8046DDFF8E4657047EC3400008C
:1036D00044F6AC70C2F2000000688746063700006E
:1036E0008100096972712D657874693547F8046D38
:1036F000DFF8BC657047EC34000044F6A870C2F2F5
:103700000000006887463237000081000B69727143
:103710002D74696D3162726B47F8046DDFF8946542
:103720007047EC34000044F6A470C2F20000006858
:1037300087465E37000081000A6972712D74696DD9
:103740003175700047F8046DDFF86C657047EC3434
:10375000000044F6A070C2F20000006887468A3775
:10376000000081000B6972712D74696D317472678C
:1037700047F8046DDFF844657047EC34000044F608
:103780009C70C2F2000000688746B63700008100D6
:103790000A6972712D74696D3163630047F8046DB5
:1037A000DFF81C657047EC34000044F69870C2F2F4
:1037B000000000688746E0370000810008697271E8
:1037C0002D74696D320047F8046DDFF8F8647047B6
:1037D000EC34000044F69470C2F2000000688746A2
:1037E0000A3800008100086972712D74696D330018
:1037F00047F8046DDFF8D0647047EC34000044F6FD
:103800009070C2F2000000688746343800008100E2
:10381000086972712D74696D340047F8046DDFF822
:10382000AC647047EC34000044F68C70C2F20000C7
:10383000006887466038000081000A6972712D694E
:1038400032633165760047F8046DDFF884647047B1
:10385000EC34000044F68870C2F20000006887462D
:103860008C38000081000A6972712D6932633165FC
:10387000720047F8046DDFF85C647047EC340000B8
:1038800044F68470C2F2000000688746B838000031
:1038900081000A6972712D6932633265760047F8DA
:1038A000046DDFF834647047EC34000044F6807037
:1038B000C2F2000000688746E438000081000A690F
:1038C00072712D6932633265720047F8046DDFF85A
:1038D0000C647047EC34000044F67C70C2F20000C7
:1038E000006887460C3900008100086972712D73E9
:1038F0007069310047F8046DF94E7047EC340000F0
:1039000044F67870C2F2000000688746343900003F
:103910008100086972712D737069320047F8046D77
:10392000F04E7047EC34000044F67470C2F20000B0
:10393000006887465E39000081000A6972712D7542
:1039400073617274310047F8046DE74E7047EC34D0
:10395000000044F67070C2F20000006887468839A3
:10396000000081000A6972712D75736172743200F2
:1039700047F8046DDD4E7047EC34000044F66C707F
:10398000C2F2000000688746B239000081000A696F
:1039900072712D7573617274330047F8046DD44EE3
:1039A0007047EC34000044F66870C2F20000006812
:1039B0008746DC39000081000A6972712D657874D0
:1039C0006931300047F8046DCA4E7047EC3400008E
:1039D00044F66470C2F2000000688746083A0000AE
:1039E00081000C6972712D727463616C61726D007B
:1039F00047F8046DC04E7047EC34000044F6607028
:103A0000C2F2000000688746323A000081000B696C
:103A100072712D757362776B757047F8046DB74ED0
:103A20007047EC34000044F65C70C2F2000000689D
:103A300087465A3A00008100086972712D74696DD9
:103A4000350047F8046DAE4E7047EC34000044F684
:103A50005870C2F2000000688746823A0000810078
:103A6000086972712D737069330047F8046DA54EB3
:103A70007047EC34000044F65470C2F20000006855
:103A80008746AA3A00008100096972712D7561723A
:103A9000743447F8046D9C4E7047EC34000044F6D3
:103AA0005070C2F2000000688746D23A00008100E0
:103AB000096972712D756172743547F8046D934E02
:103AC0007047EC34000044F64C70C2F2000000680D
:103AD0008746FA3A00008100086972712D74696D99
:103AE000360047F8046D8A4E7047EC34000044F607
:103AF0004870C2F2000000688746223B0000810047
:103B0000086972712D74696D370047F8046D814E34
:103B10007047EC34000044F64470C2F200000068C4
:103B200087464A3B00008100096972712D757362F6
:103B3000667347F8046D784E7047EC34000044F625
:103B40004070C2F200000068874600400000FFFF9E
:103B5000182D2D2D20466C617368204469637469AB
:103B60006F6E617279202D2D2D00FDF73EFC6B48A4
:103B700085466B4F2A264FF000506849016069481E
:103B80006949016047F8046D674E684DB1884FF68A
:103B9000FF73994225D04FF480730B400AD0B01DBB
:103BA000FEF763FDFEF7CDF8038840880004034369
:103BB000ED1A16E080230B4013D00F231940890023
:103BC0006D1AB01DFEF751FDFEF7BBF847F8046D06
:103BD000060047F8046D2E0047F8046D0E00FCF750
:103BE000EFFFFEF71FFD300040CFCFD050480660FA
:103BF00040CF504805604FF480304FF480414FF67D
:103C0000FF72884204D0023803889342F9D0023010
:103C100049490860FDF751FD374D6563726973705E
:103C20002D5374656C6C6172697320322E322E34A0
:103C300020666F722053544D333246313033206248
:103C400079204D61747468696173204B6F63680AF1
:103C50003A480021016047F8046D394E47F8046D79
:103C60000426FEF711FD40CF002E03D0FEF7F0F83A
:103C7000FFF7E2BB40CFFFF7CEBB696E697400006F
:103C80000CED00E00400FA05D04F0020CC4F0020DE
:103C9000C84F0020C44F0020C04F0020BC4F002060
:103CA000B84F0020B44F0020B04F0020AC4F002090
:103CB000A84F0020A44F0020A04F00209C4F0020C0
:103CC000984F0020944F0020904F00208C4F0020F0
:103CD000884F0020844F0020804F00207C4F002020
:103CE000784F0020744F0020704F00206C4F002050
:103CF000684F0020644F0020604F00205C4F002080
:103D0000584F0020544F0020504F00204C4F0020AF
:103D1000484F0020444F0020404F00203003002037
:103D2000300200200400002050010000005000205C
:103D30001C000020240000201800002008000020A3
:103D40007A3C0000FFFFFFFFFFFFFFFFFFFFFFFFC9
:1040000018400000400008696F2D706F72747300D3
:1040100047F8046D0426704748400000000003750F
:104020002E3400B547F8046D0026FEF7EBFFFEF7CF
:10403000D2FFFEF7D0FFFEF7CEFFFEF7CCFFFEF774
:1040400096FFFDF796FB00BD704000000000037571
:104050002E3200B547F8046D0026FEF7D3FFFEF7B9
:10406000BAFFFEF7B8FFFEF782FFFDF782FB00BD47
:10407000A8400000000003682E3400B547F8046D26
:1040800044F6FC76C2F200063668FDF7DCF83968C3
:104090003E600E00FFF7C5FF44F6FC70C2F2000060
:1040A000066040CF00BD0000E04000000000036853
:1040B0002E3200B547F8046D44F6FC76C2F20006D5
:1040C0003668FDF7C0F839683E600E00FFF7C1FFA3
:1040D00044F6FC70C2F20000066040CF00BD000054
:1040E000E441000000000768657864756D7000B5F4
:1040F000FDF77EFA30B400244FF6FF7547F8046DE3
:10410000002647F8046D2600103647F8046D260097
:1041100030B4340040CF350040CF47F8046D26005E
:104120003678FF3E013EB641F64301CF06430134E7
:10413000AC42F2D130BC002E40CF3BD0FDF7BDFAEF
:10414000033A313047F8046D2600FFF796FFFDF77C
:10415000B4FA0230300047F8046D102647F8046DB9
:10416000260001CF361847F8046D2600360A01CF25
:10417000361847F8046D2600103647F8046D2600FF
:1041800030B4340040CF350040CF47F8046D2600EE
:104190003678FFF78EFF47F8046D2600367801CF9A
:1041A00036180134AC42F0D130BC7642FFF781FFC3
:1041B000FDF71EFA47F8046D102614F10044641B45
:1041C000A41940CF2C44A4F1004497D730BCFDF78C
:1041D00074FA0B3A30303030303030314646FDF72B
:1041E00007FA00BDE842000000000664756D7031FA
:1041F000360000B536F00F0647F8046DFDF7D0FA2B
:1042000047F8046D0226FDF712FA47F8046D1036E0
:1042100047F8046D7E6830B4340040CF350040CF9D
:1042200047F8046D26003678FFF743FFFDF7F4F9F1
:1042300047F8046D260016F00F06073E013EB64112
:10424000002E40CF04D047F8046D0226FDF7EFF9A9
:104250000134AC42E4D130BC47F8046D0226FDF7CE
:10426000E6F947F8046D103639683E600E0030B448
:10427000340040CF350040CF47F8046D2600367833
:1042800047F8046D202601CF861BB641F64347F858
:10429000046D2600367847F8046D7F2601CF861B13
:1042A000B64101CF0640002E40CF04D047F8046D40
:1042B0002600367802E047F8046D2E26FDF715F843
:1042C00047F8046D260016F00F06073E013EB64182
:1042D000002E40CF01D0FDF79FF90134AC42CBD185
:1042E00030BCFDF785F900BD4043000000000464C8
:1042F000756D700000B5FDF77BF947F8046D7E68B9
:1043000016F00F06002E40CF00D0103639683E6000
:104310000E0047F8046DFFF76CFF103639683E60F9
:104320000E00103E47F8046D47F8046D0026FCF7B8
:10433000C1FB002E40CFE9D0043740CF00BD0000C4
:10434000604300004000094750494F2D424153450A
:1043500047F8046D40F60006C4F2010670470000FD
:10436000784300004000084750494F2E43524C000C
:1043700047F8046D0026704790430000400008474E
:1043800050494F2E4352480047F8046D04267047A9
:10439000A84300004000084750494F2E49445200AE
:1043A00047F8046D08267047C043000040000847E6
:1043B00050494F2E4F44520047F8046D0C26704769
:1043C000D84300004000094750494F2E42535252F3
:1043D00047F8046D10267047F0430000400008477E
:1043E00050494F2E4252520047F8046D1426704730
:1043F0001044000041000362697400B547F8046D81
:10440000012639683E600E0001CFB040060000BDB5
:104410002C440000420002696F0000B539683E601C
:104420000E00360201CF064300BD000040440000EC
:10443000410003696F2300B516F01F0600BD0000A0
:104440005C440000410007696F2D6D61736B00B51E
:10445000FFF7F1FFFFF7D1FF00BD0000704400003F
:10446000410007696F2D706F727400B5360A00BD88
:1044700094440000410007696F2D6261736500B5C7
:1044800016F47066B60040F60000C4F2010036185B
:1044900000BD0000C4440000000003696F4000B587
:1044A00047F8046DFFF7EBFF0836366839683E6061
:1044B0000E00FFF7C0FF01CFF040060016F0010626
:1044C00000BD0000F0440000000004696F6321009B
:1044D00000B547F8046DFFF7BAFF39683E600E007B
:1044E000FFF7CDFF143603CF30600E0000BD000093
:1044F0001C450000000004696F73210000B547F8F7
:10450000046DFFF7A4FF39683E600E00FFF7B7FFA8
:10451000103603CF30600E0000BD000040450000A3
:10452000000003696F2100B539683E600E00013E4E
:10453000B64116F0100601CF3618FFF7DFFF00BDB9
:1045400068450000000004696F78210000B547F855
:10455000046DFFF7A4FF013EB64139683E600E00CE
:10456000FFF7E1FF00BD0000804500004000094961
:104570004D4F44452D41444347F8046D0026704794
:104580009C45000040000B494D4F44452D464C4F83
:10459000415447F8046D042670470000B8450000F8
:1045A00040000A494D4F44452D50554C4C0047F8AA
:1045B000046D082670470000D04500004000084FF9
:1045C0004D4F44452D50500047F8046D012670476B
:1045D000E84500004000084F4D4F44452D4F440032
:1045E00047F8046D052670470446000040000B4F55
:1045F0004D4F44452D41462D505047F8046D092636
:10460000704700002046000040000B4F4D4F4445CE
:104610002D41462D4F4447F8046D0D26704700008C
:104620003C46000040000A4F4D4F44452D534C4F2F
:10463000570047F8046D01267047000058460000F7
:1046400040000A4F4D4F44452D464153540047F812
:10465000046D022670470000D8460000000008697B
:104660006F2D6D6F6465210000B547F8046DFFF78D
:1046700006FF003647F8046D7E6816F008067608D7
:1046800001CF361840B440CFFFF7D5FE16F007062D
:104690000420464347F8046D0F2647F8046D7E68F2
:1046A00001CFB0400600F64347F8046D009E36681F
:1046B00001CF064003CF083F7E603960060001CF7E
:1046C000B040060001CF064347F8046D40BC03CF5D
:1046D00030600E0000BD00003C470000000009698A
:1046E0006F2D6D6F6465732100B530B40024102503
:1046F00047F8046D2600FFF780FE47F8046D7E68DA
:1047000001CF0640002E40CF0FD040B440CFFBF782
:1047100038FD36F00F0647F8046D260001CF06433A
:10472000FFF7A2FF47F8046D40BC0134AC42DFD173
:1047300030BC043740CF40CF00BD0000F44700003C
:10474000000003696F2E00B5FCF752FFFCF7B5FFC0
:104750000450494E200047F8046DFFF76CFE47F8FF
:10476000046DFEF7B4FC47F8046D0A26FCF7ABF9BC
:10477000002E40CF01D0FCF74FFFFCF79EFF055005
:104780004F52542047F8046DFFF76FFE4136FCF797
:10479000ACFDFFF774FEFCF790FF06202043524C5F
:1047A000200047F8046D3668FCF7FAFF0436FCF782
:1047B00084FF05204352482047F8046D3668FCF713
:1047C000EFFF0436FCF779FF05204944522047F8F3
:1047D000046D3668FFF751FC0436FCF76EFF0620C7
:1047E000204F4452200047F8046D3668FFF745FC1F
:1047F00040CF00BD3848000000000663686970695A
:10480000640000B547F8046D4FF2E876C1F6FF7614
:10481000366847F8046D4FF2EC76C1F6FF763668DD
:1048200047F8046D4FF2F076C1F6FF76366847F828
:10483000046D032600BD0000644800000000046809
:104840007769640000B5FFF7DCFF013E30B4002457
:10485000350040CF01CF46400134AC42FAD130BCE4
:1048600000BD000088480000000008666C617368A5
:104870002D6B620000B547F8046D4FF2E076C1F68B
:10488000FF76368800BD0000CC48000000000E66B0
:104890006C6173682D7061676573697A650000B536
:1048A00040CFFFF7E7FF47F8046D8026FCF702F9D9
:1048B000002E40CF04D047F8046D5FF4806603E01B
:1048C00047F8046D5FF4006600BD00000049000079
:1048D000000006696F2E616C6C0000B530B40024D6
:1048E000042547F8046D260047F8046D0026FFF7FD
:1048F00094FDFFF728FF0134AC42F2D130BC00BD7B
:104900001449000040000350413047F8046D002670
:10491000704700002849000040000350423047F82B
:10492000046D5FF4807670473C49000040000350FE
:10493000443047F8046D5FF44076704750490000FA
:1049400040000350413147F8046D012670470000D4
:104950006449000040000350423147F8046D40F2C2
:10496000011670477849000040000350443147F871
:10497000046D40F2013670478C490000400003503E
:10498000413247F8046D022670470000A04900003C
:1049900040000350423247F8046D5FF4817670475F
:1049A000B449000040000350413347F8046D03262A
:1049B00070470000C849000040000350423347F8E8
:1049C000046D40F203167047DC49000040000350BC
:1049D000413447F8046D042670470000F049000098
:1049E00040000350423447F8046D5FF4827670470C
:1049F000044A000040000350413547F8046D052685
:104A000070470000184A000040000350423547F844
:104A1000046D40F2051670472C4A00004000035018
:104A2000413647F8046D062670470000404A0000F2
:104A300040000350423647F8046D5FF483767047B8
:104A4000544A000040000350413747F8046D0726E0
:104A500070470000684A000040000350423747F8A2
:104A6000046D40F2071670477C4A00004000035076
:104A7000413847F8046D082670470000904A00004E
:104A800040000350423847F8046D5FF48476704765
:104A9000A44A000040000350413947F8046D09263C
:104AA00070470000B84A000040000350423947F800
:104AB000046D40F209167047CC4A000040000450D3
:104AC0004131300047F8046D0A267047E44A00007F
:104AD000400004504231300047F8046D5FF48576A1
:104AE00070470000F84A0000400004504131310096
:104AF00047F8046D0B267047104B0000400004502F
:104B00004231310047F8046D40F20B167047000047
:104B1000244B0000400004504131320047F8046D3E
:104B20000C2670473C4B00004000045042313200DC
:104B300047F8046D5FF4867670470000504B000024
:104B4000400004504131330047F8046D0D26704792
:104B5000684B0000400004504231330047F8046DB8
:104B600040F20D1670470000804B000040000450DA
:104B70004331330047F8046D40F20D2670470000C2
:104B8000944B0000400004504131340047F8046D5C
:104B90000E267047AC4B00004000045042313400F8
:104BA00047F8046D5FF4877670470000C44B00003F
:104BB000400004504331340047F8046D40F20E26A3
:104BC00070470000D84B00004000045041313500D0
:104BD00047F8046D0F267047F04B0000400004506A
:104BE0004231350047F8046D40F20F16704700005F
:104BF000084C0000400004504331350047F8046D74
:104C000040F20F2670470000244C00004000044191
:104C100046494F0047F8046D40F20006C4F2010611
:104C200070470000444C00004000094146494F2DA8
:104C30004D41505247F8046D40F20406C4F201069B
:104C400070470000604C000040000655534152542C
:104C5000310047F8046D43F60006C4F201067047C0
:104C6000804C000040000A5553415254312D4252AD
:104C7000520047F8046D43F60806C4F20106704777
:104C8000984C000040000352434347F8046D41F242
:104C90000006C4F202067047B44C00004000065201
:104CA00043432D43520047F8046D41F20006C4F21D
:104CB00002067047D44C00004000085243432D4385
:104CC0004647520047F8046D41F20406C4F202065A
:104CD00070470000F84C000040000C5243432D4147
:104CE000504231525354520047F8046D41F21006BD
:104CF000C4F2020670470000184D000040000A523E
:104D000043432D414842454E520047F8046D41F25D
:104D10001406C4F202067047384D000040000B52E2
:104D200043432D41504232454E5247F8046D41F203
:104D30001806C4F202067047584D000040000B529E
:104D400043432D41504231454E5247F8046D41F2E4
:104D50001C06C4F202067047744D00004000054670
:104D60004C41534847F8046D42F20006C4F2020673
:104D700070470000944D0000400009464C415348E4
:104D80002D41435247F8046D42F20006C4F2020678
:104D900070470000B84D00000000052D6A7461677F
:104DA00000B540F20400C4F201005FF00071026837
:104DB0000A43026000BD0000DC4D00008100086372
:104DC0006C6F636B2D687A0047F8046D44F63C768F
:104DD000C2F20006704700127A000000084E000080
:104DE000000004626175640000B547F8046D44F684
:104DF0003C76C2F20006366839683E600E0001CF8C
:104E000090FBF6F600BD0000C44E00000000053720
:104E1000324D487A00B542F20000C4F2020012217D
:104E2000016041F20000C4F202005FF480310268C8
:104E30000A43026047F8046D41F20006C4F202061C
:104E400036685FF40030064018BF4FF0FF36002E82
:104E500040CFEFD041F20400C4F2020048F2024118
:104E6000C0F21D01016041F20000C4F202005FF0D7
:104E7000807102680A43026047F8046D41F200063F
:104E8000C4F2020636685FF00070064018BF4FF0AB
:104E9000FF36002E40CFEFD044F63C70C2F2000047
:104EA0004AF20021C0F24A41016047F8046D5FF404
:104EB000E136FFF799FF43F60800C4F201000660EF
:104EC00040CF00BD244F0000000004384D487A0058
:104ED00000B541F20400C4F202000021016041F279
:104EE0000000C4F202008121016042F20000C4F21D
:104EF00002001821016044F63C70C2F2000041F249
:104F00000021C0F27A01016047F8046D5FF4E136D8
:104F1000FFF76AFF43F60800C4F20100066040CFC5
:104F200000BD0000444F00008100057469636B738D
:104F300047F8046D44F63876C2F200067047000068
:104F400000000000684F00000000072B2B7469630D
:104F50006B7300B544F63870C2F20000012102689C
:104F60005218026000BD0000C04F000000000A732C
:104F700079737469636B2D687A0000B544F6D0705C
:104F8000C2F2000044F65271016047F8046D44F625
:104F90003C76C2F20006366839683E600E0001CFEA
:104FA00090FBF6F6013E4EF21400CEF200000660D1
:104FB00040CF4EF21000CEF200000721016000BD8C
:104FC000705000000000066D6963726F730000B5D9
:104FD00047F8046D002647F8046D0026043740CFDB
:104FE00047F8046D44F63876C2F20006366847F892
:104FF000046D4EF21806CEF20006366847F8046DCE
:105000007E6847F8046D44F63876C2F200063668CA
:1050100001CF361A013EB641002E40CFDED047F810
:10502000046D4EF21406CEF2000636680136396879
:105030003E600E0001CF861B47F8046D44F63C76B7
:10504000C2F20006366847F8046D44F24026C0F20A
:105050000F0601CF90FBF6F601CF90FBF6F639680C
:105060003E600E005FF47A70464301CF361800BDF3
:10507000905000000000066D696C6C69730000B50B
:1050800047F8046D44F63876C2F20006366800BD73
:10509000C050000000000275730000B5033EFFF72A
:1050A00096FF01CF361847F8046DFFF790FF01CF48
:1050B000861BF617002E40CFF5D040CF00BD000074
:1050C000D85000000000026D730000B55FF47A70E4
:1050D0004643FFF7E2FF00BD0051000081000C6372
:1050E0002C636F6C6C656374696F6E0047F8046DB8
:1050F00044F63476C2F2000670470000000000005B
:105100005C510000000002632C0000B547F8046DFC
:1051100044F63476C2F200063668002E01D047F815
:10512000046D002E40CF10D016F0FF0639683E60A7
:105130000E00360201CF0643FCF7DCFF44F6347064
:10514000C2F200000021016007E056F4807644F6C8
:105150003470C2F20000066040CF00BD8C510000E8
:1051600000000663616C69676E0000B547F8046D66
:1051700044F63476C2F200063668002E40CF04D0E2
:1051800047F8046D0026FFF7C0FF00BDC0510000C6
:105190000000046C6973740000B5FCF729FAFDF790
:1051A00028FA47F8046D0636FCF7CFFAFCF734FA14
:1051B000FDF738FA002E40CFF3D040CF00BD0000FD
:1051C0003052000000000B636F726E657273746F73
:1051D0006E6500B5FCF74CFDFDF7E5FA47F8046D88
:1051E000FFF75DFB013E01CF0640002E40CF05D00A
:1051F00047F8046D0026FCF77DFFEDE741F63740E8
:10520000804747F8046DBEF1010647F8046D47F882
:10521000046DFFF744FB013E01CF0640002E40CF56
:1052200001D00236F1E7FCF7E3F9FBF740FF00BDE0
:105230004852000040000754494D2E43523147F870
:10524000046D0026704700006052000040000754C3
:10525000494D2E43523247F8046D04267047000032
:105260007852000040000854494D2E4449455200F0
:1052700047F8046D0C267047905200004000075418
:10528000494D2E50534347F8046D282670470000BF
:10529000A852000040000754494D2E41525247F891
:1052A000046D2C2670470000D852000000000B74DB
:1052B000696D65722D7461626C65360000B541F6EA
:1052C0001140C0F2000080476F0001020304057125
:1052D0007778790607080000FC52000000000C7483
:1052E000696D65722D6C6F6F6B75700000B5013E56
:1052F000FFF7E3FF01CF3618367800BD54530000A6
:1053000000000A74696D65722D626173650000B5F5
:10531000FFF7ECFF47F8046D47F8046D6426FBF7D0
:10532000D2FB002E40CF07D05FF48060464347F8A1
:10533000046D5FF0804609E06F3E5FF48060464395
:1053400047F8046D42F60046C4F2010601CF361854
:1053500000BD0000A853000000000C74696D657268
:105360002D656E616269740000B5FFF7BFFF47F8F5
:10537000046D47F8046D6426FBF7A5FB002E40CFB3
:1053800008D0FFF73AF847F8046D41F21C06C4F262
:10539000020608E0643EFFF730F847F8046D41F27A
:1053A0001806C4F2020600BD605400000000062B7F
:1053B00074696D65720000B547F8046DFFF7D4FF9E
:1053C00003CF3268024332600E00FFF7A0FF40B403
:1053D00040CF47F8046D360C47F8046D282647F88F
:1053E000046D009E01CF361803CF30800E0047F8C1
:1053F000046D2C2647F8046D009E01CF361803CFAC
:1054000030800E0047F8046D5FF4807647F8046D35
:105410000C2647F8046D009E01CF361803CF326882
:10542000024332600E0047F8046D202647F8046DF1
:10543000042647F8046D009E01CF361803CF306074
:105440000E0047F8046D012647F8046D002647F862
:10545000046D40BC01CF361803CF30600E0000BD94
:10546000805400000000062D74696D65720000B55F
:10547000FFF77AFF03CF3268824332600E0000BD2F
:105480002C550000000005703274696D00B547F8B6
:10549000046D47F8046D0426FBF715FB013EB64189
:1054A00040CF04D140CF47F8046D02263DE047F8D5
:1054B000046D47F8046D40F20116FBF70DFB013E49
:1054C000B64140CF04D140CF47F8046D04262CE00C
:1054D00047F8046D47F8046D0726FBF7FDFA47F817
:1054E000046D7E6847F8046D5FF48076FBF7EBFA95
:1054F00001CF0640013EB64140CF04D140CF47F82E
:10550000046D012611E047F8046D47F8046D5FF45F
:105510008376FBF7D8FA013EB64140CF04D140CFA5
:1055200047F8046D032600E040CF00BDE4550000BD
:105530000000057032636D7000B547F8046D47F8E0
:10554000046D47F8046D0426FBF7BDFA013EB64131
:1055500040CF04D140CF47F8046D00263DE047F826
:10556000046D47F8046D40F20116FBF7B5FA013EF1
:10557000B64140CF04D140CF47F8046D02262CE05D
:1055800047F8046D47F8046D0726FBF7A5FA47F8BE
:10559000046D7E6847F8046D5FF48076FBF793FA3C
:1055A00001CF0640013EB64140CF04D140CF47F87D
:1055B000046D002611E047F8046D47F8046D5FF4B0
:1055C0008376FBF780FA013EB64140CF04D140CF4D
:1055D00047F8046D022600E040CF01CF361816F0E0
:1055E000030600BDA05600000000042B70776D007C
:1055F00000B540B440CF47F8046D092647F8046D64
:10560000009EFFF731F847F8046D5FF4E156396802
:105610003E600E0001CF90FBF6F6013E360442F2EA
:105620001070064347F8046D009EFFF72FFFFFF749
:10563000C2FE47F8046D782647F8046D009EFFF718
:105640007BFF16F001060820464301CFB04006005C
:1056500047F8046D009EFFF719FFFFF758FE183654
:1056600047F8046D009EFFF767FF16F0020676000C
:1056700001CF361803CF3268024332600E0047F87C
:10568000046D102647F8046D40BCFFF7FFFEFFF7DE
:105690003EFE203603CF3268024332600E0000BD6A
:1056A000D05600000000042D70776D0000B5FFF7A4
:1056B000EDFEFFF72CFE203647F8046D1026396802
:1056C0003E600E0003CF3268824332600E0000BDA0
:1056D0000457000000000370776D00B547F8046DB3
:1056E000FFF72AFFB60039683E600E00FFF7CEFED6
:1056F000FFF70DFE01CF3618343603CF30600E00B1
:1057000000BD000020570000400004414443310028
:1057100047F8046D42F20046C4F2010670470000EB
:105720003C570000400007414443312D535247F895
:10573000046D42F20046C4F2010670475C57000057
:10574000400008414443312D4352320047F8046D74
:1057500042F20846C4F20106704700007C57000080
:10576000400009414443312D5351523347F8046DF1
:1057700042F23446C4F20106704700009857000018
:10578000400007414443312D445247F8046D42F232
:105790004C46C4F201067047B45700004000044470
:1057A0004D41310047F8046D40F20006C4F2020694
:1057B00070470000D4570000400009444D41312D8E
:1057C0004343523147F8046D40F20806C4F2020622
:1057D00070470000F457000040000B444D41312D4C
:1057E000434E4454523147F8046D40F20C06C4F263
:1057F000020670471458000040000A444D41312D04
:1058000043504152310047F8046D40F21006C4F293
:10581000020670473458000040000A444D41312DC3
:10582000434D4152310047F8046D40F21406C4F272
:1058300002067047685800000000042B6164630092
:1058400000B541F21800C4F202005FF40071026872
:105850000A43026042F20840C4F2010001210268DA
:105860000A43026000BD0000F85800000000036118
:10587000646300B547F8046D002647F8046D7E6840
:10588000FEF7F2FE47F8046DFEF7D5FD39683E607D
:105890000E00FEF7EAFD002E01D047F8046D002E41
:1058A00040CF03D0760001CF3618063642F234409E
:1058B000C4F20100066040CF42F20840C4F2010089
:1058C000012102680A43026047F8046D42F2004673
:1058D000C4F2010636680220064018BF4FF0FF36BA
:1058E000002E40CFF0D047F8046D42F24C46C4F28F
:1058F0000106366800BD00008C59000000000861F8
:105900006463312D646D610000B547F8046D0326B2
:10591000FFF751FDFFF794FFFFF7ABFF40CFFAF71A
:1059200030FC47F8046D0026FBF769F941F21400DA
:10593000C4F20200012102680A430260761040F2BC
:105940000C00C4F20200066040CF40F21400C4F222
:105950000200066040CF40F21000C4F2020042F2A2
:105960004C41C4F20101016040F20800C4F202009F
:1059700040F2A151016042F20840C4F2010040F23D
:105980000111C0F21801016000BD0000AC59000017
:105990004000085243432D424443520047F8046DEF
:1059A00041F22006C4F2020670470000C45900000C
:1059B00040000350575247F8046D47F20006C4F206
:1059C00000067047E05900004000065057522D4332
:1059D000520047F8046D47F20006C4F20006704713
:1059E000F859000040000352544347F8046D42F652
:1059F0000006C4F200067047145A00004000075227
:105A000054432D43524C47F8046D42F60406C4F249
:105A100000067047345A00004000085254432D508D
:105A2000524C4C0047F8046D42F60C06C4F20006D6
:105A300070470000545A00004000085254432D4360
:105A40004E54480047F8046D42F61806C4F20006AA
:105A500070470000745A00004000085254432D4320
:105A60004E544C0047F8046D42F61C06C4F2000682
:105A700070470000A85A00000000087274632D7778
:105A80006169740000B547F8046D41F22006C4F264
:105A9000020636680220064018BF4FF0FF36002E7F
:105AA00040CFF0D000BD00007C5B00000000042B64
:105AB0007274630000B541F21C00C4F202005FF092
:105AC000C05102680A43026047F20000C4F20000BD
:105AD0005FF4807102680A43026041F22000C4F260
:105AE00002005FF4803102688A43026041F22000C4
:105AF000C4F20200012102680A430260FFF7C2FFFC
:105B000041F22000C4F202005FF4807102680A438F
:105B1000026041F22000C4F202005FF4004102681A
:105B20000A43026047F8046D42F60406C4F2000618
:105B300036880820064018BF4FF0FF36002E40CFB1
:105B4000F0D0FFF79FFF42F60400C4F200001021DE
:105B500002680A43026042F60C00C4F2000047F6F5
:105B6000FF71018042F60400C4F2000010210268B7
:105B70008A430260FFF786FF00BD0000D05B000093
:105B80000000046E6F77210000B5FFF77BFF42F63F
:105B90000400C4F20000102102680A43026047F8C2
:105BA000046D42F61C00C4F20000068040CF360CA3
:105BB00042F61800C4F20000068040CF42F604000E
:105BC000C4F20000102102888A43028000BD000058
:105BD000345C00000000036E6F7700B547F8046D79
:105BE000002647F8046D0026043740CF47F8046DBF
:105BF00042F61C06C4F20006368847F8046D42F6E9
:105C00001806C4F20006368847F8046D7E6847F827
:105C1000046D42F61C06C4F20006368801CF361A1F
:105C2000013EB641002E40CFDED0360401CF064300
:105C300000BD0000585C0000000009696E69742D09
:105C400072696E6700B5013E39683E600E0003CF91
:105C500030600E0000BD0000785C000000000463AE
:105C60002B2B400000B547F8046D367839683E604C
:105C70000E00013600BD0000D05C0000000009727B
:105C8000696E672D7374657000B547F8046D7E68A2
:105C900001CF361847F8046D367840B440CF47F846
:105CA000046D3678013639683E600E0003CF3070DF
:105CB0000E0047F8046D367847F8046D40BC01CFFC
:105CC000064039683E600E00043601CF361800BD2C
:105CD000F85C000000000572696E672300B5FFF7ED
:105CE000C1FFFFF7BFFFFFF7BDFF40CF01CF861B0E
:105CF00001CF064000BD00001C5D000000000572E1
:105D0000696E673F00B547F8046DFFF7E7FF396834
:105D10003E600E003678FAF7D6FE00BD3C5D00000E
:105D20000000053E72696E6700B547F8046D0126F4
:105D3000FFF7AAFF03CF30700E0000BD585D0000D2
:105D400000000572696E673E00B547F8046D0226D3
:105D5000FFF79AFF367800BD745D000040000655DD
:105D600053415254320047F8046D44F20046C4F2E5
:105D700000067047945D000040000955534152549D
:105D8000322D535247F8046D44F20046C4F2000627
